:4000000000800020110000002D0300002D03000008B5054B1A6803F53F5302331A6000F009FD00F085F900BFFA46004010B5054C237833B9044B13B10448AFF30080012302
:40004000237010BD2881FF1F00000000D021000008B5064B1BB106480649AFF300800648036813B1054B03B1984708BD00000000D02100002C81FF1F0881FF1F0000000047
:40008000034B1B780BB900F0C9BD00F0EBBC00BF4481FF1F002321B101390A5C1344DBB2F9E718467047000008B50A4B00201B681968FFF7EFFF084B1B681B78181A00F0D9
:4000C000FF00984204D0BDE80840002000F068BE08BD00BF0C81FF1F1081FF1F38B5FFF7E3FF00F059FD00F02BF8FFF7C9FFB8B904460120A5B200F05DFEFFF7C1FF18B971
:400100000134652CF5D101E0642D11D10B4B402247F230501A7000F075FD43F6982005E041F2883000F06EFD40F6C41000F070FD00F01EFD00F0B0FAFEE700BFFA46004036
:400140002DE9F043DFF8DC91DFF8DC8199F800306F4F43F00E0389F8003098F800306D4E43F00E0388F800303B786B4D43F00E033B703378694C43F00E0333702B7885B062
:4001800043F00E032B7023780A2043F00E03237099F8003043F0010389F8003098F8003043F0010388F800303B7843F001033B70337843F0010333702B7843F001032B70E5
:4001C000237843F00103237000F0F4FD99F800300A2003F010038DF8003098F8003003F010038DF801303B7803F010038DF80230337803F010038DF803302B7803F0100315
:400200008DF80430237803F010038DF8053099F8003003F0FE0389F8003098F8003003F0FE0388F800303B7803F0FE033B70337803F0FE0333702B7803F0FE032B7023787F
:4002400003F0FE03237000F0B5FD99F8003003F010038DF8083098F8003003F010038DF809303B7803F010038DF80A30337803F010038DF80B302B7803F010038DF80C30FA
:40028000237803F010038DF80D3099F8003003F0F10343F0020389F8003098F8003003F0F10343F0020388F800303B7803F0F10343F002033B70337803F0F10343F0020374
:4002C00033702B7803F0F10343F002032B70237803F0F10343F00203237000231A461DF8030002A9595C20B900290CBF0221012100E001210139994001330A44062BD2B258
:40030000EDD1074B013AD2B21A7005B0BDE8F08306500040075000401A5000401B5000404481FF1F0450004005500040FEE7000008B51249124B4A1C1AD053F8106C53F84D
:400340000C0C53F8085C0022AA4200EB020403D0B45884500432F7E753F8040C0022824203D00025A5500432F9E701391033E2E701F0F2FEFFF7B2FEFEE700BF000000003B
:400380005425000008B5114A114B1A609A6842F400729A600023032B98BF0E4A4FEA830094BF52F823100C490C4A0133302B1150F1D10B4B19780B4B19700B4B1A6000F0C3
:4003C00017F80A4B00221A6008BD00BF0004FA050CED00E0000000002D0300000080FF1FBC7600400481FF1F08ED00E00081FF1FF8B572B600244E4B0021234418689A888A
:40040000063401F0D8FE2A2CF5D100221146494C00231059443420F0FF06C0B2450004EB4104AB4208D004EB030CE75C9CF801C0023307F806C0F4E70432442A0144E6D1BD
:400440003D4B3E4C1978264641F002011970197C3B4D41F002011974A3F58633633B197841F0400119703749087840F0100008702168354801606168416056F8080F716890
:4004800003C53189264656F8120F29807168283503C53189264656F81C0F29807168D83D03C531892948298054F8261F072501606168274C416027494826087840F00800D5
:4004C0000870012121702449032008801B208870062081F88002522001F5C07108701F4908781F49C0B208701E480021018005701D4D2970AE70017041711C49022008705A
:4005000091F8A10340F0010081F8A10381212170174918480978C9B201F007040909047041701549154C0A700FCB07C42380F8BDD421000000220000035001403A230000E0
:40054000C0510040C243004002510040325100400048004022430040804000400F010049A1460040044000400640004001400040CF0100496E58004076580040B0430040F7
:4005800000470000431E10B50246062B0DD8DFE803F0060E2304080A2100164B08E0164B1BE0164B04E0164B02E0002300E0154B5978187841EA0020022A04D0032A07D008
:4005C000012A15D104E0030243EA102080B210BD00BA10BD0C4B00E00C4BD8789C7859781B7840EA036040EA042040EA0140E3E710BD00BFD2FF0300C1FF0300D6FF0300BD
:40060000D4FF0300C5FF0300D8FF0300C9FF030070B50220FFF7B6FF06460320FFF7B2FF013600EB06260220FFF7ACFF0024013000022546B04209D210F8013B5A1ED2B290
:40064000FD2A1C4498BF0125E4B2F3E70220FFF799FF104A013096424FEA00234FEAD30314BFF6084FF40046B34206D203F19042127801331444E4B2F6E7064B64421B7888
:40068000E4B29C4204D1002D14BF0020062070BD062070BDC0FF03002DE9F047ADF5946D00F0FEFA10B1002000F07AFB02A800F00BFB10B1002000F073FBBD48036819687B
:4006C00000230A4622B112F8014D2344DBB2F9E742681278D31A03F0FF03934200D111B9002000F05DFBFFF793FFB24B1A78994602F0C002402A01D000283FD0002789F8D6
:40070000007000F0B7F962B6B846002692A84FF4967101AAFF2300F0DDF90028F6D1BDF80420062A40F282819DF84832012B40F07D819DF84A329DF84B5243EA052505F130
:40074000070E92AB2B4496455C79197900F26C819B79172B40F06A812B1D9BB233B10DF24722D25C013B104480B2F6E7404241EA042380B2834240F05B8107E080221A708E
:4007800000F010FB0DF5946DBDE8F0879DF849229DF84CA2A2F131030A2B00F21781DFE813F00B001A00150133008D0015019100A2003300B100F900002F00F03781002D27
:4007C00040F03481FFF724FFD0F1010038BF00208DF84C02DCE0002F00F02881012D4FF0000440F0E080BAF1030F00F2DC80FF238DF84E3203238DF84C428DF84D422546E0
:400800008DF84F320424E3E0342A12D1002F00F00D81032D40F00A81AAF140033F2B8CBF4FF490761026DDA80021324601F0C3FC05E0002F00F0FA80022D40F2F780033D78
:40084000DDA830440DF24F212A4601F0ABFCAAF140032E443F2BB6B203D800F095FA102301E04FF490739E4240F09F809DF84E429DF84D32BAF13F0F43EA042411D8B8F1EA
:40088000000F0ED141464FF490724AA801F093FC0320FF214AAA4FF4907300F02BFA4FF0010850462146DDAA334600F023FA0127002800F0898000260A2588E0002F00F003
:4008C000B58022E7002F00F0B1807419B4F5967F00F2AA80DDA8304493A92A4601F062FCA6B2002573E0002D40F0A080324A4AAB92E8030093AA83E8030082E80300012794
:40090000082465E0002F00F09180032D40F08E809DF84D329DF84E1243EA0121AAF140033F2B0AD809010023102224481044405C013A0344DBB2F8D126E04FEA0A200D1805
:400940002D0200234FF48072013A545D2344DBB2002AF9D1BAF13F0F16D800F1107008444001145C01322344202ADBB2F9D1BAF1030F09D1FF2907D1114A12789B1A114A00
:4009800012789B1A03F0FF035B428DF84C32002501241DE0FFF73CFE10B9802389F8003000F000FA42E0042512E0012700263BE00C81FF1FFA46004068230000FF7F0040CB
:4009C000D0FF0300D1FF030006468AE70525002401238DF848320022231DADF806408DF849528DF84A428DF84B229BB20DF24721C95C013B0A449BB292B2002BF6D152423A
:400A000093AB92B21A550DF24D23120A1A55E11D0DF24E2317221A5592A889B20DF10602962300F036F871E60325D0E70425CEE70825CCE708B50A4B1A7802F0C002802A6D
:400A40000CD100221A700120FFF79CFD30B10120FFF798FDBDE80840FFF792BD08BD00BFFA460040024B1878C0F30010704700BFC151004008B562B60020022100F068FBA7
:400A8000014B01221A7008BD4581FF1F012000F00BBCF8B507460E46154603EB83030220394640225C0000F0C1FB022000F0A0FB30B92CB10120013C00F07CF9A4B2F4E72D
:400AC000022000F095FB10B12E800020F8BD1020F8BD00002DE9F84303EB83035C00234B16461A7880460F469946AAB1254600F06DFB30B92DB10120013D00F05BF9ADB2CD
:400B0000F5E700F063FBA8B100F066FBFFF7BEFF002389F800300DE000F05EFB50B100F055FB38B1FFF7B2FF04E054B100F042F9013CA4B2012000F05BFB01284FF00100DC
:400B4000F3D100F055FB01280AD14146402F34BF3A46402200F0BEFB30800020BDE8F883002333801020BDE8F88300BF4581FF1F024B1A7842F080021A7070477565004052
:400B8000034B1B78DB0602D5024B1B88F8E7704764650040A86A004010B5154B154C1A7802F0C00242F00B021A70237843F001032370114B1A7842F001021A700F4A4EF677
:400BC00060231380A2F880300D4B47F230521A800022A3F2C4431A7000F034F8237843F01003237000F032F8BDE81040FFF7C8BF756500409465004095650040086A004045
:400C0000486A0040014B1880704700BF886A0040014B1880704700BF486A0040024B1878C0F30010704700BF21510040000000000230800800F0058000BF013800467FF442
:400C4000FCAF7047EFF3108072B6704780F31088704700BFAFF3008010B5012000F04EF9072805D04FF0FF3411E023789B07F9D40948022100F0E4F80228084CF5D1237871
:400C80009A0703D4012000F0A9F8F8E7002400F06FF9204610BD00BF5781FF1F2247004008B500F0BBF800F043F958B9FFF7D4FF48B900F0B3F800F03BF918B9BDE808403A
:400CC000FFF7CABF042008BD38B5044600F0A6F84CB100F02DF9054638B9054B1C6000F047F9284638BD012038BD042038BD00BF4881FF1FF8B505460F4616461C4600F049
:400D000017F9E0B922462846314600F0B3F80728044611D11A4B1A781E4612F0020F03D1012000F05BF8F5E71A78900702D51B789B0806D04FF0FF3400F01AF91DE004249F
:400D40001BE0104B28461A7839465B7800F0B6F807280446F0D13278094B910703D4012000F03CF8F7E71A789207E3D51B789B080CBF00246FF00004DEE72046F8BD00BF59
:400D8000224700405781FF1F044B1A7842F010021A701A7C42F010021A747047AC43004001BE7047024B1A7842F001021A707047F646004010B50446B4F5004F064B05D91A
:400DC0001868FFF735FFA4F50044F5E758686043BDE81040FFF72CBF1481FF1F024B1B7A5843FFF725BF00BF1481FF1F054B00F01F001B6800F1100253F8220043F822101C
:400E0000704700BF08ED00E000F01F0000F16040490100F56440C9B20170704708B5FFF711FF064B1A7842F008021A701A7C42F008021A74BDE80840FFF708BFA0430040A8
:400E400070B506460D460024E3B2AB420CD2074B1B78DB0703D40120FFF7C0FFF7E7044B1B7833550134EFE7284670BD224700402047004030B50F4B1C78A40716D50E4CB5
:400E8000B6252570D5252570022525701D7805F0020505F0FF035DB9207098B2904203D2C85C01332070F8E7072030BD042030BD092030BD224700402047004070B50D4D87
:400EC0002C78A60712D50C4CB6262670D8262670052626702D78AD070AD42070080AC9B22070217022702370072070BD042070BD092070BD22470040204700400A4A1378D7
:400F000099070CD5094BB6211970E12119700E2119701278920704D4187007207047042070470920704700BF224700402047004038B5FFF787FE0C4B197879B901250B4A11
:400F40001D7014682C400AD0146824F00104146000BF00BF00BF5D600C4600E00424FFF775FE204638BD00BF4C81FF1F0400084010B5FFF767FE094B002259681A70012900
:400F800008D107490C6844F001040C6000BF00BF00BF5A60BDE81040FFF758BE4C81FF1F04000840F8B5FFF74DFE394B01251A78022642F001021A701A7C364C42F0010262
:400FC0001A7403F5E75318331D7003F8946C13F88D2C074602F07F0203F88D2C0020FFF7FDFE2378284603F0F90323702A4B1A7802F0DF021A7023782B432370FFF7EEFEA8
:401000002820FFF7EBFE254B30461A7802F07F021A701A7802F0BF021A70237833432370FFF7DCFE2378384643F0040323701C4B00241C705C70FFF709FE1A491720FFF77B
:40104000D5FE17200721FFF7DFFE17491520FFF7CDFE15200721FFF7D7FE14491820FFF7C5FE18200721FFF7CFFE20461049FFF7BDFE20460721FFF7C7FE28460D49FFF709
:40108000B5FE28460721BDE8F840FFF7BDBE00BFA54300409443004012600040F8510040846000409B17000099170000ED1500003117000065170000184B012210B51A703F
:4010C000174B4FF400041C604FF080741C601A6002221A60134B00241C70134B01B103221A70124B124A187000231370114A01201370114A1370114A1370114A1370114A5C
:401100001370114B03221A70802203F8202CFFF78FFD0E4B04221A7010BD00BFEC81FF1F00E100E07281FF1F096000406C81FF1F7181FF1F6D81FF1F7081FF1F5C81FF1FEA
:401140006F81FF1FE581FF1F286000401260004070B5074C064623780D461BB9FFF722FF0123237030462946BDE87040FFF7A4BF5481FF1F0C4B01221A700C4A0023137089
:401180000B4A13700B4A13700B4A13700B4A13700B4A13700B4A13700B4B03221A70802203F8202C704700BFEC81FF1F7281FF1F7181FF1F6D81FF1F7081FF1F5C81FF1FF9
:4011C0006F81FF1FE581FF1F28600040014B1878704700BF7181FF1F044B1A7802F0FF001AB118780022C0B21A7070477081FF1F024B0C2202FB0030407870477881FF1FF4
:401200000138C3B2072B0CD8074A1B01DBB2985C01329B5C00F00F0043EA0020023880B270470020704700BF0C600040431EDBB2072BF0B52FD8184E0C2404FB0064E788ED
:401240001B01BFB2154DC7F50077DBB2BA421D4403D9E288C2F5007292B20C2404FB0064E7780F4C47EA12271F55D7B201341F5549B90C2202FB0060002242704179094AE4
:40128000C9B29954F0BD0024A7B29742F1D20F5D01342F70F8E7F0BD7881FF1F886000400C6000400E600040431EDBB2072B0BD8064A0C2101FB00200022427041791B0155
:4012C000034ADBB2C9B29954704700BF7881FF1F0E600040F8B5431EDBB2072B07460D46144616D8B9B11B010C4EDBB21E44FFF787FFA04228BF204684B200239AB2A242B9
:4013000003D23278EA540133F8E73846FFF7CCFF02E0002400E00C462046F8BD8860004030B51A4B1A481A8801780A4492B219491A80194BCAB21C88A4B284B1174A91428B
:401340000CD05A681278D2B201F8012B5A6801325A601A88013A92B21A80EAE7082203780F4C082B0F4B00D042B10F490D7885F080050D700F212170022101E00221217044
:4013800019700A4B02701A7030BD00BFE881FF1FE581FF1F006000406081FF1F086000405D81FF1F7281FF1F6E81FF1FE681FF1F074B02221A70074B80221A70064B0F22B6
:4013C0001A70064A00231370054A0120137070477281FF1F6E81FF1F5D81FF1FE581FF1FE681FF1F10B5154B1A78154B02F00F021988023AD2B2114489B219801149124B45
:40140000188880B278B172B1586811F8014B013AE4B204705868D2B2013058601888013880B21880EBE7094B1A70094B1A7882F080021A70074B0B221A7010BD29600040B1
:40144000E881FF1F006000406081FF1FE681FF1F6E81FF1F5D81FF1F064A06231370064A01201370054B80221A70054B00221A70704700BF7281FF1F5D81FF1F6E81FF1FC0
:40148000E681FF1F054B9A683AB19A68044910709A680988518000229A6070476081FF1FE881FF1F08B5124B1A78D2B21A701B78DBB21A0602D50F4A137008BD0220FFF754
:4014C000E1FF0D4B1B7803F06003202B05D0402B06D043B900F0C4FC04E000F013FE01E000F004FE10B9034B03221A7008BD00BF286000405D81FF1F0060004008B508494A
:40150000084B01201A8809780A4492B21A80064B00221A70FFF7B6FF044B03221A7008BDE581FF1FE881FF1F7281FF1F5D81FF1F08B50C4B1B78DBB2042B07D0062B09D021
:40154000022B0DD1BDE80840FFF7D8BFBDE80840FFF748BF0320FFF795FF034B03221A7008BD00BF7281FF1F5D81FF1F08B5054B002201201A70FFF785FF034B03221A7070
:4015800008BD00BF7281FF1F5D81FF1F08B50A4B1A7832B11978094A41F08001117000221A70074B002201201A70FFF76BFF054B03221A7008BD00BF5C81FF1F08600040AB
:4015C0007281FF1F5D81FF1F074B1B78DBB2042B05D0062B05D0022B05D1FFF7A1BEFFF7C5BFFFF7D3BF70477281FF1F10B51D4C2378DBB2DA0633D518060AD503F00F0300
:40160000012B2DD1FFF74EFF174B1B78190609D510BD5A0602D5FFF7D7FF03E09B061FD5FFF786FF23781B061AD4104B104A1B78127813430F4A13701278934210D10A4B45
:4016400008491A782078D2B2000605D41A78D2B20A700A7802F00F021B789A42EFD110BD10BD00BF286000405D81FF1F6E81FF1FE681FF1F29600040054A00231380054A7C
:40168000916819B191680B7092685380704700BFE881FF1F6081FF1F10B50F4C23889BB213B9FFF785FE14E00C4B02221A700C4B00221A70FFF7E0FF0A4B1A78013B1B7846
:4016C00043EA0223228892B29A4288BF2380FFF727FE012010BD00BF6081FF1F7281FF1F6E81FF1F0760004008B50C4B04221A700B4B80221A70FFF7BFFF0A4B01201A7856
:40170000013B1B7843EA0222074B198889B2914288BF1A80054B0B221A7008BD7281FF1F6E81FF1F076000406081FF1F5D81FF1F094B1B78094B1A7B02F00302012A03D056
:40174000DA7B82F08002DA7301225A73044B1A7802F0FE021A7070470E6000407881FF1F0B600040094B1B78094B1A7E02F00302012A03D0DA7E82F08002DA7601225A7608
:40178000044B1A7802F0FD021A7070471E6000407881FF1F0B6000407047FFF7EBBC000008B50C4B18780138C0B200F07BF90A4B0A491B78DBB200EBC3004269CB5C02EB5A
:4017C000C3035B685A6A064B1178C9B219805A6008BD00BF7181FF1F046000405E81FF1F6081FF1F08B50D4B18780138C0B200F059F90B4B0B491B78DBB200EBC30042690B
:40180000CB5C02EBC3035B68DB69597813F8022B42EA0121044A1180536008BD7181FF1F046000405E81FF1F6081FF1F10B5194C00232380184B18780138C0B200F032F9C0
:40184000164B174A1B781278DBB2D2B200EBC2004169EAB9134A127801EBC20251685A1E022A15D8104A03F10053013B127801EBC30011F83330D2B2934209D30C235A431A
:4018800041688B1858688A5A9B6860602280A36010BD00BF6081FF1F7181FF1F03600040046000405E81FF1F0260004010B53C4B3C4A1B781178DBB2090634D501321278FF
:4018C000013A052A6AD8DFE802F0101827696903354B1A78212A02D1FFF762FF07E01B78222B5BD1FFF77EFF01E0FFF79FFF2F4B1B889BB2002B51D00AE0002B4ED12C4B9C
:401900001B78002B4AD1294B01221A80294A5A60BDE81040FFF7C0BE002B3FD1234B01221A80254AF3E71278120637D4234A1278D2B20A2A0DD00B2A27D0092A2ED1FFF7CB
:4019400075FF1A4B1B889BB243B3BDE81040FFF7CBBE1BBB164B1B7803F0FF01F3B9124B144A1B78DBB21370154B14781878844201D2197005E01978012902D91278D2B246
:401980001A70BDE81040FFF767BD3BB9084B1A78012A03D81A78084BD2B2F1E7002010BD0460004000600040036000406081FF1F02600040EA81FF1FEC81FF1F0160004044
:4019C000EB81FF1F7FB5144B02466D4603F11006186859682C4603C40833B3422546F7D1BAB122231370032353700C4B13F8011B04ACC9B204EB111001F00F01214411F8A4
:401A0000101C10F8100C907002F8041F04498B42ECD104B070BD00BF70230000000100490801004930B51C4B01211C4A0C2000FB012483F87200657925B12479240658BFF4
:401A4000082000E0802018700C2000FB012210890131C0F3072003F8020C10890929C0B203F8010CD08803F11003C0B283F86800D088C0F3072083F86900D088C0B283F8EA
:401A80006600D288C2F3072283F86720CDD1044BFF221A7030BD00BF0E6000407881FF1F0A600040074B1A78074B03EBC2035B6803F108021B7A834286BF02EBC000406835
:401AC000002070476C81FF1F84230000F8B5394B1A78002A6CD018780138C0B2FFF7E2FFC368047A083303EBC404A34260D013F8082C314931488D5C805C854256D0895CAA
:401B000013F8070C884251D12D4909788A424DD113F8060C13F8056C00F07F02511E10F0800F28484FEA01114FF00C05C9B206F0030605FB020506D00127BE426F7014BF76
:401B40000D26072605E00027012E6F7014BF092605266E711C4D01266E540C25554333F8046C4219168113F8066C167113F8056C46550020D07015891448C5F30725455445
:401B800015890130EDB24554D5887930EDB24554D5880130C5F307254554D5880338EDB24554D2880130C2F30722425408339CE7F8BD00BF7181FF1F5E81FF1FE481FF1F44
:401BC000046000407881FF1F0E6000400C60004008B5064B18780138C0B2FFF763FF20B143681B7900EBC300406908BD7181FF1FF8B500210C254D434C4C013100236219FC
:401C00000929635593705370D370537113819372F0D118B1464A1370464A1370464B1A78002A00F0818018780138C0B2FFF73AFF4368017ADB79C90013F0400F3F4B1A784B
:401C400014BF42F0010202F0FE021A700122C368083303EB010E73453DD013F8065C05F07F06B24235D10C2606FB0246B6F808C033F8047C1FFA8CFCBC4538BF378113F8BC
:401C8000086C2B4FBE5D13F8077CB74221D113F8056C15F0800F4FF00C0506F0030605FB024506D00127BE426F7014BF0D26072605E00027012E6F7014BF092605266E71C6
:401CC0000C25554313F8067C6619377113F8056C66550833BFE70132092AB8D1C36803F10802114408338B420AD013F8062C0C2502F07F0205FB024213F8080C9072F1E7E2
:401D0000FFF766FF0E4B0022186001230C2101FB0341CA80098901330A44092B92B2F5D1BDE8F840FFF77EBEF8BD00BF7881FF1F5E81FF1FE481FF1F7181FF1F6F81FF1FF0
:401D40007481FF1F114B197801F07F014A1ED2B2072A19D80E4B0C2000FB01339978120141F0010199700021D9705978D2B241F0020159701B7913F0800F064B14BF8D211C
:401D80008921D154FFF768BB00207047046000407881FF1F0E60004010B51A4B1B7803F07F035A1ED2B2072A29D817490C2000FB03139978120101F0FE0199700021D97077
:401DC0001249D2B2545C04F07F045454597801F0FD01597019795B7811F0800F0C4905D0012B01D1505406E00D2303E0012B0CBF082309235354BDE81040FFF72DBB00200A
:401E000010BD00BF046000407881FF1F0C6000400E60004010B50D4B1C780D4BE4B218780138C0B2FFF73EFE43681B79A3420BD954B9084B084A19780120C9B21170074A3C
:401E40001278D2B21A7010BD002010BD046000407181FF1F5E81FF1FE481FF1F0260004038B58D4C002323808C4B1A7812F0800F8B4A127800F08A800A2A00F20A81DFE8E3
:401E800012F05A00080108010801080108010B0008017A0008017E00824B1A78012A09D1814B1A78814B03EBC2035B685B686360122311E01A78022A13D17D4B1878FFF7E4
:401EC000F1FD002800F0E580436863606368DA7863689B7843EA02232380BDE83840FFF7DBBB1B78032B22D1724B00227049D0B20D78854202D80A783AB910E01878013254
:401F00000028F8D019780B44F0E7694A6A491278097C914203D16948FFF754FD674B1A78002A00F0B6801A78D2B2228019E0BDE8384000F0E7B81A7812F0030213D0022A4D
:401F400040F0A7805E4B22801B785E4A03F07F030C2101FB03239A785B4BD2B21A7000225A706360B9E702232380584B1978564BC9B21970F4E701232380554BF1E70123CC
:401F800023804F4B534A1B781344EAE7013A0A2A7FD8DFE802F0367E527E067E7E7E0B7E2200434B1A784C4BD2B260E0404B1B7803F0FF0453B9464B1A78944265D01C7009
:401FC000464B01201870FFF713FE5EE0601EC0B2FFF768FD0028EED15BE0FFF71BFF002857D0374B01221C783D4BE4B21C703B4B1A70FFF76BFD374B1A5D3A4BD2B21A55D4
:4020000043E01B7803F00303012B32D00CD3022B3FD103F1804303F5C0431B78002B38D1BDE83840FFF7B8BE214B1B78012B30D1264B1A7802F0FD0219E01B7803F0030300
:40204000012B16D00BD3022B23D103F1804303F5C0431B78EBB9BDE83840FFF773BE144B1B78012B15D1194B1A7842F002021A700BE0134B1A7862B91B781B4A0C48DBB299
:40208000D15C007821EA0001D154BDE83840FFF7E3B9002038BD00BF6081FF1F0060004001600040036000406C81FF1F8423000002600040422400000E2500003382FF1F24
:4020C000046000407881FF1F5581FF1F6F81FF1F7181FF1F5E81FF1F5C81FF1F7081FF1F6D81FF1FE481FF1F7381FF1F034B00201B781B0644BF024B1B787047006000400F
:4021000001600040104B1B7803F00303012B0CD0022B0ED10D4B0E4A1B780C2103F07F0301FB032308339B7801E0084B1B78DBB200E00023074A1268D35C032B01D1FFF767
:40214000B5BB0020704700BF00600040046000407881FF1F7481FF1F70B50E4B0E4D0024ED1AAD101E46AC4204D056F8242090470134F8E700F0D4F9084D094B0024ED1AF6
:40218000AD101E46AC4204D056F8242090470134F8E770BD2C2500002C250000342500002C25000010B50023934203D0CC5CC4540133F9E710BD02440346934202D003F864
:4021C000011BFAE77047000078250000730000000000000010510040100040510040300000000140001000140140000800400140000A004C014000020050014020000000F0
:402200000145004006520040016500403D1401401C150140011701400119014003400140024101400242014002430140034701400348014004490140024C01400250014048
:40224000015101407E0204F0141018021C0C64107C40842D0801340138083E104020410449FF4AFF4BFF4DA04F045018542558045A045B045F01604062C06440654066C0F9
:4022800068C06AC06CC06EC094089C0EA40EAE03B008B204B401B602C020C104C5D0C602C710C82EC9FFCAFFCBFFCDAFCE0FCF04D018D280D804DA04DB04DF01E040E2C023
:4022C000E440E540E6C0E8C0EAC0ECC0EEC000100E200F021620178018141C021D201E6041204280452046804D0256A0570159025A446004778084018684C002C2A0C4A0CC
:40230000D0A5D60BD804EE0AEE0A33803640CC30A640A780A640A780A640A78008080F40C20CAE40AF80EE5057208720D440E610AC08AF4010011A01000AF00000000000B6
:402340000000100000100000000000000000000000000000C000100000100000000000000C020200020000006970122E00140101303132333435363738394142434445467A
:4023800000000000010000008C230000010000000E250000010000009C23000001000000E524000002000000BE23000001000000D023000000000000BC23000003000000B6
:4023C0000103400003000000820340000300000001000000D8230000000000000C24000000000000002400000000000000000000010000001824000001000000F724000025
:40240000410000005582FF1F9682FF1F41000000F281FF1FEE81FF1F240005FF0900A1010900A1010900150025FF7508954091020900150025FF750895408102C0C0000095
:402440000203040309042C0343007900700072006500730073002000530065006D00690063006F006E0064007500630074006F0072002A0343006F006E0066006900670029
:40248000750072006100740069006F006E002000300078003000300030003100220349006E0074006500720066006100630065002000300078003000300030003100260329
:4024C0004B0069007400500072006F006700200042006F006F0074006C006F006100640065007200000902290001010280FA090400000203000003092111010001222400A7
:4025000007050103400001070582034000011201000200000008B4043BF1000101048001F8B500BFF8BC08BC9E4670475100000085030000F8B500BFF8BC08BC9E46704719
:402540002D000000582500000881FF1F20000000780100000000000000000000C8210000CC2100000000E02EC05D00001800000000366E01000000000000000000000000B3
:40258000000000000000000000000000000000000000000000000000000000000000000000000000000000000000000000000000000000000000000000000000000000001B
:4025C00000000000000000000000000000000000000000000000000000000000000000000000000000000000000000000000000000000000000000000000000000000000DB
:40260000000000000000000000000000000000000000000000000000000000000000000000000000000000000000000000000000000000000000000000000000000000009A
:40264000000000000000000000000000000000000000000000000000000000000000000000000000000000000000000000000000000000000000000000000000000000005A
:40268000000000000000000000000000000000000000000000000000000000000000000000000000000000000000000000000000000000000000000000000000000000001A
:4026C00000000000000000000000000000000000000000000000000000000000000000000000000000000000000000000000000000000000000000000000000000000000DA
:402700000000000000000000000000000000000000000000000000000000000000000000000000000000000000000000000000000000000000000000000000000000000099
:402740000000000000000000000000000000000000000000000000000000000000000000000000000000000000000000000000000000000000000000000000000000000059
:402780000000000000000000000000000000000000000000000000000000000000000000000000000000000000000000000000000000000000000000000000000000000019
:4027C00000000000000000000000000000000000000000000000000000000000000000000000000000000000000000000000000000000000000000000000000000000000D9
:4028000000800020112800006DFE00006DFE000080B500AF0DF02EFB10B5054C237833B9044B13B10448AFF300800123237010BD8885FF1F0000000010700100084B10B579
:402840001BB108480849AFF300800848036803B910BD074B002BFBD0BDE81040184700BF00000000107001008C85FF1F0881FF1F0000000090B488B000AF78600023FB773B
:402880000023BB7700237B77544B07F10C040FCB84E80F007B68002B00F09C80504B1B78DBB2012B40D17B7F5A1C7A771A467B68134428221A707B7F5A1C7A771A467B682D
:4028C000134403221A707B7F5A1C7A771A467B68134442221A707B7F5A1C7A771A467B68134400221A707B7F5A1C7A771A467B6813444C221A707B7F5A1C7A771A467B68AB
:40290000134400221A707B7F5A1C7A771A467B68134445221A707B7F5A1C7A771A467B68134400221A700FE07B7F5A1C7A771A467B68134422221A707B7F5A1C7A771A4688
:402940007B68134403221A700023FB773FE0FB7F03F1924303F580731B783B777A7FBB7F591CB97713441A467B6813443A7F1209D2B207F120010A4412F8142C1A707A7FF2
:40298000BB7F591CB97713441A467B68134400221A707A7FBB7F591CB97713441A467B6813443A7F02F00F0207F120010A4412F8142C1A707A7FBB7F591CB97713441A464C
:4029C0007B68134400221A70FB7F0133FB77FB7F0F2BBCD92037BD4690BC704714700100B885FF1F80B582B000AF0123FB7110F015FA0346002B34D10E2010F0F3F91B4A9E
:402A00001A4B1B78DBB243F00103DBB21370052013F024F810F002FA0346FB71144B1B78DBB20F2B08D1114A104B1B78DBB223F00103DBB2137014E00C4B0C4A1278D2B297
:402A4000D2B222F00E02D2B242F00202D2B2D2B21A70064A054B1B78DBB243F00103DBB21370FB7918460837BD4680BD64500040B885FF1F90B587B002AF0023FB710023DE
:402A8000FB810023BB6062B614F000F804F0C4FA06F0B8FDAE4B1B78DBB2002B02D1AD4B01221A70AA4B1B78DBB2032B02D1082012F0D4F8A84B1B78002B02D00C2012F072
:402AC000CDF803F0B3FC04F015F800F09BFA04F01DFD05F0C9FB04F087FDA04B00221A709F48FFF7C7FE9E480EF08CFE9D4B1B78002B0AD014F01AF90A2012F0D1FF9A4B8B
:402B0000BB60BB681B78DBB2FB71FB79DBB2012B0DD114F093F914F0C5F9944B1B78002B03D008F093FE06F0B9FD0CF077FA894B1B78DBB2002B04D1FFF754FF0346002BAB
:402B400009D0844B1B78DBB2012B3DD112F076F80346002B38D1834B1B78002B34D0FB890133FB81FB89B3F5FA7F29D9FB79DBB2002B0ED10123FB7114F060F914F092F974
:402B80007A4B1B78002B0AD008F060FE06F086FD05E00023FB7114F06BF914F09DF912F0D1FA0346002B06D1FB79DBB218460021002214F0C1F86E4B07221A700023FB81F1
:402BC000012012F04BFF01E00023FB81684B1B78072B00F2908101A252F823F0FD2B00001B2C0000312C0000832C0000F72E0000FD2C00007D2D0000B92E00005D4B1B78D8
:402C0000002B03D0002014F06BF802E0012014F067F8574B01221A706EE10DF0ABFD0346012B02D1524B02221A7004F063FD63E1FB79DBB2012B11D106F0A2FE4B4B1B786D
:402C4000002B06D0FB79DBB2184602210DF0A2F90AE0022002210DF09DF905E0FB79DBB2184602210DF096F910F0E0F910F0E6F8414B00221A700CF0A3FF3D4B03221A70C0
:402C80003AE10DF0E7FB0346012B36D1FB79DBB2012B13D1354B1B78002B02D004200DF015FD02200DF012FD03F016FE03F0CCFD10F084FA2E4B06221A700AE002200DF0A7
:402CC00005FD04200DF002FD05F0D4FA284B05221A70284B1B78002B08D01D4B1B78DBB21F2B03D0012013F0FBFF02E0002013F0F7FF1A4B00221A70FEE0FDE01D4B1B783D
:402D0000002B01D004F03AFD03F002FF03F028FA05F0A0FA04F0EEFC05F024F90DF0A6FB0346002B04D10D4B1B78DBB2012B02D10F4B03221A700DF01DFD0346002B05D11C
:402D400000F0E0F90A4B07221A70D5E0D4E000BFB885FF1FA585FF1FC59AFF1FA485FF1FD09CFF1F889BFF1F008000408A9BFF1FB185FF1FC69AFF1FB085FF1F5F4B1B78C3
:402D8000002B01D004F0FAFC5D4B1B78012B1BD15B4B00221A7002200DF098FB0346DAB2584B1A70574B1B789BB2022056491A460DF046FC534B1C780123009303200121C4
:402DC000514A23460CF084FF0CF0DAFF012001214E4A04230CF01EFF03461A464C4B1A704B4B1B78002B0ED000BF01200DF058FB0346012BF9D1464B1B789BB201204349D7
:402E00001A460DF099FB434B1B78002B51D003200DF046FB0346012B01D109F06FF804200DF03EFB0346012B01D109F0A7F80DF01DFB0346012B04D0374B1B78DBB2012BC7
:402E400002D1364B03221A700DF094FC0346002B02D1324B07221A70314B1B78012B28D100F068F803461A462E4B1A702D4B1B78022B1ED02A4B00221A702A4B1B78002BA1
:402E80000FD108F0C7F8284B1B781A4613461B019B1A9B009B1A254A1344184606F0CEFB02E0224806F0CAFB08F0E6FB1E4B02221A7005F057F81FE00DF044FA10F0C6F885
:402EC0000FF0CCFF154B00221A70002013F008FF174B1B78DBB2012B06D100BF11F0AEFE0346002BFAD007E000BFFFF77BFD0346002BFAD000E000BF19E600BFC69AFF1F76
:402F0000B085FF1FAE85FF1F909CFF1F489BFF1FAF85FF1F8A9BFF1FA485FF1FB185FF1FAC85FF1F899BFF1F0C81FF1F1081FF1FA585FF1F80B582B000AF0223FB71012077
:402F400013F0BEFE2E4B1B78023B072B41D801A252F823F0752F0000D32F0000D32F0000D32F0000D32F00008D2F0000A52F0000BD2F000008F01AF80346002B02D1002362
:402F8000FB7138E01E4B07221A7034E008F0EAF90346002B02D10023FB712CE0184B08221A7028E008F064FA0346002B02D10023FB7120E0124B09221A701CE008F01EFB36
:402FC0000346002B02D10023FB7114E00123FB7111E00B4B1B78012B07D0094B1B78032B03D0074B1B78042B02D10023FB7102E0034B02221A70FB7918460837BD4680BD0D
:403000000C81FF1F80B483B000AF314B00221A70304B21221A70304B00221A700023FB7106E0FB792D4A0021D154FB790133FB71FB79032BF5D92A4B1B78DBB2002B20D15D
:40304000284B284A1278D2B2D2B222F00E02D2B242F00202D2B2D2B21A70234B224A1278D2B2D2B222F00E02D2B242F00202D2B2D2B21A701D4B01221A701D4B01221A7067
:403080001FE01C4B1B4A1278D2B2D2B222F00E02D2B242F00202D2B2D2B21A70164B164A1278D2B2D2B222F00E02D2B242F00202D2B2D2B21A70114B01221A70104B0122FD
:4030C0001A7000BF0C37BD465DF8047B704700BF7F9EFF1F889EFF1F7E9EFF1F849EFF1FA585FF1F635000406250004008380A420C380A42115000401050004000240A4204
:4031000004240A4280B400AF3A4B1B78DBB2002B3DD1394B384A1278D2B2D2B222F00E02D2B242F00202D2B2D2B21A70334B334A1278D2B2D2B222F00E02D2B242F00202EB
:40314000D2B2D2B21A702E4B1B78DBB20F2B08D12C4A2C4B1B78DBB223F00103DBB2137044E0284B274A1278D2B2D2B222F00E02D2B242F00202D2B2D2B21A70214A214BFE
:403180001B78DBB243F00103DBB213702EE01E4B1D4A1278D2B2D2B222F00E02D2B242F00202D2B2D2B21A70184B184A1278D2B2D2B222F00E02D2B242F00202D2B2D2B28F
:4031C0001A70134B124A1278D2B2D2B222F00E02D2B242F00402D2B2D2B21A700C4A0C4B1B78DBB243F00103DBB21370BD465DF8047B7047A585FF1F6250004063500040BA
:40320000B885FF1F6450004010500040115000401450004080B400AF1E4B1B78DBB2002B19D11D4B1C4A1278D2B2D2B222F00E02D2B242F00202D2B2D2B21A70174B002287
:403240001A7000BF00BF00BF144B01221A7000BF00BF00BF18E0124B114A1278D2B2D2B222F00E02D2B242F00202D2B2D2B21A700C4B00221A7000BF00BF00BF094B0122D7
:403280001A7000BF00BF00BF00BFBD465DF8047B704700BFA585FF1F625000400C380A421050004004240A4280B500AF644B1B78DBB2002B40F00E81624B00221A70624BBA
:4032C000614A1278D2B2D2B222F00E02D2B242F00C02D2B2D2B21A7000BF00BF5B4B00221A7000BF00BF00BF584B01221A7000BF00BF00BF554B00221A7000BF00BF00BFF6
:40330000524B01221A7000BF00BF00BF4F4B00221A7000BF00BF00BF4C4B01221A7000BF00BF00BF494B00221A7000BF00BF00BF464B01221A7000BF00BF00BF434B00225A
:403340001A7000BF00BF00BF404B01221A7000BF00BF00BF3D4B00221A7000BF00BF00BF3A4B01221A7000BF00BF00BF374B00221A7000BF00BF00BF344B01221A7000BFDB
:4033800000BF00BF314B00221A7000BF00BF00BF2E4B01221A7000BF00BF00BF2B4B00221A7000BF00BF00BF284B01221A7000BF00BF00BF254B00221A7000BF00BF00BFB2
:4033C000224B01221A7000BF00BF00BF1F4B00221A7000BF00BF00BF1C4B01221A7000BF00BF00BF194B00221A7000BF00BF00BF164B01221A7000BF00BF00BF134B0022BA
:403400001A7000BF00BF00BF104B01221A7000BF00BF00BF0D4B00221A7000BF00BF00BF0A4B01221A7000BF00BF00BF074B00221A7000BF00BF00BF044B01221A7007E0E2
:40344000A585FF1F08380A42625000400C380A4200BF00BF00BF1E4B00221A7000BF00BF00BF1B4B01221A7000BF00BF00BF184B00221A7000BF00BF00BF154B01221A70BE
:4034800000BF00BF00BF124B00221A7000BF00BF00BF0F4B01221A7000BF00BF00BF0C4B00221A7000BF00BF00BF094B01221A7000BF00BF00BF064B00221A7000BF00BF4C
:4034C00000BF034B01221A7000BF00BF00BF0AE10C380A42624B00221A70624B614A1278D2B2D2B222F00E02D2B242F00C02D2B2D2B21A7000BF00BF5B4B00221A7000BF10
:4035000000BF00BF584B01221A7000BF00BF00BF554B00221A7000BF00BF00BF524B01221A7000BF00BF00BF4F4B00221A7000BF00BF00BF4C4B01221A7000BF00BF00BF6C
:40354000494B00221A7000BF00BF00BF464B01221A7000BF00BF00BF434B00221A7000BF00BF00BF404B01221A7000BF00BF00BF3D4B00221A7000BF00BF00BF3A4B01224E
:403580001A7000BF00BF00BF374B00221A7000BF00BF00BF344B01221A7000BF00BF00BF314B00221A7000BF00BF00BF2E4B01221A7000BF00BF00BF2B4B00221A7000BFC7
:4035C00000BF00BF284B01221A7000BF00BF00BF254B00221A7000BF00BF00BF224B01221A7000BF00BF00BF1F4B00221A7000BF00BF00BF1C4B01221A7000BF00BF00BF9C
:40360000194B00221A7000BF00BF00BF164B01221A7000BF00BF00BF134B00221A7000BF00BF00BF104B01221A7000BF00BF00BF0D4B00221A7000BF00BF00BF0A4B0122AD
:403640001A7000BF00BF00BF074B00221A7000BF00BF00BF044B01221A7000BF00BF05E000240A421050004004240A4200BF314B00221A7000BF00BF00BF2E4B01221A701B
:4036800000BF00BF00BF2B4B00221A7000BF00BF00BF284B01221A7000BF00BF00BF254B00221A7000BF00BF00BF224B01221A7000BF00BF00BF1F4B00221A7000BF00BFCD
:4036C00000BF1C4B01221A7000BF00BF00BF194B00221A7000BF00BF00BF164B01221A7000BF00BF00BF144B1B78184600F0A0F9124B1B78DBB2002B0DD1114B104A127883
:40370000D2B2D2B222F00E02D2B242F00202D2B2D2B21A700CE00B4B0A4A1278D2B2D2B222F00E02D2B242F00202D2B2D2B21A7000BF80BD04240A427F9EFF1FA585FF1F8A
:40374000625000401050004080B400AF334B1B78DBB2002B2ED1324B314A1278D2B2D2B222F00E02D2B242F00202D2B2D2B21A702C4B00221A702C4B1B78DAB22B4B1A705B
:40378000284B01221A70274B00221A70264B1B78DAB2274B1A70234B01221A70214B00221A70214B1B78DAB2224B1A701D4B01221A702DE0204B204A1278D2B2D2B222F0EF
:4037C0000E02D2B242F00202D2B2D2B21A701B4B00221A701A4B1B78DAB2144B1A70174B01221A70154B00221A70154B1B78DAB20F4B1A70114B01221A70104B00221A7060
:403800000F4B1B78DAB20B4B1A700C4B01221A7000BFBD465DF8047B704700BFA585FF1F625000400C380A4228380A42B585FF1FB685FF1FB785FF1F1050004004240A428A
:4038400020240A4280B582B000AF78601E4B1B78DBB2002B0DD11D4B1C4A1278D2B2D2B222F00E02D2B242F00C02D2B2D2B21A700CE0174B164A1278D2B2D2B222F00E02FE
:40388000D2B242F00C02D2B2D2B21A707B685A1C7A601B78184600F0CBF87B685A1C7A601B78184600F0C4F87B685A1C7A601B78184600F0BDF87B681B78184600F0B8F8CE
:4038C00000BF0837BD4680BDA585FF1F625000401050004090B583B000AF78601F4B1B78DBB2002B0DD11E4B1D4A1278D2B2D2B222F00E02D2B242F00202D2B2D2B21A704E
:403900000CE0184B174A1278D2B2D2B222F00E02D2B242F00202D2B2D2B21A707C68631C7B6000F065F9034623707C68631C7B6000F05EF9034623707C68631C7B6000F0E0
:4039400057F90346237000F053F903461A467B681A7000BF0C37BD4690BD00BFA585FF1F625000401050004090B482B000AF0346FB710024FB7903F00103002B02D023460F
:403980000133DCB2FB795B08FB71FB7903F00103002B02D023460133DCB2FB795B08FB71FB7903F00103002B02D023460133DCB2FB795B08FB71FB7903F00103002B02D0EE
:4039C00023460133DCB2FB795B08FB71FB7903F00103002B02D023460133DCB2FB795B08FB71FB7903F00103002B02D023460133DCB2FB795B08FB71FB7903F00103002B17
:403A000002D023460133DCB2FB795B08FB71FB7903F00103002B02D023460133DCB2FB795B08FB71234618460837BD4690BC704780B483B000AF0346FB715F4AFB791370F9
:403A40005E4B1B78DBB2002B58D15D4B00221A705C4B5D4A1278D2B21A70594B01221A70574B00221A70574B584A1278D2B21A70534B01221A70524B00221A70514B544AA6
:403A80001278D2B21A704E4B01221A704C4B00221A704C4B4F4A1278D2B21A70484B01221A70474B00221A70464B4B4A1278D2B21A70434B01221A70414B00221A70414BE2
:403AC000464A1278D2B21A703D4B01221A703C4B00221A703B4B424A1278D2B21A70384B01221A70364B00221A70364B3D4A1278D2B21A70324B01221A7057E03A4B002287
:403B00001A703A4B304A1278D2B21A70364B01221A70354B00221A70344B2C4A1278D2B21A70314B01221A702F4B00221A702F4B274A1278D2B21A702B4B01221A702A4B13
:403B400000221A70294B234A1278D2B21A70264B01221A70244B00221A70244B1E4A1278D2B21A70204B01221A701F4B00221A701E4B1A4A1278D2B21A701B4B01221A70D2
:403B8000194B00221A70194B154A1278D2B21A70154B01221A70144B00221A70134B114A1278D2B21A70104B01221A7000BF0C37BD465DF8047B704700010020A585FF1F30
:403BC0000C380A4208380A420020002204200022082000220C2000221020002214200022182000221C20002204240A4200240A4280B400AF5E4B1B78DBB2002B58D15D4B9D
:403C000000221A705C4B5D4A1278D2B21A70594B01221A70574B00221A70594B574A1278D2B21A70534B01221A70524B00221A70544B524A1278D2B21A704E4B01221A70C9
:403C40004C4B00221A70504B4C4A1278D2B21A70484B01221A70474B00221A704B4B474A1278D2B21A70434B01221A70414B00221A70474B414A1278D2B21A703D4B012228
:403C80001A703C4B00221A70424B3C4A1278D2B21A70384B01221A70364B00221A703E4B364A1278D2B21A70324B01221A7057E03A4B00221A70304B394A1278D2B21A7076
:403CC000364B01221A70354B00221A702C4B344A1278D2B21A70314B01221A702F4B00221A70284B2E4A1278D2B21A702B4B01221A702A4B00221A70234B294A1278D2B2D8
:403D00001A70264B01221A70244B00221A701F4B234A1278D2B21A70204B01221A701F4B00221A701A4B1E4A1278D2B21A701B4B01221A70194B00221A70164B184A12784E
:403D4000D2B21A70154B01221A70144B00221A70114B134A1278D2B21A70104B01221A70104B1B78DBB21846BD465DF8047B7047A585FF1F0C380A420020002228380A4297
:403D800004200022082000220C2000221020002214200022182000221C20002204240A4220240A420001002080B582B000AF694B1B78DBB2002B40F01F83674B664A1278CD
:403DC000D2B2D2B222F00E02D2B242F00C02D2B2D2B21A7011F070F90346FB715F4B01221A705F4B5E4A1278D2B2D2B222F00E02D2B242F00C02D2B2D2B21A70594B0022AB
:403E00001A7000BF00BF00BF564B01221A7000BF00BF00BF534B00221A7000BF00BF00BF504B01221A7000BF00BF00BF4D4B00221A7000BF00BF00BF4A4B01221A7000BFA2
:403E400000BF00BF474B00221A7000BF00BF00BF444B01221A7000BF00BF00BF414B00221A7000BF00BF00BF3E4B01221A7000BF00BF00BF3B4B00221A7000BF00BF00BF79
:403E8000384B01221A7000BF00BF00BF354B00221A7000BF00BF00BF324B01221A7000BF00BF00BF2F4B00221A7000BF00BF00BF2C4B01221A7000BF00BF00BF294B00226B
:403EC0001A7000BF00BF00BF264B01221A7000BF00BF00BF234B00221A7000BF00BF00BF204B01221A7000BF00BF00BF1D4B00221A7000BF00BF00BF1A4B01221A7000BFD2
:403F000000BF00BF174B00221A7000BF00BF00BF144B01221A7000BF00BF00BF114B00221A7000BF00BF00BF0E4B01221A7000BF00BF00BF0B4B00221A7000BF00BF00BFA8
:403F4000084B01221A7000BF00BF00BF054B00221A7009E0A585FF1F6350004008380A42625000400C380A4200BF00BF00BF604B01221A7000BF00BF00BF5D4B00221A70B0
:403F800000BF00BF00BF5A4B01221A7000BF00BF00BF574B00221A7000BF00BF00BF544B01221A7000BF00BF00BF514B00221A7000BF00BF00BF4E4B01221A7000BF00BFD8
:403FC00000BF4B4B00221A7000BF00BF00BF484B01221A7000BF00BF00BF454B00221A7000BF00BF00BF424B01221A7000BF00BF00BF3F4B00221A7000BF00BF00BF3C4B1C
:4040000001221A7000BF00BF00BF394B00221A7000BF00BF00BF364B01221A7000BF00BF00BF334B00221A7000BF00BF00BF304B01221A7000BF00BF00BF2D4B00221A70CE
:4040400000BF00BF00BF2A4B01221A7000BF00BF00BF274B00221A7000BF00BF00BF244B01221A7000BF00BF00BF214B00221A7000BF00BF00BF1E4B01221A7000BF00BF07
:4040800000BF1B4B00221A7000BF00BF00BF184B01221A7000BF00BF00BF154B00221A7000BF00BF00BF124B01221A7000BF00BF00BF0F4B00221A7000BF00BF00BF0C4B7B
:4040C00001221A7000BF00BF00BF094B00221A7000BF00BF00BF064B01221A7000BF00BF00BF034B00221A7000BF00BF02E000BF0C380A4200BF604B01221A7000BF00BF20
:4041000000BF5D4B00221A7000BF00BF00BF5A4B01221A7000BF00BF00BF574B00221A7000BF00BF00BF544B01221A7000BF00BF00BF514B00221A7000BF00BF00BF4E4B6E
:4041400001221A7000BF00BF00BF4B4B00221A7000BF00BF00BF484B01221A7000BF00BF00BF454B00221A7000BF00BF00BF424B01221A7000BF00BF00BF3F4B00221A7033
:4041800000BF00BF00BF3C4B01221A7000BF00BF00BF394B00221A7000BF00BF00BF364B01221A7000BF00BF00BF334B00221A7000BF00BF00BF304B01221A7000BF00BF6C
:4041C00000BF2D4B00221A7000BF00BF00BF2A4B01221A7000BF00BF00BF274B00221A7000BF00BF00BF244B01221A7000BF00BF00BF214B00221A7000BF00BF00BF1E4BCE
:4042000001221A7000BF00BF00BF1B4B00221A7000BF00BF00BF184B01221A7000BF00BF00BF154B00221A7000BF00BF00BF124B01221A7000BF00BF00BF0F4B00221A7062
:4042400000BF00BF00BF0C4B01221A7000BF00BF00BF094B00221A7000BF00BF00BF064B01221A7000BF00BF00BF034B00221A7000BF00BF02E000BF0C380A4200BF5B4B3A
:4042800001221A7000BF00BF00BF584B00221A7000BF00BF00BF554B01221A7000BF00BF00BF524B00221A7000BF00BF00BF4F4B01221A7000BF00BF00BF4C4B00221A70B1
:4042C00000BF00BF00BF494B01221A7000BF00BF00BF464B00221A7000BF00BF00BF434B01221A7000BF00BF00BF404B00221A7000BF00BF00BF3D4B01221A7000BF00BFEA
:4043000000BF3A4B00221A7000BF00BF00BF374B01221A7000BF00BF00BF344B00221A7000BF00BF00BF314B01221A7000BF00BF00BF2E4B00221A7000BF00BF00BF2B4B3E
:4043400001221A7000BF00BF00BF284B00221A7000BF00BF00BF254B01221A7000BF00BF00BF224B00221A7000BF00BF00BF1F4B01221A7000BF00BF00BF1C4B00221A70E0
:4043800000BF00BF00BF194B01221A7000BF00BF00BF164B00221A7000BF00BF00BF134B01221A7000BF00BF00BF104B00221A7000BF00BF00BF0D4B01221A7000BF00BF19
:4043C00000BFFB79184610F07BFE094B00221A70084B084A1278D2B2D2B222F00E02D2B242F00202D2B2D2B21A701CE30C380A4208380A4262500040674B674A1278D2B290
:40440000D2B222F00E02D2B242F00C02D2B2D2B21A7010F051FE0346FB71604B01221A705F4B5F4A1278D2B2D2B222F00E02D2B242F00C02D2B2D2B21A705A4B00221A7076
:4044400000BF00BF00BF574B01221A7000BF00BF00BF544B00221A7000BF00BF00BF514B01221A7000BF00BF00BF4E4B00221A7000BF00BF00BF4B4B01221A7000BF00BF22
:4044800000BF484B00221A7000BF00BF00BF454B01221A7000BF00BF00BF424B00221A7000BF00BF00BF3F4B01221A7000BF00BF00BF3C4B00221A7000BF00BF00BF394B69
:4044C00001221A7000BF00BF00BF364B00221A7000BF00BF00BF334B01221A7000BF00BF00BF304B00221A7000BF00BF00BF2D4B01221A7000BF00BF00BF2A4B00221A7019
:4045000000BF00BF00BF274B01221A7000BF00BF00BF244B00221A7000BF00BF00BF214B01221A7000BF00BF00BF1E4B00221A7000BF00BF00BF1B4B01221A7000BF00BF51
:4045400000BF184B00221A7000BF00BF00BF154B01221A7000BF00BF00BF124B00221A7000BF00BF00BF0F4B01221A7000BF00BF00BF0C4B00221A7000BF00BF00BF094BC8
:4045800001221A7000BF00BF00BF064B00221A7000BF00BF08E000BF1150004000240A421050004004240A4200BF604B01221A7000BF00BF00BF5D4B00221A7000BF00BFA4
:4045C00000BF5A4B01221A7000BF00BF00BF574B00221A7000BF00BF00BF544B01221A7000BF00BF00BF514B00221A7000BF00BF00BF4E4B01221A7000BF00BF00BF4B4BBB
:4046000000221A7000BF00BF00BF484B01221A7000BF00BF00BF454B00221A7000BF00BF00BF424B01221A7000BF00BF00BF3F4B00221A7000BF00BF00BF3C4B01221A707D
:4046400000BF00BF00BF394B00221A7000BF00BF00BF364B01221A7000BF00BF00BF334B00221A7000BF00BF00BF304B01221A7000BF00BF00BF2D4B00221A7000BF00BFB7
:4046800000BF2A4B01221A7000BF00BF00BF274B00221A7000BF00BF00BF244B01221A7000BF00BF00BF214B00221A7000BF00BF00BF1E4B01221A7000BF00BF00BF1B4B1A
:4046C00000221A7000BF00BF00BF184B01221A7000BF00BF00BF154B00221A7000BF00BF00BF124B01221A7000BF00BF00BF0F4B00221A7000BF00BF00BF0C4B01221A70AD
:4047000000BF00BF00BF094B00221A7000BF00BF00BF064B01221A7000BF00BF00BF034B00221A7000BF00BF02E000BF04240A4200BF604B01221A7000BF00BF00BF5D4B3B
:4047400000221A7000BF00BF00BF5A4B01221A7000BF00BF00BF574B00221A7000BF00BF00BF544B01221A7000BF00BF00BF514B00221A7000BF00BF00BF4E4B01221A70E2
:4047800000BF00BF00BF4B4B00221A7000BF00BF00BF484B01221A7000BF00BF00BF454B00221A7000BF00BF00BF424B01221A7000BF00BF00BF3F4B00221A7000BF00BF1C
:4047C00000BF3C4B01221A7000BF00BF00BF394B00221A7000BF00BF00BF364B01221A7000BF00BF00BF334B00221A7000BF00BF00BF304B01221A7000BF00BF00BF2D4B6D
:4048000000221A7000BF00BF00BF2A4B01221A7000BF00BF00BF274B00221A7000BF00BF00BF244B01221A7000BF00BF00BF214B00221A7000BF00BF00BF1E4B01221A7011
:4048400000BF00BF00BF1B4B00221A7000BF00BF00BF184B01221A7000BF00BF00BF154B00221A7000BF00BF00BF124B01221A7000BF00BF00BF0F4B00221A7000BF00BF4B
:4048800000BF0C4B01221A7000BF00BF00BF094B00221A7000BF00BF00BF064B01221A7000BF00BF00BF034B00221A7000BF00BF02E000BF04240A4200BF5D4B01221A70DF
:4048C00000BF00BF00BF5A4B00221A7000BF00BF00BF574B01221A7000BF00BF00BF544B00221A7000BF00BF00BF514B01221A7000BF00BF00BF4E4B00221A7000BF00BF90
:4049000000BF4B4B01221A7000BF00BF00BF484B00221A7000BF00BF00BF454B01221A7000BF00BF00BF424B00221A7000BF00BF00BF3F4B01221A7000BF00BF00BF3C4BD1
:4049400000221A7000BF00BF00BF394B01221A7000BF00BF00BF364B00221A7000BF00BF00BF334B01221A7000BF00BF00BF304B00221A7000BF00BF00BF2D4B01221A7085
:4049800000BF00BF00BF2A4B00221A7000BF00BF00BF274B01221A7000BF00BF00BF244B00221A7000BF00BF00BF214B01221A7000BF00BF00BF1E4B00221A7000BF00BFBF
:4049C00000BF1B4B01221A7000BF00BF00BF184B00221A7000BF00BF00BF154B01221A7000BF00BF00BF124B00221A7000BF00BF00BF0F4B01221A7000BF00BF00BFFB7914
:404A0000184610F05DFB0B4B00221A700A4B0A4A1278D2B2D2B222F00E02D2B242F00202D2B2D2B21A7000BF0837BD4680BD00BF04240A4200240A421050004080B584B02B
:404A400000AF78600023FB737B685A1C7A601B781846FEF789FF03461A46FB7B1344FB737B685A1C7A601B781846FEF77DFF03461A46FB7B1344FB737B685A1C7A601B785A
:404A80001846FEF771FF03461A46FB7B1344FB737B685A1C7A601B781846FEF765FF03461A46FB7B1344FB73FB7B03F00103DBB218461037BD4680BD80B586B000AF0346AC
:404AC0000A46FB711346BB710023BB7564237B8210F0F2FA03467B740023FB7551E1FB79002B40F0B280AE4B1B78DBB2002B5DD1AC4BAC4A1278D2B2D2B222F00E02D2B21D
:404B000042F00C02D2B2D2B21A70A64AA54B1B78DBB223F00103DBB21370A34BA24A1278D2B2D2B222F00E02D2B242F00C02D2B2D2B21A709D4B9D4A1278D2B2D2B222F025
:404B40000E02D2B242F00C02D2B2D2B21A70984B01221A70974B01221A70642010F0A0FF954B1B78DBB20F2B08D18E4A8D4B1B78DBB223F00103DBB2137014E0894B894AE8
:404B80001278D2B2D2B222F00E02D2B242F00202D2B2D2B21A70834A824B1B78DBB243F00103DBB2137064237B824EE0834B834A1278D2B2D2B222F00E02D2B242F00C022F
:404BC000D2B2D2B21A707D4A7C4B1B78DBB223F00103DBB213707A4B794A1278D2B2D2B222F00E02D2B242F00C02D2B2D2B21A70744B744A1278D2B2D2B222F00E02D2B207
:404C000042F00C02D2B2D2B21A706F4B01221A706E4B01221A70642010F042FF674B674A1278D2B2D2B222F00E02D2B242F00402D2B2D2B21A70614A604B1B78DBB243F002
:404C40000103DBB2137064237B8200237B75FFF7ABF85F4B00221A705E4BA5221A705C4800F03EFE5C4B1B7803F00F03012B01D101237B757B8A013B7B827B8A002B02D03F
:404C80007B7D002BE3D0A9233B7300237B730023BB730023FB7354233B7407F10C0207F10B031046194600F081FFFB7A03F00703012B00D062E0B1233B7300237B730023F4
:404CC000BB730023FB7300233B7407F10C0207F10B031046194600F069FFFB7A03F00703012B00D04AE0A3233B7302237B730023BB730023FB7300233B7407F10C0207F139
:404D00000B031046194600F051FFFB7A03F00703012B00D032E08B233B7314237B730023BB730323FB7340233B7407F10C0207F10B031046194600F039FFFB7A03F007031D
:404D4000012B00D01AE0BB233B7300237B730023BB730023FB7380233B7407F10C0207F10B031046194600F021FFFB7A03F00703012B00D002E00123BB7507E0FB7D013364
:404D8000FB75FA7DBB799A42FFF4A9AE7B7C184610F096F9BB7D18461837BD4680BD00BFA585FF1F64500040635000406250004008380A420C380A42B885FF1F14500040AE
:404DC000115000401050004000240A4204240A42849EFF1F7F9EFF1F889EFF1F80B584B000AF78600B46FB700023FB73244B244A1278D2B2D2B222F00E02D2B242F00C023D
:404E0000D2B2D2B21A701F4B1B781846FEF710FEFEF700FAFEF798FCFEF7FCF97868FEF711FDFB78002B03D0174B01221A7002E0154B00221A70154B00221A7000BF00BF45
:404E400000BF124B01221A7000BF00BF00BF00BF00BF0E4B00221A700D4B1B78002B09D00C4B1B78002B05D10B4B1B78002B01D10123FB73FB7B18461037BD4680BD00BF3D
:404E8000625000407F9EFF1F08380A420C380A42B585FF1FB685FF1FB785FF1F80B586B000AFBA607B600346FB730B46BB730023BB756423BB825D48FFF7C0FD0346FB7432
:404EC0007868FFF7BBFD0346BB74B868FFF7B6FD03467B74FEF768FF10F0EEF803463B740023FB7544E1FB7B002B65D1504B504A1278D2B2D2B222F00E02D2B242F00C0235
:404F0000D2B2D2B21A704A4A494B1B78DBB223F00103DBB21370474B464A1278D2B2D2B222F00E02D2B242F00C02D2B2D2B21A70414B414A1278D2B2D2B222F00E02D2B2F5
:404F400042F00C02D2B2D2B21A703C4B01221A703B4B01221A70642010F0A2FD344A344B1B78DBB243F00103DBB21370354B1B78DBB20F2B08D12E4A2D4B1B78DBB223F09B
:404F80000103DBB2137014E0294B294A1278D2B2D2B222F00E02D2B242F00202D2B2D2B21A70234A224B1B78DBB243F00103DBB213706423BB825FE0FB7B012B5CD11D4B87
:404FC0001C4A1278D2B2D2B222F00E02D2B242F00C02D2B2D2B21A70174B174A1278D2B2D2B222F00E02D2B242F00C02D2B2D2B21A70124B01221A70114B01221A700C4A0B
:405000000B4B1B78DBB243F00103DBB213700D4B1B78DBB20F2B17D1054A054B1B78DBB223F00103DBB2137023E000BF3870010064500040635000406250004008380A4263
:405040000C380A42B885FF1F524B524A1278D2B2D2B222F00E02D2B242F00202D2B2D2B21A704C4A4B4B1B78DBB243F00103DBB2137043F69823BB820023BB75464B9922A9
:405080001A70FB7C45481946FFF7A8FE0346BB75BB8A013BBB82BB8A002B02D0BB7D002BECD0BB7D002B60D03B4B8B221A70BB7C78681946FFF792FE0346BB75BB7D002BA7
:4050C00053D0354BBB221A707B7CB8681946FFF785FE0346BB75BB7D002B09D12E4BBB221A707B7CB8681946FFF778FE0346BB752B4B00221A7000BF00BF00BF284B0122D1
:405100001A7000BF00BF00BF254B00221A7000BF00BF00BF224B01221A7000BF00BF00BF1F4B00221A7000BF00BF00BF1C4B01221A7000BF00BF00BFBB7D002B15D00120EB
:4051400010F08CFC00F032F8164B00221A70124BA5221A70134800F0C3FB134B1B7803F00F03012B01D10123BB75FB7D0133FB75FA7DBB7B9A4203D2BB7D002B3FF4B3AE10
:405180003B7C18460FF09CFFBB7D18461837BD4680BD00BF645000407F9EFF1F387001000C380A42849EFF1F889EFF1F80B582B000AFFEF7F9FD164B154A1278D2B2D2B21D
:4051C00022F00E02D2B242F00C02D2B2D2B21A700FF072FF0346FB719E20FEF729FCE720FEF726FCFB7918460FF06AFF084B084A1278D2B2D2B222F00E02D2B242F00202CF
:40520000D2B2D2B21A70FEF7CFFD0837BD4680BD6250004080B586B000AFBA607B600346FB730B46BB730023BB756423BB829A48FFF704FC0346FB747868FFF7FFFB0346A5
:40524000BB74B868FFF7FAFB03467B740FF034FF03463B740023FB750CE1FB7B002B65D18E4B8E4A1278D2B2D2B222F00E02D2B242F00C02D2B2D2B21A70884A874B1B7849
:40528000DBB223F00103DBB21370854B844A1278D2B2D2B222F00E02D2B242F00C02D2B2D2B21A707F4B7F4A1278D2B2D2B222F00E02D2B242F00C02D2B2D2B21A707A4B30
:4052C00001221A70794B01221A70642010F0E8FB724A724B1B78DBB243F00103DBB21370734B1B78DBB20F2B08D16C4A6B4B1B78DBB223F00103DBB2137014E0674B674A4E
:405300001278D2B2D2B222F00E02D2B242F00202D2B2D2B21A70614A604B1B78DBB243F00103DBB213706423BB8250E0FB7B012B4DD15B4B5A4A1278D2B2D2B222F00E02FE
:40534000D2B242F00C02D2B2D2B21A70554B554A1278D2B2D2B222F00E02D2B242F00C02D2B2D2B21A70504B01221A704F4B01221A704A4A494B1B78DBB243F00103DBB2F3
:4053800013704B4B1B78DBB20F2B08D1434A434B1B78DBB223F00103DBB2137014E03F4B3E4A1278D2B2D2B222F00E02D2B242F00202D2B2D2B21A70384A384B1B78DBB214
:4053C00043F00103DBB2137043F69823BB820023BB75384B99221A70FB7C2F481946FFF7FDFC0346BB75BB8A013BBB82BB8A002B02D0BB7D002BECD0BB7D002B37D02D4B64
:405400008B221A70BB7C78681946FFF7E7FC0346BB75BB7D002B2AD0264BBB221A707B7CB8681946FFF7DAFC0346BB75BB7D002B09D1204BBB221A707B7CB8681946FFF702
:40544000CDFC0346BB75BB7D002B10D01A4B00221A70184BA5221A70174800F041FA174B1B7803F00F03012B01D10123BB75FB7D0133FB75FA7DBB7B9A4203D2BB7D002B2F
:405480003FF4EBAE3B7C18460FF01AFEBB7D18461837BD4680BD00BF3870010064500040635000406250004008380A420C380A42B885FF1F7F9EFF1F849EFF1F889EFF1F58
:4054C00080B584B000AF78600FF0F6FD0346FB73644B00221A707868FFF7B0FA0346BB73FDF7E2FEFDF796FEFEF72EF95E4B1B785B00DAB25D4B1B78DBB21343DAB25C4BD5
:405500001B789B00DBB21343DBB2DAB2594B1A70FDF780FE574B1B78022B00F04581042B00F04281012B40F07C817868FEF78AF9514B1B78DBB2002B40F08D80BB7B002B71
:4055400003D04E4B01221A7002E04C4B00221A704B4B00221A7000BF00BF00BF484B01221A7000BF00BF00BF444B00221A70444B00221A7000BF00BF00BF414B01221A7005
:4055800000BF00BF00BF3E4B00221A7000BF00BF00BF3B4B01221A7000BF00BF00BF384B00221A7000BF00BF00BF354B01221A7000BF00BF00BF324B00221A7000BF00BF4F
:4055C00000BF2F4B01221A7000BF00BF00BF2C4B00221A7000BF00BF00BF294B01221A7000BF00BF00BF264B00221A7000BF00BF00BF234B01221A7000BF00BF00BF204BAD
:4056000000221A7000BF00BF00BF1D4B01221A7000BF00BF00BF1A4B00221A7000BF00BF00BF174B01221A7000BF00BF00BF154B144A1278D2B2D2B222F00E02D2B242F06D
:405640000202D2B2D2B21A700C4B01221A700C4B01221A709FE0BB7B002B17D00A4B01221A7016E0889EFF1FB685FF1FB585FF1FB785FF1F7E9EFF1FA585FF1F08380A4270
:405680000C380A426250004000240A42754B00221A70754B00221A7000BF00BF00BF724B01221A7000BF00BF00BF6E4B00221A706D4B00221A7000BF00BF00BF6A4B01225E
:4056C0001A7000BF00BF00BF674B00221A7000BF00BF00BF644B01221A7000BF00BF00BF614B00221A7000BF00BF00BF5E4B01221A7000BF00BF00BF5B4B00221A7000BF76
:4057000000BF00BF584B01221A7000BF00BF00BF554B00221A7000BF00BF00BF524B01221A7000BF00BF00BF4F4B00221A7000BF00BF00BF4C4B01221A7000BF00BF00BF4A
:40574000494B00221A7000BF00BF00BF464B01221A7000BF00BF00BF434B00221A7000BF00BF00BF404B01221A7000BF00BF00BF3E4B3E4A1278D2B2D2B222F00E02D2B2FC
:4057800042F00202D2B2D2B21A70364B01221A70354B01221A70364B1A78364B1B781343DAB2334B1A708AE0334B1B78DBB2002B1BD1324B314A1278D2B2D2B222F00E02EA
:4057C000D2B242F00202D2B2D2B21A702C4B01221A702C4B01221A70254B1A78254B1B781343DAB2224B1A7069E0204B1F4A1278D2B2D2B222F00E02D2B242F00202D2B228
:40580000D2B21A70174B01221A70174B01221A70174B1A78174B1B781343DAB2144B1A704DE0154B1B78DBB2002B2DD1134B134A1278D2B2D2B222F00E02D2B242F0020289
:40584000D2B2D2B21A700E4B01221A700D4B01221A70074B1B7843F00703DAB2044B1A702DE000BF00240A4204240A4210500040889EFF1F7E9EFF1FA585FF1F62500040FC
:4058800008380A420C380A42114B114A1278D2B2D2B222F00E02D2B242F00202D2B2D2B21A700C4B01221A700B4B01221A700B4B1B7843F00703DAB2084B1A7000BFFB7B4A
:4058C00018460FF0FDFB00BF1037BD4680BD00BF1050004000240A4204240A42889EFF1F90B585B000AF78600FF0E6FB0346FB73854B00221A70FDF7D7FCFDF78BFCFDF73C
:4059000023FF824B1B785B00DAB2814B1B78DBB21343DAB27F4B1B789B00DBB21343DBB2DAB27D4B1A707C4B1B78013B032B00F2AD8001A252F823F049590000075A000004
:4059400049590000075A00007868FDF7C3FF734B1B78DBB2002B09D1714B00221A70714B1B78DCB26E4B01221A7008E06E4B00221A706E4B1B78DCB26B4B01221A70FDF782
:4059800049FC7868FFF75AF80346A34206D05E4B1B7843F00803DAB25B4B1A705F4B1B78DBB2002B13D1624B614A1278D2B2D2B222F00E02D2B242F00202D2B2D2B21A700F
:4059C0005C4B01221A70564B01221A7012E05A4B594A1278D2B2D2B222F00E02D2B242F00202D2B2D2B21A70544B01221A704E4B01221A70444B1A78474B1B781343DAB211
:405A0000414B1A7078E0FDF705FC002407E07B685A1C7A6000221A7023460133DCB2032CF5D93E4B1B78DBB2002B13D1404B404A1278D2B2D2B222F00E02D2B242F00202B6
:405A4000D2B2D2B21A703B4B01221A70344B01221A7012E0384B384A1278D2B2D2B222F00E02D2B242F00202D2B2D2B21A70334B01221A702C4B01221A70234B1A78264B7E
:405A80001B781343DAB2204B1A7035E0FDF7C2FB224B1B78DBB2002B13D1254B244A1278D2B2D2B222F00E02D2B242F00202D2B2D2B21A701F4B01221A70194B01221A7014
:405AC00012E01D4B1C4A1278D2B2D2B222F00E02D2B242F00202D2B2D2B21A70174B01221A70114B01221A70074B1B7843F00703DAB2054B1A7000BFFB7B18460FF0E0FADA
:405B000000BF1437BD4690BD889EFF1FB685FF1FB585FF1FB785FF1F7E9EFF1FA585FF1F0C380A4228380A4204240A4220240A426250004008380A421050004000240A426C
:405B400090B585B000AF786039600A240023FB7307E0FB7B3A68134400221A70FB7B0133FB73FB7B042BF4D97B681A780D4B1A703868FFF7B5FE631EDCB2002C05D00A4B3B
:405B80001B7803F00703072BF2D03B680433064A127842F02002D2B21A7000BF1437BD4690BD00BF7F9EFF1F889EFF1F90B583B000AF786039600A247B681A780D4B1A7096
:405BC0007B6801331846FFF77BFC631EDCB2002C05D0094B1B7803F00703072BF0D0064B1B7843F02003DAB23B681A7000BF0C37BD4690BD7F9EFF1F889EFF1F80B586B0AE
:405C000000AFF860B9607A6002200AF05FFC0346FB82BB681B889AB2FB8A13449BB29AB27B681A80BB681B881BB2FA681A44FB8A022011461A460AF003FD02200AF046FD1F
:405C4000FB8A3F2B03D8054B01221A7002E0034B00221A7000BF1837BD4680BDB485FF1F80B586B000AFF860B9607A603B600023FB820023BB820023FB8283E0B7F91630E3
:405C8000FA6813441B7803F00403002B23D0B7F91630FA68D1183B681B881BB2BA68134408461946FFF74CFF3B681B889BB205339BB29AB23B681A80FB8A01339BB2FB82A1
:405CC0003B6A1B88B7F916201BB29A425AD17B6800221A8056E03B6A1B889AB2FB8AD31A9BB2053B9BB27B82B7F91230002B1DDA0023BB8212E0B7F91430FA681344B7F92D
:405D00001610B7F914200A441146FA680A4412781A70BB8A9BB201339BB2BB82B7F91420B7F9123005339A42E5DB14E0B7F91630FA68D1183B681B881BB2BA6813440846E7
:405D40001946FFF733FF3B681B889BB201339BB29AB23B681A80B7F91230002B0EDCB7F91230002B03D17B6800221A8012E07B8A05339BB29AB27B681A800BE0FB8A05337B
:405D80009BB2FB823B6A1B88B7F916201BB29A42FFF674AF00BF1837BD4680BD80B582B000AF78600B467B8000BF01200AF078FB0346012BF9D17B88012079681A460AF0B7
:405DC000BBFB00BF0837BD4680BD00BF80B586B000AFF860B9607A600023FB820023BB827B681B881BB2002B00DA3F339B117B827B681B881AB22C4B1340002B03DA013BB8
:405E000063F03F0301339AB27B681A800023FB8210E0B7F91430FA68134418464021FFF7BDFFFB8A9BB201339BB2FB82BB8A40339BB2BB82B7F91620B7F912309A42E8DB99
:405E40001A4B1B78002B0ED0B7F91430FA681A447B681B881BB210461946FFF79FFF7B6800221A801CE00023FB8212E0B7F91630FA681344B7F91410B7F916200A44114696
:405E8000FA680A4412781A70FB8A9BB201339BB2FB827B681B88B7F916201BB29A42E5DB00BF1837BD4680BD3F000080B485FF1F80B582B002AF0C480C490D4AFFF79EFE6B
:405EC0000B4B009308480B49084A0B4BFFF7C8FE08480649084AFFF779FF012010F0F0FE00BFBD4680BD00BF8C9EFF1F809EFF1F7C9EFF1FFC9CFF1FF89CFF1F80B582B0FA
:405F000000AF0023FB710023BB7100237B71344B1B7803F00F03FB71314B1B781B09BB712F4B5B787B71FB79002B10D1BA797B7910461946FEF7C0FD0346012B03D1294BDF
:405F400001221A7048E0274B00221A7045E0FB79012B12D1BA797B7910461946224A234BFFF758F90346012B03D11E4B01221A7032E01C4B00221A702FE0FB79022B12D172
:405F8000BA797B7910461946194A184BFFF742F90346012B03D1134B01221A701CE0114B00221A7019E0FB79032B12D1BA797B79104619460C4A0F4BFEF770FF0346012BD3
:405FC00003D1084B01221A7006E0064B00221A7003E0044B00221A7000BF0837BD4680BD149FFF1FD09EFF1F2C70010028700100347001003070010080B500AF01F0B0FA76
:406000000346B3F57A7F03D90D4B4022DA7002E00B4B0022DA700B4B1B78002B0BD00A4B1B78002B03D1064B01221A7106E0044B00221A7102E0024B00221A7180BD00BF63
:40604000D09EFF1FC69AFF1F9D83FF1F80B500AF3F4B1B78DBB2012B2ED13E4B3D4A1278D2B2D2B222F00E02D2B242F00C02D2B2D2B21A70374A374B1B78DBB223F00103CB
:40608000DBB213704FF4C8700FF00AFD314B314A1278D2B2D2B222F00E02D2B242F00402D2B2D2B21A702B4A2A4B1B78DBB243F00103DBB2137046E0274B274A1278D2B2EE
:4060C000D2B222F00E02D2B242F00C02D2B2D2B21A70214A204B1B78DBB243F00103DBB2137064200FF0DCFC1B4A1B4B1B78DBB223F00103DBB213704FF4C8700FF0D0FCB4
:40610000164B1B78DBB20F2B08D1134A124B1B78DBB223F00103DBB2137014E00E4B0E4A1278D2B2D2B222F00E02D2B242F00202D2B2D2B21A70084A074B1B78DBB243F02E
:406140000103DBB21370FCF7DDFF00BF80BD00BFA585FF1F1450004064500040B885FF1F80B582B000AF0023FB7102200AF0DEFA0346002B0BD09B4B1B78012B02D1FFF7F0
:4061800097FE04E00220984940220AF059FA974B1B78002B00F02181944B1B78013B422B00F2148101A252F823F000BFB9620000CD630000BF620000C9620000CF62000059
:4061C000D5620000DB620000E7620000ED620000F3620000FF620000056300000B63000021630000276300002D6300003363000039630000CD630000CD6300003F63000035
:40620000456300004B63000051630000576300005D630000636300006963000075630000CD630000CD630000CD630000CD630000CD630000CD630000CD630000CD630000F0
:40624000CD630000CD630000CD630000CD630000CD630000CD630000CD630000CD630000CD630000CD630000CD630000CD630000CD630000CD630000CD630000CD6300001E
:40628000CD630000CD630000CD630000CD630000CD630000CD630000CD630000CD630000CD630000CD6300007B63000097630000AB630000B1630000FFF79EFE87E000F01B
:4062C00011FC02F061F982E0FFF7C0FE7FE002F01DF87CE002F00CF879E002F04BF9424800F090F873E002F031F970E001F0DAFF6DE002F0D9F83C4800F084F867E001F025
:40630000EDFF64E002F018F961E002F095F8384B5B78082B03D9344800F074F857E056E002F052F853E002F061F950E002F052F94DE002F09FF94AE002F0A2F947E002F011
:40634000BFF944E002F0D6F941E002F03DF93EE001F0B6FF3BE002F0BFF838E002F0D4F835E002F0DDF832E001F0E0FF1E4800F049F82CE001F088FF29E01D4B1B78FB7190
:40638000FB79012B03D1174B01221A701FE0154B00221A701BE0174B00221A80164B00221A80164B00221A8011E0FFF7A7FD0EE00F4B1B78002B02D1FDF7F6FC05E00C4B76
:4063C0001B78012B01D1FEF7F1FE00E000BF074B00221A700A4B00221A7000BF0837BD4680BD00BF9C83FF1FD09EFF1F109FFF1F149FFF1F809EFF1FF89CFF1F7C9EFF1F00
:40640000119FFF1F80B582B000AF786000BF01200AF046F80346012BF9D10120796840220AF08AF80837BD4680BD00BF80B400AF044B00221A70044B00221A70BD465DF8FA
:40644000047B7047109FFF1F119FFF1F80B483B000AF284B01221A70274B1B78012B03D1264B00221A803EE0254B1B78DBB29AB2244B1B78DBB29BB21B029BB213449AB200
:406480001E4B1A80204B1B78DBB2012B03D11B4B1E4A5A6027E01C4B1B78DBB2022B22D1164B144A5A601A4B1B78FB71194B1B78DAB2194B1A70194B1B78DAB2184B1A705A
:4064C000184B1B78DAB2164B5A70FB79072B0AD1114B1B78002B06D00F4B1A78124B1A70054B01221A7000BF0C37BD465DF8047B704700BF169FFF1F119FFF1F34B0FF1FBC
:40650000066000400760004001600040D09EFF1F0260004003600040129FFF1F04600040149FFF1F05600040109FFF1F80B500AF00BF032009F0B4FF0346012BF9D1032012
:406540000249402209F0F8FF00BF80BD689FFF1F80B582B000AF0CF047FE00F0A3FA384A374B1B78DBB243F00103DBB21370354A344B1B78DBB223F00103DBB213700023A6
:40658000FB7120E02E4B1B78DBB203F01003002B00D01BE02B4A2B4B1B78DBB243F00103DBB2137028200FF07BFA264A254B1B78DBB223F00103DBB2137028200FF070FAF4
:4065C000FB790133FB71FB79312BDBD91C4A1C4B1B78DBB223F00103DBB21370194A194B1B78DBB243F00103DBB2137050200FF057FA134A124B1B78DBB243F00103DBB263
:40660000137050200FF04CFA0D4B1B78DBB203F01003002B09D00B4B1B78DBB203F01003002B02D00123BB7101E00023BB7100F049FA0CF0C3FDBB7918460837BD4680BDA7
:40664000615000406050004090B587B000AFBA607B600346FB730B46BB730023FB750023BB7500237B7500233B750023FB74012010F026FB0023BB75FB7B03F00203002B57
:406680003FD06F4B1B78DBB203F01003002B06D06C4B1B78DBB203F01003002B0ED10DF06DF80A200FF0FCF9FFF752FF0346002B04D17B6800221A7001233B753B7D012BAC
:4066C00050D00CF091FD0CF079FDBB681A78FB7B03F00103DBB2104619460CF091FF0346002B02D101237B7501E000237B757B687A7D1A70BB7D0133BB75BB7B013BFB755D
:4067000030E0FB7B03F00403002B1BD0BB681A78FB7B03F00103DBB2104619460CF0D2FF0346002B02D101237B7501E000237B757B687A7D1A70BB7D0133BB75BB7B013BD1
:40674000FB750FE001237B75FB7B03F00103002B08D07B687A7D1A70BB7D0133BB75BB7B013BFB750EF0A8FC0346FB747B7D012B57D13B7D012B54D0FB7B03F00103002B0E
:406780002BD0BB7B002B4CD00DE0BB7D7A68D41801200DF077F803462370BB7D0133BB75FB7D013BFB75FB7D002BEED1FB7B03F00803002B08D0BB7D7A68D41800200DF049
:4067C00061F8034623702CE0BB7D7A68D41801200DF058F80346237023E0BB7BFB751DE0BB7DBA6813441B7818460CF0FDFF0346002B02D101237B7501E000237B75BB7D41
:406800007A6813447A7D1A707B7D002B00D108E0BB7D0133BB75FB7D013BFB75FB7D002BDED1FB7C18460EF04BFCFB7B03F00803002B01D00CF0A2FF1C37BD4690BD00BF27
:40684000615000406050004080B400AF0E4B0E4A1278D2B2D2B222F00E02D2B242F00802D2B2D2B21A70094B084A1278D2B2D2B222F00E02D2B242F00802D2B2D2B21A70F1
:40688000BD465DF8047B7047615000406050004080B400AF0E4B0E4A1278D2B2D2B222F00E02D2B242F00202D2B2D2B21A70094B084A1278D2B2D2B222F00E02D2B242F0C5
:4068C0000202D2B2D2B21A70BD465DF8047B7047615000406050004080B400AF464B1B78DBB2012B2AD1454A444B1B78DBB243F00103DBB21370424A414B1B78DBB243F0E8
:406900000103DBB213703D4B3C4A1278D2B2D2B222F00E02D2B242F00C02D2B2D2B21A70374B374A1278D2B2D2B222F00E02D2B242F00C02D2B2D2B21A7058E0314B1B78D7
:40694000002B2AD0304A304B1B78DBB223F00103DBB213702D4A2D4B1B78DBB223F00103DBB21370284B284A1278D2B2D2B222F00E02D2B242F00C02D2B2D2B21A70234B23
:40698000224A1278D2B2D2B222F00E02D2B242F00C02D2B2D2B21A7029E01B4A1A4B1B78DBB243F00103DBB21370184A174B1B78DBB243F00103DBB21370134B124A1278B8
:4069C000D2B2D2B222F00E02D2B242F00C02D2B2D2B21A700D4B0D4A1278D2B2D2B222F00E02D2B242F00C02D2B2D2B21A70BD465DF8047B704700BFA585FF1F62500040D7
:406A000063500040C49AFF1F165000401750004080B400AF1E4B1B78DBB2012B1AD11D4B1C4A1278D2B2D2B222F00E02D2B242F00202D2B2D2B21A70174B174A1278D2B278
:406A4000D2B222F00E02D2B242F00202D2B2D2B21A7019E0114B114A1278D2B2D2B222F00E02D2B242F00202D2B2D2B21A700C4B0B4A1278D2B2D2B222F00E02D2B242F05E
:406A80000202D2B2D2B21A70BD465DF8047B7047A585FF1F6250004063500040175000401650004080B400AF054A054B1B78DBB223F00303DBB21370BD465DF8047B7047DF
:406AC000C651004080B400AF054A054B1B78DBB243F00303DBB21370BD465DF8047B7047C651004080B500AF0CF07EFBFFF7D0FE80BD00BF80B500AFFFF7F4FF034B002219
:406B00001A700CF059FF0DF0D9FA80BD1D9FFF1F80B582B000AF0023FB71042009F006FE0346002B00F03D82042009F0CFFC0346BB80BB88DBB29BB20420AB491A4609F0AD
:406B40007FFD0346FB71FB79002B00D129E2A74B00221A70A64B00221A70A44B1B781A46A14B9B5CFB70A14B1B780133DAB29F4B1A709E4B1B781A469B4B9B5C03F03F035D
:406B8000BB709A4B1B780133DAB2984B1A70984B1B781A46974B00219954FB7803F02003002B3AD00CF020FBFB7803F00C030C2B07D1032001210CF019FF8F4B0C221A70FB
:406BC00025E0FB7803F00C03042B07D1092001210CF00CFF884B04221A7018E0FB7803F00C03002B07D1272001210CF0FFFE824B00221A700BE0FB7803F00C03082B06D18A
:406C00004F2001210CF0F2FE7B4B08221A700CF0D5FA784B01221A70C1E1FB7803F01003002B0CD0FFF794FC0346012B03D1714B01221A70B3E16F4B00221A70AFE1FB78CB
:406C400003F00203002B00F09781684B1B781A46654B9B5CDBB25BB2002B80F28D8100F07FFC0346B3F57A7F06D9614B1B781A46604B0521995405E05D4B1B781A465D4B9E
:406C8000012199545A4B1B780133DAB2584B1A70564B1B781A46544B9B5C802B40F00B81FB7803F00103002B59D0544B1B78002B0BD04F4B1B785A1CD1B24D4A11701A467B
:406CC0004F4B19784B4B995409E0494B1B785A1CD1B2474A11701A46464B01219954444B1B785A1CD1B2424A11701A46424B1978404B995400F034FC03461A46414B1A80BE
:406D00003B4B1B785A1CD1B2394A11701A463D4B1B88D9B2374B9954354B1B785A1CD1B2334A11701A46374B1B881B0A9BB2D9B2304B99542E4B1B785A1CD1B22C4A1170C8
:406D40001A462C4B00219954294B1B785A1CD1B2274A11701A46274B002199540BE12A4B1B78DBB21F2B40F00681204B1B780133DAB21E4B1A701D4B1B781A461A4B9B5C72
:406D8000002B0DD11E4B00221A70204A1F4B1B78DBB223F00103DBB2137000F0ABFCEAE0124B1B781A46104B9B5C012B34D1144B01221A70154A154B1B78DBB243F0010344
:406DC000DBB21370124A124B1B78DBB243F00103DBB213700F4A0F4B1B78DBB243F00103DBB21370C7E000BF249FFF1F1E9FFF1F1C9FFF1F689FFF1F649FFF1FC69AFF1F8A
:406E00009D83FF1F209FFF1FB885FF1F08500040095000400B500040634B1B781A46634B9B5C022B1BD1624B02221A70614A614B1B78DBB243F00103DBB213705E4A5E4B47
:406E40001B78DBB223F00103DBB213705B4A5B4B1B78DBB243F00103DBB213708BE0524B1B781A46514B9B5C042B1BD1504B04221A70504A4F4B1B78DBB243F00103DBB20D
:406E800013704D4A4C4B1B78DBB243F00103DBB213704A4A494B1B78DBB223F00103DBB2137068E0434A434B1B78DBB223F00103DBB2137073E03C4B1B781A463B4B9B5C57
:406EC000812B1CD13E4B1B785A1CD1B23C4A11701A463C4B1B78D9B23B4B9954384B1B785A1CD1B2364A11701A46374B10219954334B1B781A46344B022199543BE02A4BC5
:406F00001B781A46294B9B5C822B02D10EF096FD31E0254B1B781A46244B9B5C8F2B21D1FFF7E0FD204B1B780133DAB21E4B1A701D4B1B781A461D4B9B5C002B0FD1FFF71D
:406F4000CBFCFFF781FC0CF039F9204B00221A701B4B1B781A461C4B002199540BE0FFF757FD1CE0104B1B781A46104B9B5CA02B01D10BF0D9FF12E0144B1B78002B07D19C
:406F8000FA78BB7810461946114A0F4BFFF75CFB0B4B1A78BB781344DAB2094B1A70FFF7C5FA0837BD4680BD1E9FFF1F249FFF1F9D83FF1F08500040095000400B5000409F
:406FC0001C9FFF1FB985FF1F689FFF1F1D9FFF1F269FFF1F80B485B000AF03460A46FB711346BB710123FB73FB79002B05D0BB79002B02D10123FB7307E0FB79002B04D1B3
:40700000BB79002B01D10223FB73FB7B18461437BD465DF8047B704790B589B000AF0023FB770023BB77A24A3B46144620686168A26807C3227B1A709E4A9E4B1B78DBB2C4
:4070400043F00E03DBB213709B4A9B4B1B78DBB243F00E03DBB21370984A984B1B78DBB243F00E03DBB21370954A954B1B78DBB243F00E03DBB21370924A924B1B78DBB238
:4070800043F00E03DBB213708F4A8F4B1B78DBB243F00E03DBB21370864A864B1B78DBB243F00103DBB21370834A834B1B78DBB243F00103DBB21370804A804B1B78DBB296
:4070C00043F00103DBB213707D4A7D4B1B78DBB243F00103DBB213707A4A7A4B1B78DBB243F00103DBB21370774A774B1B78DBB243F00103DBB213700A200EF0AFFC6D4BEE
:407100001B78DBB203F01003DBB23B766A4B1B78DBB203F01003DBB27B76684B1B78DBB203F01003DBB2BB76654B1B78DBB203F01003DBB2FB76634B1B78DBB203F0100353
:40714000DBB23B77604B1B78DBB203F01003DBB27B77584A574B1B78DBB223F00103DBB21370554A544B1B78DBB223F00103DBB21370524A514B1B78DBB223F00103DBB274
:4071800013704F4A4E4B1B78DBB223F00103DBB213704C4A4B4B1B78DBB223F00103DBB21370494A484B1B78DBB223F00103DBB213700A200EF052FC3E4B1B78DBB203F0E1
:4071C0001003DBB23B743C4B1B78DBB203F01003DBB27B74394B1B78DBB203F01003DBB2BB74374B1B78DBB203F01003DBB2FB74344B1B78DBB203F01003DBB23B75324BAE
:407200001B78DBB203F01003DBB27B75294B294A1278D2B2D2B222F00E02D2B242F00202D2B2D2B21A70244B234A1278D2B2D2B222F00E02D2B242F00202D2B2D2B21A70E8
