:400000000040002011000000893100008931000008B503F0D1F8C046F8B572B6802500243F4EED0034602A1C00213E4804F07EFF2A1C00213C4804F079FF9923EE213B4AAB
:400040001B0413603A4A3B4811603B4A032514603A4A3B4F14603B4A13603B4A136002223A4B19780A433C211A7002788A4328390A4302701622197818200A431A702023F3
:40008000C421334A89021360324A1160324A1360324A334B1A602422324B1D60324B1A6012233B6003F04EFE304A314BFA201A600223304AC00011680B4313602E4A2F4B35
:4000C0001A6008222E4B1C6033689343336003F06BFE2C4803F032FF802280212A4B92001A602A4B2A4A49011A602A4A11602A4A1A608022294B12061A604022284B1C6032
:40010000284B1A60284B01321A60284B1C6011233B60274B1D60274B1D60274B1C60F8BD6CF02E4000300F4000400F40000102400005024001700F400000024008000440C3
:400140003000104010500F4030500F4000700F400001044008010440180104400080C0000803044000050440080504400600008004010B4078002E406A2D00007C002E406D
:4001800064F02E40DC050000000301400000014040FF00800403014041FF008008010B4000010B4008010140040101400C020B403000304030003140000E3F4010B5064CE2
:4001C0002378002B07D1054B002B02D0044800E000BF0123237010BDD810002000000000A06D010008B5084B002B03D00748084900E000BF07480368002B00D108BD064B76
:40020000002BFBD09847F9E700000000A06D0100DC100020A80B00200000000008B504F0F1F843070CD404F0EDF88023DB00184205D0181C04F0F0F80122034B1A7008BD02
:40024000042004F0E9F8EEE7F4100020F8B51F4C1F491222E01D04F060FE1E4E64217368B7681A0E62741A0CA2741A0AE2742375381C04F08FFCF3686421C518F560381C19
:4002800004F00EFD2B0E63752B0CA3752B0AE3751923E377104BB1601B7825765BB2002B12D00E4B64219878DB78000218430C4B58430C4B00149C46604400B2000204F0DF
:4002C000F9FC030AE3732074F8BDC046F40B0020E86D0100F41000205822002054220020A4440000B3EDFFFF10B582B0012801D002B010BD204C217C4BB21A1C12322ED01A
:400300001A1C0C322DD09A1D2FD0DA1C2BD09A1C2DD05A1C2DD00722002904D0033B5A4253410922D21A002301A80270437007F07DFB0123637403F097FF0020012103F0BB
:40034000ABFF0020012103F0CBFF0C49002004F02FF8012003F0E8FF03F078FFC8E70122E1E70222DFE70422DDE70322DBE70522D9E70622D7E7C046F4100020CB0C0000BC
:4003800008B503F03FFD214803F0BAFA03F002FF03F06AFF0020012103F07EFF0020012103F09EFF1A49002004F002F8012003F0BBFF03F04BFF03F0D9FD012003F00AFF0B
:4003C00003F052FF8020C00503F0AEFE03F03EFF03F066FE002003F0E7FC03F045FF012003F0C0FF7321002003F0E2FF012003F09BFF03F02BFF03F0B9FD03F035FF0120EA
:4004000003F0B0FF03F022FF08BDC0461D020000FF3F0000F8B54F464646D94CC0B4A37C092B08D8D74A9B00D3589F4607F0CCFA022800D14AE123780025002B06D00023B1
:400440002370002D02D0002003F052FD0CBC90469946F8BD07F0B8FA0228ECD10923A37402F0AEFF03F000FF8020400003F07AFF0120012103F010FF0120012103F030FFFC
:40048000C149012003F094FF8020400003F04CFF03F0DCFE2378CFE72378002BD6D001230025A374CBE72378002BCFD003F054FAE623B64902220B70AB3B4B704020002360
:4004C00003F0DCFA03F0D0FE8020400003F04AFF0120012103F0E0FE0120012103F000FFAB49012003F064FF8020400003F01CFF03F0ACFE0123A37423789DE72378002BF7
:40050000A4D003F0C1FBF523A04901220B704020002303F0B3FA03F0A7FE8020400003F021FF0120012103F0B7FE0120012103F0D7FE9749012003F03BFF8020400003F054
:40054000F3FE03F083FE0223A374237874E72378002B00D17AE7002302228C49402003F00BFB03F081FE8020400003F0FBFE0120012103F091FE0120012103F0B1FE8449C2
:40058000012003F015FF8020400003F0CDFE03F05DFE0323A37423784EE72378002B00D154E703F071FBE023784901228B7040200023023103F062FA03F056FE80204000DB
:4005C00003F0D0FE0120012103F066FE0120012103F086FE6E49012003F0EAFE8020400003F0A2FE03F032FE0423A374237823E72378002B00D129E70023022265494020BE
:4006000003F0BAFA03F030FE8020400003F0AAFE0120012103F040FE0120012103F060FE5B49012003F0C4FE8020400003F07CFE03F00CFE0523A3742378FDE62378002B28
:4006400000D103E703F020FBA58A002D00D17FE01F23A669F356002B58D14C4A4E4B1178D97692781A770823A3740521E80004F091FA4A4B80B25B6818805880022002F0B8
:4006800067FE051C03F0F0FD8020400003F06AFE03F0DCFD2378002B00D1D2E6CFE607F093F9022800D0C6E6A2686368944601336360A38A6344A360FFF7C8FD08233648BF
:4006C0003749A37407F036F9051CE3E7A26863689446344901330E7E334D6360A38A721C63441831281CA36004F017FC3423A269E81FD35C08225B07DB0FD31A0836284980
:40070000C677A37407F016F9051CC3E7274A6368944601336360A3686344A3603423F75C9846FB071CD4BB0715D51F4B1D4999460F7E181C7A1C183104F0EFFB4B460837AF
:400740001F764346F35C5B0707D50723A3748CE70923A37486E6FFF779FD0823A37484E70D4E1049F01D182204F0D7FB1F23F377BB0702D50623A37477E77B07EDD5E4E79F
:40078000F4100020A46D0100FF7F0000542200208E02000056220020F40B0020E00B0020140C0020AC0B0020FB0B0020D4170000F8B54F4646467B4CC0B4237F062B2FD892
:4007C000794A9B00D3589F462378002B28D00023237003F049FD80200226400003F0C2FD03F034FDA58A2677002D19D01F23A769FB56012B00D18FE0022B00D1AEE0E8009B
:40080000052104F0C7F9694B80B25B6818805880022002F09DFD002802D0002003F068FB0CBC90469946F8BD07F0CEF80228F7D1A2686368944601336360A38A6344A36049
:40084000FFF704FD5A495B4807F074F8E3E72378002BE5D00023237001332377E0E707F0B3F8051E022DDBD1A268636894460133504E6360A38A182263444F49F01DA360AE
:4008800004F04BFB1F23301C4949F37707F052F83423A269D35C1D4221D004232377BAE707F092F80228BBD1A26863689446424901330E7E414D6360A38A721C63441831C3
:4008C000281CA360083604F028FBE81F3849C67707F030F83423A269D35C5B0719D50523237798E707F070F8022899D1A2686368944601336360A38A6344A360FFF7A6FC4E
:400900002C482B4907F016F83423A269D35CDB07C3D5032323777EE7626801326260A268AA18A26034229146BA5C9046134225D116421ED0214B204998460E7E181C721C62
:40094000183104F0EAFA434608361E764B46FB5C5B0700D453E70523237750E71649174E0C7E301C621C1831083404F0D6FA347645E7FFF76BFC0623237740E70D4F0E4979
:40098000F81D182204F0C9FA1F23FB7743461E4202D00423237732E743465B0700D42EE7D9E7C046F4100020CC6D0100E00B0020140C0020F40B0020AC0B0020FB0B002089
:4009C00070B53B4C3B4AE36F934240D03A4C3B4A9461E17F002944D06023E35A93825E23E35CE318181C303000781074022936D0A17F334A334D11700321334A5833D17096
:400A00001171A731517154319171211C9E7820310A22A81D6E7104F080FA281C211C06222A31103004F079FA59230F22E35C281C1340102213432B774623211C6E77E25C10
:400A40001E30531D47312B7604F067FA70BD22689A42BBD11D4BA26F9A42B8D8B6E70021C7E7238B184D9382237F281C1374A27F134B09301A701A23EB70E5332B71FD3B7F
:400A8000EB7113332B7210220933211DEB7704F044FA638B6B711B0AAB71A38A1A0A6A76AB76E38A1A0AEA762B77637F6B77CDE780F2FF0FAA550000506E0100F4100020ED
:400AC00058220020AC0B0020F40B002001000100F0B58FB062B6032003F0A6F9FFF750FC02F006FF012867D0444CFFF769FF0322434B44481A710022434B1A821A70042266
:400B0000424B9A7002F0AEFB414F04F005FF032004F0FAFE061C03F0D0FC051C06F054FF032E42D002280BD0022003F0E7F803F0DDF803F00DFA03F0CFF8002003F0DEF800
:400B4000281C03F0BEFC637C002B13D10023FB56002B0CD0A37C052B06D803F0B3F8FFF759FC03F0A1F8D0E7FFF754FCCDE7FFF71FFECAE70023637403F076FB012003F092
:400B8000F1FB0120012103F087FB0120012103F0A7FBA3210120490003F00AFC8020400003F0C2FB03F052FBD0E7FD2318400428C6D103F0DBF9C3E7802500F075F96846AE
:400BC00000F046FA134C02F0CBFA134E6D0104F0A3FE00F057FAA8420AD01F23E356022BF5D13378002BF2D00123044C237700E0024C02F0A3FB02F0A3FD76E7F410002061
:400C0000400C0020E9020000E00B0020F40B00205822002080F2FF0F1811002080B5ACB000AF021C3960FB1D1A700023A822BA1813603A4B1B68FB61394B1B68BB61394BFA
:400C40001B687B61384B1B683B61384B1B68FB60374B1B68BB60374B374A1A60374B384A1A602023FB18374A1A602023FB187F225A60AF23FB1800221A7015E0AF23FB188A
:400C80001B789A1CAF23FB181B789B003968CB1819682023FB189200D150AF23FB181A78AF23FB1801321A70AF23FB181B781F2BE4D9204B2022BA181A60204B224A1A60E8
:400CC0002023FB18214A1A60FB1D1A782023FB185A60184B2022BA181A60184B1C4A1A60144B1B68A822BA1813600C4BFA691A600B4BBA691A600B4B7A691A600A4B3A6908
:400D00001A600A4BFA681A60094BBA681A60A823FB181B68181CBD462CB080BD00010B4008010B401CFF0B4020FF0B4028FF0B402CFF0B4008001040B6E8000004001040C5
:400D400015000080B6D7000004000080B6EB00001800008030B5041CA1B00D1E00D19CE0152810D068464E49802204F0D6F8142C00D992E04B4BA4001B599F4660236946B0
:400D80002A886D46CA520120291CFFF747FFA023021C1B0600209A4201D121B030BD0238FBE75E2369462A786D46CA54EBE75A20291C6844042204F0B0F86D46E3E75923CB
:400DC00069462A786D46CA54DDE746236A464720291CD25C684404F0A0F86D46D3E7462369462A786D46CA54CDE73620291C6844102204F092F86D46C5E7352369462A7837
:400E00006D46CA54BFE72A780DAB1A706D46BAE7291C0CA8042204F080F86D46B3E72A20291C6844062204F078F86D46ABE7291C08A80A2204F071F86D46A4E76A462B7810
:400E40006D46D3779FE76A462B786D4693779AE76A462B786D46537795E76A462B786D46137790E76A462B886D4653838BE76A462B886D46138386E76A462B886D46D38229
:400E800081E76A462B886D4693827CE7291C01A8102204F042F86D4675E7012040427CE780F2FF0FFC6D010070B5384C384AE36FA0B093421AD0354C354BE26968463549EB
:400EC0009A4244D0802204F028F819A8FF21102204F02CF801206946FFF7A0FEA02300251B06984231D1281C20B070BD22689A42E1D1294BA26F00259A42F4D8254980221D
:400F0000684604F00AF8FF21102219A804F00EF8224B01AA43CB43C21B68012013606A46A38A69469382E38AD382238B1383638B5383237F1377637F5377A37F9377FFF759
:400F40006DFEA0231B069842CDD0023DCBE7802203F0E3FF1022FF2119A803F0E7FF211C01AB25C925C31A1C0B6813606A46238A9382638AD382A38A1383E38A5383237E21
:400F80001377637E5377A37E9377A3E780F2FF0FAA550000506E01000100010084F2FF0F00B5A1B00B498022684603F0B6FF1022FF2119A803F0BAFF01206946FFF72EFE80
:400FC000A02200231206904202D1181C21B000BD023BFAE7506E010000B5A3B00F49802202A803F09AFF0E4935200B6B2F2201930E9302AB9C463531604403F08EFF012096
:4010000002A9FFF70BFEA02200231206904202D1181C23B000BD023BFAE7C04680F2FF0F506E0100031C303B021CD8B2092807D9113B052B05D9131C613BFF20052B03D9AA
:401040007047373AD0B2FBE7573AD0B2F8E7C04610B5041C02F05EFB084802F03BFC002C08D0074B201C002136221C6003F05EFF002010BD03204042FBE7C0463870010049
:4010800014110020F0B54D4644465F465646F0B4D24CB7B0256802F069FB002819D0281C03F06EFFC5B2342D0FD94CE123685E1902F0F8FB013530702068EDB24319013BBE
:4010C0001B780A2B0ED0352D0CD002F04FFB0028ECD10024201C37B03CBC90469946A246AB46F0BD0023435502F0F4FB02F054FB0028FBD1061C013002F0FCFE2768381C7E
:4011000003F03EFFFF231840831EFB181A780D2A09D0381C0021362203F008FFB04802F0D9FB0124D6E70138381802780A2AF0D107AD1E70391C023A0670281C03F0EDFEE5
:40114000281C2E7203F0C2FFA64F291C381C052203F0D4FE8046002800D1F8E0381C291C5430042203F0CAFE002800D11FE1381C291C5830052203F0C1FE002800D16BE190
:40118000381C291C6030052203F0B8FE002800D1CBE1381C291C6830052203F0AFFE002800D15AE2381C291C7030052203F0A6FE002800D108E2381C291C7830052203F02F
:4011C0009DFE002801D100F06AFF874F291C381C072203F093FE002801D100F018FE381C291C0830052203F089FE002801D101F059FB381C291C1030072203F07FFE00289A
:4012000001D101F0AFFA381C291C2030072203F075FE002801D100F063FC381C291C2830082203F06BFE8046002801D100F060FE381C291C4030072203F060FE002801D17F
:4012400001F032FA381C291C4830042203F056FE061E01D101F0CEF9381C291C4C30042203F04CFE002801D100F045FD381C291C5030042203F042FE002801D000F01EFD0B
:4012800027683B79002B00D043E7584802F022FB574802F01FFB574802F01CFB564802F019FB564802F016FB554802F013FB554802F010FB544D281C02F00CFB534802F0DD
:4012C00009FB534802F006FB524802F003FB524802F000FB514802F0FDFA514802F0FAFA504802F0F7FA504802F0F4FA4F4802F0F1FA4F4802F0EEFA4E4802F0EBFA4E486F
:4013000002F0E8FA281C02F0E5FA4C4802F0E2FA4B4802F0DFFA4B4802F0DCFA4A4802F0D9FA4A4802F0D6FA002527680024381C0021362203F0FAFD022D00D0CAE6444834
:4013400002F0C8FAC6E6434802F0C4FAC1E6391C0422083106A803F0E0FD0DAE3B1C321C0C3323CB23C2391C1B681C31136016AB181C3822994603F0D0FD23689B465B79C1
:40138000002B00D1AEE202AA94460F274246674402973A700125202B00D1E0E158460021362203F0C3FD2C1E012CC5D1B6E625682E79002E00D1F6E2281D03F0E1FD0123B4
:4013C0009846252800D1C6E2281C0021362203F0ADFD4346012B00D07BE69FE614110020A47B0100D06E0100506F0100CC7301002C74010070740100B4740100F4740100C8
:401400003075010070750100DC7B0100B0750100FC7501004876010098760100FC7601002077010068770100B47701000878010058780100B87801000079010020790100B4
:4014400068790100BC790100DC790100F8790100C07B0100107001002568681D03F090FD80B200285DD0012398461528ACD16B79202BA9D1291C0027AE1D1A3133781A1CEE
:40148000303AD2B2092A1DD91A1C413A052A00D8A3E31A1C613A052A12D973781A1C303A092A0AD9FF22181C4138052800D89DE3181C6138052800D892E30123984683E745
:4014C000573BDAB27378181C3038C0B20928EAD8120111AB10430236F85401378E42CDD10920191CFFF736FCD44802F0F3F916AB99461F1CD24BD34E9846D34D3278381C01
:40150000291C013603F01AFD02374645F6D1484602F0E0F9CD4802F0DDF900232568984652E7CB4802F0D6F9E1E72568681D03F027FD80B2002801D100F0B5FC0123984609
:401540000D2800D040E76B79AE1D202B00D03BE7002EB2D0291C0027123133781A1C303AD2B2092A00D848E21A1C413A052A01D800F0B5FC1A1C613A052A00D83BE27378B6
:401580001A1C303A092A98D9FF22181C4138052801D800F080FD181C613805288DD8573BD8B2FF2A89D0120111AB10430236F85401378E42D1D1191C0A20FFF7CBFBA54851
:4015C00002F088F900F072FC25686E79002E00D1F5E2681D03F0D4FC01239846052800D0F2E6202E00D0EFE6A879FFF71BFD16AE3070FF2800D1E7E6E879FFF713FD70701F
:40160000FF2800D1E0E6287AFFF70CFDB070FF2800D1D9E6687AFFF705FDF070FF2800D1D2E633780DA91A0173781343DBB21A02B3781801F3780343DBB2134302200B809F
:40164000FFF788FB844802F045F9844B11A8DA8A834903F073FC11A85AE725686E79002E00D1B3E2681D03F08BFC01239846052800D0A9E6202E00D0A6E6AB791A1C303ADE
:40168000D2B2092A0AD91A1C413A052A00D89AE2203A052A00D997E6573BDAB216AB1A709946EB791A1C303AD2B2092A0DD91A1C413A052A00D88DE2012290461A1C613AA3
:4016C000052A00D980E6573BDAB24B465A702B7A1A1C303AD2B2092A0DD91A1C413A052A00D886E2012290461A1C613A052A00D96AE6573BDAB24B469A706A7A131C303BA8
:40170000D8B209280CD9113B052B00D874E201239846131C613B052B00D955E6573AD0B24B46D8701B780DA91A014B465B781343DBB21A024B469B781B010343DBB21343B2
:4017400001200B80FFF706FB464802F0C3F8434B11A89A8A424903F0F1FB11A8D8E65B46981D9B79302B00D14FE1021C0021002B0FD02F2B00D1B3E01D1C413D192D01D89C
:401780002033DBB2137001321378002B01D00229EFDD06A9042203F0B1FB0125002800D0FCE50A230D9A5B44101C92461F1C03F0E7FB0004020C5146381C904603F09EFBBC
:4017C000002800D1F9E17268101C924603F0D8FB0004020C5146381C904603F08FFB002800D1E8E1B268101C924603F0C9FB0004020C5146381C904603F080FB002800D151
:40180000D7E1F268101C924603F0BAFB0004020C5146381C904603F071FB0323002800D0BCE50298B3460278511C017011A98B543B1C43448A461D1C1DE0C046C870010052
:40184000AAF2FF0FA0F2FF0F8C700100DC7B0100B0700100FC7001003871010080F2FF0F24710100E07B0100029A731C137052462B78013593552B78002B00D196E1029A66
:401880001678112E00D956E11A1C213A5D2A00D951E12E2BE8D10023984605E001239C46E04443460E2BDFD043464A469B00D358181C1F1C03F064FB0004030C391C281C49
:4018C0001A1C039303F01AFB0028E7D1029A731C1370534642469A55039B9C466544CAE7013150E7C64801F0F5FFC64801F0F2FF4723C54D4627EB5C9B00F05801F0EAFF63
:401900004623EB5C0126012B09DC1DE04B468000185801F0DFFFEB5D01369E4214DABB4BF31818780D28F1D901F028FFF3E7B84801F0D0FF6023B44A11A8D25AB54903F07C
:40194000FDFA11A801F0C6FFB34801F0C3FF236800259B4622E5202E00D035E5691D0026002317E00D2818D0122816D0172814D00F78581CBC46624616AFFA54434680B2EA
:40198000242B00D156E14246013293B29846031C01360131B0B2082EE4D108782D2800D08BE5181CEFE79D4801F094FF16AB994600239B4D984602339B4602339A462B1C9A
:4019C00000274546002698465A463B1C93435246043B93439BB2002B00D179E28A4B7019FB1848441A794146013703F0A7FA0235102FE9D18BE5573BDAB27378181C3038EB
:401A0000C0B2092800D9C0E5CDE55B46DB79303BDBB2032B00D9C1E4029A157011AA13705B465D461B7A08359246002B4CD002A93D228C4601206244191C3039C9B20929B8
:401A400019D9191C4139052935D9191C613905290FD96B789846303B092B08D9FF214346413B052B2AD94346613B052B26D9012594E4573BD9B26B789846303BDBB2092B0F
:401A8000EDD821277F42BC4609010B4399B28C4467465D2F01D90D29E9D801300299C0B20870137002352B78002B0DD001321228C2D1012572E4373BD9B2DCE70A33DBB2B8
:401AC000FF29DED1012569E400254F4B984635234246D35C002B32D0236802259B465DE411AB9A46187058709870D8701871587123689B46DB79002B00D1B9E25D46002641
:401B000008352027202BB2D12A78131CBB4300D192E200230BE0303A092A0CD801352A780133111CDBB2B94301D100F039FF2D2AF1D1002BF2D0236801259B462EE40299AF
:401B40000F20FFF707F951461020FFF703F9462743466822DB5D33490AA88B52543A02812A4A83800A9200210022002310F034FA2D4801F0AFFE002D00D0B6E64346DB5D9F
:401B8000002B00D1E0E600264627254D1F4B291CF3181A78504603F0D1F9504601F09AFE4346DB5D01369E42F0DBCDE65E4601258BE7022335E6012333E6002331E61B48F4
:401BC00001F088FE41E5373BDAB267E5184801F081FEBCE5373BDAB277E5373BDAB271E4573BD8B2FF2A00D072E466E4373BD8B2F8E7373BDAB27EE5373AD0B290E5C04681
:401C0000487001008470010080F2FF0FC7F2FF0FAC71010008720100DC7B0100947001008C700100500C0020647001002C71010018710100B94600274E4633781A1C303A3E
:401C4000D2B2092A2DD91A1C413A052A33D91A1C613A052A23D973781A1C303A092A00D82BE4FF22191C4139052921D9191C6139052900D921E4573BD8B2FF2A00D11CE431
:401C8000130111A903437B5401370236102FD4D10020FFF75FF8D94801F01CFE88E6573BDAB27378181C3038C0B20928DAD8E7E7373BD8B2E1E7373BDAB2F2E7381C291CEA
:401CC0005430032203F01AF9002801D100F0FBFC381C291C5830042203F010F900285DD127683B79002B01D0FFF713FA80246401251CFFF71CFB0DAE256830802F79002F53
:401D000001D100F0FBFC281D03F03AF901239846052801D0FFF758FB202F01D0FFF754FB6879FFF77FF916AF3870FF2801D1FFF74BFBA879FFF776F97870FF2801D1FFF783
:401D400043FBE879FFF76EF9B870FF2801D1FFF73BFB287AFFF766F9F870FF2801D1FFF733FB3B781A017B781343DBB21A02BB781901C3B20B43DBB213430420311C3380C7
:401D8000FEF7E8FF9E4801F0A5FD9E4B11A85A8B9D4903F0D3F811A8FFF7BAFB381C291C5C30062203F0AAF8002800D1CDE3381C291C6C30042203F0A1F8002800D19EE353
:401DC000924F291C381C0722103003F097F8002800D1F4E1381C291C2430072203F08EF8002800D0BEE12768FB79002B01D0FFF790F9844A3533D35C002B00D197E1844867
:401E000001F068FD002527680024FFF790FA23680D909B46DB79002B00D188E50125202B01D0FFF7BBFA5B4659461B7A0831002B01D1FFF7B3FAA020303BDAB28001092A28
:401E400006D9FFF7ABFA303BDAB2092A00D90EE6864204D8B200961976009E190D9601310B78002BEFD1731E622B3BD864230D933523644A0225D35C002B01D0FFF78EFA4E
:401E80000DA91420FEF766FF1C2316A80381614B0021169300220023858010F09DF85E4801F018FD46E55D4801F014FD16AB99461F1C5B4B5B4E98465B4D3278381C291C97
:401EC000013603F03BF802374645F6D1FFF71FFB4B462D229B1901365A55B6B27EE5373BDAB28AE5A0239B019E42C1D90D93BFE7391C16AB3031994625C925C30A681A6001
:401F000023689B461B7A002B73D00125202B01D0FFF744FA173B9C46E344584603F0D6F843460DAE33704B461B68181C9A4603F027F8FF231F1C0740514658463A1C9846D4
:401F400002F0DCFF00282FD04B4635705D684746281C03F015F80740291C58463A1C02F0CDFF002820D0022333704B469D684746281C03F005F80740291C58463A1C02F0BA
:401F8000BDFF002810D0032333704B46DD68FF27281C02F0F5FF0740291C58463A1C02F0ADFF002800D0C6E55B46DB5D002B00D0C1E53523134AD35C002B00D08CE5311C96
:401FC0001320FEF7C7FE1A2311A80381174B0021119301230022838000230FF0FDFF144801F078FC5E23074AD35C4A469B00D058A8E4104801F06EFCF4E7C046A0700100A6
:40200000B873010080F2FF0F24710100D06F0100207B0100E0F2FF0FD8710100E4700100B0F2FF0FAAF2FF0F8C700100DEF2FF0F40730100207301000023E81802F02CFF46
:40204000031C6433782B00D975E5721C0DA9D3B2705498462B78002B01D100F0B1FC032E00D168E50135161C202B00D14CE562E5D54801F02FFCD54DD54ED64F0022311CCF
:40208000AA56504602F05AFF0135504601F022FCBD42F3D158E4373BD8B2FFF782FA16AB994600234A4625681370681D53709370D37013715371119302F062FF83B2002B67
:4020C0003DD00122043B9046022B01D9FFF77CF96B79202B01D0FFF777F903041B0C013B002B17DD4946AA790A70303A092A01D9FFF76AF90022484607E0A918897981540F
:402100003039092901D9FFF7D8F9013292B29A42F3DB8146484602F0BFFEAF4B11906438984217D9012325689846FFF74DF9AB4801F0D0FB002527680024FFF7F8F8A84815
:4021400001F0C8FBA74B48461A8BA74902F0F6FEFFF7DDF911A90320FEF7FCFDA34801F0B9FBEFE7381C291C2C30062202F0C6FE002800D19BE0381C291C3430082202F053
:40218000BDFE002861D0381C291C3C30042202F0B5FE2768002801D0FEF7BBFF3B79002B01D0FEF7B6FFFEF7FBFE00F013FD904801F090FB002527680024FFF7B8F8391C95
:4021C0000DAE18310422301C02F0A7FE391C11AB1C31181C04229A4602F09FFE391C16AB181C20310422994602F097FE2568EB79002B01D000F027FC7E4801F06BFB342310
:40220000784AD35CDB0701D400F018FC7A4801F061FB3423734AD35C9B0701D400F009FC764801F057FB34236E4AD35C5B0701D400F0FAFB724801F04DFB724801F04AFBF6
:40224000002398462568FFF7BFF823680AAF3870181C08309B4602F093FE0125252801D0FFF79CF85B4658461B7A0930202B01D0FFF794F8012200230021DDB2082B00D1F4
:4022800036E10D2D00D12CE1122D00D129E1172D00D126E14E1CF5B2C65CA84616AD6E54242A36D0414601320133D2B2E5E7012623680AAF981D3E709B4602F061FE01255B
:4022C000252801D0FFF76AF85B46D81D9B79202B01D0FFF763F8012200230021DDB2082B00D1F7E00D2D00D1EDE0122D00D1EAE0172D00D1E7E04E1CF5B2C65CA84616AD0E
:402300006E54242A00D185E0414601320133D2B2E4E700262B781A1C303AD2B2092A00D8C6E01A1C413A052A00D8C9E01A1C613A052A00D8BAE06B781A1C303A092A01D81A
:40234000FFF795FBFF22191C4139052900D8AAE0191C6139052901D9FFF789FB573BD8B2FF2A01D1FFF783FB130111A90343735401360235102ECDD135231A4AD35C002B60
:4023800000D188E02048102202F0B8FD0225002801D0FFF703F8391C0D30FEF7DBFC0E230DA80381194B00210D9301230022838000230FF011FE164801F08CFA23680025A6
:4023C0009B46FEF7EBFFC046C4720100DAF2FF0FC0720100DEF2FF0F9C270000387B01004871010080F2FF0FA471010074710100887B0100B47A0100E07A0100F87A010047
:40240000107B0100DC7B0100B6F2FF0FB5F2FF0F6C7B0100002398463B1C474698462878FEF700FE81466878FEF7FCFD4B46FF2B01D1FFF71CFBFF2801D1FFF718FB1B01C2
:4024400011AE1843B85501370235102FE7D13523B34A0225D35C002B01D0FEF79FFF41460D20FEF777FC311C0E20FEF773FC0E230DA80381AB4B00210D9301230022838030
:4024800000230FF0A9FDA84801F024FA236800259B46FEF783FFA54801F01CFA236800259B46FEF77BFF373BD8B259E7573BDAB26B78181C3038C0B2092800D943E753E7A0
:4024C000373BDAB2F4E7C55C2D2D00D11DE70125FEF764FF057A2D2D00D116E70125FEF75DFFC55C2D2D00D1DDE60125FEF756FF057A2D2D00D1D6E60125FEF74FFF391C74
:402500000B22703111A802F008FD391C0B227C3116A802F002FD86490DA80831082202F0FCFC25682B79002B00D0B3E2814801F0D1F97B4BDB7F002B00D1A6E2012B00D188
:40254000BDE27D4801F0C6F977E62568A81D02F017FD391C11AB86B264310222181C9A4602F0DBFC391C16A86831032202F0D5FC002E38D00122F31E9046012B01D9FEF7E4
:4025800023FFAB79202B01D0FEF71EFF0735281C02F09CFD281C16A9032202F0AFFC002802D1042E00D1F6E2281C5146022202F0A5FC002800D0B5E5032E00D0B2E5012321
:4025C0000DAE33700720311CFEF7C4FB5B4801F081F9534B9B7F5BB2002B08D0584801F079F9FEF797FF574801F074F9F1E75648FEF78EFF256811901690281D02F0C0FC35
:4026000081B200294AD0012901D1FEF756FF01222B799046202B01D0FEF7D6FE03041B0C013B0022002B16DDA8184079071C303F092F07D9002A01D0FEF73FFF2D2801D03B
:40264000FEF73BFF013211AF92B2B855161E9E42EADBBA4601E011AB9A46022905D153461B782D2B01D1FEF728FF504602F014FC16908030FF2800D954E5062016A9FEF71D
:4026800069FB324801F026F91D22254B9A5650462F4902F053FC5046FEF73AFF2D4801F019F911AB9A46EFE72768FB79002B01D0FEF72FFD1A4A3533D35C002B23D0022431
:4026C0000225FEF734FE802216A8002102F02EFC012225689046EB78002B01D0FEF774FE00931D49023316A802F028FC16A801F0F1F8002325689846FEF766FE174801F0D2
:40270000E9F8FFF742FBFEF767FC00F063FA144801F0E0F8002527680024FEF708FEC04680F2FF0FB5F2FF0F507B0100387B0100D06F0100787A0100AC7A0100607A0100F8
:40274000147B01004C7A01001C7B010090730100407201007C730100147A0100A873010064730100391C11AB187058709870D870187158719A4616AB181C18310822994616
:4027800002F0CBFB23689B46DB79002B00D103E15B46DD1DD44B00269846D44F4046291C042202F0ABFB002800D1F3E0381C291C042202F0A3FB002800D1E8E0CC48291C22
:4027C000032202F09BFB002800D1DDE0C948291C032202F093FB002800D1D2E0C648291C032202F08BFB002800D1C7E0C348291C032202F083FB002800D1BAE0C048291C7B
:40280000022202F07BFB002800D1AFE0BD48291C022202F073FB002801D0FFF728F9022307204A46125C0DA972540136ED18042EB4D12B780125002B01D0FEF7AFFD002364
:402840000122CB568A56934201DBFEF7A7FD0223CB569A4201DBFEF7A1FD03228A569A4201DCFEF79BFD3523A74A0135D35C002B01D0FEF793FD0B20FEF76CFAA34801F07D
:4028800029F8A34DA34EA44F0022311CAA56504602F054FB0135504601F01CF8BD42F3D1FFF752F8256811901690681D02F068FB82B2002A54D001216B798846202B01D0E9
:4028C000FEF782FDAB792D2B27D0022A01D0FEF77BFD11AA1370303B9246092B01D9FEF773FD504602F0D8FA031C169012330AD0031C0C3307D0831D05D0C31C032B02D9C3
:40290000032800D00EE4052016A9FEF723FA834800F0E0FF7C4B1C22B8E6033A012A01D9FEF752FD11AA137003041B0C013B9246012BD6DD5146EA794A70303A092A01D967
:40294000FEF742FD01225046013292B29A4213DAA9188979815430390929F5D9FEF7ADFD6F4800F0B7FF11AB9A46D3E70223062057E70323052054E78246B2E7032304201D
:402980004FE7032303204CE70323022049E70423012046E7042344E7624800F09BFF70E7042B01D9FFF7C7F8012B06D16B1E1B782D2B01D1FFF7BFF801235B42FFF73DFBF8
:4029C0004346042B01D0FFF7B6F800230122CB568A56934201DBFFF7AEF80223CB569A4201DBFFF7A8F803228A569A4201DCFFF7A2F83523444AD35C002B01D0FFF76CF8C9
:402A00001220FEF7A7F9182316A80381464B0021169343460022838000230FF0DDFA434800F058FFFFF727FB414800F053FFFFF704FC404800F04EFFFFF7F5FB3E4800F084
:402A400049FFFFF7E6FB0735281C02F03FFBFC230AAF3A78B0461340042293433B7002232E1C9B463378002B6ED001233D782B422AD1301C4146042202F040FA002823D12B
:402A800001231D433D700436ECE72C4800F022FFFFF7D3FB0435281C02F018FB281C11A90B2202F02BFA002878D10AAF3870391C0820FEF74FF9224800F00CFF39E5214853
:402AC00000F008FFFFF7B9FB02232B4250D1301C5146042202F012FA002849D15A463B7813433B70CFE7C0466C720100747201007C7201008072010084720100887201008F
:402B00008C7201009072010080F2FF0F94720100B0F2FF0FC0720100B4F2FF0F247201000C72010044720100DAF2FF0FF0720100187B0100047B0100EC7A0100947A0100E1
:402B4000847A0100A07A010007223B781340042B1DD0063A9046072B01D1FFF773FB391C0C20FEF7F7F81A4800F0B4FEFFF747FB04232B420BD1301C4946042202F0BEF9B7
:402B8000002804D104223B7813433B707BE701239846FFF757FB0DAE307013E5281C16A90B2202F0ABF9002803D101230AAF3B707DE7281C0DA9082202F0A0F901239846E0
:402BC000002801D0FFF73EFB0AAF01333B706EE7C87A01000E2330B5012585B001AC2381244B201C0193002100220023A5800FF0F3F94623204A2149D35C68228B52543AA5
:402C000022811F4AA3800192201C0021002200230FF0E2F9162323811A4B201C0193002100220023A5800FF0D7F918232381164B201C019304230021A380002200230FF02B
:402C4000CBF91A232381114B201C0193002100220023A5800FF0C0F91C2323810C4B201C019302230021A380002200230FF0B4F905B030BDB5F2FF0F80F2FF0F500C002089
:402C8000C7F2FF0FD9F2FF0FDAF2FF0FDEF2FF0FE0F2FF0F70B50C1C98B04C2805D027280ED0422828D018B070BD8A89131C103B9BB20E2B00D921E1CE499B00CB589F46D2
:402CC0001F22CD4B9A56022AEDD133329B5C002BE9D0002314A91A380B70FEF73BF80E2315A80381C54B0021159301230022838000230FF071F9D6E70122C14B1A70D2E73D
:402D00002389012B00D022E13523BB4AD35C002B00D0E8E163681B78002B00D0C2E120680EF022FCBFE72389102B00D047E13522B1498A5C002A00D070E1012514AE616840
:402D40000E203570FEF706F80D20311CFEF702F80E2315A80381A94B858015930021002200230FF039F9DAE72389102B00D034E13523A14AD35C002BD1D0A24861681022CA
:402D800002F0BCF8002800D163E1228803AB1A80122315A98B700B8003980A3BCB700EF061FB80E721894B1E112B00D943E13523914AD35C002B00D066E160680378032B88
:402DC00000D9A8E001290AD00123C25C0D2A03D9213A5D2A00D99EE001338B42F5DB211C0F200831FDF7B6FF61681020FDF7B2FF68232189844A201DD152AFE72389012B52
:402E000000D0B2E035237C4AD35C002B00D078E163681B78002B00D181E7228808AB1A80122315A98B7004330B800898133BCB700EF018FB37E72389042B00D0A3E0352348
:402E40006D4AD35C002B00D069E100236168CB56142B00DD73E1643300DA70E10123CB56142B00DD6BE1643300DA68E10223CB56142B00DD63E1643300DA60E10323CB56E2
:402E8000142B00DD5BE1643300DA58E11220FDF761FF201D62E72389012B4AD13523564AD35C002B00D010E161680B78032B00D9DCE01320FDF74EFF201D4FE72389022B2F
:402EC0006FD135234C4AD35C002B00D0EFE06268537812781B0213435A1E622A00D995E0642314AD2B801420291CFDF733FF1C2315A803811A3B159583802FE76946238843
:402F00000B80122315A98B7000980F3B0A80CB700EF0A8FAC7E6228807AB1A80122315A98B7002330B800798113BCB700EF09AFAB9E6228810AB1A80122315A98B70083301
:402F40000B8010980D3BCB700EF08CFAABE6228814AB1A80122315A98B700C330B801498113BCB700EF07EFA9DE622880AAB1A80122315A98B7004330B800A98093BCB70D5
:402F80000EF070FA8FE622880CAB1A80122315A98B7006330B800C980B3BCB700EF062FA81E6228812AB1A80122315A98B700A330B8012980F3BCB700EF054FA73E622886C
:402FC00002AB1A80122315A98B70023B0B800298033BCB700EF046FA65E6228804AB1A80122315A98B700B800498053BCB700EF039FA58E69C7C010080F2FF0FB5F2FF0FF8
:4030000018110020B6F2FF0F500C0020A02214AD9201934200D990E02B8064E7218801AA118015A912220B80082301988A70CB700EF018FA37E6228806AB1A80122315A97B
:403040008B7002330B800698073BCB700EF00AFA29E614A908700D30FDF77CFE0E2315A803813E4B15930123838077E622880EAB1A80122315A98B7008330B800E98173BB9
:40308000CB700EF0EFF90EE6228805AB1A80122315A98B7002330B8005980C3BCB700EF0E1F900E6FDF798FFFFF794FD37E6228811AB1A80122315A98B700A330B801198EE
:4030C000143BCB700EF0CEF9EDE522880FAB1A80122315A98B7008330B800F98123BCB700EF0C0F9DFE5228813AB1A80122315A98B700C330B801398163BCB700EF0B2F9B9
:40310000D1E5228809AB1A80122315A98B7004330B8009980E3BCB700EF0A4F9C3E522880BAB1A80122315A98B7006330B800B98103BCB700EF096F9B5E52A80D3E62288C0
:403140000DAB1A80122315A98B7006330B800D98153BCB700EF086F9A5E5C046B5F2FF0F08B5074800F07EF802F0D6FBFFF732FD044A00205379043B537100F0E9F808BD2C
:40318000952C0000F40B0020FEE7C04608B5031C0749084A0868C3189A1A802A01DC0B6008BD01F07FFE0C23036001204042F7E7DC0B0020A0220020F8B5104E002E18D085
:4031C00000200F4DA9682C686A68002905D00023E758043380C29942FAD1E9680023002903D0D05004339942FBD1013E1035002EE8D101F05DFEFDF76BFCFEE701000000F7
:40320000788101000121124A38B51368114C8B431360114800220023104D04E00133A1500432302B08D0011C032BF7D851590133A1500432302BF6D1FCF7EEFE0022084B0E
:403240001A600123024A11680B43136038BDC04600001040000000208931000000000000C000002070B590B0051C26490BA8142201F053FE244E3478002C31D0002D3FD07E
:403280000021224B08A81D60018106AB1B31198059801739197108930023123105AA69444260137002F020FC002801D010B070BD0523AE220093164B16480193164B174973
:4032C000029312010BAB02F06BFB0028EED10122134B1E211A70134811320EF065FEE5E7114B1C70114B1C70114B1C7000F010FA104B1C70104B1C7001233370002DBFD118
:403300000120D3E7D87C01001911002060220020008A01004534000079020000C80000206A220020EC7C0100732200206C220020722200205C2200206422002008B502F0EB
:4033400001FB0022014B1A7008BDC0466A220020031C10B50120022B05D8154A1278042A02D00420FF3010BD124C21780A42F8D11148002B10D150213832028242681180BF
:4033800051800E4A13700CF029FF0028EBD10423227813432370E6E7012BF2D19622C82102824268C90011808021C9015180E8E76A22002073220020E00B0020722200209F
:4033C00008B50CF0BDFF0823024A11780B43137008BDC046732200207047C046437800781B0218437047C04638B5838900250B2B01D0281C38BD041C00210430221C353369
:403400000EF0EAFD051E05D001210C4A13788B431370EEE76068FFF7E1FF830706D58220074B40001B68211C9847EDE70620044BFF301B68211C9847E6E7C0467322002011
:4034400060220020F0B54746012280B49E4D82B02B78041C1343DBB20E1C2B70272800D106E112D9422800D16CE04AD94C2827D0FA2800D100E1432832D14988162900D967
:4034800003E130880DF0F8FF2AE0062800D1DDE050D9242821D0262859D0212820D12B789B061DD489490B78102B00D103E1884B18780CF053FE01232A7813432B700FE0CF
:4034C000081CFFF791FF2B78DB0709D4002800D0DDE030680EF048F802E04A787D4B1A7011222B781A4208D02B78103A93432B70794B201C1B68311C984702B004BC9046E0
:40350000F0BD282800D1BCE04128E9D1704F0222381C01F002FD00223978704B3D311A70FF316F4B49005918013102326D4801F0F4FCD5E701281CD00528D1D10A78674BDD
:403540001A70CDE70022624B5A701A70C8E7664B1A78022AC4D02978C907C1D504212878014200D19DE003221A702B788B432B70B6E7052301AF98463B700023381C7B70C0
:4035800004F054FA4346381C3B707C7004F04EFA564B186898468379002B1ED10378002B0ED14378002B0BD18378002B08D1C378002B05D10379002B02D14379002B0CD045
:4035C00002F0AEF9434600211868FFF705FF434601211868FFF700FF2AE0454B1F2218783F239C461840434B80011978424B1140021C09030A4361461B780B4013433F4A8E
:40360000403112780A40520413433D4A90464146137040461A0A1B0C4A708B7002F080F940460021FFF7D8FE40460121FFF7D4FE00200CF083FC3F233B700023381C7B7054
:403640000CF09AFC0422284B1A7049E70B78002B00D045E74B78002B05D12A4AD3809380294B4A60136001222B7893432B7037E702221D4B1A7033E7244B19780A431A7030
:403680002EE70422184B1A702AE71721F9E6122301A98B70B389C87030680B800DF0E2FE1EE72978090709D504221A702B78043293432B7014E70B3BCB70F8E6032A00D087
:4036C0000EE701321A700BE7732200206C0D00207022002064220020602200206C220020008A0100682200206A220020340C00207DF1FF0F7BF1FF0F7CF1FF0F78F1FF0F07
:40370000380C00201C110020A80B00205C2200207047C04610B5084C2378002B03D100F043F8012323708021044A090613680B43136000F08BF810BD2411002000002440E2
:4037400008B500F099F8044A13685B005B0813600022024B1A6008BD00002440880F2440014B18687047C046400324401F20024B1B6818407047C046080324401F220449B3
:403780000B681340082BFBD0024B18607047C04608022440400224401F20024B1B6818407047C04608022440154A164B10B51A60002301210724144A14481360144A1160B2
:4037C000144A026014480460144803601448016014490A600421144A1360144A1160144A1360144A1360144A1360144A1360144A1360144A13601268134B1A8010BDC04616
:403800000B0000020000244040002440000324404800244007000080040324401003244044002440000224400402244050002440880E2440C80E2440480F2440080F244061
:40384000C80F2440880F244026110020064A074B11680B40902109040B431360044B1A88044B1A607047C04600010240FFFF0FFF26110020880F2440064A074B11680B4058
:403880001360064B1A68E423DB001340044A13807047C04600010240FFFF0FFF880F24402611002008B5FFF761FF00280AD1074B1868D823064A9B00116813600B401B022C
:4038C000184308BDFFF74CFFF3E7C04640032440C00F244010B5041C00780134002806D00134FFF74BFF631E18780028F8D110BD024B18688006C00F7047C04604030440AF
:4039000010B58024094B64001C60094B186600F0D4FDC02207490B689343403A13430B6000F0CFFD044B1C6010BDC04680E100E00000002008E400E000E100E08021054A69
:4039400008B5136809060B4313600A2000F0B2FA08BDC0460000254010B5094C2378002B03D100F027F8012323708021054A090613680A200B43136000F09CFA10BDC04611
:40398000281100200000254008B50A2000F09CFA00F06EF8054A0A2013685B005B0813600022034B1A6000F099FA08BD00002540880F254010B50024194B1A4A1C601A4B3C
:4039C0000A201A60194B1A4A13601A4A14601A4A14601A4A13601A4B1C6000F075FA0A20032100F047FA17490A2000F037FA1422154BFF321C60154B1C60154B1C60154B9C
:403A00001A60154B043A1C60144BFF3A1C60144B1A70144B1C80144B1C60144B1C6010BD00002540C7080080600025400701008000032540040325401003254000022540C3
:403A400004022540C9440000C80E2540880E2540480F2540080F2540C80F2540880F2540742200208422002080220020882200201022014B1A70704774220020F0B54F4671
:403A80004646C0B4914683B0061C0F1E984610D02B4D2B78102B49D02B780424602B0AD00A2000F007FA201C03B00CBC90469946F0BD0424F4E70821224B1A888A431A807A
:403AC00028222A700022204976000A601F490A6049461F4A11601F4A694617604246CA71C9791D4A1170FF2219881640FD3A914319801A491A4B196040231A490B601A492F
:403B00000B604346DB070BD5184B1A680923920600D4083B164A00241360164B1E60BFE7144B00241E60124B1A60B9E70A2000F0CBF90E4B08241B68DB07B1D4014BBFE7DC
:403B400074220020842200209022002088220020982200207C2200208C22002017030000000F2540800F2540880F2540640025406800254040022540F0B54F464646C0B4D2
:403B8000051C83B00F1E9146984610D0314E3378102B54D033780424602B0AD00A2000F089F9201C03B00CBC90469946F0BD0424F4E70821284B1A888A431A802922002165
:403BC0003270264A684611604A4625496D000A60244A17604246C271C27923480270FF22012015401A88054382431A801F4B204A1A600B68072B18D804221E4B1A604346B2
:403C0000DB070BD51C4B1A680923920600D4083B1A4A002413601A4B1D60BFE70222184B00241D60154B1A60B8E78021154A490013680B43136008220E4B1A60DFE70A2068
:403C400000F042F90C4B08241B68DB07A6D4024BB4E7C04674220020842200208022002094220020782200208C220020000F254017030000C80F25406400254068002540CD
:403C8000400225406000254010B50A2000F01CF90022044B0A201C88A4B21A8000F00AF9201C10BD8422002008B5044B044A1B68DB0F137001D0FFF767FE08BD0000254013
:403CC0003011002008B5034B1B78002B01D0FFF735FE08BD301100208021034A090613680B4313607047C04608010B40024A13685B005B081360704708010B4010B5041C48
:403D000000F0DBFB072304490A689A43234013430B6000F0D6FB10BD00010B4010B5041C00F0CBFB0722054914400B68044AE404134023430B6000F0C4FB10BD00010B40FE
:403D4000FFFFC7FF10B5041C86B000F0B6FB0E4B0E491A6802AB02920D4A126803920D4A1419033C227804920B4A126805920B4A00926A4601930A4B1A600A4A11601B684F
:403D800000F09FFB06B010BD08010B401700008000010B40EC7F010030001040B6EA00000800104004001040F8B501230F4A041C11680B43802113600D4A0E4B09021A602D
:403DC0000D4A13680B43136000280DD001250B4F0B4E387800F068FB33681D4204D1013C002CF6D1102000E00020F8BD60F02E400220000078002E4010002E40740D002086
:403E00000C002E400121054A13688B431360044A044B11680B4013607047C04660F02E4010002E40FF7FFFFF07220A4B10B51B681340022B01D101BE10BD041C00F03DFBA6
:403E40000321054A0C4013688B431C43146000F038FBF1E700010B4064F02E401F2800D901BE034B8000C318186819607047C0464000002038B5041C0D1E032D00D901BEC0
:403E80001F2C00D901BE00F018FB094AA308944603221440E4000634A2409B0063441968A54091430A1C2A431A6000F00AFB38BD00E400E01F2318401E3B8340181C014B5E
:403EC0001860704700E100E01F2318401E3B8340181C014B1860704780E100E01F2318401E3B8340181C014B1860704780E200E001BE7047F8B58025071C2D02A84214D994
:403F0000041C0B4E706800F0CFFA0A4B9C466444AC42F7D8084BFB18DB0BDB036744FF1AB068784300F0C0FAF8BD014EF8E7C046740D00200080FFFFFF7FFFFF08B5034BE1
:403F40001B78584300F0B0FA08BDC046740D002008B500F0B2FA0421034A13688B43136030BF00F0AEFA08BD10ED00E030B583B000F0A3FA0E4A0F4D1368041C5B005B08AB
:403F800013600D4B0D4A1B8802209BB2136004230B4A11680B4313602B680193FFF7BEFE30BF019B201C2B6000F08BFA03B030BD00000B4000010B4052F1FF0F0C000B4025
:403FC00010ED00E0F8B5314B01211A68920722D500232F4D2B602F4B1C6800232404240C2C4E2D4F07E0002B11D0022B0AD13B689C4206D12B68012BF5D133681B0C9C4276
:40400000F8D0F8BD0020FFF773FF0023F0E733681B041B0CECE71A68520A114206D01C4D29601C4B1C680123240CD9E71A68184D520C0A4005D002232B60174B1C680223B6
:40404000CEE70324154869602A6002682240AA601B685B08194202D10368A343036001230A4A11680B430221136013681942FCD02B68012BD5D0002BADD0022BDDD0002099
:40408000FFF736FF00242B68AAE7C04610020B403411002000020B4004020B400C020B401C4B70B51A68C0231B021A4203D11A4C2368002B00DB70BD184D2B689B0F04D0F6
:4040C00023685B005B082360F5E700F0F6F9061CFFF778FF23685B005B082360104B5A68002A03D1301C00F0ECF9E4E701200D4A11688143116012689C685208104205D1B1
:4041000003222968914322400A432A6000225A60E8E7C04600010B4004010B400C020B403411002010020B4070B5174D2B689B0F9B07984213D0041C00F0BFF9061CFFF74F
:4041400041FF2B68A00F9C008007A40820430F4B28605A68002A03D1301C00F0B2F970BD01200B4A11688143116012689C685208104205D103222968914322400A432A60EE
:4041800000225A60E8E7C0460C020B403411002010020B400121022010B530240B4B1A688A431A601A6882431A60094A1068A043203C204310601068093CA04301431160C4
:4041C00080211A6809060A431A6010BD00F02E4000FF2E4001221B4B70B5196811400C1C00281AD0012804D00020FFF781FE201C70BD022107261A688A431A60124A156887
:40420000B5432943302511601168A943103D294311601A6810431860E9E70220196891431960196881431960074B2E30196881432038014319601968093881430A431A60A3
:40424000D5E7C04600F02E4000FF2E4008B500F034F9C021034A090213680B43136000F030F908BD00010B4010B5802400F025F90749084B0A68E4011A4022430A600A682C
:4042800013408022120213430B6000F01AF910BD00010B40FF3FFFFF38B5041C0D1C022812D80D4BE0001B68421CD340DB070AD403210C1C0D4085408440281C074A136874
:4042C000A3431843106038BD0020FFF711FE0020FFF70EFEE5E7C04610020B400C020B4038B5041C0D1C012807D90020FFF700FE022C02D00020FFF7FBFD094BE4001B682D
:40430000621CD34001221A4208D10234A540A2402C1C04490B6893431C430C6038BDC04610020B400C020B400D4A136803431360C30703D5022113681942FCD0C30505D5A9
:404340008022074992000B681342FCD0C30305D58022034992020B681342FCD07047C04610020B40104B1A68C0231B021A4219D10E4A136883431360C30703D502211368E6
:404380001942FCD1C30505D58022084992000B681342FCD1C30305D58022044992020B681342FCD17047C04600010B4010020B4038B5051C0C1C012802D90020FFF798FD16
:4043C0000D4BC9201B689B0F00D06C38FFF7B6FD201C0A4A2D01AA40A84009490B68934303430B60044B43201B689B0F00D02438FFF7A4FD38BDC0460C020B40FFFF000062
:4044000008020B40024B1868024B18407047C04610020B4004040400F8B5C026071C00F04CF81B4C36022368051C334225D000F044F880212268174BC9011A400A43226044
:4044400022681340802212021343236000F039F81148124A0740381C1168114B0B4018431060136800F029F823681E43266000F028F8281C00F025F8F8BD0748074A074079
:40448000381C1168064B0B40184310601368F0E700010B40FF3FFFFF0404040010020B40FBFBFBFF000000000230800803D00138FDD1C046C046C0467047EFF3108072B69E
:4044C000704780F310887047F0B55F4656464D464446F0B4CD4B83B01B68002B00D09847CB4B1B68DB0702D50022CA4B1A60CA4B00211A7892061ED5C8480268D20500D479
:404500007DE0C024C64AA4001188214311800168C90704D5902011888000014311800120197801400130411A1088014389B21180002201211A701A78920618D51022B7480B
:40454000046822422CD00120B649B54C0A60197801400130411A2088014389B221801A7003B03CBC90469946A246AB46F0BD10201A781042F4D1AC490A68520052080A60F8
:404580001870AA4BAA4A186802401A601868A94A02401A6080220B68120613430B60DFE71C78240741D504680220204231D09D4A9B49106088200A88800002430A801A784F
:4045C000520700D51CE199499B4A086802400A6000229A490A609A490A609A4A1278920700D4C1E001210A201A780A40811A8C4802880A4392B2028060221A70B0E7026834
:40460000D20798D59020864A800011880143118085E71878C00700D5F4E0242018708A480068002801D0864802601A78520700D496E001201A78104200D19EE0834A10685D
:40464000000772D5824A1068824A1468824A1568451B1F202040281A082808D8002800D045E17248744904682140016001217B4C7B4E25681068AC4635686044EDB2057005
:4046800025681068AC4601301060106835686044EDB20570106801301060062025681668AC466F4D66442F68FFB23770166801361660012851D027681668BC462F6866443F
:4046C000FFB23770166801361660022845D027681668BC462F686644FFB23770166801361660032839D027681668BC462F686644FFB2377016680136166004282DD0276866
:404700001668BC462F686644FFB23770166801361660052821D01068246820182C68E4B2047010680130106017E004201268104213D0494A494D14682D682C19484D2D68B1
:40474000EDB225701468013414601468404A1268944200D3C9E0434A10604348434A1060002900D02FE7FBE6414B1A681823920600D4083B3B4A1360F2E6284A14680222BF
:40478000224200D082E03B4A1068C00600D4A3E01F20394D2A680240082A00D198E0374A294C10682668864200D891E03448354F00680195844634481F26824640208046B1
:4047C0001F48814611E0106860440078C0B23860106801301060019800683040082877D0106883462068834572D2206815680138A842E8D150464546056048460560E2E703
:40480000012116E725221A700FE7C0462C1100208C0E2540880E2540742200200C0F254084220020000F25400000254060002540FF5FFFFFFFFCFFFFFFFEFFFFC80F25400F
:40484000880F25408C22002098220020CC0F2540942200200803254080220020782200204003254068002540ED0F0000C00F2540640025408C0F25400802254090220020E3
:404880007C22002040022540800F25401F262749274D0A6027490A680C68296832408A1AE10B0840101A286084202968224A8000116022490A88024380200A80204A40027F
:4048C00011680143116010681E49014011607AE610201D4A106043E71268520600D43FE7134A1168144A11606DE6012135E7174C174F26681568B4463E686544F6B22E7003
:40490000156801351560012800D126E726681568B4463E686544F6B22E701568023801351560002800D0B9E617E7C046000F2540902200200802254088220020842200206C
:4049400004022540FFFFFEFF800F254078220020400325400160704701607047314B324A1978324B09021B781943314B1B7812781B0213432F4A93424ED0D42212019342F5
:4049800046D02D4A13602D4B2D4A19602D4B1B7812781B0213432C4A134200D12B4B2C4A13602C4B2C4A1B7812781B0213432B4A93420DD02A4A93420AD0052B08D0294A4A
:4049C0001360294B1A68294B1B68AA2B09D07047274B244A1360244B1A68244B1B68AA2BF5D11F2AF3D91B4B1B780E2BEFD1214B214A1B7812781B021343204A1360204B6B
:404A0000204A1B7812781B0213431F4A1360DEE70429B6D11D4BB4E70729B2D11B4B0339AFE7C046D9F0FF0FDEF0FF0FD8F0FF0FDFF0FF0F580B00006C002E4074002E40AE
:404A4000DAF0FF0FDBF0FF0FFFDFFFFF0220000078002E40DDF0FF0FDCF0FF0F0F0F00000505000080002E40EC0F00F0E00F00F0050F00006DF2FF0F6CF2FF0F84002E402D
:404A80006FF2FF0F6EF2FF0F94002E40580D000008B5FFF753FA08BD08B500F067F808BD08B500F06BF808BD08B500F067F8034800F046F8002000F049F808BD8D4B0000D4
:404AC00008B5024800F020F808BDC0468D4B00000220FF307047C0462B2070472B2070472B2070472B2070472B2070472B2070472B2070472B2070472B2070472B207047E2
:404B00002B2070477047C04610B58024084B64011C60084B1867FFF7D0FCC021064A13688B431360FFF7CDFC044B1C6010BDC04680E100E0000000200CE400E000E100E049
:404B4000014B18677047C0460000002010B5041CFFF7B3FCC021044AA40113688B4323431360FFF7AEFC10BD0CE400E08022024B52011A607047C04600E100E08022024BA7
:404B800052011A607047C04680E100E008B512F0F3F808BD002243088B4274D303098B425FD3030A8B4244D3030B8B4228D3030C8B420DD3FF22090212BA030C8B4202D303
:404BC0001212090265D0030B8B4219D300E0090AC30B8B4201D3CB03C01A5241830B8B4201D38B03C01A5241430B8B4201D34B03C01A5241030B8B4201D30B03C01A5241EF
:404C0000C30A8B4201D3CB02C01A5241830A8B4201D38B02C01A5241430A8B4201D34B02C01A5241030A8B4201D30B02C01A5241CDD2C3098B4201D3CB01C01A5241830903
:404C40008B4201D38B01C01A524143098B4201D34B01C01A524103098B4201D30B01C01A5241C3088B4201D3CB00C01A524183088B4201D38B00C01A524143088B4201D31A
:404C80004B00C01A5241411A00D20146524110467047FFE701B5002000F0FCF802BDC0460029F7D003B5FFF775FF0EBC4243891A1847C04603460B437FD4002243088B4236
:404CC00074D303098B425FD3030A8B4244D3030B8B4228D3030C8B420DD3FF22090212BA030C8B4202D31212090265D0030B8B4219D300E0090AC30B8B4201D3CB03C01A01
:404D00005241830B8B4201D38B03C01A5241430B8B4201D34B03C01A5241030B8B4201D30B03C01A5241C30A8B4201D3CB02C01A5241830A8B4201D38B02C01A5241430AC5
:404D40008B4201D34B02C01A5241030A8B4201D30B02C01A5241CDD2C3098B4201D3CB01C01A524183098B4201D38B01C01A524143098B4201D34B01C01A524103098B42C6
:404D800001D30B01C01A5241C3088B4201D3CB00C01A524183088B4201D38B00C01A524143088B4201D34B00C01A5241411A00D201465241104670475DE0CA0F00D04942B5
:404DC000031000D34042534000229C4603098B422DD3030A8B4212D3FC22890112BA030A8B420CD3890192118B4208D3890192118B4204D389013AD0921100E08909C309D4
:404E00008B4201D3CB01C01A524183098B4201D38B01C01A524143098B4201D34B01C01A524103098B4201D30B01C01A5241C3088B4201D3CB00C01A524183088B4201D3D6
:404E40008B00C01A5241D9D243088B4201D34B00C01A5241411A00D20146634652415B10104601D34042002B00D54942704763465B1000D3404201B5002000F00BF802BDF1
:404E80000029F8D003B5FFF715FF0EBC4243891A1847C0467047C04608B500210A2200F007F908BD014B18687047C046D01000200E4B70B500251E1C0D4CE41AA410A54214
:404EC00004D0AB00F35898470135F8E713F042F9084B00251E1C084CE41AA410A54204D0AB00F35898470135F8E770BD6081010060810100608101006881010030B5002493
:404F0000944208D0035D651C0C5DA34201D0181B02E02C1CF4E7002030BD002310B5934203D0CC5CC4540133F9E710BD031C8218934202D019700133FAE770470EB410B591
:404F40009DB002A9029008610B48822488604861012040421FABC881084804CBA400006801938C8100F026F90023029A13701DB010BC08BC03B01847FFFFFF7FD0100020F6
:404F80000023C25C0133002AFBD1581E70470000F0B51E1C444B87B01B68059002930B1C039101921C78029A5D1C121950780822104001D02B1CF5E72D2C04D19D1C5C78F4
:404FC0000123009304E000902B2C01D15C789D1C002E02D0102E0AD160E0302C5CD120222B789343582B52D110266C780235009F311C7B1E9F412D4BFF18381CFFF750FEB0
:40500000381C0491311CFFF7C5FD0022071C131C029909194978480701D5303C07E00320084017D03721012800D02031641AB44210DA511C0BD0BB4207D802D1049A94425B
:4050400003DC73430122E31801E0012252422C780135DDE7181C511C0BD10098059A431E9841124BC01822231360019B002B0AD117E00099002900D05842019B002B10D000
:40508000039B002A00D06B1E019A136009E03024002EACD10826AAE70A26A8E7302CA6D19DE707B0F0BDC046D4100020FFFFFF7F38B5051C0C1C131C034A291C1068221C6D
:4050C000FFF766FF38BDC046D0100020021C10B51378002B0BD006490968C9184C7803212140022900D1203B13700132F0E710BDD4100020F0B58E6885B0071C0C1C039297
:405100000193B34245D390238A89DB001A423DD003250969236801985B1A029363695D43EB0F5D19029B6D1001331B189D4200D21D1C381C53050FD5291C00F01DFB061EB4
:4051400013D0029A2169FFF7E8FEA289184B134080221343A38111E02A1C00F065FB061E0CD1381C216900F0C1FA0C23402201203B60A38940421343A38117E0029B2661AC
:40518000F61826606561019EED1AA560019BB34200D2019E321C2068039900F092FA0020A3689B1BA36023689E19266005B0F0BD7FFBFFFFF0B59FB0029005938B890E1C18
:4051C000171C1B0610D50B69002B0DD1402100F0D3FA30603061002804D10C23029A01381360D0E040237361002306AD6B6120336B761033AB763C1C2378002B03D1E31B35
:40520000049312D003E0252BF9D00134F4E7049B0298311C3A1CFFF76DFF431C00D1ACE06A69049B944663446B612378002B00D1A3E00122002352426A6002A954325218D7
:4052400001342B60EB60AB601370AB654F4F2178381C052200F02AFA002808D0C01B01278740381C2B68013418432860EEE72B68DA0604D55322202102A8121811701A07A9
:4052800004D553222B2102A81218117022782A2A01D0099B0EE0059A111D12680591002A01DB099204E05242EA60022213432B60013409E02278303A092A04D80A214B437F
:4052C00001349B18F6E7099323782E2B18D163782A2B09D1059B02341A1D1B680592002B0DDA01235B420AE0002301342278303A092A04D80A214B4301349B18F6E70793FF
:40530000234F2178381C032200F0D0F9002807D0C01B40278740381C2B6801341843286021781C480622671C297600F0BFF9002812D0194B002B06D10722059B07339343F1
:405340000833059314E005AB00930298291C321C124B00E000BF07E005AB00930298291C321C0E4B00F08AF80390039B013304D06B69039A9B186B613DE7B3890B985B064B
:4053800001D5012040421FB0F0BDC0461F810100258101002981010000000000F5500000F7B5171C01930A698B6800900C1C934200DA131C221C3B6043321278002A01D078
:4053C00001333B6023689B0602D53B6802333B60062523681D401ED0231C43331B785A1E9341226892061CD53020E1184031C870211C5A1C45310978A21840320233D17082
:405400000FE0221C0123009801991932089EB047431C0ED00135E3683A689B1A9D42F0DBDAE7221C009801994332089DA847431C02D10120404220E006232068E1683A6897
:4054400003400025042B03D18D1AEB43DB171D40A3682269934201DD9B1AED180027AF420ADA221C0123009801991A32089EB047431CDED00137F2E70020FEBDF0B58BB048
:4054800006920A1C43320793059004920A7E0C1C109B6E2A00D1A8E011D8632A22D009D8002A00D1B2E0582A00D0C2E045310A707C4A4FE0642A1DD0692A1BD0B9E0732ACA
:4054C00000D1A7E009D86F2A29D0702A00D0B0E0202209680A43226037E0752A1FD0782A33D0A6E00E1C1A684236111D196013683370A1E021681A68080606D4490604D510
:40550000111D19600023D55E02E0111D19601568002D3BDA2D23049A6D42137036E021681A68080606D4490604D51568111D1960ADB202E0111D196015685A4B227E039371
:405540000A276F2A1DD108271BE0221C782145321170554A19680392081D226818600D68100602D4500600D5ADB2D30702D520231A4322601027002D03D1202322689A43FE
:405580002260231C002243331A7002E00A27454B03936368A360002B03DB0422216891432160002D02D1049E002B0ED0049E281C391CFFF775FB039B013E5B5C281C33702D
:4055C000391CFFF7E7FA051EF1D1082F09D12368DB0706D563682269934202DC3023013E3370049B9B1B23612BE009681A68080607D4490605D5111D19601368A28A1A8032
:4056000004E0111D1960136862691A600023049E236116E01A68111D196016680021301C626800F043F8002801D0801B6060636803E0261C42363270012323610023049A10
:405640001370079B05980093211C069B09AAFFF7A7FE431C02D10120404221E0236905980699321C079DA847431CF4D023689B0705D4099BE068984212DA181C10E0002506
:40568000E368099A9B1A9D42F3DA221C0123059806991932079EB047431CDCD00135EFE70BB0F0BD3081010041810100C9B28218904204D003788B4202D00130F8E700201D
:4056C000704710B5814208D28B18984205D29B1A013A09D3995C8154FAE70023934203D0CC5CC4540133F9E710BD000030B500293ED004390B68002B00DAC9181D4A136846
:40570000141C002B02D14B60116031E099420DD208680A189A4203D11368C3180B6053684B60216024E08A4203D8131C5A68002AF9D11D685C198C420BD1096869185818D4
:405740001960904214D110685268091819605A600EE08C4202D90C23036009E008680C18944203D114685268001908604A60596030BDC04650220020032370B5CC1C9C4372
:405780000834051C0C2C01D20C2405E0002C03DA0C2300202B6042E08C42F9D3204A1368101C191C002913D00A68121B0DD40B2A02D90A608B181FE08B4202D15A6802601B
:4057C0001BE04A685A600B1C17E00B1C4968E9E7144E3368002B03D1281C00F04BF83060281C211C00F046F8031C421CD0D00322C61C964386420AD11C60181C07210B3017
:405800001A1D8843821A0AD05142995007E0311A281C00F02FF8431CBAD0331CECE770BD502200204C220020F8B5061C0C1C151C002904D1111CFFF79FFF041C18E0002A66
:4058400003D1FFF753FF2C1C12E000F025F8A8420ED2301C291CFFF78FFF071E07D0211C2A1CFFF75AFB301C211CFFF73FFF3C1C201CF8BD38B50023064C051C081C2360EC
:40588000FDF784FC431C03D12368002B00D02B6038BDC0469C2200200B1F1A68101F002A04DA891804390B68D018043870470000134A1088810703D08107890F401A001D61
:4058C00011791030484381B25088820703D08207920F801A001D800040180A494030098980B2CA0701D0503080B2890706D504495422091F09785143081880B270470000E4
:405900008A0D00205C11002010B501F06FFF10BD10B501F081FF10BD10B500F061FA10BD10B50749044609780220002907D1204601F0CFFF002802D120460AF0F5FB10BD12
:40594000F40E002010B507F0F1FB01F065FF01F0B3FF00F04FFA00F067FA02490020087010BD0000840D002070B504460120002C12D02368002B0FD0616800290CD0074D25
:4059800006222889208118462968FFF7C6FA6968606809780170002070BD00005C110020FFB585B0002768460E9D07734C481C460078002802D0082009B0F0BD10990F983A
:4059C00001900095029105A807C800F0FBF80028F2D16946264603AB84460873002C19D0002115E08A00B75A082F09D990198078002805D0083FB7521878401C187005E070
:405A0000002915D00027B75290198770491CC9B2A942E7D360460028CED10F9800280AD0109901F095FA0006000E04D00120C3E701208446EEE701F0EFFE2948002101617F
:405A40000C300599016021888180022D03D3A1798171A17AC17100211EE0481C19E082008B00A75AE65ABE46BE4211D26F463E80B4461E190296B678BE7001967646E6520F
:405A80001719029EBB78B3706646A652019EBE70401CA842E3D3491CA942DED3114800906846037B22460799069800F013F9002882D168460A4C007B60700A4801F0DCFEB4
:405AC0000028B4D1204607490C3007F011FB0028ADD107F033FB0028A9D1012121706BE7840D00205C110020F8B5054633480E460078002802D002242046F8BD002E5BD081
:405B000000242F49002D16D02A89D0070DD02868002808D003881B3BE12B04D24088FB2801D81B2801D2012409E0900707D56868002804D1F7E70020088108604860002C11
:405B4000DAD11F482F8907811C481B21801D018041800421017119490020891C0870F80705D016480622801D2968FFF7D6F91449B80703D56A681148127882700F480D468C
:405B8000801D0860001F486001F0C8FE0B48801D01F0B6FE28890DF0F1FA28890DF06AFC03461033FFF784FE1F21C018890140180249308088809FE701249DE7840D00203F
:405BC0005C110020FFB58446384F1C460020BB883F78054602460646002F11D100290ED0029999420BD36146002908D0002C06D00A99002906D02E4B0B99994202D2012013
:405C000004B0F0BD002144E0AB001F19BF78002F3BD0E35A002B38D07B43591889B22B0000F04AF8050410161C253100A7782388BC46FF27233BEB37BB4222D26346032B58
:405C40001FD322E0A388002B1FD0302B19D31CE02389002B19D0282B13D316E0A289002A13D01346134F233BBB420AD20DE0268A002A0AD033460F4F233BBB4201D2964211
:405C800003D901200EE0002001E000280AD16D1CEDB2099B9D42B7D31C2463435B1802998B42ACD89642AAD8AAE70000840D002079020000BAFF000030B47446641E2578EE
:405CC000641CAB4200D21D46635D5B00E31830BC18470000FFB583B0002469460C801F4606468C80002806D00598002803D004983043800701D0012467E0002FFBD03449BE
:405D0000049809888842F6D3FEF7DAFEFEF7C8FE00F06CFC002856D100F0CAFD002852D12C49084601F048F905042D0C4BD12A480499066081800021C18007810C98007AA1
:405D4000C00704D0684601F080FD040007D10C98007A800703D501A801F080FD0446BF1DFEB2002C21D13146059800F089F804001BD10DF08DFB0406240E16D16A461088A3
:405D8000928808368518144AF1B29088D288AEB29319984207D3401B801A80B201F0FEFB050007D000E0FF25012400F0B7FA002D04D008E0F8B200F047F9F6E700F0DAFAA0
:405DC00006490120087000F023FC204607B0F0BD880D00206D5F000068110020980D002010B503480078012801D101F079FA10BD980D002010B500F0F9FD002803D100F0F3
:405E00000BFC002801D0FF2010BD0548007A801DC0B200F031F9034A0020107010BD000068110020980D002010B500F0FBFD01F0F5F80449002008608880C88008810249EA
:405E4000087010BD68110020980D002070B5084B0446DA889E8800205518B54206D81D68AA182260DA885118D98070BD032070BD68110020014800897047000068110020AE
:405E8000F0B587B007460D4600208900009006916846FFF7DBFF844600285DD1304800990160002117E02E4B88001A680629115406D22C4C0419667882185670628805E0DD
:405EC000C419203CA67A8218567022891B68C018491C4280C9B2A942E5D300242DE0601CC2B2059025E01E4FA30039689600581840887118039604904E88B04217D9384678
:405F00006F46FE80B6464F786E4677710297049F4F800168039F5E18767879184E700168764659184E800068029F18184770521CD2B2AA42D7D30598C4B2AC42CFD36046E1
:405F4000002809D168460699FFF780FF8446002802D1054900980860604607B0F0BD00009C0D002088810100A00D00207047000010B5002809D005494A68002A05D0011F04
:405F800008788000105801F0B7FA10BD9C0D002010B50446FFF76EFFC0B2801DA0420CD307484068002808D0A100405801F016FA002801D00470001D10BD002010BD00008A
:405FC0009C0D0020F8B516460D460446FFF752FFC0B2801DA04203D20020C0430090F8BDB2B2E9B2684601F01FFA0099481C03D0024AA000526811500098F8BD9C0D002019
:40600000F8B50746FFF736FF801DC6B20A49002005460C680DE06178002907D06188B94202D32078FFF7B4FF002804D1241D6D1CEDB2B542EFD3F8BD9C0D002010B50028AA
:4060400001D0FFF795FF10BD70B506460948002504680BE06178002905D062882078121D0023FFF7AFFF241D6D1CEDB2B542F1D370BD00009C0D0020F8B5084F06460024DD
:406080003D6808E0287879688000085801F0E0FA2D1D641CE4B2B442F4D3F8BD9C0D0020FFB581B00A9C16002BD000F0F1F80546042826D0214F002C0BD02046FFF7A0FF38
:4060C0002901C919486000281BD022460499FEF724FF1A4928010E5046187481019805707D20029CC000444300F0C0F8009004280AD000F071FAA0420ED800F06DFA201AFD
:4061000006E0FF2005B0F0BD204600F0CBFA0020B08135720020F5E700F05EFA074600F0D7FA381B87B23846012100F00BF900980101024808188781E6E7000074110020F5
:40614000F8B5060117483418217A042903D0A089002802D018E00020F8BD00F03DFA054600F0B6FA00F0A2F804280DD001010D480F18B88941198DB2002100F0E3F800202C
:40618000B881284600F08EFA6068064D002801D0FFF754FF042020720020A8516081A081D9E7000074110020FEB500266A46304601232549050169180D7A042D02D0898979
:4061C00000291BD000211154401CC0B20428F0D300246846005D002830D01B482101081841894768056802910021016041600422418102728181002E02D015E01354E3E72C
:4062000000F054F804280ED001010F480818019086890021304600F095F8019800218181304600F03FFA0126002D07D038460299A847002F02D03846FFF700FF641CE4B2D3
:40624000042CC6D3FEBD0000741100200EB5002005216A460090118150810348694600680DF0B7FF0EBD0000A40D0020074A0020010189180B7A042B02D08989002903D0F0
:40628000401CC0B20428F3D370470000741100200549002002015218127A042A03D0401CC0B20428F6D370477411002030B50A4B04200A4C00210A011219157A042D06D09A
:4062C0009289002A03D09A4201D808461346491CC9B20429EFD330BDFFFF00007411002070470000F8B500250B4F2E462801C419217A04290AD0042121723E506068002896
:4063000002D0FFF79BFE66606681A6816D1CEDB2042DEBD3F8BD00007411002030B50020074C05460423020111190B72A5504D60401C4D81C0B28D810428F4D330BD000017
:406340007411002030B5094C00231A011219157A042D04D09589002906D02D1895815B1CDBB2042BF1D330BD2D1AF7E774110020002070471CB5002469460C70142001905F
:406380002346054A05480DF029FF04480068401C00D1FF2420461CBDF1630000A40D00203EB5124A0146FF2000230124126800290DD0012914D0042908D104206946009354
:4063C00008814B8110460DF004FF80B23EBD6846009304814381694610460DF0F5FEF4E768460093048143816946EBE7A40D002070B545890468416800890300FFF75CFCAD
:4064000008280509091E22282628002005F082FD1EE0022908D0C8B22A4621460CF03AF82046FFF70BFE13E002202A4621460CF031F82946204600F00DF809E000200DF005
:40644000AFFB05E02046FFF7AFFE01E0FEF75AFB002070BD014B0022DB681847A80D002070B5448905680089022803D0032809D0FF2070BD2246094C0023A4682946012076
:40648000A04708E0FFF744FA241DA2B200232946022006F0DEFC002070BD0000A80D002070477047024800214160018041807047A80D002070B50C46002186B01646039198
:4064C000012802D0022859D116E003A9012006F020FD01281BD1039D324621462846FEF71CFD0095287801900220694608814E816846FFF7B5FF41E0214D002B686809D0BD
:40650000049004A9022006F004FD01281DD0022006B070BD002812D0298840182146FEF7FCFC28880024801980B228806988091D884206D12C801348FFF792FF03E00320EC
:40654000E6E788421AD96C6018E004986860E278A378110219430B4A698000231060E3565360032313815181A1788170E178C1706178417021780170042028800020C7E77A
:40658000A80D0020B41100203EB515460C46022803D004280CD000203EBD0091019002206946088107484A8100680DF012FE07E00BF070FF044B0022DB682946204698479D
:4065C00001203EBDA40D0020A80D0020014AD16090607047A80D0020034801688068081A0A21484300097047C011002010B5FEF75BFA482204490548FEF78FFC03490120BC
:40660000C870002010BD0000A4810100C415002010B5FEF741FA10BD0020704770B5134C2368002B08D0207B1149C20705D04008400020738868A08070BD88680B4AA18812
:4066400080B29268814203D90A4D691A091802E0814202D2411A5118A160A080A0689842EAD30DF0D3FD00F013F870BDC0110020C0102E40FFFF000010B508461946FFF7CD
:40668000A5FF10BD704710B5FFF77EFF10BD000003480021016041608160C16070470000C0110020024610B5FF20002A0CD0FFF7EFFF064C0321207B0843207310010A2154
:4066C000FEF7EEFA2060002010BD0000C011002000B504480A21806848430209FFF7D8FF104600BDC01100200248007B8007C00F70470000C011002010B544490868002837
:4067000002DA434B01221A70022290430860414800693E49C00B4031096A08425ED0012000F0D0FA3B483C497C30FEF715F937480E216C30FEF710F9364820218430FEF701
:406740000BF9344814219C30FEF706F93148FF21C131A430FEF700F92E48FF212F31B030FEF7FAF82B482D49BC30FEF7F5F829482B49AC30FEF7F0F829492648491CB4301C
:40678000FEF7EAF823482749B830FEF7E5F821482549CC30FEF7E0F81E4824490830FEF7DBF81C482249A830FEF7D6F8194821498830FEF7D1F817481F498C30FEF7CCF813
:4067C00014481921C9029030FEF7C6F8FEF7C6F8FEF77EF9C0B2022802D00FE0FF2010BD16491748FEF7B8F815481649001DFEF7B3F8134800210830FEF7AEF85420044971
:40680000C043891C0870002010BD000000F02E40B80D002000002E4055650000320300002F3F00003102000010520000EC160000FA12000031D000003AE30000995600008D
:4068400080012E40F80F000070B50646581C80B245086D00002408E0304600F0C1F81055000A1119A41C4870A4B2AC42F4D3D80705D0D0182038D15CC47FD454C17770BD19
:4068800030B50A4C002100195B1E07E0541864782502545C2C430480891C89B29942F5DB994201D1515C018030BD000000102E4010B5FF2000F006FA0F49FF2048700E48C7
:4068C0001021801D41800121417001700A490020C91C4870FFF710FF04000AD100F01AF907210648FEF736F8044807211830FEF731F8204610BD0000B80D0020CC112E40F8
:4069000070B5002405465B1E0AE0284600F068F8010A161971702D1D1055A41CADB2A4B29C42F2DB9C4203D1284600F059F8105570BD000070B500210A4D5B1E0AE0541859
:4069400064782602545C344346193480001D891C80B289B29942F2DB994202D1515C4019018070BD00102E40F0B50599091FCFB200217E1E0BE0541864782502545C2C4300
:40698000164D45192C80001D891C80B289B2B142F1DBFC0712D01C78515C24020F4A0C4381180C809C785D78001D210280B2294384182180001D80B2D9780CE059781A7870
:4069C00009021143054A84182180001DD9789B78090280B2194380180180F0BD00102E40014940180088704700102E4010B50B490020487000F08EF8002000F089F90020D6
:406A000000F076F907210648FDF7A4FF044807211830FDF79FFF002010BD0000BB0D0020CC112E4010B506480078012803D102210448FDF791FF02490020C91E087010BD6A
:406A4000BB0D002070F02E4010B50B46062812D006DC01280CD0032801D1FFF7C7FF10BD0A28FCD00B28FAD105480078107010BDFFF71EFF10BD1146184600F065F910BD0F
:406A8000BE0D0020F8B5204DAC6A0127A0071F4E002816DA307806280ED1286A384328621B480069F903084381B219481030FDF753FF042000F006F9134802212830FDF711
:406AC00049FFE00711D0062000F0FCF80F49FF20C91E48707078002802D1686B38436863094801212830FDF735FFE0050BD53078042802D1052000F0E5F80348FF2101317C
:406B00002830FDF727FFF8BD40F02E40BB0D002000002E4010B503212348FDF71DFF0120FDF7B6FF20483038406A204C80076178800F890001431C480C38FDF70DFF6078EA
:406B4000002808D0401E022181401820FEF798F9C000083800E0B82081B21548FDF7FCFE1348032109021438FDF7F6FE10481149B830FDF7F1FE612189010F48FDF7ECFE63
:406B80000D480321001FFDF7E7FE0C490C48FDF7E3FE0B480B496038FDF7DEFE084801218838FDF7D9FE10BD70F02E40BE0D0020D8102E4090890000041E2E40FF0F000047
:406BC00058122E4020900000044800684007400F022801D0002070470120704700010B4000B5FFF7F1FF002805D009480168C908C900016000BD0748016A4908490001620C
:406C0000054801690122D2039143016100BD000000010B4040F02E4000002E400849087806280BD148780749002803D1486B400840004863C86A01221043C8627047000004
:406C4000BB0D002040F02E400148007870470000BB0D002002484078022800D001207047B80D002000B50300FFF726F8080D050D0B070507090D012000BD032000BD04206C
:406C800000BD022000BDFF2000BD0000074A9168D26889B2064B92B2994204D105498A4201D1012100E000210170704780002E4033D000003FE30000014948707047000055
:406CC000BB0D002010B50446FDF7EAFE072C01D9FF2C01D102480470FDF7DEFE10BD0000BB0D00200149487070470000B80D002010B5064A012805D01921C9021046FDF774
:406D00002BFE10BD1D21C902F8E7000090002E4010B50A4A141D012808D009491046FDF71BFE08492046FDF717FE10BD04491046891CFDF711FE0349491DF3E788002E401D
:406D400031D000003AE3000070B50C460546FDF7BFFEC0B202280E49287804D0FF2810D04C280CD810E0FF2809D10A4AD0680004800F032801D0087807E09069000A5538B9
:406D800003E00878207070BD4F382070087070BDBA0D002000002E40F0B50122002830D000292ED00424420600D00524792342065B06D21800D0641C034600221EE00C2509
:406DC00016466E43104D00277519AF720E4F002ABB51696007D0661EB24209D10B4E86197606760E05E05E06760E8027BE1B00E080269B198919521C2E81D2B2A242DED377
:406E000000221046F0BD00004C14002079020000074900200C2242435218927A012A05D0401CC0B20628F5D300207047012070474C140020F8B50F000446164609D0184D06
:406E400018496868A04202D94018A04201D38E4201D90120F8BD39462046FEF74FF800281BD0324639462046FEF757F8F0B200210C224A43521913895668F718A74208D9A5
:406E80000127A41B1B1B9772834206DAC01A1469C0B2491CC9B20629EAD30020F8BD00004C1400207902000010B500F061F80748054AC16806480C46FEF72FF8044920465E
:406EC000FFF76AFF10BD000079020000C40D0020D011002010B500F04BF810BD002070470020054A002902D0012902D002E0506000E0906000207047C40D002070B5084C54
:406F0000154608460549A26889182A46FEF705F8A0684019A06028B270BD0000D0110020C40D00203EB50A226946FFF7E7FF044606480A2200686946FDF7E0FF002802D0A1
:406F40000020C0433EBD20463EBD0000C40D0020002802D0044A914201D2FF20704703490A61C8600020704779020000C40D0020024800214160816070470000C40D002026
:406F800070B5074C15460548626880182A46FFF751FF60684019606028B270BDD0110020C40D002010B503490A220968FFF7E8FF10BD0000C40D002010B50F4A00231360C2
:406FC0000E4A13600E4B18600E4801600E49012008600E490860000290600E490C4808600D4914300860FF381538506000F0BEF800F0CCF9002010BDF00D0020D80D0020FA
:40700000040E0020080E0020F40D0020E40D002094150020E80D0020FC0D002000207047014610B50020002910D0094B1A689C685118A14209D25868196080188A0704D06C
:407040008A07920F891A091D196010BD002010BDD80D0020F8B50024164E671E321F3D463168136806E01422624310328A58521C1BD0641C9C42F6D36A1C14D02C461422C4
:40708000544322460C3288500C214843FFF7C8FF3168002808510AD031680020103408517068401C70602846F8BD2546E4E73846F8BD0000E80D0020F3B50026F64381B01F
:4070C00000281BDB1E490968884217D80299002914D01B4F142204463F1D54432546396810354859401C09D0FDF7DAFC38682F1F4159C359994203DBFDF7CEFC3046FEBD1F
:40710000214608310091465801590C20704308180C220299FDF701FF0948761C001D0068C159B14200D100260549009A091D865008684159491C4151FDF7AEFC0020FEBDA0
:40714000E40D0020002803DB07490968884202D90020C043704704491422091D096850431030085870470000E40D0020F0B500200D4A451E0346171F50600FE01426014685
:40718000714314680E1DA3510C461668083433511668083435511468401C635039688842ECD30020F0BD0000E80D0020F3B50026F64381B0002841DB2349096888423DD8E1
:4071C000029900293AD0204F142204463F1D54432546396810354859401C2FD0FDF760FC3868415900292BD0211D009146580C21005971430F46C1190C220298FDF78DFEC7
:4072000011480021001D0068761C00590C34C0190160416081600C48001D00680159B14200D100260849009A091D865008684159491E4151FDF730FC0020FEBD3046FEBD35
