:400000000040002011000000DD0A0000DD0A000080B500AF00F08EFD80B500AF294B12221A6001F041FF284B181C01F06DFF012001F04AFF302001F095FC244B244A1A6063
:40004000244B8022D2051A60234B234A126802210A431A60214B224A1A60224B00221A60214B214A126808218A431A60FA23DB00181C01F0C3FC1D4B181C01F0D9FD1C4B1D
:40008000902252011A601B4B1B4A1A601B4B882292011A60174B1A4A1A601A4B802212061A60194B8022D2021A60184B40221A60174B41221A60074B8022D2051A60BD466C
:4000C00080BDC04630001040001BB70004010B40060000800C020B4078002E407C002E406A2D000064F02E406CF02E40DC050000000301400000014040FF008004030140DC
:4001000041FF008008010B4000010B401C0101400401014080B582B000AF72B6434B00221A60FB1D00221A7023E0FB1D1A78131C5B009B185B003E4A9B183B603B681A783F
:40014000597809020A43997809040A43DB781B061343191C3B681A795B791B0213439BB2081C191C00F06AFDFB1D1A78FB1D01321A70FB1D1B78012BD7D92E4A2E4B101C4F
:40018000191C00F06BFD2D4BEE2212061A602C4B992212041A602B4BC02292011A602A4B992212041A60294B992212041A60284B992212041A60274BC02212041A60264AE0
:4001C000254B1B78DBB202210B43DBB21370234A224B1B78DBB23C218B43DBB214210B43DBB213701C4A1C4B1B78DBB216210B43DBB213701A4BD82212041A60194B202292
:400200001A60194BC42292021A60184B20221A60174B08221A60174BC02212011A60FFF7FBFE00F05BFDBD4602B080BD6CF02E40404201004C420100544201000000024018
:40024000000102400003024000500F4010500F4030500F4038500F4000700F4001700F4008000440000104400801044018010440000304400803044010B5064C2378002BD5
:4002800007D1054B002B02D0044800E000BF0123237010BDA00F0020000000003442010008B5084B002B03D00748084900E000BF07480368002B00D108BD064B002BFBD055
:4002C0009847F9E70000000034420100A40F0020A80B00200000000080B582B000AF00237B6000237B601DE07B685A1C131C1B019B1A9B00164A991815487A68131C1B0184
:400300009B1A9B00C3183833196011497A68131C1B019B1A9B00CB18303300225A607B6801337B607B68082BDEDD094A95239B000749D150064A94239B000021D150054BA7
:40034000034A1A60044B024A1A60BD4602B080BDC00F0020181200201C12002090B585B000AF7860081C111CBB1C021C1A807B1C0A1C1A700B23FC1801F0CFFD031C23704F
:40038000714B1B68002B06D0704B1B68002B02D07B68002B06D10B23FB181B78181C01F0C0FDCDE0684B1B685B6B002B0ED0664B1A68664B1B689A4208D1644B1B68002205
:4003C0005A63624B1B689A6B604B1A60BB1C1A8880235B009A4218D15B4B1B68191C7B68DA687B681B7A013B081C111C1A1C02F0B0F9554B1B687A68127CD2B25A77524BCC
:400400001B687A68127A1A6380E04F4B1B6803221A634D4B1B6843221A704B4B1B6859225A707B681B7A1F2B18D9474B1B6800229A70454B1A68444B1B681B6BD2187B685C
:40044000DB68101C191C1F2202F083F93E4B1B683D4A1268126B1F321A6357E0BB1C1B883B4A934236D1384B1B6801229A700023FB600EE0344B1968FB68DA1C7B685B6821
:40048000F8680524201A1B181B788B54FB680133FB60FB68052BEDDD2B4B1B687A68127CD2B25A72284B1B680A33191C7B68DA687B681B7A081C111C1A1C02F04AF9224B9E
:4004C0001B68214A1268126B7968097A521807321A631BE01C4B1B6800229A701A4B1A68194B1B681B6BD1187B68DA687B681B7A081C111C1A1C02F02CF9134B1B68124ACD
:400500001268126B7968097A52181A630E4B1B68BA1C12885A850C4B1B687A1C127892B29A85094B1B6801225A63074B1B689A6B054B1A600B23FB181B78181C01F0F1FCB0
:40054000BD4605B090BDC0461C120020181200200102000090B583B000AFFC1C01F0DDFC031C23702F4B1B68002B03D02E4B1B68002B05D1FB1C1B78181C01F0D2FC4EE057
:40058000294B1B685B6B002B05D1FB1C1B78181C01F0C7FC43E000237B6011E07B685A00224BD118204B1A687B68D3181B781A1C1F4B081C191C02F0DDF87B6801337B6046
:4005C000194B1B681A6B7B689A42E7D8164B1B681B6B5B00154A0D21D154134B1B681B6B5B000133114A0A21D1540F4B1B681B6B01335B000D4A0021D1540B4B1B6800226F
:400600005A63094B1B689A6B074B1A60FB1C1B78181C01F086FC054B181C01F089F8BD4603B090BD1C12002018120020201200203842010080B500AF01F0ACF801F082F9C1
:40064000BD4680BD80B582B000AF7860052001F089F87B68181C01F029F9FF2001F05CF901F0DEF8BD4602B080BDC04680B500AF012001F077F801F0E5F801F063F9BD46E4
:4006800080BDC04680B500AF1A4B1B78002B0AD1184B1B78DBB2013BDBB2DAB2154B1A70FFF7E4FF23E0134B1B785BB2002B00DA1DE0104B1B78DBB2013BDBB2DAB20D4B4F
:4006C0001A700D4B1B68012B02DD0B4B00221A60094B1B68002B03DC0020FFF7B3FF01E0FFF7C4FF044B1B685A1C034B1A60BD4680BDC046BC0F0020A012002090B583B0CA
:4007000000AF00237B60FFF7BDFFFC1C01F005FC031C23701A4B1B68002B03D0194B1B68002B05D1FB1C1B78181C01F0FAFB23E0134B1B687B6015E07B685B6B132B09D98F
:400740000F4B1B6800225A630D4B1B689A6B0C4B1A6004E07B685B6B5A1C7B685A637B689B6B7B60074B1B687A689A42E4D1FB1C1B78181C01F0D5FBBD4603B090BDC046B5
:40078000181200201C12002080B588B000AF786039607B68202B00D050E11723FB1800221A701F23FB1800221A703B683B6100F09FFF021C1723FB181A701723FB181B7849
:4007C000002B0ED01723FB181B780D2B09D01723FB181B780A2B04D09A4B1722BA1812781A703B69002B00D128E13B69DB6803331B781A2B33D13B69DB6804331B78FF2B95
:400800002DD13B69DB6807331B78022B27D13B69DB6809331B78002B21D13B69DB680A331B78052B1BD13B69DB680B331B78002B15D13B69DB680C331B78012B0FD11F236B
:40084000FB1801221A70396980235A001F23FB181B78081C111C1A1CFFF780FDE4E0794B1B78312B00D1DFE03B69DB6803331B781A2B05D03B69DB6803331B781B2B11D18E
:400880003B69DB6804331B78FF2B0BD13B69DB6807331B78022B05D11C23FB18802252001A80B5E03B69DB6803331B78032B00D0A9E03B69DB6804331B78032B00D0A2E0ED
:4008C0003B69DB6805331B78AA2B00D09BE03B69DB6806331B78FE2B00D094E03B69DB6808331B78162B00D08DE03B69DB6809331B78AA2B00D086E03B69DB680A331B785B
:40090000FE2B00D07FE01C23FB184F4A1A803B69DB680B331B78002B1CD13B69DB680D331B78CB2B16D13B69DB680E331B786F2B10D13B69DB680F331B78152B0AD13B69C2
:40094000DB6810331B78CE2B04D11F23FB1801221A7057E03B69DB680B331B78102B05D03B69DB680B331B78202B4BD10023BB6145E0BA69131C1B019B1A9B00334A9B181E
:40098000FB60FB689B8D1A1C0123134000D133E0FB681A7A3B695B681B789A422CD1FB68DA793B695B6801331B789A4224D1FB689A793B695B6802331B789A421CD1FB6870
:4009C0005A793B695B6803331B789A4214D1FB681A793B695B6804331B789A420CD1FB68DA783B695B6805331B789A4204D11F23FB1801221A7005E0BB690133BB61BB693C
:400A0000092BB6DD04E01C23FB18802252001A8039691C23FB181A881F23FB181B78081C111C1A1CFFF79AFC1F23FB181B78002B03D0074B02221A70FFE7C046BD4608B00D
:400A400080BDC046AC0B002001020000C00F0020BC0F002080B500AF00F098FD011C084B1A6880231B02134001D0012300E00023CB185A425341DBB2181CBD4680BDC046FF
:400A80000802244080B500AF62B6FFF7D3FDFFF723FC01F0E1F801F04BF9021C64235343181C01F037F90B4B0020191C01F07CF900F0E0FC084B181C00F03EF9002000F0C7
:400AC000D5F9FFF7C7FF031E01D0FFF743FD02F081FAF6E7FD0600008907000080B500AFFEE7C04680B584B000AF78600F4B1A687B68D3181A1C0E4BD31A802B09DC0B4B9C
:400B00001B68FB60094B1A687B68D218074B1A6007E001F0E3FD031C0C221A6001235B42FB60FB68181CBD4604B080BDB00B0020C024002080B586B000AF224B7B61224B93
:400B40003B61204B7B6135E03B691B68FB603B695B68BB603B699B683B6000237B600CE0FB681A68BB681A60BB680433BB60FB680433FB607B6804337B607A683B689A420B
:400B8000EED13B69DB683B6000237B6008E0BB6800221A60BB680433BB607B6804337B607A683B689A42F2D13B6910333B617B69013B7B617B69002BC6D101F095FDFFF723
:400BC00061FFFEE7010000008846010080B582B000AF154B144A126801218A431A6000237B600FE07B68032B04D8104B7A689200D35800E00E4B0F4A796889008B507B689B
:400C000001337B607B682F2BECD9FFF783FA0A4B00221A60044B044A126801210A431A60BD4602B080BDC0460000104000000000DD0A000000000020C000002080B582B0A9
:400C400000AF786039607A683B68101C00211A1C01F088FDBD4602B080BDC04680B586B000AF7860396000233B6100237B612FE07B699B007A68D3181B68BB600F23FB1857
:400C8000BA681A70BB68FF229343BB6018E03B695B003A68D3181B781A1CBB68D318191C3B695B003A68D3185B780B703B6901333B610F23FB181A780F23FB18013A1A7094
:400CC0000F23FB181B78002BE1D17B6901337B617B69012BCCD9BD4606B080BD80B500AF054B03221A60054B03221A60044B00221A60BD4680BDC04630003040300031406C
:400D0000000E3F4080B500AF064B00221A70064B00221A70054B00221A7000F009F8BD4680BDC0462F240020282400202E24002080B500AFBD4680BDB0B594B004AF78606C
:400D40003E23FB1800221A802823FA183E4B111C1A1C1423081C111C1A1C01F0FAFC3B4B1B78002B04D1FFF7CDFF384B01221A707B68002B5CD0364B7A681A603E23FB18BF
:400D80001B88002B29D11023FB181C22BA185A601023FB182022BA181A601023FB1800221A812023FB181B221A802023FB181B225A802023FB1804221A711C23FB1800226F
:400DC0001A703E23FC181023FA180E23FB18101C191C02F0D5F9031C23803E23FB181B88002B29D13E23FC181A481B49AE231A012823FD1805230093184B0193184B02931B
:400E00002B1C02F019F9031C23803E23FB181B88002B11D1134B01221A703E23FC18124B181C162104220EF013FC031C238003E03E23FB1801221A803E23FB181B88181CE5
:400E4000BD4610B0B0BDC04660420100A41200201C24002011110000C8000020004F010079020000262400207C42010090B585B000AF021CFB1D1A70FB1D1B78022B04D9C7
:400E80000E23FB1801221A8037E0FB1D1B78002B0BD11D4B00221A811B4BFA2292015A80194BFA2292019A800EE0FB1D1B78012B0AD1154B96221A81134B802212015A80E7
:400EC000114BE122D2009A80104BFA1D12781A700E23FC180C4B181C0CF0ACFD031C23800E23FB181B88002B07D1094B1B78DBB204221343DAB2064B1A700E23FB181B88C2
:400F0000181CBD4605B090BDB40B00202E2400202F24002080B582B000AF78607B681B789AB27B6801331B789BB21B029BB213439BB2181CBD4602B080BDC04690B585B05A
:400F400000AF78600F23FB1800221A707B689B890922934237D17B681A1D7B680F217C18101C00211A1C40230EF08AFB031C23700F23FB181B78002B1DD17B685B68181C43
:400F8000FFF7C8FF031C1A1C022313409BB2002B08D0104B1B68822251007A68081C111C984708E00B4B1B680622FF32111C7A68081C111C9847084B1B78DBB201229343AD
:400FC000DAB2054B1A700F23FB181B78181CBD4605B090BD1C2400202F24002090B585B000AF78600F23FC187B68181CFFF7A6FF031C2370144B1B78DBB21A1C01231340D0
:401000001FD10F23FB181B78002B16D00823FB1812229A707B689A890823FB181A800823FB180F22BA181278DA707B680822BA181868111C0DF06AFD03E07B6818680DF035
:40104000E7FDBD4605B090BD2F24002080B582B000AF7860BD4602B080BDC04680B500AF034B00225A70024B00221A70BD4680BD2C24002080B582B000AF7860BD4602B0C4
:4010800080BDC04680B500AFBD4680BD80B584B000AF78600E23FB1800221A707B689B79002B1CD10F23FB1800221A7012E00F23FB181B787A68D35C002B04D00E23FB18CB
:4010C00001221A700BE00F23FB181A780F23FB1801321A700F23FB181B78052BE7D90E23FB181B78181CBD4604B080BD80B582B000AF021CBB1D1A80BD4602B080BDC0461A
:4011000080B582B000AF7860BD4602B080BDC04680B588B000AF021C3960FB1D1A70B84B1B78DBB201221343DAB2B54B1A70FB1D1B78712B00D947E19A00B24BD3181B6855
:401140009F461023FB1807221A701023FB1800225A701023FB18181C03F07AFE1023FB1807221A701023FB1801225A701023FB18181C03F06DFEA44B1B68181CFFF786FF55
:40118000031E05D0A04B1B68181C01F027FF2CE09E4B1B781A1C3F231A409D4B1B78191C3F230B409B011A439A4B1B78191C1F230B401B031A43984B1B78191C7F230B4063
:4011C0005B041343BB61BB69DAB2944B1A70BB691B0ADAB2914B5A70BB691B0CDAB28F4B9A708E4B181C01F0F9FE00200CF036FB0C23FB183F221A700C23FB1800225A7032
:401200000C23FB18181C0CF047FB854B04221A70DBE03B68181CFFF72DFFD6E03B681A78804B1A70D1E03B687B617B691B78002B18D17B695B78002B0BD17B4B0022DA80CB
:40124000794B00229A80784B784A1A607B69764A5A606B4B1B78DBB201229343DAB2684B1A70B2E0B1E0664B1B78DBB21A1C2023134007D16E4B1B78102B03D16C4B0522A8
:40128000DA70A2E0A1E03B68181CFFF739FF9CE03B68181CFFF734FF614B02221A7094E05F4B04221A7090E05D4B1B78022B34D0534B1B78DBB21A1C012313402DD0504B59
:4012C0001B78DBB21A1C042313400BD0544B03221A704B4B1B78DBB204229343DAB2484B1A701AE0464B1B78DBB21A1C082313400BD04B4B04221A70414B1B78DBB2082244
:401300009343DAB23E4B1A7007E0454B1B78032B03D1434B04221A7057E056E03B681B88181CFFF7E3FE50E0424A3B68111C1A1C0223081C111C1A1C01F00BFA394B002226
:401340001A703C4B1B781A1C131C5B009B185B009E2292009A18384BD3180133374A111C1A1C0623081C111C1A1C01F0F2F9FFF789FE2AE0FFF772FE27E03B685B88162B2A
:4013800005D81E23FB183A6852881A8003E01E23FB1817221A803B681E22BA1811881A8800231204120C1B0C1B041343181C0DF0B7FB0AE03B68181CFFF710FE05E03B68C9
:4013C000181CFFF743FE00E0C0460D4B1B78DBB21A1C112313400FD0094B1B78DBB201229343DAB2064B1A70154B1B68FA1D11783A68081C111C9847BD4608B080BDC04661
:401400002F24002034440100C80B00207CF1FF0F7DF1FF0F7BF1FF0F78F1FF0FC00B00202624002028240020B8120020A80B0020240C00202C240020004F010020240020F3
:401440001C24002080B500AF00F0C0F8BD4680BD80B500AF064B064A1268802109060A431A6000F019F800F01FF8BD4680BDC0460000244080B500AF064B1B78002B04D150
:40148000FFF7E0FF034B01221A70FFF7E1FFBD4680BDC046C012002080B500AF092000F095FBBD4680BDC04680B500AF00F006F9BD4680BD80B582B000AF00237B60044B05
:4014C0001B687B607B68181CBD4602B080BDC0464003244080B582B000AF054B1B681F2213407B607B68181CBD4602B080BDC0460803244080B584B000AF78601C4B1A6829
:401500001C4B1B689A4209D11B4B1B681F221340082B03D0194B7A681A6026E0144B1B680133FB60FB68802B01D10023FB60C046104B1B68FA689A42FAD0114B02221A600D
:401540007B68D9B20F4AFB68D3180A1C1A70084BFA681A600C4B1B680222134005D10A4B094A126802210A431A60BD4604B080BD3424002030240020080224404002244050
:40158000800F244038240020880F244080B582B000AF0C4B1B683B600B4B1A683B689A4205D3094B1A683B68D31A7B6005E0064B1A683B68D31A80337B607B68181CBD46D6
:4015C00002B080BD302400203424002080B500AF244B254A1A60254B00221A60244B01221A60244B244A1A60244B07221A60244B00221A60234B01221A60234B1E4A1A60ED
:40160000224B00221A60224B04221A60092000F0F1FA0920032100F085FA1E4B0920191C00F05AFA1C4B00221A601C4B00221A601B4B00221A601B4B00221A601A4B002238
:401640001A601A4B00221A60184B1B689AB2184B1A80184B00221A60174B00221A60BD4680BDC046000024400B000002400024404800244000032440070000800403244063
:401680001003244044002440000224400402244050002440291F0000880E2440C80E2440480F2440080F2440C80F2440880F2440C2120020342400203024002080B500AFDB
:4016C000074B074A126807490A40902109040A431A60054B054A12881A60BD4680BDC04600010240FFFF0FFF880F2440C212002080B582B000AF00237B60FFF7EBFE031E63
:4017000003D0FFF7D7FE031C7B60084B1A68D8239B00134005D000237B60044BD82292001A607B68181CBD4602B080BDC00F244080B584B000AF78600023FB6009E07A68B6
:40174000FB68D3181B78181CFFF7D4FEFB680133FB607A68FB68D3181B78002BEFD1BD4604B080BD80B582B000AF021CFB1D1A70064B064A126806491140FA1D1278520272
:401780000A431A60BD4602B080BDC04608030440FFF1FFFF80B500AF0F4BC022D2041A600D4B0D4A12681A60012000F063F80B4B0C221A60012000F0A3F8094B3F221A60D5
:4017C000084B181C00F064F8FA239B00181C00F06DF8BD4680BDC046000120402401204028012040FF7F000090B583B000AFFC1D00F093FB031C2370084B084A12680121F1
:401800000A431A60FB1D1B78181C00F08AFB0120182100F059F8BD4603B090BD0000204080B500AF064B1B78002B04D1FFF7B2FF034B01221A70FFF7D7FFBD4680BDC04613
:40184000C812002090B583B000AFFC1D00F065FB031C2370064B064A126801218A431A60FB1D1B78181C00F05CFBBD4603B090BD0000204080B582B000AF7860034B7A6801
:401880001204120C1A60BD4602B080BD0801204080B582B000AF7860034B7A681204120C1A60BD4602B080BD1401204080B582B000AF7860034B7A681204120C1A60BD461D
:4018C00002B080BD0C01204090B585B000AF786039600F23FC1800F020FB031C2370074B3A68796891400A1C1A600F23FB181B78181C00F016FBBD4605B090BD080020402F
:4019000080B582B000AF7860024B7A681A60BD4602B080BD3801204080B582B000AF7860C046064B1B68002BFBDB044B7A68120203490A431A60BD4602B080BD0000014031
:401940004000008080B500AFC046044B1B68002BFBDB024B024A1A60BD4680BD000001404000004090B58BB000AF78602723FC1800F0D3FA031C2370184B1A680C23FB18DB
:401980001A60174B1A680C23FB185A607B68033B144AD35C1A1C0C23FB189A60124B1A680C23FB18DA601C23FB18104A1A600C23FA181C23FB185A600D4B1C22BA181A60FD
:4019C0000C4B0D4A1A600A4B1B682723FB181B78181C00F0A6FABD460BB090BD08010B4000010B40FC45010030001040B6EA000008001040040010401700008080B584B07A
:401A000000AF78600023FB60154B154A126801210A431A60134B144A1A60144B134A1268802109020A431A607B68002B12D01023FB600CE0012000F0FBF800F019F8031E10
:401A400002D00023FB6005E07B68013B7B607B68002BEFD1FB68181CBD4604B080BDC04660F02E4078002E400220000010002E4080B582B000AF054B1B68012213407B605A
:401A80007B68181CBD4602B080BDC0460C002E4080B584B000AF021C3960FB1D1A7080239B05FB60FB1D1B780F2B02D9002000F0B5F8FB1D1B789B00FA68D3181B68BB60E0
:401AC000FB1D1B789B00FA68D3183A681A60BB68181CBD4604B080BD80B584B000AF021C3960FB1D1A7080239B05FB60FB1D1B781F2B02D9002000F091F8FB1D1B78103386
:401B00009B00FA68D3181B68BB60FB1D1B7810339B00FA68D3183A681A60BB68181CBD4604B080BD90B587B000AF021CFB1D1A70BB1D0A1C1A70BB1D1B78032B02D90020DB
:401B400000F06CF8FB1D1B781F2B02D9002000F065F8FB1D1B7803221340DB0006337B611323FC1800F0D9F9031C2370FB1D1B789B08DBB29B00144A944663441B68FB60D0
:401B80007B6903229A40131CDA43FB681340FB60BB1D1A787B699A40131CFA681343FB60FB1D1B789B08DBB29B00074A94466344FA681A601323FB181B78181C00F0B1F9AD
:401BC000BD4607B090BDC04600E400E080B582B000AF021CFB1D1A70054BFA1D12781F210A40012191400A1C1A60BD4602B080BD00E100E080B582B000AF021CFB1D1A70A7
:401C0000054BFA1D12781F210A40012191400A1C1A60BD4602B080BD80E100E080B582B000AF021CFB1D1A7001BEBD4602B080BD80B582B000AF021CBB1D1A80BB1D1B88BB
:401C4000044A12785343181C00F05EF9BD4602B080BDC046340C002080B500AF064B1B68002B04D100F00AF8034B01221A6000F037F8BD4680BDC046E012002080B582B0B0
:401C800000AF00237B6007E0124B7A6892000021D1507B6801337B607B68042BF4D90E4B0F20191CFFF7F4FE012000F04DF80B4B1B68181CFA23990000F08EFB031C181C22
:401CC00000F028F800F066F80F20FFF77FFFBD4602B080BDCC120020D51D00002C0C002080B500AF00F00AF8034B034A126801210A431A60BD4680BD10E000E080B500AFE1
:401D0000034B034A126802210A431A60BD4680BD10E000E080B582B000AF7860034B7A681202120A1A60BD4602B080BD14E000E080B500AF034B1B681B021B0A181CBD46D8
:401D400080BDC04614E000E080B582B000AF78607B68012B06D1084B074A126804210A431A6005E0044B044A126804218A431A60BD4602B080BDC04610E000E080B500AF5A
:401D8000034B1B681B0C01221340181CBD4680BD10E000E080B500AF024B00221A60BD4680BDC04618E000E080B584B000AF78603960074B7A689200D358FB60044B7A6880
:401DC00092003968D150FB68181CBD4604B080BDCC12002080B582B000AFFFF7CFFF031E012B13D100237B600DE00A4B7A689200D358002B04D0074B7A689200D35898474D
:401E00007B6801337B607B68042BEED9BD4602B080BDC046CC12002080B500AF0E4B0E4A126801218A431A600B4B0B4A126802218A431A60094B094A126830218A4310216A
:401E40000A431A60054B054A126807218A4301210A431A60BD4680BD00F02E4000FF2E4080B500AF0E4B0E4A126802218A431A600C4B0C4A126807218A4302210A431A601A
:401E8000084B084A126830218A4320210A431A60034B034A126801210A431A60BD4680BD00F02E4000FF2E4080B500AFFFF7B4FF044B044A1268802109060A431A60BD46B6
:401EC00080BDC04600F02E4080B584B000AF78600C4B1B6801221340FB607B68002B02D0012B03D005E0FFF797FF06E0FFF7B8FF03E00020FFF792FEC046FB68181CBD469A
:401F000004B080BD00F02E400230800803D00138FDD1C046C046C0467047EFF3108072B6704780F31088704780B582B000AF1C4B1B68002B02D01A4B1B689847194B1B6837
:401F40000222134029D0184B1A68184B1B689A4213D0164B1B6801337B607B68802B01D100237B60124B13497A688A181278D2B21A600E4B7A681A6006E00F4B0E4A12688A
:401F800002218A431A6005E00C4B1B681F221340082BD8D10A4B02221A60BD4602B080BDC41200208C0F244034240020302400204002244038240020880F24400802244037
:401FC000800F244080B582B000AF78600A1CBB1C1A80BB1C1A887B681A60BD4602B080BD80B582B000AF78600A1CBB1C1A80BB1C1A887B681A60BD4602B080BD80B584B0EB
:4020000000AF494B1B78DBB21B02484A1278D2B21343FB60464B1B78DBB21B02454A1278D2B21343BB60BB68434A934207D1FB68072B04D1414BBB600423FB6009E0BA68F8
:40204000D4231B019A4204D1FB68042B01D13B4BBB603B4BBA681A603A4BFA681A603A4B1B78DBB21B02394A1278D2B21343FB60FA6880239B019A4202D0FB68002B01D161
:40208000334BFB60334BFA681A60334B1B78DBB21B02324A1278D2B21343FB60FB68304A934206D0FB682F4A934202D0FB68052B01D12D4BFB602D4BFA681A602C4B1B6866
:4020C0001B097B602B4B1B68AA2B29D17B68012B26D9214B1B78DBB20E2B21D1264B1B78DBB29BB21B0299B2244B1B78DBB29AB2BB1C0A431A80224BBA1C12881A60214BB2
:402100001B78DBB29BB21B0299B21F4B1B78DBB29AB23B1C0A431A801C4B3A1C12881A60BD4604B080BDC046D9F0FF0FD8F0FF0FDFF0FF0FDEF0FF0F580B0000580D0000BD
:402140006C002E4074002E40DBF0FF0FDAF0FF0F0220000078002E40DDF0FF0FDCF0FF0F0F0F000005050000050F000080002E40EC0F00F0E00F00F06DF2FF0F6CF2FF0F68
:4021800084002E406FF2FF0F6EF2FF0F94002E4080B582B000AF021CBB1D1A80BB1D1B88181CFFF745FDBD4602B080BD80B500AF00F0DEF8BD4680BD80B500AF00F0E2F837
:4021C000BD4680BD80B500AF00F0DCF8044B181C00F09CF8032000F0A5F8BD4680BDC046CD23000080B500AF024B181C00F07CF8BD4680BDCD23000080B500AF0223FF33D6
:40220000181CBD4680BDC04680B582B000AF78602B23181CBD4602B080BDC04680B582B000AF78602B23181CBD4602B080BDC04680B582B000AF78602B23181CBD4602B02F
:4022400080BDC04680B582B000AF78602B23181CBD4602B080BDC04680B582B000AF78602B23181CBD4602B080BDC04680B582B000AF78602B23181CBD4602B080BDC046E3
:4022800080B582B000AF78602B23181CBD4602B080BDC04680B582B000AF78602B23181CBD4602B080BDC04680B500AF2B23181CBD4680BD80B582B000AF021CFB1D1A70D2
:4022C0002B23181CBD4602B080BDC04680B582B000AF786039602B23181CBD4602B080BD80B500AFBD4680BD80B582B000AF786000F048F87B68181C00F008F8032000F00D
:4023000011F800F035F8BD4602B080BD80B582B000AF7860024B7A681A67BD4602B080BD0000002090B585B000AF021CFB1D1A700623FB600B23FC18FFF7EFFD031C237092
:402340000A4B0A4A1268C0218A43111CFA1D1078FA689040021C0A431A600B23FB181B78181CFFF7DEFDBD4605B090BD0CE400E080B500AF024B802252011A60BD4680BD1B
:4023800000E100E080B500AF024B802252011A60BD4680BD80E100E090B583B000AFFC1DFFF7BBFD031C2370074B074A126804218A431A6030BFFB1D1B78181CFFF7B1FDA0
:4023C000BD4603B090BDC04610ED00E080B500AF11F01CFFBD4680BD002243088B4274D303098B425FD3030A8B4244D3030B8B4228D3030C8B420DD3FF22090212BA030CA1
:402400008B4202D31212090265D0030B8B4219D300E0090AC30B8B4201D3CB03C01A5241830B8B4201D38B03C01A5241430B8B4201D34B03C01A5241030B8B4201D30B03A1
:40244000C01A5241C30A8B4201D3CB02C01A5241830A8B4201D38B02C01A5241430A8B4201D34B02C01A5241030A8B4201D30B02C01A5241CDD2C3098B4201D3CB01C01A9D
:40248000524183098B4201D38B01C01A524143098B4201D34B01C01A524103098B4201D30B01C01A5241C3088B4201D3CB00C01A524183088B4201D38B00C01A5241430884
:4024C0008B4201D34B00C01A5241411A00D20146524110467047FFE701B5002000F0FCF802BDC0460029F7D003B5FFF775FF0EBC4243891A1847C04603460B437FD4002295
:4025000043088B4274D303098B425FD3030A8B4244D3030B8B4228D3030C8B420DD3FF22090212BA030C8B4202D31212090265D0030B8B4219D300E0090AC30B8B4201D378
:40254000CB03C01A5241830B8B4201D38B03C01A5241430B8B4201D34B03C01A5241030B8B4201D30B03C01A5241C30A8B4201D3CB02C01A5241830A8B4201D38B02C01AE5
:402580005241430A8B4201D34B02C01A5241030A8B4201D30B02C01A5241CDD2C3098B4201D3CB01C01A524183098B4201D38B01C01A524143098B4201D34B01C01A5241A7
:4025C00003098B4201D30B01C01A5241C3088B4201D3CB00C01A524183088B4201D38B00C01A524143088B4201D34B00C01A5241411A00D201465241104670475DE0CA0F1F
:4026000000D04942031000D34042534000229C4603098B422DD3030A8B4212D3FC22890112BA030A8B420CD3890192118B4208D3890192118B4204D389013AD0921100E0BE
:402640008909C3098B4201D3CB01C01A524183098B4201D38B01C01A524143098B4201D34B01C01A524103098B4201D30B01C01A5241C3088B4201D3CB00C01A5241830801
:402680008B4201D38B00C01A5241D9D243088B4201D34B00C01A5241411A00D20146634652415B10104601D34042002B00D54942704763465B1000D3404201B5002000F0FA
:4026C0000BF802BD0029F8D003B5FFF715FF0EBC4243891A1847C0467047C046014B18687047C046980F00200E4B70B500251E1C0D4CE41AA410A54204D0AB00F358984789
:402700000135F8E711F0AEFF084B00251E1C084CE41AA410A54204D0AB00F35898470135F8E770BD7046010070460100704601007846010030B50024944208D0035D651CD0
:402740000C5DA34201D0181B02E02C1CF4E7002030BD002310B5934203D0CC5CC4540133F9E710BD031C8218934202D019700133FAE770470EB410B59DB002A90290086115
:402780000B48822488604861012040421FABC881084804CBA400006801938C8100F06CF80023029A13701DB010BC08BC03B01847FFFFFF7F980F0020F0B58E6885B0071CD2
:4027C0000C1C03920193B34245D390238A89DB001A423DD003250969236801985B1A029363695D43EB0F5D19029B6D1001331B189D4200D21D1C381C53050FD5291C00F09D
:402800001DFB061E13D0029A2169FFF7A2FFA289184B134080221343A38111E02A1C00F065FB061E0CD1381C216900F0C1FA0C23402201203B60A38940421343A38117E042
:40284000029B2661F61826606561019EED1AA560019BB34200D2019E321C2068039900F092FA0020A3689B1BA36023689E19266005B0F0BD7FFBFFFFF0B59FB0029005939B
:402880008B890E1C171C1B0610D50B69002B0DD1402100F0D3FA30603061002804D10C23029A01381360D0E040237361002306AD6B6120336B761033AB763C1C2378002B32
:4028C00003D1E31B049312D003E0252BF9D00134F4E7049B0298311C3A1CFFF76DFF431C00D1ACE06A69049B944663446B612378002B00D1A3E00122002352426A6002A95F
:402900005432521801342B60EB60AB601370AB654F4F2178381C052200F02AFA002808D0C01B01278740381C2B68013418432860EEE72B68DA0604D55322202102A81218C4
:4029400011701A0704D553222B2102A81218117022782A2A01D0099B0EE0059A111D12680591002A01DB099204E05242EA60022213432B60013409E02278303A092A04D8FF
:402980000A214B4301349B18F6E7099323782E2B18D163782A2B09D1059B02341A1D1B680592002B0DDA01235B420AE0002301342278303A092A04D80A214B4301349B1826
:4029C000F6E70793234F2178381C032200F0D0F9002807D0C01B40278740381C2B6801341843286021781C480622671C297600F0BFF9002812D0194B002B06D10722059BF4
:402A0000073393430833059314E005AB00930298291C321C124B00E000BF07E005AB00930298291C321C0E4B00F08AF80390039B013304D06B69039A9B186B613DE7B389A8
:402A40000B985B0601D5012040421FB0F0BDC0462E460100344601003846010000000000B9270000F7B5171C01930A698B6800900C1C934200DA131C221C3B6043321278C1
:402A8000002A01D001333B6023689B0602D53B6802333B60062523681D401ED0231C43331B785A1E9341226892061CD53020E1184031C870211C5A1C45310978A218403266
:402AC0000233D1700FE0221C0123009801991932089EB047431C0ED00135E3683A689B1A9D42F0DBDAE7221C009801994332089DA847431C02D10120404220E00623206876
:402B0000E1683A6803400025042B03D18D1AEB43DB171D40A3682269934201DD9B1AED180027AF420ADA221C0123009801991A32089EB047431CDED00137F2E70020FEBDA6
:402B4000F0B58BB006920A1C43320793059004920A7E0C1C109B6E2A00D1A8E011D8632A22D009D8002A00D1B2E0582A00D0C2E045310A707C4A4FE0642A1DD0692A1BD089
:402B8000B9E0732A00D1A7E009D86F2A29D0702A00D0B0E0202209680A43226037E0752A1FD0782A33D0A6E00E1C1A684236111D196013683370A1E021681A68080606D46B
:402BC000490604D5111D19600023D55E02E0111D19601568002D3BDA2D23049A6D42137036E021681A68080606D4490604D51568111D1960ADB202E0111D196015685A4BE9
:402C0000227E03930A276F2A1DD108271BE0221C782145321170554A19680392081D226818600D68100602D4500600D5ADB2D30702D520231A4322601027002D03D1202398
:402C400022689A432260231C002243331A7002E00A27454B03936368A360002B03DB0422216891432160002D02D1049E002B0ED0049E281C391CFFF735FC039B013E5B5C55
:402C8000281C3370391CFFF7A7FB051EF1D1082F09D12368DB0706D563682269934202DC3023013E3370049B9B1B23612BE009681A68080607D4490605D5111D19601368B9
:402CC000A28A1A8004E0111D1960136862691A600023049E236116E01A68111D196016680021301C626800F043F8002801D0801B6060636803E0261C423632700123236175
:402D00000023049A1370079B05980093211C069B09AAFFF7A7FE431C02D10120404221E0236905980699321C079DA847431CF4D023689B0705D4099BE068984212DA181CC3
:402D400010E00025E368099A9B1A9D42F3DA221C0123059806991932079EB047431CDCD00135EFE70BB0F0BD3F46010050460100C9B28218904204D003788B4202D00130C8
:402D8000F8E70020704710B5814208D28B18984205D29B1A013A09D3995C8154FAE70023934203D0CC5CC4540133F9E710BD000030B500293ED004390B68002B00DAC91892
:402DC0001D4A1368141C002B02D14B60116031E099420DD208680A189A4203D11368C3180B6053684B60216024E08A4203D8131C5A68002AF9D11D685C198C420BD109684D
:402E0000691858181960904214D110685268091819605A600EE08C4202D90C23036009E008680C18944203D114685268001908604A60596030BDC04618240020032370B5E7
:402E4000CC1C9C430834051C0C2C01D20C2405E0002C03DA0C2300202B6042E08C42F9D3204A1368101C191C002913D00A68121B0DD40B2A02D90A608B181FE08B4202D1E1
:402E80005A6802601BE04A685A600B1C17E00B1C4968E9E7144E3368002B03D1281C00F04BF83060281C211C00F046F8031C421CD0D00322C61C964386420AD11C60181CBF
:402EC00007210B301A1D8843821A0AD05142995007E0311A281C00F02FF8431CBAD0331CECE770BD1824002014240020F8B5061C0C1C151C002904D1111CFFF79FFF041CFB
:402F000018E0002A03D1FFF753FF2C1C12E000F025F8A8420ED2301C291CFFF78FFF071E07D0211C2A1CFFF714FC301C211CFFF73FFF3C1C201CF8BD38B50023064C051C1F
:402F4000081C2360FDF7CEFD431C03D12368002B00D02B6038BDC046B82400200B1F1A68101F002A04DA891804390B68D018043870470000134A1088810703D08107890F31
:402F8000401A001D11791030484381B25088820703D08207920F801A001D800040180A494030098980B2CA0701D0503080B2890706D504495422091F09785143081880B28D
:402FC00070470000420C0020E412002010B501F093FE10BD10B500F04FFA10BD10B50749044609780220002907D1204601F0D4FE002802D120460AF003FD10BDB60D002080
:4030000070B504460120002C12D02368002B0FD0616800290CD0074D06222889208118462968FFF796FB6968606809780170002070BD0000E4120020FFB585B0002768469F
:403040000E9D07734C481C460078002802D0082009B0F0BD10990F9801900095029105A807C800F0FBF80028F2D16946264603AB84460873002C19D0002115E08A00B75A0E
:40308000082F09D990198078002805D0083FB7521878401C187005E0002915D00027B75290198770491CC9B2A942E7D360460028CED10F9800280AD0109901F0D1F90006CD
:4030C000000E04D00120C3E701208446EEE701F013FE2948002101610C300599016021888180022D03D3A1798171A17AC17100211EE0481C19E082008B00A75AE65ABE465C
:40310000BE4211D26F463E80B4461E190296B678BE7001967646E6521719029EBB78B3706646A652019EBE70401CA842E3D3491CA942DED3114800906846037B22460799D8
:40314000069800F013F9002882D168460A4C007B60700A4801F000FE0028B4D1204607490C3007F03DFC0028ADD107F057FC0028A9D1012121706BE73C0C0020E4120020C6
:40318000F8B5054633480E460078002802D002242046F8BD002E5BD000242F49002D16D02A89D0070DD02868002808D003881B3BE12B04D24088FB2801D81B2801D20124D4
:4031C00009E0900707D56868002804D1F7E70020088108604860002CDAD11F482F8907811C481B21801D018041800421017119490020891C0870F80705D016480622801DE5
:403200002968FFF7A6FA1449B80703D56A681148127882700F480D46801D0860001F486001F0E0FD0B48801D01F0CEFD28890DF085FA28890DF0BAFB03461033FFF79AFE32
:403240001F21C018890140180249308088809FE701249DE73C0C0020E4120020FFB58446384F1C460020BB883F78054602460646002F11D100290ED0029999420BD3614631
:40328000002908D0002C06D00A99002906D02E4B0B99994202D2012004B0F0BD002144E0AB001F19BF78002F3BD0E35A002B38D07B43591889B22B0000F04AF8050410161C
:4032C0001C253100A7782388BC46FF27233BEB37BB4222D26346032B1FD322E0A388002B1FD0302B19D31CE02389002B19D0282B13D316E0A289002A13D01346134F233B66
:40330000BB420AD20DE0268A002A0AD033460F4F233BBB4201D2964203D901200EE0002001E000280AD16D1CEDB2099B9D42B7D31C2463435B1802998B42ACD89642AAD873
:40334000AAE700003C0C002079020000BAFF000030B47446641E2578641CAB4200D21D46635D5B00E31830BC18470000FFB583B0002469460C801F4606468C80002806D05F
:403380000598002803D004983043800701D0012467E0002FFBD03449049809888842F6D3FEF720FFFEF708FF00F010FC002856D100F054FD002852D12C49084601F084F854
:4033C00005042D0C4BD12A480499066081800021C18007810C98007AC00704D0684601F0A4FC040007D10C98007A800703D501A801F0A4FC0446BF1DFEB2002C21D1314619
:40340000059800F05DF804001BD10DF0DDFA0406240E16D16A461088928808368518144AF1B29088D288AEB29319984207D3401B801A80B201F038FB050007D000E0FF2528
:40344000012400F05BFA002D04D008E0F8B200F01BF9F6E700F07EFA06490120087000F0C7FB204607B0F0BD400C0020AD350000F0120020500C002010B503480078012805
:4034800001D101F0B3F910BD500C002070B5084B0446DA889E8800205518B54206D81D68AA182260DA885118D98070BD032070BDF01200200148008970470000F012002071
:4034C000F0B587B007460D4600208900009006916846FFF7DBFF844600285DD1304800990160002117E02E4B88001A680629115406D22C4C0419667882185670628805E0C7
:40350000C419203CA67A8218567022891B68C018491C4280C9B2A942E5D300242DE0601CC2B2059025E01E4FA30039689600581840887118039604904E88B04217D9384661
:403540006F46FE80B6464F786E4677710297049F4F800168039F5E18767879184E700168764659184E800068029F18184770521CD2B2AA42D7D30598C4B2AC42CFD36046CB
:40358000002809D168460699FFF780FF8446002802D1054900980860604607B0F0BD0000540C002098460100580C00207047000010B5002809D005494A68002A05D0011FAB
:4035C00008788000105801F01DFA10BD540C002010B50446FFF76EFFC0B2801DA0420CD307484068002808D0A100405801F07CF9002801D00470001D10BD002010BD0000F2
:40360000540C0020F8B516460D460446FFF752FFC0B2801DA04203D20020C0430090F8BDB2B2E9B2684601F085F90099481C03D0024AA000526811500098F8BD540C00202F
:40364000F8B50746FFF736FF801DC6B20A49002005460C680DE06178002907D06188B94202D32078FFF7B4FF002804D1241D6D1CEDB2B542EFD3F8BD540C002010B50028DD
:4036800001D0FFF795FF10BD70B506460948002504680BE06178002905D062882078121D0023FFF7AFFF241D6D1CEDB2B542F1D370BD0000540C0020FFB581B00A9C1600E3
:4036C0002BD000F0F1F80546042826D0214F002C0BD02046FFF7B4FF2901C919486000281BD022460499FFF734F81A4928010E5046187481019805707D20029CC000444348
:4037000000F0C0F8009004280AD000F055FAA0420ED800F051FA201A06E0FF2005B0F0BD204600F0ADFA0020B08135720020F5E700F042FA074600F0B9FA381B87B2384651
:40374000012100F0EFF800980101024808188781E6E70000FC120020F8B5060117483418217A042903D0A089002802D018E00020F8BD00F021FA054600F098FA00F0A2F8FD
:4037800004280DD001010D480F18B88941198DB2002100F0C7F80020B881284600F070FA6068064D002801D0FFF768FF042020720020A8516081A081D9E70000FC12002087
:4037C000FEB500266A46304601232549050169180D7A042D02D0898900291BD000211154401CC0B20428F0D300246846005D002830D01B4821010818418947680568029149
:403800000021016041600422418102728181002E02D015E01354E3E700F054F804280ED001010F480818019086890021304600F079F8019800218181304600F021FA012626
:40384000002D07D038460299A847002F02D03846FFF714FF641CE4B2042CC6D3FEBD0000FC1200200EB5002005216A460090118150810348694600680DF01BFF0EBD0000FC
:403880005C0C0020074A0020010189180B7A042B02D08989002903D0401CC0B20428F3D370470000FC1200200549002002015218127A042A03D0401CC0B20428F6D3704751
:4038C000FC12002030B50A4B04200A4C00210A011219157A042D06D09289002A03D09A4201D808461346491CC9B20429EFD330BDFFFF0000FC1200207047000030B50020E1
:40390000074C05460423020111190B72A5504D60401C4D81C0B28D810428F4D330BD0000FC12002030B5094C00231A011219157A042D04D09589002906D02D1895815B1C98
:40394000DBB2042BF1D330BD2D1AF7E7FC120020002070471CB5002469460C70142001902346054A05480DF0A9FE04480068401C00D1FF2420461CBDD13900005C0C00204D
:403980003EB5124A0146FF2000230124126800290DD0012914D0042908D104206946009308814B8110460DF084FE80B23EBD6846009304814381694610460DF075FEF4E7DF
:4039C00068460093048143816946EBE75C0C002070B545890468416800890300FFF7B8FC08280509091E22282628002005F0D6FD1EE0022908D0C8B22A4621460CF056F875
:403A00002046FFF73BFE13E002202A4621460CF04DF82946204600F00DF809E000200DF037FB05E02046FFF7CBFE01E0FEF758FC002070BD014B0022DB681847600C0020A5
:403A400070B5448905680089022803D0032809D0FF2070BD2246094C0023A46829460120A04708E0FFF7B2FA241DA2B200232946022006F066FE002070BD0000600C0020A8
:403A800070470000024800214160018041807047600C002070B50C46002186B016460391012802D0022859D116E003A9012006F0A8FE01281BD1039D324621462846FEF75B
:403AC00048FE0095287801900220694608814E816846FFF7B5FF41E0214D002B686809D0049004A9022006F08CFE01281DD0022006B070BD002812D0298840182146FEF769
:403B000028FE28880024801980B228806988091D884206D12C801348FFF792FF03E00320E6E788421AD96C6018E004986860E278A378110219430B4A698000231060E3562C
:403B40005360032313815181A1788170E178C1706178417021780170042028800020C7E7600C00203C1300203EB515460C46022803D004280CD000203EBD00910190022045
:403B80006946088107484A8100680DF092FD07E00BF08CFF044B0022DB6829462046984701203EBD5C0C0020600C0020014AD16090607047600C0020034801688068081A4D
:403BC0000A214843000970474813002010B5FEF7F9FA482204490548FEF7BBFD03490120C870002010BD0000B44601004C17002010B5FEF7DBFA10BD70B5134C2368002BD0
:403C000008D0207B1149C20705D04008400020738868A08070BD88680B4AA18880B29268814203D90A4D691A091802E0814202D2411A5118A160A080A0689842EAD30DF093
:403C400055FD00F013F870BD48130020C0102E40FFFF000010B508461946FFF7A7FF10BD704710B5FFF780FF10BD000003480021016041608160C1607047000048130020D8
:403C8000024610B5FF20002A0CD0FFF7EFFF064C0321207B0843207310010A21FEF722FC2060002010BD00004813002000B504480A21806848430209FFF7D8FF104600BD3E
:403CC000481300200248007B8007C00F704700004813002010B544490868002802DA434B01221A70022290430860414800693E49C00B4031096A08425ED0012000F06EFA83
:403D00003B483C497C30FEF76BF937480E216C30FEF766F9364820218430FEF761F9344814219C30FEF75CF93148FF21C131A430FEF756F92E48FF212F31B030FEF750F998
:403D40002B482D49BC30FEF74BF929482B49AC30FEF746F929492648491CB430FEF740F923482749B830FEF73BF921482549CC30FEF736F91E4824490830FEF731F91C4878
:403D80002249A830FEF72CF9194821498830FEF727F917481F498C30FEF722F914481921C9029030FEF71CF9FEF728F9FEF724FAC0B2022802D00FE0FF2010BD1649174820
:403DC000FEF70EF915481649001DFEF709F9134800210830FEF704F954200449C043891C0870002010BD000000F02E40700C002000002E4055650000320300002F3F0000BE
:403E00003102000010520000EC160000FA12000031D000003AE300009956000080012E40F80F000070B50646581C80B245086D00002408E0304600F0A9F81055000A11195F
:403E4000A41C4870A4B2AC42F4D3D80705D0D0182038D15CC47FD454C17770BD10B5FF2000F0BCF90F49FF2048700E481021801D41800121417001700A490020C91C4870DD
:403E8000FFF728FF04000AD100F008F907210648FEF798F8044807211830FEF793F8204610BD0000700C0020CC112E4070B5002405465B1E0AE0284600F068F8010A1619D5
:403EC00071702D1D1055A41CADB2A4B29C42F2DB9C4203D1284600F059F8105570BD000070B500210A4D5B1E0AE0541864782602545C344346193480001D891C80B289B246
:403F00009942F2DB994202D1515C4019018070BD00102E40F0B50599091FCFB200217E1E0BE0541864782502545C2C43164D45192C80001D891C80B289B2B142F1DBFC0779
:403F400012D01C78515C24020F4A0C4381180C809C785D78001D210280B2294384182180001D80B2D9780CE059781A7809021143054A84182180001DD9789B78090280B28F
:403F8000194380180180F0BD00102E40014940180088704700102E4010B50B490020487000F07CF8002000F03FF9002000F02CF907210648FEF706F8044807211830FEF716
:403FC00001F8002010BD0000730C0020CC112E4010B50B46062812D006DC01280CD0032801D1FFF7D9FF10BD0A28FCD00B28FAD105480078107010BDFFF730FF10BD1146F5
:40400000184600F02DF910BD760C0020F8B5204DAC6A0127A0071F4E002816DA307806280ED1286A384328621B480069F903084381B219481030FDF7D3FF042000F0CEF846
:40404000134802212830FDF7BDFFE00711D0062000F0C4F80F49FF20C91E48707078002802D1686B38436863094801212830FDF7A9FFE0050BD53078042802D1052000F026
:40408000ADF80348FF2101312830FDF79BFFF8BD40F02E40730C002000002E4010B503212348FDF79DFF0120FEF772F820483038406A204C80076178800F890001431C480E
:4040C0000C38FDF78DFF6078002808D0401E022181401820FEF7F6FAC000083800E0B82081B21548FDF77CFF1348032109021438FDF776FF10481149B830FDF771FF61214F
:4041000089010F48FDF76CFF0D480321001FFDF767FF0C490C48FDF763FF0B480B496038FDF75EFF084801218838FDF759FF10BD70F02E40760C0020D8102E409089000094
:40414000041E2E40FF0F000058122E40209000000849087806280BD148780749002803D1486B400840004863C86A01221043C86270470000730C002040F02E4001480078C5
:4041800070470000730C002000B50300FFF7E0F8080D050D0B070507090D012000BD032000BD042000BD022000BDFF2000BD0000074A9168D26889B2064B92B2994204D16A
:4041C00005498A4201D1012100E000210170704780002E4033D000003FE3000010B50446FDF7EAFF072C01D9FF2C01D102480470FDF7DCFF10BD0000730C00200149487084
:4042000070470000700C002010B5064A012805D01921C9021046FDF7E3FE10BD1D21C902F8E7000090002E4010B50A4A141D012808D009491046FDF7D3FE08492046FDF7D2
:40424000CFFE10BD04491046891CFDF7C9FE0349491DF3E788002E4031D000003AE3000070B50C460546FDF7C7FFC0B202280E49287804D0FF2810D04C280CD810E0FF28A8
:4042800009D10A4AD0680004800F032801D0087807E09069000A553803E00878207070BD4F382070087070BD720C002000002E40F0B50122002830D000292ED004244206A3
:4042C00000D00524792342065B06D21800D0641C034600221EE00C2516466E43104D00277519AF720E4F002ABB51696007D0661EB24209D10B4E86197606760E05E05E06A6
:40430000760E8027BE1B00E080269B198919521C2E81D2B2A242DED300221046F0BD0000D415002079020000074900200C2242435218927A012A05D0401CC0B20628F5D361
:404340000020704701207047D4150020F8B50F000446164609D0184D18496868A04202D94018A04201D38E4201D90120F8BD39462046FEF7DFF900281BD032463946204647
:40438000FEF7E7F9F0B200210C224A43521913895668F718A74208D90127A41B1B1B9772834206DAC01A1469C0B2491CC9B20629EAD30020F8BD0000D41500207902000053
:4043C00010B500F05DF80748054AC16806480C46FEF7BFF904492046FFF76AFF10BD0000790200007C0C002058130020002070470020054A002902D0012902D002E0506043
:4044000000E09060002070477C0C002070B5084C154608460549A26889182A46FEF799F9A0684019A06028B270BD0000581300207C0C00203EB50A226946FFF7E7FF04468C
:4044400006480A2200686946FEF774F9002802D00020C0433EBD20463EBD00007C0C0020002802D0044A914201D2FF20704703490A61C86000207047790200007C0C00208B
:404480000248002141608160704700007C0C002070B5074C15460548626880182A46FFF755FF60684019606028B270BD581300207C0C002010B503490A220968FFF7E8FFCE
:4044C00010BD00007C0C002010B50F4A002313600E4A13600E4B18600E4801600E49012008600E490860000290600E490C4808600D4914300860FF381538506000F0BCF8C2
:4045000000F0CAF9002010BDA80C0020900C0020BC0C0020C00C0020AC0C00209C0C00201C170020A00C0020B40C0020014610B50020002910D0094B1A689C685118A1427D
:4045400009D25868196080188A0704D08A07920F891A091D196010BD002010BD900C0020F8B50024164E671E321F3D463168136806E01422624310328A58521C1BD0641CE0
:404580009C42F6D36A1C14D02C461422544322460C3288500C214843FFF7C8FF3168002808510AD031680020103408517068401C70602846F8BD2546E4E73846F8BD0000DE
:4045C000A00C0020F3B50026F64381B000281BDB1E490968884217D80299002914D01B4F142204463F1D54432546396810354859401C09D0FDF7E0FD38682F1F4159C359E7
:40460000994203DBFDF7D2FD3046FEBD214608310091465801590C20704308180C220299FEF797F80948761C001D0068C159B14200D100260549009A091D865008684159FE
:40464000491C4151FDF7B2FD0020FEBD9C0C0020002803DB07490968884202D90020C043704704491422091D0968504310300858704700009C0C0020F0B500200D4A451E6C
:404680000346171F50600FE014260146714314680E1DA3510C461668083433511668083435511468401C635039688842ECD30020F0BD0000A00C0020F3B50026F64381B0B6
:4046C000002841DB2349096888423DD8029900293AD0204F142204463F1D54432546396810354859401C2FD0FDF766FD3868415900292BD0211D009146580C210059714361
:404700000F46C1190C220298FEF723F811480021001D0068761C00590C34C0190160416081600C48001D00680159B14200D100260849009A091D865008684159491E415185
:40474000FDF734FD0020FEBD3046FEBDFDF72EFDFAE700009C0C0020FEB504460D4600201E49089E0860471E009001900290002C11D0486885420ED2002A0CD0002E0AD0D1
:40478000642E08D808460C3001681C2068430C18207A002801D03846FEBD0120226020721846FFF7DDFE6060401C13D06681A6810A4827610C3067610179A94200D20571C1
:4047C0000021684601810A462846029B00F040F82846FEBD00202072DDE70000A80C002038B50124009400F039F838BDFEB50027164EFF433D4600240EE01C203168604329
:404800000818017A002906D04068FFF721FF002801D0254603E0641C3079A042EDDA681C12D01C2130684D434419FDF7C5FC69466068FFF741FF0546FDF7B8FC002DD9D1B3
:40484000216868468847D5E7FEBD0000B40C002038B50024009400F001F838BD1FB500220C49541E0A60002811DB496888420ED808491C220C31096850430818406801A97A
:40488000FFF7A0FE401C02D0002004B010BD2046FBE70000A80C0020F0B50021114A4D1E174611710C3F0B46BD6016E008461C2460431668041D3551146806462350146852
:4048C0000836A3551468361DA353044616680A34335318301468491C255078688142E5D30020F0BDB40C002038B500210091002811DB0F49097888420DDA0D4D04010C35AE
:4049000029680859002807D0201D0818694600F06FF9002801D0002038BDFDF74DFC28680F34015D491E0155FDF740FC009838BDC40C0020F7B582B0002502986E1E0660AD
:404940002E48D21C024017462D4A2C4610460C380178106805E02301C358002B0FD0641CE4B28C42F7D3711C28D03401211D40180191039900F02AF900281FD101E02646EE
:40498000F1E71F48016820460C300F521C480399026820460E30115419480399026820460F3011540398784300F0A0F8144900280968085102D00024009011E001251AE0A4
:4049C0000F48016801980818009900F02CF9002801D0012502E00098C0190090641CE4B203988442ECD3002D05D10298066004480179491C0171284605B0F0BDFCFF0000ED
:404A0000D00C0020F8B50D4600216A468C461180002839DB23490978884235DA214B04010C3319680A59002A2ED020460C300B5A801C0E5C184670438018954224D385423D
:404A400022D2002006E007465F43BF18AF4206D0401CC0B2B042F6D36046002814D0114E271DC8190C366A46294600F006F900280AD168460088012808D030682946C01986
:404A800000F0D1F8002803D00120F8BD0020F8BDFDF792FB30680F34015D491C0155FDF785FBF3E7C40C0020F8B50F46002400F031F8002817D10C4900220B460C334A60E4
:404AC0000EE021011D680E466A501D680C36AA53B61C1D680F31AA551D68641C6A54E4B2BC42EED31A71F8BDC40C002000280BD0C01C074A81085068890053884118994268
:404B000003D89368516018187047002070470000C40C0020F8B5064600200F4D009029700C0121466846FEF7B1FC00280CD129460C3100980860301B001F84B22146684678
:404B4000FEF7A4FC002801D0FF20F8BD6C800098A8600020F8BD0000C40C0020F8B5002827DB19490978884223DA174C05010C342168485900281CD028460C30085A00907E
:404B800028460E300E5C401C0E5420682F1DC01900F064F800280CD12068002445590EE0094829460C300068C01900F03CF8002801D00120F8BD00982D18641CE4B2B442D2
:404BC000EED30020F8BD0000C40C002030B50D4604000BD0A800FFF789FF6060002805D000202570C0436080002030BD012030BD70B50D46040005D0002D03D00220205E91
:404C0000002801DA012070BDFDF7D6FA0221615E60688900405828606088401E6080FDF7C5FA002070BD70B50D46040007D0002D05D002212078615E401E814201DB0120F9
:404C400070BDFDF7B9FA6088401C00B26080616880000D50FDF7AAFA002070BD10B5040009D0227800216068FDF77CFD0020C0436080002010BD012010BDF0B500231D4664
:404C8000002802D00224045F0AE00120F0BD46689F00F6598E4201D1012503E05B1CDBB29C42F4DA15700020F0BD00000148007870470000D80C00207CB505460024FEF75F
:404CC00085F9A8796946087000A8062229460130FDF73FFD0021684604F026FF0C2804D0072804D01F2804D004E0022402E0042400E0272420467CBD10B500F047F9FFF777
:404D00003DFAFFF741FA10BD70B504460025FEF75DF9002C06D0A079012803D8214602F099FC00E00125284670BD01460120002902D0502008800020704700000146012017
:404D4000002905D003485422007850430880002070470000DA0C002010B502460D49FE204870032410460CF0C7FF002810D10CF06BFF00280CD105F0A1FD002808D100F094
:404D80001BFB002804D105F07DF9002800D10024204610BDD80C002070B50025044600280ED0A07901280BD8FEF710F9A0790028204602D002F092FF03E002F067FF00E04D
:404DC0000125284670BD0000014610B50120002904D006220248FDF7BCFC002010BD0000DC0C002001460120002903D0087802490870002070470000DA0C002038B50446FA
:404E00000120002C20D0617801291DD800290BD0FF25E535FEF7DAF80C4828180088C0B22070072803D00EE0FF25CD35F2E70020694608706846FFF7BBF969460878012830
:404E400001D108202070002038BD000000102E40F8B504460120002C26D06178012902D92278092A20D8002905D0FF25E5352078092803D004E0FF25CD35F8E708202070BF
:404E8000FEF7A4F82078114F114E08280DD00020FFF7CAF970780128207810D00D4969180880FE2070700020F8BD0120FFF7BCF90720B8810549203188800120F2E7B88163
:404EC0000248217820308180EBE70000C0112E40D80C002000102E4070B50E46050001D0002400E00C4C002C11D0E28A500609D5D107C90F022002F0CBFFE08A402188436F
:404F0000E08204E0D107C90F012002F0C1FF3146284602F0A5FC70BDB4170020F8B50546002004460D4E009013E022466946284600F078FE0098002801D00CF0BFFEA87883
:404F4000214602F0D9FAA878214602F0C7FA641CE4B2308AA042E8D8F8BD00006C180020064A02235188891C89B25180814201D8102900D95380508870470000E20C0020E3
:404F80000148407870470000E20C002038B51E4CFFF7F4F8042813D0052811D0062812D003282AD007280AD100206946087002460120FFF70DF8FFF7E1F80128FBD138BD32
:404FC00000F0B4FB38BD02F003FB00F0AFFB02F063FB8007800F0228F4D10C4841880029F0D05B21095D0029ECD101210170A07D0140022002F04CFF38BD02F0EDFA012031
:40500000FFF7ECF838BD0000B4170020E60C0020F8B50646002402F099FF0546304602F0AFFF03460A480021068A0DE001228A401046174628401F40002803D0002F01D100
:40504000224394B2491CC9B28E42EFD82046F8BD6C1800201CB50020694648706846FFF7CDFE01AA69460A20FEF7B2FF6946042008561CBD10B50C4601F06EF9002809D0E4
:405080000179002906D0C1788078224602F07EFC002010BD022010BD01480078704700008C1700204030C07E002800D00120704700B500F001F800BD8C2148430749084AA8
:4050C00040186030417F491CC9B24177D289914201D300214177C8B270470000941700206C18002013B501F037F904000BD001F0FAFD002807D0214601AA0A310620FEF7DE
:4051000067FF00201CBD02201CBD000010B50C4601F022F900280AD001F0E5FD002806D0224604490A20FEF753FF002010BD022010BD000075170020F3B581B00746014604
:405140000026029802F0FAFE0446002F01D0002500E0154D002D21D0284601F033F9032C04D13946029802F045FF06463846029902F0B4F9032C06D0002C10D00121384623
:4051800001F0D0FA03E03146384603F0C7F8284602F0ACF80221284602F0C2F8FEBD3846029902F09BF9FEBDB417002010B5044604F030F8002801D00C2010BD2078611C37
:4051C00002F0E0FCFF2801D01F2010BD02F026FDFF280AD02178621C02F016F9044821780068026B601C904710BD072010BD0000000D002010B504F00DF8002801D00C20D1
:4052000010BD02F0A1FC03480068C06A8047002010BD0000000D002070B50D46044610210CF08CFC1021601806460CF087FC334610221946204604F01BF8102130460CF04F
:405240007DFC02202870204604F062FE70BD0000F8B504464078217802028006870FE0781143A67809050002090D0643084601F073F800210546F2B2002812D0002C10D0A3
:40528000022F0ED0032F0CD0002A0AD00279092A07D0002A05D0134A5A23527E1B5C9A4207D82889002104F029FD20460CF006FDFF21002914D10C482246006829464369AF
:4052C00030469847C0B2FF280AD128464030817EF2B2491C8176FF232146284600F005F9F8BD00004C170020180D00200020704710B5044603F08EFF002801D00C2010BD4E
:405300002078611C02F03EFCFF2808D002F082FB044821780068426B601C904710BD1F2010BD0000000D002010B504F0ABFE00F097F9002010BD000010B504460F4801F045
:40534000FBFC012817D00D48052221469C30FDF700FA0A4905229C310846AC38FDF7F9F900F014FD054880222038C17B1143C17300F0ACF910BD3A2010BD0000B4170020AA
:4053800010B5044600786178E2780843A17811430843217908436179084305D003F02CFF002803D00C2010BD122010BD204602F095FC002010BD000010B5FCF71DFF02F0A4
:4053C000E7FD044803F0B4FF02F02EFB012000F003F810BD5C170020F1B586B003A8009005A8019026489F22817A114081726846FDF706FE002841D169460989C90705D0C7
:40540000204806990068C2686846904769460989890706D5002831D11B480068816A0698884700282AD1194E0025757075737571F575357675767575B570F570B5713746DC
:40544000F5730120BC3738731F20F880FF2130467972A0300175457503F062FC01F024FC00242046069901F0D1FB002803D1641C2406240EF5D0FD72BD72B57307B0F0BDBE
:405480004C170020180D0020000D00209417002070B505460E46084602F058FD0446304602F06EFD0121A9400A46224001400A4301D0012070BD002070BD10B504460846A2
:4054C00002F05EFD0121A140014201D0012010BD002010BD10B5FEF751FE032804D102F07BF80120FEF77AFE10BDFEB51C4616460F46054601F0FAFEA878FFF7D9FD024676
:405500000190334639460094284600F00DF8002808D1A8780199FFF7DFFCFF2C02D138460CF0CCFBFEBD0000FFB585B005460E980C46FF2810D02B49C00009680A584018D3
:405540000179C0795278814201D9012601E09006860F6846038108E06078A1788006860FE0780002014368460181284601F0D0FB070007D021462846079A00F0FFFA384605
:4055800009B0F0BD304600F0E5FB04AE0346039002AA29460096204600F0EBF93C20405D002818D0284601F0B3FB012813D0684600890096C0B20190A878231DFF220799B3
:4055C00002F002F968460089039BC2B2A878079902F046FCD3E7684600890021C0B20091E9E70000140D0020F8B5104F002500242846FFF70DFD060012D00EE03046E0402C
:40560000C007C00F07D02146284601F05FFF21462846FFF791FD641CE4B2388AA042EDD86D1C2D062D0EE2D0F8BD00006C18002070B50024094D03E0002C01D0002000E080
:4056400028464121095C012901D100F050FA641C2406240EF0D000F039F870BDB417002010B502F0E1F90020FFF7B6FE0CF0BCFB002010BDF8B5002403F0EEFA012800D149
:405680000224114F00203E46203601230425082203E0002801D0002100E031460979002907D001290BD002290BD0114681402143CCB2401C0006000EEBD07C70F8BD1C43ED
:4056C000F7E72C43F5E700009417002070B5144E0024F07BC00921D03546203503E0002C01D0002000E0284601F008FB012814D0641C2406240EF2D0F07B4006400EF073C7
:40570000002403E0002C01D0002000E0284600F0EEF9641C2406240EF4D0002070BD00009417002010B5FFF7A5FF10BD10B5FCF7F4FB0446FEF722FD012809D0FEF71EFD25
:40574000022805D0FCF728FE2046FCF7EAFBEEE72046FCF7E6FB10BD10B50B4681791943817103D08078114602F032FB10BD10B582798A43827102D1807802F03DFB10BD49
:405780000346084800B5834209D8184600F0E4FD002804D00089984201D1012000BD002000BD0000FF0E0000074A9179491C8906890E917138220A4092014907090E1143F3
:4057C000084302490840704794170020FF0E0000C006C00E70470000F8B507460E4600240D4803E0002C01D0002500E005462979002905D0641C2406240EF3D00020F8BDE6
:405800000021204601F002FA2E712046FFF7CCFF28813C700120F8BDB4170020F7B53D20405C88B015460C46002802D02878042802D200200BB0F0BD6946087200262046B7
:40584000FFF730FC012800D00126204603A938300191009023460327A17E34333246206A03F086FD02A8089900900B46019120463A4603A9243003F0DBFC02466846007ADB
:405880002870204601F0AEF91046D3E7FFB587B00C4605461078694608723D20005D1746002826D000262046FFF7FCFB012800D00126204603A93830019100902346A17E17
:4058C00034333246206A03F053FD02A80090291D019120462B1D03A924300A9A03F0A8FC02006846007A388002D1204601F07AF910460BB0F0BDF0B505463C20405C89B0A3
:4059000016460C4600280CD0307869460873002806D000272046FFF7C5FB012803D003E01F2009B0F0BD012703200890204604A93830019100902346E17E34333A46E069A6
:4059400003F016FD6846007B03A928180290009120462B46019504A92430089A03F09CFC02466846007B3070204601F045F91046D7E7FFB505463C20405C89B016460C46B6
:40598000002810D0084601F0C3F901280BD0308869468883002809D000272046FFF782FB012805D005E000200DB0F0BD0220FBE70127204603A93830019100902346E17E70
:4059C00034333A46E06903F0D3FC291D2B1D07A8129A6D4607C5204603A924300C9A03F05BFC02466846808B3080204601F004F91046D9E710B518490446484028D00021CB
:405A000001231A468A40904221D0491C2029F8D300212046C840C243520618D0400616D0491C1929F5D3A0B2210C020AC3B2884201D193420BD01F21204600F090F91828C2
:405A400005D8A00E062100F08AF9022801D2002010BD012010BD0000D6BE898E002801D0002000E003484030C07F012800D0002070470000B41700200146002049070ED536
:405A80000021084B03E0002901D0002200E01A461279022A04D0491C0906090EF3D0704701207047B41700200146002049070ED50021084B03E0002901D0002200E01A4693
:405AC0001279022A04D0491C0906090EF3D0704701207047B417002010B5044680346068002803D00CF0FEF80020606010BD38B50546002000902846FFF7D4FA01281FD1FB
:405B0000284601F0F0F800281AD028792C46C01E40340300FDF71CFC07050511110511141100284601F0FAF8012806D068460CF06BF8002805D0012008E060780028FAD0FD
:405B400038BD2846009902F02DFD0220607038BD40308170704770B50546403528780C46052904D0002C05D1801E022802D8022002F0A8FE2C7070BD01717047920010182B
:405B8000C166704710B5002801D0002000E00348002802D0008904F025F910BDB417002010B5002801D0002000E00448002804D00179072901D100F08BF810BDB417002004
:405BC00010B54121095C012901D1FFF790FF002010BD000070B50546008A00281ED01049F122897A1140C90618D5294640314A8A098A521C4A4392B2D10800D10121540871
:405C000001E0621A94B2A042FBD9FFF74FF8012804D1298AA878224601F05EFE70BD00004C17002010B50023054C0B60248A944204D992001018C26E0A60C36610BD000049
:405C40006C180020FEB506460020009001908020855968460BF0D8FF002801D00720FEBD20213046009FFFF782FD34464034A08AE080608AA080208A2081304602F088FEE1
:405C8000A88C218A884207D1288A618A884203D1688AA18A884203D0F07920210843F071688AA082288A6082A88C2082E98CE182FFF756F9E081208AFFF762F960733946CF
:405CC000304602F097FC0120A0700198FEBD000038B5044600200090A079002814D14020015D052901D00E290ED168460BF08CFF002809D12046009902F05EFD0348102146
:405D0000C28A2046FFF728FD38BD00004C17002010B50446807802F06BFE204601F074F9002010BD10B50B4604460146184602F095F9002802D020460BF0CAFF10BD13B5CD
:405D4000044601AA11460620FEF742F96846818861811CBD002800D102207047704770B500231A46491E0CE00446D440E507ED0F541C0646E640F407E40FA54200D05B1C47
:405D8000521C8A42F0D3D8B270BD000030B50021124C0A46A05C002308E0C50701D0491CC9B201290AD840085B1CDBB20028F4D1012903D8521CD2B2052AEBD302290BD2C6
:405DC00007488118C87B0122082B03D29A400243D0B200E01043C87330BD000050180020941700207FB504468034616805460E46183108226846FCF7ACFC314620310822B6
:405E000002A8FCF7A6FC102168460BF097FE6068102108300BF092FE60682B46083024331022694603F024FA7FBD10B504460821FFF79DFC10212046FFF799FC2079052853
:405E400022D0062820D008281DD12189002003F03BFF072020712046FFF724F9012819D00E212046FFF777FE002158200155204601F050F92046FFF72FFE2046FFF7AAFE9E
:405E80002046FFF79DFE10BD20890122002103F0FFFEDEE70521E4E7FFB581B01F4604460821FFF764FC10212046FFF760FC2079082803D0092804D0042503E00425012692
:405EC00001E009250026204600F004FF00212046FFF741FE25712046FFF7FEFD0398002E02D0012808D00BE001280AD120890022029903F0CDFE04E02189029803F0E4FEBF
:405F000001272046002140300176012F07D0204601F000F92046FFF753FE05B0F0BD02990173204602F08BFC054605480121C28A2046FFF711FC002DEFD109202071ECE78E
:405F40004C17002070B50C460546FFF7ABF8012809D108212846FFF70AFC0023012221462846FFF799FF70BD10B5044600F0B2FE2046FFF7B1FD00212046FFF7ECFD10BDEB
:405F800070B505461A24FFF78DF8012809D108212846FFF7ECFB0023012221462846FFF77BFF70BD38B505460021684600910BF02BFE002801D00D2038BD2846009C00F0B8
:405FC000D9FE2146284602F0A1FB06480821C28A2846FFF7C1FB06212846FFF7BCFD002038BD00004C170020F8B50446002000900E4668460BF008FE002801D00D20F8BD23
:40600000204604213430009D00F0A1F9842000590821183000F09BF9012E02D1204600F0A9FE2946204602F02BFB06480821C28A2046FFF791FB02212046FFF78CFD002099
:40604000F8BD00004C17002010B50446FFF7CAFE03212046FFF77FFD204601F047F910BD10B50021FFF7C0FF10BD000038B504460021684600910BF0C7FD002811D120468D
:40608000009A00F027FE1146204602F04AFB05480821C28A2046FFF75FFB07212046FFF75AFD38BD4C17002038B504460021684600910BF0A9FD002810D12046009902F040
:4060C000B3FB07480821C28A2046FFF745FB04212046FFF740FD204601F008F938BD00004C17002010B5FFF7A0FE10BD00787047F8B50025002801D0002400E0194C002C4F
:4061000029D0204600F0EFFD002824D02079032822D0052822D026464036B18AA07801F04FFEB078012816D10021204601F0C6FF274680373868002802D00BF0D3FD3D6025
:406140000020B0702046FFF73BFD2079072802D12046FFF73FFDF8BD042000E006202071F8BD0000B417002010B54C22115400F04CF810BD10B50446FF21FFF7F8FA09202F
:406180002071A07801F042FE10BD000038B5FF216A461180002801D0002400E0084C002C0DD011460620FDF713FF684601882046FFF7C5FD03480068C1692046884738BDB1
:4061C000B4170020180D002010B504468079002809D022214C200155FF212046FFF7C7FA204600F012F810BD10B5037902464032002B03D01173092B02D003E0002100E090
:406200002221117300F001F810BDFEB50446008900270090278120792646403600281AD0012818D0022816D0002002F04BFB09E002AA01A9204601F0FFFE002807D10198CA
:406240000BF046FD204601F01FFF0028F0D02046FEF764FEB776254680352868002802D00BF040FD2F606868002802D00BF03AFD6F60317B002916D0009800F061F8A078A9
:40628000002101F07DF9A07801F056FAA07800F02FFFFF212046FFF76AFA0B20FFF742FA00F0CAFDFEBD1F213173E5E7F8B517460E46054603F01CF804003CD020460C3006
:4062C00001F0F0F92046062200211830FCF74AFA2046062200211230FCF744FA1648224600683946436A28469847074626702846FEF7D8FE012148406070002D10D0288979
:40630000608028464030C1782171002E0FD169796171018AE180418A2181808A608106E00648008BC005C00F2071002060803946204603F04CFCF8BD000D002000102E406A
:406340000A4610B50146002003F064FD10BD10B50BF0D0F910BD000000B50146FFF738FA002801D0002000E00348002802D002898A4200D0002000BDB417002038B50446A2
:4063800080346068002806D168460BF04DFC002801D100986060606838BD000010B5014600F0B6FC0128887802D0FEF785FE10BD8C214843024940186030007F10BD0000BC
:4063C0009417002070B5054604464035A87F012811D1A1788C20084A484380186030067F3046FFF755F8002805D10220A877A078314601F03FFA70BD9417002010B50C4C5C
:40640000A07A002813D0FFF7EFF80A48027F417F408B00F025FD012809D10020A07201F005F905498989090B01D000F023FB10BD5018002094170020A0102E4070477047C7
:40644000490510B5490F0B00FCF782FF060704080C0C0F073E21FFF787FE10BD0821FFF7C3FE10BDFFF7D1FE10BDFFF7ADFE10BDF8B507460025002D01D0002600E0204E06
:4064800001F094F83046403044890021418101F097F8304600F027FC01282BD1A00702D52846FFF725FEE00602D52846FFF76EFEA00601D5FFF798F8600601D500F04EFC91
:4064C000200602D5284600F01DF8600702D5284600F036FB380402D52846FFF761FB780402D52846FFF74EFBE00703D021463046FFF7A6FF6D1C2D062D0EBCD0F8BD000022
:40650000B4170020F8B5002801D0002400E0144C002C23D025464035A87801281ED1FF278820493700593E46002805D00D49897A890601D5878AC68A2046FEF7B3FD0128B4
:406540000CD10096E88A2A8A3B46014602F0FEF9E882A2780146104601F078FBF8BD0000B41700204C1700200149096809680847180D002070B505460088FFF7EDFE04008C
:406580002AD000F0B0FB002826D02079092823D0204600F0D1FB012820D02046FEF782FD0646E07920210843E071204601F09EFD002815D0294600F08BFE4220005D002806
:4065C00010D02325E079DF210840E0712946204601F0E1FD284670BD022070BD3A2070BD072070BD002E05D02046FFF72BFB0500E8D1EFE70C2070BD70B50E460C2500F00C
:40660000DFFD040012D0002522892946094803F031F8FF2202212046FFF748FEA07800F093FF2046FFF7F1FD022000E000203070284670BD0E200000FEB5044600F0C0FDED
:40664000002801D00C20FEBD022101A8FFF7C4F8012859D168460079304F002801D0002601E03E462036002E4ED000213046FFF772FA3546002040356870A8700620FFF788
:4066800051F8208A6882228AE189A08902F0ACF928820246608AFF23A88249330093E18AA08A02F053F9E882288AFEF769FC6873288AFEF755FCE881184806228778A11D26
:4066C000AC30FCF746F8207901281FD06079E870A01D01F0EFFAFB20074010488770217EC278012917D0FB210A40C2700C4821460068826830469047B178204601F028F9E6
:406700003046FFF705FBFEBD0920FEBD0020E87004200743E1E704210A43E6E794170020000D002070B50D460026194A0146002801D0002401E014462034002C26D02046ED
:4067400000F0E6FA01280AD18C20484380186030007FFEF79DFE002801D101F0EDFF0D48006881692046884700280CD020464030817EA94202D3491B817600E086762089AB
:40678000294603F0BBFA204600F0B0FD70BD000094170020180D002070B503460088FFF7DBFD040013D000F09EFA00280FD02079092819D02546997840352973204602F0B0
:4067C0003EF80646A878012803D0AA8A02E0022070BDEA880A20424301212046FEF7BCFF002E01D109202071002070BD0EB5002217216B460292198100905A810120029B11
:4068000000990BF00FFB0EBDF8B518480024807A002822D1164E0025B089000B22E0204600F060FF1249A039401807882A462146384600F015FB012810D00E480122478369
:4068400005770A4944778A72002D01D0002000E02030002801D000F049FDF8BDB089000B641CE4B20028DAD1F8BD000050180020A0102E409417002010B50446C0060ED555
:4068800000200B4A03E0002801D0002100E011460979022909D0401C0006000EF3D00548006881692046884710BD00F005F8F6E7B4170020000D002070B51A4D002801D06E
:4068C000002401E02C4620342179022904D0002901D001F09BFA70BD01225B210A5500F015FF032020710820FEF71CFF00212046FFF731F9204643300121064600F0E2FEDB
:4069000009480068016A30468847024600212046FFF7CCFCA078FFF727FEA87B401CA87370BD000094170020000D002010B50C46002121700088FFF70FFD03000BD000F04E
:40694000D2F9002807D00948F121807A0840C00603D4112010BD022010BD022020701A8A1889002103F072FA002010BD4C17002070B50088FFF7F0FC040008D000F0B3F930
:40698000002804D0E079C10903D0002070BD022070BDC1068025002908DA2843E07108480221C28A2046FEF7D7FEEEE7204600F01BFA0028ECD1E1792943E17170BD0000BD
:4069C0004C170020F8B50F46002100910088FFF7C3FC040012D000F086F900280ED0E079410641D4617E02264A07002A08DB8907402500291ADA2843E07135E00220F8BDF4
:406A000002F076FC0021017021894180A1898180217E4170E189C1803E7005460178134802F0E8FE284603F0B5F91DE0204600F075F9012806D068460BF0E6F8002803D0D9
:406A40000720F8BD2A20F8BDE07900992843E071204601F01DFF607E0421304360760448C28A2046FEF778FE0020F8BD1D0400004C1700203EB500220F236C4602922381BB
:406A800000910190628169460EC900200BF0CAF93EBD0000F8B50446002000902088FFF75BFC05001AD0FEF7FDFA002812D02348807AC00710D0284600F015F900280DD074
:406AC000287903280CD004280AD0072808D009282AD103E00C20F8BD1120F8BD0220F8BD2F464037387801281ED02846FFF746FC06001BD00822211DFBF72BFE3046A178D8
:406B00002030017261881022090A417221460C311838FBF71EFEB878002809D001212846FFF719F80098F8BD0D20F8BD0720F8BD284600F04BFA0090F8BD00004C17002071
:406B400010B5002801D0002400E00B4C002C11D0214640314878022801D100204870A07DC107C90F002001F093F92046FFF728F8FEF75EFD10BD0000B417002070B5034637
:406B80000D460088FFF7E8FB04000BD000F0ABF8002807D01248F121807A0840C00603D4112070BD022070BD20464030418A008A491C41430804C10C5888884201D212201C
:406BC00070BD20822079072802D12046FFF702F8022028702089002103F060F9002070BD4C170020016A491C016204D1817E491C4906490E81767047C169491CC16104D1EF
:406C0000C17E491C4906490EC1767047F0B5064687B003A8009005A800270D460190002E01D0002400E01C4C002C05D06846FCF7E7F9002803D00BE0022007B0F0BD6846FA
:406C40000089C00704D18C2200212046FBF78AFD124829460068826820469047050018D1A6706776277100212046FEF774FF204600F030F8204601F003FA094820825E203E
:406C800007550848F121807A084000D001202075E782E8B2D1E70000B4170020180D0020B80B00004C17002010B50020074B084AFF2119541418401CC0B221740428F8D381
:406CC0001F2119541018017410BD00005018002094170020002101628176C161C17620300177417770470079002805D0012803D0022801D0012070470020704740304078DB
:406D0000012803D0022801D000207047012070474030807F002800D00120704740300078002807D0012805D0052803D00E2801D00120704700207047074A0146927B00200E
:406D4000002A07D040314A78022A02D08978012900D10120704700009417002010B500F065FC03498989090B01D0FFF783FE10BDA0102E4070B5054604464035A87F002809
:406D800025D1FF206075A0788C21154A484380186030417F8C23491CC9B24177A0785843104B8018DB896030994201D300214177A0788C21484380186030467F0677A17816
:406DC0003046FEF765FB002802D00120A87770BD0220A877A078314600F04CFD70BD0000941700206C18002038B5002105460091FFF794FF012806D068460AF005FF002876
:406E000003D0072038BD2A2038BD2846009CFEF749F900280BD02146284601F059FC05480221C28A2846FEF797FC002038BD112038BD00004C17002070B50024074D03E0D5
:406E4000002C01D0002000E02846FEF7B9FE641C2406240EF4D0002070BD0000B4170020F0B515468207920F85B0000A02926A469080002D01D0002400E0524C002C28D0A2
:406E8000084600F02FFC07466846808800280BD00298012843D0022841D003280BD03D20005D012870D087E04748381801882046FEF745FF80E00020029002A80AF084FE83
:406EC000002807D03D20005D012878D12046FFF789FE74E06846029E8388324600213846FCF7A0FF3848381801882046FEF727FF284600F033FB01AA21463046FEF78EFCC1
:406F0000002806D030460AF0CFFE3D204C21085528E0F5773146204601F086F94FE0002000902089039068460AF03EFE002802D0002005B0F0BD6846009E8388321D0021EC
:406F40003846FCF76FFF2048381801882046FEF7F6FE284600F002FB25464035287E00280CD103E02046FFF705F928E001AA21463046029BFEF78AFC002806D030460AF069
:406F800089FE3D202873EDE713E00298FEF7E6FE01460398307003980901000A0843707068468088B070000AF0703046FFF71EFC05E02046FFF716FE284600F0CFFA012059
:406FC000B7E70000B417002000102E4070B501790546032904D0042904D0072908D109E0052400E006240121FEF7FEFF002805D00D2070BD0824FEF7D5FFF7E7284600F0DE
:4070000075F92C71002070BDFEB5064602F070F9044602F066F9074602F059F9054602F06BF9029002F07AF901902570280A6070280CA070280E3546E0704035687B207184
:407040006771380AA071380CE071A87B2072E8892549000A6072287CA072288A0522000AE072A87C2073688A000A6073287DA073A88A000AE073204610300091FBF769FB9B
:407080000027F770B078009900F0D4FE777101984101029867750143A175080AE07503E0298A49004018308000F0CEFA3188042200F058FB01283088F2D00C4F3880182115
:4070C000204600F02DFCA88A298AC000FBF70AFA3881B07800F022FAE98AB07800F0B6FD00F028FAFEBD0000A417002000122E4010B5074A917B002901D0491E917300217B
:40710000FFF784FD002801D0002010BD012010BD94170020F8B5074606464037B87F00282DD0B0788C2100904843234945186035287F0099FEF7C1F901281ED0287F401CC9
:40714000C4B21E48C089A04200D800240020B877FF276F772F77A87702460146009800F0FFFC717DFF2903D0304600F04AFF777501F0E2FA0025114F19E00320B877F8BD04
:4071800000200090224669463046FEF74BFD0099002904D0FF231A463046FEF7A6F9641CF889E4B2A04200D800246D1CEDB2F889A842E5D8F8BD0000941700206C1800204A
:4071C00000B5022000F002F800BD000010B502460021084B03E0002901D0002000E018460479944204D0491C0906090EF3D0002010BD0000B4170020F7B50646087982B05D
:407200000C46092807D0A078F0770846FFF780FD012806D010E030460AF05AFD022005B0F0BDA1788C20294A484380186030007FFEF72EF9012810D0A078FEF70FFC0128AA
