:400000000040002011000000B5030000B503000008B500F0D1F9C04670B572B680260024274DF6002C60321C0021264801F0A0FA321C0021244801F09BFA0222234B24488E
:400040001C60244B244E1C60244B19780A433C211A7002788A4328390A4302701622197818200A431A701223336000F05FFC1C4A1C4BFA201A6002231B4AC00011680B43AF
:4000800013601A4A1A4B1A6008222B6893432B6000F07EFC174800F0D7FC8022164B12061A60164B164A1C60164B1C60112333600E3B1360144A1360144B1C6070BDC046CF
:4000C0006CF02E4000300F4000400F400000024001700F40080004403000104000700F400600008004010B4078002E406A2D00007C002E40DC05000008010B4000010B40DD
:40010000300030400C020B4030003140000E3F4010B5064C2378002B07D1054B002B02D0044800E000BF0123237010BD680F0020000000003C26010008B5084B002B03D01F
:400140000748084900E000BF07480368002B00D108BD064B002BFBD09847F9E7000000003C2601006C0F0020A80B00200000000008B5012814D10B4B187000F0FBFD00203D
:40018000012100F00FFE0020012100F02FFE0020054900F093FE012000F04CFE00F0DCFD08BDC046840F0020FF7F000008B500F0AFFE43070CD400F0ABFE8023DB001842BD
:4001C00005D0181C00F0AEFE0122034B5A7008BD042000F0A7FEEEE7840F002008B500F005FC214800F03EFB00F05AFD00F0C2FD0020012100F0D6FD0020012100F0F6FDB9
:400200001A49002000F05AFE012000F013FE00F0A3FD00F031FC012000F062FD00F0AAFD8020C00500F006FD00F096FD00F0BEFC002000F0ADFB00F09DFD012000F018FE2F
:400240007321002000F03AFE012000F0F3FD00F083FD00F011FC00F08DFD012000F008FE00F07AFD08BDC046AD010000FF3F0000F8B55F4656464D464446F0B462B603209B
:4002800000F0C6FBFFF7AAFF444800F0EBF801F0ABF9434B434C9B46434B444F9946444B984603235B449A4602E06378002B3DD101F09AF9032001F08FF9051C00F0F9FAD0
:4002C000061C03F01DF9032D59D002280BD0022000F008FB00F0FEFA00F0C0FB00F0F0FA002000F0FFFA301C00F0E7FA2378002BDBD00023237000F03DFD012000F0B8FDB6
:400300000120012100F04EFD0120012100F06EFDA3210120490000F0D1FD8020400000F089FD00F019FD6378002BC1D0A378002B2CD0012B20D100F01DFD8020400000F089
:4003400097FD00F009FD49461322504601F007F916235A46D37743461B680521D80000F047FF7B6880B218805880022000F0DAF800280ED10223A3700023637098E7FD2308
:4003800018400428AFD100F077FBACE70123A370F2E7002000F056FBECE7C04671010000D00B0020840F002040260100B00B0020AC0B0020FEE7C046F8B5104E002E18D0B5
:4003C00000200F4DA9682C686A68002905D00023E758043380C29942FAD1E9680023002903D0D05004339942FBD1013E1035002EE8D101F07FF8FFF73BFFFEE70100000034
:400400001C2901000121124A38B51368114C8B431360114800220023104D04E00133A1500432302B08D0011C032BF7D851590133A1500432302BF6D1FFF7EEFD0022084BEE
:400440001A600123024A11680B43136038BDC0460000104000000020B503000000000000C000002010B590B01422041C21490BA801F075F8204A1378002B07D11F490B70A4
:400480001F490B701F490B7001331370002C2FD000211D4B08A81C60018106AB1B31198059801739197108930023123105AA69444260137001F06EF9002801D010B010BDB4
:4004C0000523AE220093114B11480193114B1249029312010BAB01F0B9F80028EED101220E4B0D211A700E480A320DF021FAE5E70120E3E754260100880F0020DB200020A8
:40050000D4200020DA200020CC200020803101000106000079020000C8000020D220002068260100031C10B50120022B05D8154A1278042A02D00420FF3010BD124C2178B5
:400540000A42F8D11148002B10D1C8214268C9000382118051800E4A13700BF02BFB0028EBD10423227813432370E6E7012BF2D19622C82102824268C90011808021C901E4
:400580005180E8E7D2200020DB200020B00B0020DA2000207047C046437800781B0218437047C04638B583890025092B01D0281C38BD041C00210430221C37330DF0D0F915
:4005C000051E05D001210C4A13788B431370EEE76068FFF7E1FF830706D58220074B40001B68211C9847EDE70620044BFF301B68211C9847E6E7C046DB200020CC200020F3
:40060000F0B54746012380B4854C82B02278051C13430E1C23704C2813D8824A8300D3589F460B78002B0CD14B78002B05D17E4AD38093807D4B4A601360012223789343AB
:400640002370112223781A4208D02378103A93432370774B281C1B68311C984702B004BC9046F0BD734F0222381C00F078FF00223978714B3D311A70FF31704B4900591820
:40068000013102326E4800F06AFFDAE7082301AF3B700023381C7B7002F064FF0723381C3B70063B7B7002F05DFF664B186898468379002B59D10378002B0ED14378002B59
:4006C0000BD18378002B08D1C378002B05D10379002B02D14379002B47D000F089FF434600211868FFF756FF434601211868FFF751FF65E000224F4B5A701A70A1E7524B93
:400700001A78022A9DD02178C9079AD504212078014276D003221A7023788B43237090E70222494B1A708CE70422474B1A7088E7081CFFF737FF2378DB0700D581E70028B6
:4007400055D130680CF0D4FB7BE723789B0600D577E73E4B1A78102A00D072E70B3ADA706FE70A78344B1A706BE7394B1F2218783F239C461840374B80011978364B114088
:40078000021C09030A4361461B780B401343334A403112780A4052041343314A90464146137040461A0A1B0C4A708B7000F020FF40460021FFF7EEFE40460121FFF7EAFE7A
:4007C00000200BF0E7F83F233B700023381C7B700BF0FEF804221C4B1A7032E74988162903D830880CF00CFB2BE71721F9E7122301A98B70B389C87030680B800CF0F6FA42
:400800001FE708202778384204D0197023788343237016E7032A00D013E7197011E7C046DB20002094270100AC0F0020A80B0020CC200020D8200020D42000208031010036
:40084000D0200020C40B0020D2200020640C00207DF1FF0F7BF1FF0F7CF1FF0F78F1FF0FC80B002010B58024094B64001C60094B186600F01EF8C02207490B689343403A92
:4008800013430B6000F019F8044B1C6010BDC04680E100E00000002008E400E000E100E00230800803D00138FDD1C046C046C0467047EFF3108072B6704780F3108870477A
:4008C0008021034A090613680B4313607047C04608010B40024A13685B005B081360704708010B4010B5041CFFF7E3FF072304490A689A43234013430B60FFF7DEFF10BD64
:4009000000010B4010B5041CFFF7D3FF0722054914400B68044AE404134023430B60FFF7CCFF10BD00010B40FFFFC7FF10B5041C86B0FFF7BEFF0E4B0E491A6802AB029247
:400940000D4A126803920D4A1419033C227804920B4A126805920B4A00926A4601930A4B1A600A4A11601B68FFF7A7FF06B010BD08010B401700008000010B40C82801002F
:4009800030001040B6EA00000800104004001040F8B501230F4A041C11680B43802113600D4A0E4B09021A600D4A13680B43136000280DD001250B4F0B4E3878FFF770FF8B
:4009C00033681D4204D1013C002CF6D1102000E00020F8BD60F02E400220000078002E4010002E406C0C00200C002E400121054A13688B431360044A044B11680B401360BC
:400A00007047C04660F02E4010002E40FF7FFFFF07220A4B10B51B681340022B01D101BE10BD041CFFF745FF0321054A0C4013688B431C431460FFF740FFF1E700010B400F
:400A400064F02E4001BE704708B5034B1B785843FFF726FF08BDC0466C0C002008B5FFF728FF0421034A13688B43136030BFFFF724FF08BD10ED00E030B583B0FFF719FFAF
:400A80000E4A0F4D1368041C5B005B0813600D4B0D4A1B8802209BB2136004230B4A11680B4313602B680193FFF72CFF30BF019B201C2B60FFF701FF03B030BD00000B4051
:400AC00000010B4052F1FF0F0C000B4010ED00E0F8B5314B01211A68920722D500232F4D2B602F4B1C6800232404240C2C4E2D4F07E0002B11D0022B0AD13B689C4206D1DC
:400B00002B68012BF5D133681B0C9C42F8D0F8BD0020FFF797FF0023F0E733681B041B0CECE71A68520A114206D01C4D29601C4B1C680123240CD9E71A68184D520C0A4032
:400B400005D002232B60174B1C680223CEE70324154869602A6002682240AA601B685B08194202D10368A343036001230A4A11680B430221136013681942FCD02B68012B85
:400B8000D5D0002BADD0022BDDD00020FFF75AFF00242B68AAE7C04610020B40B40F002000020B4004020B400C020B401C4B70B51A68C0231B021A4203D11A4C2368002BC0
:400BC00000DB70BD184D2B689B0F04D023685B005B082360F5E7FFF76CFE061CFFF778FF23685B005B082360104B5A68002A03D1301CFFF762FEE4E701200D4A11688143D7
:400C0000116012689C685208104205D103222968914322400A432A6000225A60E8E7C04600010B4004010B400C020B40B40F002010020B4070B5174D2B689B0F9B07984258
:400C400013D0041CFFF735FE061CFFF741FF2B68A00F9C008007A40820430F4B28605A68002A03D1301CFFF728FE70BD01200B4A11688143116012689C685208104205D121
:400C800003222968914322400A432A6000225A60E8E7C0460C020B40B40F002010020B400121022010B530240B4B1A688A431A601A6882431A60094A1068A043203C20437D
:400CC00010601068093CA0430143116080211A6809060A431A6010BD00F02E4000FF2E4001221B4B70B5196811400C1C00281AD0012804D00020FFF7A5FE201C70BD0221A2
:400D000007261A688A431A60124A1568B5432943302511601168A943103D294311601A6810431860E9E70220196891431960196881431960074B2E301968814320380143CF
:400D400019601968093881430A431A60D5E7C04600F02E4000FF2E4008B5FFF7AAFDC021034A090213680B431360FFF7A6FD08BD00010B4010B58024FFF79BFD0749084B0D
:400D80000A68E4011A4022430A600A6813408022120213430B60FFF790FD10BD00010B40FF3FFFFF38B5041C0D1C022812D80D4BE0001B68421CD340DB070AD403210C1C1D
:400DC0000D4085408440281C074A1368A3431843106038BD0020FFF735FE0020FFF732FEE5E7C04610020B400C020B4038B5041C0D1C012807D90020FFF724FE022C02D0D9
:400E00000020FFF71FFE094BE4001B68621CD34001221A4208D10234A540A2402C1C04490B6893431C430C6038BDC04610020B400C020B400D4A136803431360C30703D557
:400E4000022113681942FCD0C30505D58022074992000B681342FCD0C30305D58022034992020B681342FCD07047C04610020B40104B1A68C0231B021A4219D10E4A13682D
:400E800083431360C30703D5022113681942FCD1C30505D58022084992000B681342FCD1C30305D58022044992020B681342FCD17047C04600010B4010020B4038B5051CA9
:400EC0000C1C012802D90020FFF7BCFD0D4BC9201B689B0F00D06C38FFF7B6FD201C0A4A2D01AA40A84009490B68934303430B60044B43201B689B0F00D02438FFF7A4FDEE
:400F000038BDC0460C020B40FFFF000008020B40024B1868024B18407047C04610020B4004040400F8B5C026071CFFF7C2FC1B4C36022368051C334225D0FFF7BAFC802106
:400F40002268174BC9011A400A432260226813408022120213432360FFF7AFFC1148124A0740381C1168114B0B40184310601368FFF79FFC23681E432660FFF79EFC281CF8
:400F8000FFF79BFCF8BD0748074A0740381C1168064B0B40184310601368F0E700010B40FF3FFFFF0404040010020B40FBFBFBFF0160704701607047314B324A1978324B6B
:400FC00009021B781943314B1B7812781B0213432F4A93424ED0D4221201934246D02D4A13602D4B2D4A19602D4B1B7812781B0213432C4A134200D12B4B2C4A13602C4BBF
:401000002C4A1B7812781B0213432B4A93420DD02A4A93420AD0052B08D0294A1360294B1A68294B1B68AA2B09D07047274B244A1360244B1A68244B1B68AA2BF5D11F2A06
:40104000F3D91B4B1B780E2BEFD1214B214A1B7812781B021343204A1360204B204A1B7812781B0213431F4A1360DEE70429B6D11D4BB4E70729B2D11B4B0339AFE7C046C0
:40108000D9F0FF0FDEF0FF0FD8F0FF0FDFF0FF0F580B00006C002E4074002E40DAF0FF0FDBF0FF0FFFDFFFFF0220000078002E40DDF0FF0FDCF0FF0F0F0F00000505000039
:4010C00080002E40EC0F00F0E00F00F0050F00006DF2FF0F6CF2FF0F84002E406FF2FF0F6EF2FF0F94002E40580D000008B5FFF7ABFC08BD08B500F067F808BD08B500F078
:401100006BF808BD08B500F067F8034800F046F8002000F049F808BDE911000008B5024800F020F808BDC046E91100000220FF307047C0462B2070472B2070472B2070470A
:401140002B2070472B2070472B2070472B2070472B2070472B2070472B2070472B2070477047C04610B58024084B64011C60084B1867FFF79EFBC021064A13688B431360B7
:40118000FFF79BFB044B1C6010BDC04680E100E0000000200CE400E000E100E0014B18677047C0460000002010B5041CFFF781FBC021044AA40113688B4323431360FFF728
:4011C0007CFB10BD0CE400E08022024B52011A607047C04600E100E08022024B52011A607047C04680E100E008B511F013FA08BD002243088B4274D303098B425FD3030ABE
:401200008B4244D3030B8B4228D3030C8B420DD3FF22090212BA030C8B4202D31212090265D0030B8B4219D300E0090AC30B8B4201D3CB03C01A5241830B8B4201D38B030A
:40124000C01A5241430B8B4201D34B03C01A5241030B8B4201D30B03C01A5241C30A8B4201D3CB02C01A5241830A8B4201D38B02C01A5241430A8B4201D34B02C01A5241B5
:40128000030A8B4201D30B02C01A5241CDD2C3098B4201D3CB01C01A524183098B4201D38B01C01A524143098B4201D34B01C01A524103098B4201D30B01C01A5241C30804
:4012C0008B4201D3CB00C01A524183088B4201D38B00C01A524143088B4201D34B00C01A5241411A00D20146524110467047FFE701B5002000F0FCF802BDC0460029F7D0E4
:4013000003B5FFF775FF0EBC4243891A1847C04603460B437FD4002243088B4274D303098B425FD3030A8B4244D3030B8B4228D3030C8B420DD3FF22090212BA030C8B4267
:4013400002D31212090265D0030B8B4219D300E0090AC30B8B4201D3CB03C01A5241830B8B4201D38B03C01A5241430B8B4201D34B03C01A5241030B8B4201D30B03C01A65
:401380005241C30A8B4201D3CB02C01A5241830A8B4201D38B02C01A5241430A8B4201D34B02C01A5241030A8B4201D30B02C01A5241CDD2C3098B4201D3CB01C01A5241B5
:4013C00083098B4201D38B01C01A524143098B4201D34B01C01A524103098B4201D30B01C01A5241C3088B4201D3CB00C01A524183088B4201D38B00C01A524143088B421B
:4014000001D34B00C01A5241411A00D201465241104670475DE0CA0F00D04942031000D34042534000229C4603098B422DD3030A8B4212D3FC22890112BA030A8B420CD3D7
:40144000890192118B4208D3890192118B4204D389013AD0921100E08909C3098B4201D3CB01C01A524183098B4201D38B01C01A524143098B4201D34B01C01A524103099F
:401480008B4201D30B01C01A5241C3088B4201D3CB00C01A524183088B4201D38B00C01A5241D9D243088B4201D34B00C01A5241411A00D20146634652415B10104601D3B6
:4014C0004042002B00D54942704763465B1000D3404201B5002000F00BF802BD0029F8D003B5FFF715FF0EBC4243891A1847C0467047C0460E4B70B500251E1C0D4CE41A3C
:40150000A410A54204D0AB00F35898470135F8E711F0F2F9084B00251E1C084CE41AA410A54204D0AB00F35898470135F8E770BD0429010004290100042901000C2901001C
:4015400030B50024944208D0035D651C0C5DA34201D0181B02E02C1CF4E7002030BD002310B5934203D0CC5CC4540133F9E710BD031C8218934202D019700133FAE7704709
:40158000134A1088810703D08107890F401A001D11791030484381B25088820703D08207920F801A001D800040180A494030098980B2CA0701D0503080B2890706D504493C
:4015C0005422091F09785143081880B270470000820C0020DC0F002010B501F0F9FE10BD10B501F00BFF10BD10B500F04FFA10BD10B50749044609780220002907D120463B
:4016000001F04CFF002802D120460AF0B9FA10BDEC0D002070B504460120002C12D02368002B0FD0616800290CD0074D06222889208118462968FFF792FF6968606809781B
:401640000170002070BD0000DC0F0020FFB585B0002768460E9D07734C481C460078002802D0082009B0F0BD10990F9801900095029105A807C800F0FBF80028F2D16946C6
:40168000264603AB84460873002C19D0002115E08A00B75A082F09D990198078002805D0083FB7521878401C187005E0002915D00027B75290198770491CC9B2A942E7D342
:4016C00060460028CED10F9800280AD0109901F033FA0006000E04D00120C3E701208446EEE701F08BFE2948002101610C300599016021888180022D03D3A1798171A17A1B
:40170000C17100211EE0481C19E082008B00A75AE65ABE46BE4211D26F463E80B4461E190296B678BE7001967646E6521719029EBB78B3706646A652019EBE70401CA842C6
:40174000E3D3491CA942DED3114800906846037B22460799069800F013F9002882D168460A4C007B60700A4801F078FE0028B4D1204607490C3007F02DFA0028ADD107F01E
:4017800047FA0028A9D1012121706BE77C0C0020DC0F0020F8B5054633480E460078002802D002242046F8BD002E5BD000242F49002D16D02A89D0070DD02868002808D015
:4017C00003881B3BE12B04D24088FB2801D81B2801D2012409E0900707D56868002804D1F7E70020088108604860002CDAD11F482F8907811C481B21801D01804180042145
:40180000017119490020891C0870F80705D016480622801D2968FFF7A2FE1449B80703D56A681148127882700F480D46801D0860001F486001F058FE0B48801D01F046FEFC
:4018400028890DF03BF928890DF0A2FA03461033FFF796FE1F21C018890140180249308088809FE701249DE77C0C0020DC0F0020FFB58446384F1C460020BB883F7805467B
:4018800002460646002F11D100290ED0029999420BD36146002908D0002C06D00A99002906D02E4B0B99994202D2012004B0F0BD002144E0AB001F19BF78002F3BD0E35AB8
:4018C000002B38D07B43591889B22B0000F04AF8050410161C253100A7782388BC46FF27233BEB37BB4222D26346032B1FD322E0A388002B1FD0302B19D31CE02389002BC0
:4019000019D0282B13D316E0A289002A13D01346134F233BBB420AD20DE0268A002A0AD033460F4F233BBB4201D2964203D901200EE0002001E000280AD16D1CEDB2099B2C
:401940009D42B7D31C2463435B1802998B42ACD89642AAD8AAE700007C0C002079020000BAFF000030B47446641E2578641CAB4200D21D46635D5B00E31830BC1847000032
:40198000FFB583B0002469460C801F4606468C80002806D00598002803D004983043800701D0012467E0002FFBD03449049809888842F6D3FFF7B2FBFFF7A0FB00F010FC54
:4019C000002856D100F06CFD002852D12C49084601F0E6F805042D0C4BD12A480499066081800021C18007810C98007AC00704D0684601F01CFD040007D10C98007A8007B2
:401A000003D501A801F01CFD0446BF1DFEB2002C21D13146059800F05DF804001BD10DF0C5F90406240E16D16A461088928808368518144AF1B29088D288AEB2931998426A
:401A400007D3401B801A80B201F09AFB050007D000E0FF25012400F05BFA002D04D008E0F8B200F01BF9F6E700F07EFA06490120087000F0C7FB204607B0F0BD800C0020A9
:401A8000C11B0000E80F0020900C002010B503480078012801D101F015FA10BD900C002070B5084B0446DA889E8800205518B54206D81D68AA182260DA885118D98070BDA5
:401AC000032070BDE80F00200148008970470000E80F0020F0B587B007460D4600208900009006916846FFF7DBFF844600285DD1304800990160002117E02E4B88001A68E8
:401B00000629115406D22C4C0419667882185670628805E0C419203CA67A8218567022891B68C018491C4280C9B2A942E5D300242DE0601CC2B2059025E01E4FA300396827
:401B40009600581840887118039604904E88B04217D938466F46FE80B6464F786E4677710297049F4F800168039F5E18767879184E700168764659184E800068029F1818B3
:401B80004770521CD2B2AA42D7D30598C4B2AC42CFD36046002809D168460699FFF780FF8446002802D1054900980860604607B0F0BD0000940C002030290100980C0020DE
:401BC0007047000010B5002809D005494A68002A05D0011F08788000105801F07FFA10BD940C002010B50446FFF76EFFC0B2801DA0420CD307484068002808D0A100405878
:401C000001F0DEF9002801D00470001D10BD002010BD0000940C0020F8B516460D460446FFF752FFC0B2801DA04203D20020C0430090F8BDB2B2E9B2684601F0E7F90099A6
:401C4000481C03D0024AA000526811500098F8BD940C0020F8B50746FFF736FF801DC6B20A49002005460C680DE06178002907D06188B94202D32078FFF7B4FF002804D1F0
:401C8000241D6D1CEDB2B542EFD3F8BD940C002010B5002801D0FFF795FF10BD70B506460948002504680BE06178002905D062882078121D0023FFF7AFFF241D6D1CEDB282
:401CC000B542F1D370BD0000940C0020FFB581B00A9C16002BD000F0F1F80546042826D0214F002C0BD02046FFF7B4FF2901C919486000281BD022460499FFF730FC1A4983
:401D000028010E5046187481019805707D20029CC000444300F0C0F8009004280AD000F055FAA0420ED800F051FA201A06E0FF2005B0F0BD204600F0ADFA0020B081357223
:401D40000020F5E700F042FA074600F0B9FA381B87B23846012100F0EFF800980101024808188781E6E70000F40F0020F8B5060117483418217A042903D0A089002802D02F
:401D800018E00020F8BD00F021FA054600F098FA00F0A2F804280DD001010D480F18B88941198DB2002100F0C7F80020B881284600F070FA6068064D002801D0FFF768FF31
:401DC000042020720020A8516081A081D9E70000F40F0020FEB500266A46304601232549050169180D7A042D02D0898900291BD000211154401CC0B20428F0D30024684652
:401E0000005D002830D01B482101081841894768056802910021016041600422418102728181002E02D015E01354E3E700F054F804280ED001010F480818019086890021D8
:401E4000304600F079F8019800218181304600F021FA0126002D07D038460299A847002F02D03846FFF714FF641CE4B2042CC6D3FEBD0000F40F00200EB5002005216A461D
:401E80000090118150810348694600680DF003FE0EBD00009C0C0020074A0020010189180B7A042B02D08989002903D0401CC0B20428F3D370470000F40F0020054900208C
:401EC00002015218127A042A03D0401CC0B20428F6D37047F40F002030B50A4B04200A4C00210A011219157A042D06D09289002A03D09A4201D808461346491CC9B2042929
:401F0000EFD330BDFFFF0000F40F00207047000030B50020074C05460423020111190B72A5504D60401C4D81C0B28D810428F4D330BD0000F40F002030B5094C00231A01DF
:401F40001219157A042D04D09589002906D02D1895815B1CDBB2042BF1D330BD2D1AF7E7F40F0020002070471CB5002469460C70142001902346054A05480DF091FD044866
:401F80000068401C00D1FF2420461CBDE51F00009C0C00203EB5124A0146FF2000230124126800290DD0012914D0042908D104206946009308814B8110460DF06CFD80B224
:401FC0003EBD6846009304814381694610460DF05DFDF4E768460093048143816946EBE79C0C002070B545890468416800890300FFF7B8FC08280509091E222826280020F7
:4020000005F0FAFC1EE0022908D0C8B22A4621460BF004FF2046FFF73BFE13E002202A4621460BF0FBFE2946204600F00DF809E000200DF01FFA05E02046FFF7CBFE01E01C
:40204000FFF78EF8002070BD014B0022DB681847A00C002070B5448905680089022803D0032809D0FF2070BD2246094C0023A46829460120A04708E0FFF7B2FA241DA2B204
:4020800000232946022006F056FC002070BD0000A00C002070470000024800214160018041807047A00C002070B50C46002186B016460391012802D0022859D116E003A9D4
:4020C000012006F098FC01281BD1039D324621462846FFF744FA0095287801900220694608814E816846FFF7B5FF41E0214D002B686809D0049004A9022006F07CFC01285B
:402100001DD0022006B070BD002812D0298840182146FFF724FA28880024801980B228806988091D884206D12C801348FFF792FF03E00320E6E788421AD96C6018E00498A2
:402140006860E278A378110219430B4A698000231060E3565360032313815181A1788170E178C1706178417021780170042028800020C7E7A00C0020341000203EB515462A
:402180000C46022803D004280CD000203EBD0091019002206946088107484A8100680DF07AFC07E00BF03AFE044B0022DB6829462046984701203EBD9C0C0020A00C00200A
:4021C000014AD16090607047A00C0020034801688068081A0A214843000970474010002010B5FEF78FFF482204490548FFF7B7F903490120C870002010BD00004C29010052
:402200004414002010B5FEF775FF10BD70B5134C2368002B08D0207B1149C20705D04008400020738868A08070BD88680B4AA18880B29268814203D90A4D691A091802E018
:40224000814202D2411A5118A160A080A0689842EAD30DF03DFC00F013F870BD40100020C0102E40FFFF000010B508461946FFF7A7FF10BD704710B5FFF780FF10BD0000A0
:4022800003480021016041608160C1607047000040100020024610B5FF20002A0CD0FFF7EFFF064C0321207B0843207310010A21FFF724F82060002010BD00004010002057
:4022C00000B504480A21806848430209FFF7D8FF104600BD401000200248007B8007C00F704700004010002010B544490868002802DA434B01221A700222904308604148B9
:4023000000693E49C00B4031096A08425ED0012000F0D0FA3B483C497C30FEF74BFE37480E216C30FEF746FE364820218430FEF741FE344814219C30FEF73CFE3148FF214A
:40234000C131A430FEF736FE2E48FF212F31B030FEF730FE2B482D49BC30FEF72BFE29482B49AC30FEF726FE29492648491CB430FEF720FE23482749B830FEF71BFE214832
:402380002549CC30FEF716FE1E4824490830FEF711FE1C482249A830FEF70CFE194821498830FEF707FE17481F498C30FEF702FE14481921C9029030FEF7FCFDFEF7FCFD03
:4023C000FEF7B4FEC0B2022802D00FE0FF2010BD16491748FEF7EEFD15481649001DFEF7E9FD134800210830FEF7E4FD54200449C043891C0870002010BD000000F02E40E5
:40240000B00C002000002E4055650000320300002F3F00003102000010520000EC160000FA12000031D000003AE300009956000080012E40F80F000070B50646581C80B238
:4024400045086D00002408E0304600F0C1F81055000A1119A41C4870A4B2AC42F4D3D80705D0D0182038D15CC47FD454C17770BD30B50A4C002100195B1E07E0541864784D
:402480002502545C2C430480891C89B29942F5DB994201D1515C018030BD000000102E4010B5FF2000F006FA0F49FF2048700E481021801D41800121417001700A490020E2
:4024C000C91C4870FFF710FF04000AD100F01AF907210648FEF76CFD044807211830FEF767FD204610BD0000B00C0020CC112E4070B5002405465B1E0AE0284600F068F860
:40250000010A161971702D1D1055A41CADB2A4B29C42F2DB9C4203D1284600F059F8105570BD000070B500210A4D5B1E0AE0541864782602545C344346193480001D891C52
:4025400080B289B29942F2DB994202D1515C4019018070BD00102E40F0B50599091FCFB200217E1E0BE0541864782502545C2C43164D45192C80001D891C80B289B2B142B5
:40258000F1DBFC0712D01C78515C24020F4A0C4381180C809C785D78001D210280B2294384182180001D80B2D9780CE059781A7809021143054A84182180001DD9789B78D7
:4025C000090280B2194380180180F0BD00102E40014940180088704700102E4010B50B490020487000F08EF8002000F089F9002000F076F907210648FEF7DAFC0448072172
:402600001830FEF7D5FC002010BD0000B30C0020CC112E4010B506480078012803D102210448FEF7C7FC02490020C91E087010BDB30C002070F02E4010B50B46062812D05C
:4026400006DC01280CD0032801D1FFF7C7FF10BD0A28FCD00B28FAD105480078107010BDFFF71EFF10BD1146184600F065F910BDB60C0020F8B5204DAC6A0127A0071F4EE1
:40268000002816DA307806280ED1286A384328621B480069F903084381B219481030FEF789FC042000F006F9134802212830FEF77FFCE00711D0062000F0FCF80F49FF20B3
:4026C000C91E48707078002802D1686B38436863094801212830FEF76BFCE0050BD53078042802D1052000F0E5F80348FF2101312830FEF75DFCF8BD40F02E40B30C002045
:4027000000002E4010B503212348FEF753FC0120FEF7ECFC20483038406A204C80076178800F890001431C480C38FEF743FC6078002808D0401E022181401820FEF7CEFE04
:40274000C000083800E0B82081B21548FEF732FC1348032109021438FEF72CFC10481149B830FEF727FC612189010F48FEF722FC0D480321001FFEF71DFC0C490C48FEF78F
:4027800019FC0B480B496038FEF714FC084801218838FEF70FFC10BD70F02E40B60C0020D8102E4090890000041E2E40FF0F000058122E4020900000044800684007400F32
:4027C000022801D0002070470120704700010B4000B5FFF7F1FF002805D009480168C908C900016000BD0748016A490849000162054801690122D2039143016100BD000080
:4028000000010B4040F02E4000002E400849087806280BD148780749002803D1486B400840004863C86A01221043C86270470000B30C002040F02E400148007870470000F5
:40284000B30C002002484078022800D001207047B00C002000B50300FFF784F8080D050D0B070507090D012000BD032000BD042000BD022000BDFF2000BD0000074A9168A0
:40288000D26889B2064B92B2994204D105498A4201D1012100E000210170704780002E4033D000003FE300000149487070470000B30C002010B50446FEF720FC072C01D94F
:4028C000FF2C01D102480470FEF714FC10BD0000B30C00200149487070470000B00C002010B5064A012805D01921C9021046FEF761FB10BD1D21C902F8E7000090002E4065
:4029000010B50A4A141D012808D009491046FEF751FB08492046FEF74DFB10BD04491046891CFEF747FB0349491DF3E788002E4031D000003AE3000070B50C460546FEF7CC
:40294000F5FBC0B202280E49287804D0FF2810D04C280CD810E0FF2809D10A4AD0680004800F032801D0087807E09069000A553803E00878207070BD4F382070087070BDC2
:40298000B20C002000002E40F0B50122002830D000292ED00424420600D00524792342065B06D21800D0641C034600221EE00C2516466E43104D00277519AF720E4F002A6B
:4029C000BB51696007D0661EB24209D10B4E86197606760E05E05E06760E8027BE1B00E080269B198919521C2E81D2B2A242DED300221046F0BD0000CC12002079020000E4
:402A0000074900200C2242435218927A012A05D0401CC0B20628F5D30020704701207047CC120020F8B50F000446164609D0184D18496868A04202D94018A04201D38E4220
:402A400001D90120F8BD39462046FEF779FD00281BD0324639462046FEF781FDF0B200210C224A43521913895668F718A74208D90127A41B1B1B9772834206DAC01A146935
:402A8000C0B2491CC9B20629EAD30020F8BD0000CC1200207902000010B500F05DF80748054AC16806480C46FEF759FD04492046FFF76AFF10BD000079020000BC0C00208C
:402AC00050100020002070470020054A002902D0012902D002E0506000E0906000207047BC0C002070B5084C154608460549A26889182A46FEF733FDA0684019A06028B20D
:402B000070BD000050100020BC0C00203EB50A226946FFF7E7FF044606480A2200686946FEF70EFD002802D00020C0433EBD20463EBD0000BC0C0020002802D0044A9142FF
:402B400001D2FF20704703490A61C8600020704779020000BC0C0020024800214160816070470000BC0C002070B5074C15460548626880182A46FFF755FF606840196060EA
:402B800028B270BD50100020BC0C002010B503490A220968FFF7E8FF10BD0000BC0C002010B50F4A002313600E4A13600E4B18600E4801600E49012008600E4908600002BE
:402BC00090600E490C4808600D4914300860FF381538506000F0BCF800F0CAF9002010BDE80C0020D00C0020FC0C0020000D0020EC0C0020DC0C002014140020E00C00207F
:402C0000F40C0020014610B50020002910D0094B1A689C685118A14209D25868196080188A0704D08A07920F891A091D196010BD002010BDD00C0020F8B50024164E671E24
:402C4000321F3D463168136806E01422624310328A58521C1BD0641C9C42F6D36A1C14D02C461422544322460C3288500C214843FFF7C8FF3168002808510AD031680020BE
:402C8000103408517068401C70602846F8BD2546E4E73846F8BD0000E00C0020F3B50026F64381B000281BDB1E490968884217D80299002914D01B4F142204463F1D54436F
:402CC0002546396810354859401C09D0FEF716FA38682F1F4159C359994203DBFEF70AFA3046FEBD214608310091465801590C20704308180C220299FEF731FC0948761C2B
:402D0000001D0068C159B14200D100260549009A091D865008684159491C4151FEF7EAF90020FEBDDC0C0020002803DB07490968884202D90020C043704704491422091D7B
:402D4000096850431030085870470000DC0C0020F0B500200D4A451E0346171F50600FE014260146714314680E1DA3510C461668083433511668083435511468401C635028
:402D800039688842ECD30020F0BD0000E00C0020F3B50026F64381B0002841DB2349096888423DD8029900293AD0204F142204463F1D54432546396810354859401C2FD0DB
:402DC000FEF79CF93868415900292BD0211D009146580C21005971430F46C1190C220298FEF7BDFB11480021001D0068761C00590C34C0190160416081600C48001D0068E1
:402E00000159B14200D100260849009A091D865008684159491E4151FEF76CF90020FEBD3046FEBDFEF766F9FAE70000DC0C0020FEB504460D4600201E49089E0860471E77
:402E4000009001900290002C11D0486885420ED2002A0CD0002E0AD0642E08D808460C3001681C2068430C18207A002801D03846FEBD0120226020721846FFF7DDFE6060CD
:402E8000401C13D06681A6810A4827610C3067610179A94200D205710021684601810A462846029B00F040F82846FEBD00202072DDE70000E80C002038B50124009400F01D
:402EC00039F838BDFEB50027164EFF433D4600240EE01C20316860430818017A002906D04068FFF721FF002801D0254603E0641C3079A042EDDA681C12D01C2130684D43E3
:402F00004419FEF7FBF869466068FFF741FF0546FEF7F0F8002DD9D1216868468847D5E7FEBD0000F40C002038B50024009400F001F838BD1FB500220C49541E0A60002831
:402F400011DB496888420ED808491C220C31096850430818406801A9FFF7A0FE401C02D0002004B010BD2046FBE70000E80C0020F0B50021114A4D1E174611710C3F0B46FC
:402F8000BD6016E008461C2460431668041D355114680646235014680836A3551468361DA353044616680A34335318301468491C255078688142E5D30020F0BDF40C002084
:402FC00038B500210091002811DB0F49097888420DDA0D4D04010C3529680859002807D0201D0818694600F06FF9002801D0002038BDFEF783F828680F34015D491E015533
:40300000FEF778F8009838BD040D0020F7B582B0002502986E1E06602E48D21C024017462D4A2C4610460C380178106805E02301C358002B0FD0641CE4B28C42F7D3711CFE
:4030400028D03401211D40180191039900F02AF900281FD101E02646F1E71F48016820460C300F521C480399026820460E30115419480399026820460F3011540398784302
:4030800000F0A0F8144900280968085102D00024009011E001251AE00F48016801980818009900F02CF9002801D0012502E00098C0190090641CE4B203988442ECD3002D16
:4030C00005D10298066004480179491C0171284605B0F0BDFCFF0000100D0020F8B50D4600216A468C461180002839DB23490978884235DA214B04010C3319680A59002A61
:403100002ED020460C300B5A801C0E5C184670438018954224D3854222D2002006E007465F43BF18AF4206D0401CC0B2B042F6D36046002814D0114E271DC8190C366A460E
:40314000294600F006F900280AD168460088012808D030682946C01900F0D1F8002803D00120F8BD0020F8BDFDF7C8FF30680F34015D491C0155FDF7BDFFF3E7040D00200E
:40318000F8B50F46002400F031F8002817D10C4900220B460C334A600EE021011D680E466A501D680C36AA53B61C1D680F31AA551D68641C6A54E4B2BC42EED31A71F8BDBA
:4031C000040D002000280BD0C01C074A81085068890053884118994203D89368516018187047002070470000040D0020F8B5064600200F4D009029700C0121466846FEF76A
:403200004FFC00280CD129460C3100980860301B001F84B221466846FEF742FC002801D0FF20F8BD6C800098A8600020F8BD0000040D0020F8B5002827DB194909788842C7
:4032400023DA174C05010C342168485900281CD028460C30085A009028460E300E5C401C0E5420682F1DC01900F064F800280CD12068002445590EE0094829460C30006860
:40328000C01900F03CF8002801D00120F8BD00982D18641CE4B2B442EED30020F8BD0000040D002030B50D4604000BD0A800FFF789FF6060002805D000202570C043608000
:4032C000002030BD012030BD70B50D46040005D0002D03D00220205E002801DA012070BDFDF70CFF0221615E60688900405828606088401E6080FDF7FDFE002070BD70B598
:403300000D46040007D0002D05D002212078615E401E814201DB012070BDFDF7EFFE6088401C00B26080616880000D50FDF7E2FE002070BD10B5040009D0227800216068F5
:40334000FEF716F90020C0436080002010BD012010BDF0B500231D46002802D00224045F0AE00120F0BD46689F00F6598E4201D1012503E05B1CDBB29C42F4DA1570002069
:40338000F0BD00000148007870470000180D00207CB505460024FEF723F9A8796946087000A8062229460130FEF7D9F80021684604F0E8FD0C2804D0072804D01F2804D0A6
:4033C00004E0022402E0042400E0272420467CBD10B502280BD0032802D0042809D102E000F048F905E000F0F3F9FF2801D100F003FAFFF721FAFFF72DFA10BD10B500F0B8
:403400002BFAFFF719FAFFF725FA10BD70B504460025FEF7E5F8002C06D0A079012803D8214602F0CDFC00E00125284670BD01460120002902D05020088000207047000002
:4034400001460120002905D0034854220078504308800020704700001A0D002010B502460D49FE204870032410460CF037FE002810D10CF0DBFD00280CD105F019FB00287A
:4034800008D100F0F3FB002804D104F0FFFF002800D10024204610BD180D002070B50025044600280ED0A07901280BD8FEF798F8A0790028204602D003F05EF803E003F0F5
:4034C00033F800E00125284670BD0000014610B50120002904D006220248FEF740F8002010BD00001C0D002001460120002903D00878024908700020704700001A0D00203C
:4035000010B5FFF799F9012801D1FFF79BF910BD38B504460120002C20D0617801291DD800290BD0FF25E535FEF75AF80C4828180088C0B22070072803D00EE0FF25CD35C3
:40354000F2E70020694608706846FFF797F969460878012801D108202070002038BD000000102E40F8B504460120002C26D06178012902D92278092A20D8002905D0FF2583
:40358000E5352078092803D004E0FF25CD35F8E708202070FEF724F82078114F114E08280DD00020FFF7ACF970780128207810D00D4969180880FE2070700020F8BD0120A8
:4035C000FFF79EF90720B8810549203188800120F2E7B8810248217820308180EBE70000C0112E40180D002000102E4070B50E46050001D0002400E00C4C002C11D0E28AD8
:40360000500609D5D107C90F022003F053F8E08A40218843E08204E0D107C90F012003F049F83146284602F027FD70BDAC140020F8B50546002004460D4E009013E02246B5
:403640006946284601F04AF80098002801D00CF027FDA878214602F0FDFAA878214602F0EBFA641CE4B2308AA042E8D8F8BD000064150020FEB54E4DFFF7DEF8012849D15E
:403680004C480078002845D002F07EFC002841D004F01AF900283DD0474C6078C00703D000F0E6FC012835D0207E00287DD16078002600285BD0000706D540488089070BF1
:4036C00000F02EF9384370D13B484178684603F065FF044628793A4DA9784018C1B2A14261D802F051FC00285FD0344860300089314F0190203702F09DFA6846008802F0F8
:40370000C7FA02F057FB2F490988884203D10120FFF7D0F849E02C49012008702648807B00281BD00198002818D04037F87E002814D12248603000884000A0420AD9687841
:40374000002807D102F0E4FF2049088A03221202104308822878002800D02E7002F0C6FA0120FFF7A1F800F0F5FB174C15E002F00BFC002819D0102402F01CFB214602F0F3
:4037800011FA02F085FA104C0120207002F0AEFA0020FFF789F800F0DDFB20780128B6D1FFF716F826700020FEBDFF20FEBD000084140020B00C00208C140020A0102E407E
:4037C000280D00203A0D0020220D0020E0112E4010B50848FF244078002809D102F0D4FB012805D1FEF716FF0720FFF763F80024204610BD8C14002038B5FFF71DF80128F3
:4038000001D0002038BD02F0BFFB00280AD0114C6078C00703D000F02BFC012802D0207E002801D0FF2038BD617800290FD0684603F0B4FE022806D96846008802F028FAE1
:40384000012002F059FA0320FFF734F8D9E70020F7E700008C14002038B51E4CFEF7ECFF042813D0052811D0062812D003282AD007280AD100206946087002460120FEF7E7
:40388000DBFEFEF7D9FF0128FBD138BD00F082FB38BD02F049FA00F07DFB02F0C5FA8007800F0228F4D10C4841880029F0D05B21095D0029ECD101210170A07D01400220E2
:4038C00002F0F8FE38BD02F033FA0120FEF7F2FF38BD0000AC140020280D0020F8B50646002402F055FF0546304602F06BFF03460A480021068A0DE001228A401046174642
:4039000028401F40002803D0002F01D1224394B2491CC9B28E42EFD82046F8BD6415002070B500252C460A4E03E0002C01D0002000E030460079002803D02046FFF7CEFFE7
:403940000543641C2406240EEFD0284670BD0000AC1400201CB50020694648706846FFF7D7FD01AA69460A20FEF766FE6946042008561CBD10B50C4601F082FA002809D0AD
:403980000179002906D0C1788078224602F0FAFB002010BD022010BD0148007870470000841400204030C07E002800D00120704700B500F001F800BD8C2148430749084A4F
:4039C00040186030417F491CC9B24177D289914201D300214177C8B2704700008C1400206415002013B501F04BFA04000BD001F0E8FD002807D0214601AA0A310620FEF708
:403A00001BFE00201CBD02201CBD000010B50C4601F036FA00280AD001F0D3FD002806D0224604490A20FEF707FE002010BD022010BD00006D140020F3B581B007460146BD
:403A40000026029802F09CFE0446002F01D0002500E0154D002D21D0284601F047FA032C04D13946029802F0E7FE06463846029902F0E2F8032C06D0002C10D001213846B5
:403A800001F03AFB03E03146384603F0D1F8284601F0C0FF0221284601F0D6FFFEBD3846029902F0C9F8FEBDAC14002010B5044603F008FD002801D00C2010BD2078611CA7
:403AC00002F062FCFF2801D01F2010BD02F0A8FCFF280AD02178621C02F036F8044821780068026B601C904710BD072010BD0000400D002010B503F0E5FC002801D00C20AB
:403B000010BD02F023FC03480068C06A8047002010BD0000400D002070B50D46044610210CF0FEF91021601806460CF0F9F9334610221946204603F0F3FC102130460CF0EB
:403B4000EFF902202870204604F0F8FB70BD0000F8B504464078217802028006870FE0781143A67809050002090D0643084601F087F900210546F2B2002812D0002C10D0A3
:403B8000022F0ED0032F0CD0002A0AD00279092A07D0002A05D0134A5A23527E1B5C9A4207D82889002104F0FEFA20460CF078FAFF21002914D10C48224600682946436985
:403BC00030469847C0B2FF280AD128464030817EF2B2491C8176FF232146284600F0DDF8F8BD000044140020580D00200020704710B5044603F066FC002801D00C2010BD84
:403C00002078611C02F0C0FBFF2808D002F0F8FA044821780068426B601C904710BD1F2010BD0000400D002010B504F02FFC00F057F9002010BD10B5044600786178E27881
:403C40000843A17811430843217908436179084305D003F029FC002803D00C2010BD122010BD204602F088FC002010BD10B5FDF75DFA02F0AFFD044803F07AFD02F0CAFA74
:403C8000012000F003F810BD54140020F1B586B003A8009005A8019025489F22817A114081726846FDF7B6FC00283FD169460989C90705D01F4806990068C2686846904752
:403CC00069460989890706D500282FD11A480068816A06988847002828D1184E0025757075737571F575357675767575B570F570B5713746F5730120BC3738731F20F8807A
:403D0000FF2130467972A0300175457500F076FA00242046069901F0FFFB002803D1641C2406240EF5D0FD72BD72B57307B0F0BD44140020580D0020400D00208C1400209D
:403D400070B505460E46084602F022FD0446304602F038FD0121A9400A46224001400A4301D0012070BD002070BD10B50446084602F028FD0121A140014201D0012010BD09
:403D8000002010BD10B5FEF757FD032804D101F0CFFF0120FEF78EFD10BDFEB51C4616460F46054601F036FEA878FFF701FE02460190334639460094284600F00DF80028A0
:403DC00008D1A8780199FFF711FCFF2C02D138460CF066F9FEBD0000FFB585B005460E980C46FF2810D02B49C00009680A5840180179C0795278814201D9012601E0900651
:403E0000860F6846038108E06078A1788006860FE0780002014368460181284601F0DCFB070007D021462846079A00F0EBFB384609B0F0BD304600F099FC04AE034603902C
:403E400002AA29460096204600F025FB3C20405D002818D0284601F0BFFB012813D0684600890096C0B20190A878231DFF22079902F0B6F868460089039BC2B2A878079953
:403E800002F0F6FBD3E7684600890021C0B20091E9E70000540D0020F8B5104F002500242846FFF71BFD060012D00EE03046E040C007C00F07D02146284601F0B3FE214631
:403EC0002846FFF7B9FD641CE4B2388AA042EDD86D1C2D062D0EE2D0F8BD00006415002010B502F097F90020FFF7D0FE0CF06EF9002010BDF8B5002400F0B4F801230128FD
:403F000000D10124104F00203E4620360425082203E0002801D0002100E031460979002907D001290BD002290BD0114681402143CCB2401C0006000EEBD07C70F8BD1C43D9
:403F4000F7E72C43F5E700008C14002010B5FFF7D1FF10BD70B50E4CFCF7ABFC0546FEF76BFC062802D02078012803D02846FCF7A4FC70BDFCF772FD2846FCF79EFCFEF72C
:403F80005BFC0628F5D020780028E5D170BD0000220D002010B5FCF78CFC0446FEF74CFC012809D0FEF748FC022805D0FCF756FD2046FCF782FCEEE72046FCF77EFC10BD32
:403FC00010B50B4681791943817103D08078114602F01CFB10BD10B582798A43827102D1807802F027FB10BD30B50C4C0220A28A0B4B9978002901D0022906D11D785B78E9
:40400000EB18282B01D9032002E0032900D101205105490DC0020143A18230BDC0112E40230D002000B500F023F8002807D0012805D0032801D0042801D0002000BD012028
:4040400000BD014600B50020C90701D000F00AF800BD014600B50020C90701D000F002F800BD000001480088000A704720102E400448008B410501D5042070474007800FDF
:404080007047000000102E4038B50446000610D5FFF7EEFF01280CD1684601F059FE6846007800F0B3FA012001F01CFD0220FFF74DFF0348006801692046884738BD000031
:4040C000400D002010B5034A0178117002F0C0F9002010BD230D002070B50446FFF7C2FF002801D00C2070BDA27B01211F48002A827801D00A4301E05208520082706279A5
:40410000012A14D0C17849084900C170184D2868016820468847207901280CD06188208803F000F82080207904280FD015E0C2780A43C270EAE72868C168E01D8847E01D7A
:4041400002F006FA0B48808C208006E02868C168E01D8847E01D02F0FBF9074920798870204602F083F9002070BD00008C140020400D002044140020230D002008B50178D3
:40418000FFF770FF814201D10C2008BD002914D0072069460870FFF745FF012807D10121684600F08BF8012801D0092008BDFFF71BFF02F08FF9012011E0FFF733FF012866
:4041C00006D1684601F0C4FD6846007800F052FA02F076F9FFF746FF0028FBD10220FFF7B5FE002008BD000010B5034A0178517002F0ECF9002010BD230D002038B56846EB
:404200000BF0E4FE002801D01F2038BD01210098C90201804180002505714571857107214173857302F022F9009C202200212046FDF79EF925702A460021601CFDF798F96E
:40424000204602F005F9204602F0C0F900980BF027FF042200210248FDF78AF9002038BD230D00200346084800B5834209D8184600F006FE002804D00089984201D1012019
:4042800000BD002000BD0000FF0E0000074A9179491C8906890E917138220A4092014907090E114308430249084070478C140020FF0E0000C006C00E70470000F8B50746D6
:4042C0000E4600240D4803E0002C01D0002500E005462979002905D0641C2406240EF3D00020F8BD0021204601F016F92E712046FFF7CCFF28813C700120F8BDAC14002055
:4043000010B503F041F90222002100F003F801F02DFF10BD10B5094B40074907000F090F185A595A40185043C0086421FCF7E6FF002800D1012080B210BD0000942901008E
:40434000F7B53D20405C88B015460C46002802D02878042802D200200BB0F0BD6946087200262046FFF71EFB012800D00126204603A938300191009023460327A17E3433F8
:404380003246206A03F00EFA02A8089900900B46019120463A4603A9243003F0A1F802466846007A2870204601F0A2F81046D3E7FFB587B00C4605461078694608723D2031
:4043C000005D1746002826D000262046FFF7EAFA012800D00126204603A93830019100902346A17E34333246206A03F0DBF902A80090291D019120462B1D03A924300A9AA7
:4044000003F06EF802006846007A388002D1204601F06EF810460BB0F0BDF0B505463C20405C89B016460C4600280CD0307869460873002806D000272046FFF7B3FA0128F7
:4044400003D003E01F2009B0F0BD012703200890204604A93830019100902346E17E34333A46E06903F09EF96846007B03A928180290009120462B46019504A92430089A97
:4044800003F062F802466846007B3070204601F039F81046D7E7FFB505463C20405C89B016460C46002810D0084601F095F801280BD0308869468883002809D0002720464C
:4044C000FFF770FA012805D005E000200DB0F0BD0220FBE70127204603A93830019100902346E17E34333A46E06903F05BF9291D2B1D07A8129A6D4607C5204603A924301A
:404500000C9A03F021F802466846808B3080204600F0F8FF1046D9E770B50D460446FFF741FA01280AD0E87AA97A00020143A07801F008FD012808D0002070BD0022242131
:40454000204602F041FD242070BD28214C200155204600F0A3FB282070BD0000002801D0002000E003484030C07F012800D0002070470000AC1400200146002049070ED583
:404580000021084B03E0002901D0002200E01A461279022A04D0491C0906090EF3D0704701207047AC1400200146002049070ED50021084B03E0002901D0002200E01A46B3
:4045C0001279022A04D0491C0906090EF3D0704701207047AC14002010B5044680346068002803D00BF070FD0020606010BD40304170704740308170704740300170704750
:404600000171704792001018C166704770B53C2501F080F9040004D020460021433001F031FCFF222946204600F0D4FB002C02D0A07801F0F1F870BD10B5002801D0002029
:4046400000E00348002802D0008903F0F3FD10BDAC14002010B5002801D0002000E00448002804D00179072901D100F047F810BDAC14002010B501F04DF9002802D08078B0
:4046800001F0CAF810BD00207047000070B50546008A00281ED01049F122897A1140C90618D5294640314A8A098A521C4A4392B2D10800D10121540801E0621A94B2A042E4
:4046C000FBD9FEF75FFE012804D1298AA878224601F00EFD70BD00004414002010B50023054C0B60248A944204D992001018C26E0A60C36610BD00006415002038B504469B
:4047000000200090A079002814D14020015D052901D00E290ED168460BF068FC002809D12046009902F02EFC03481021C28A2046FFF746FC38BD00004414002010B50B46BD
:4047400004460146184602F0ABF8002802D020460BF0B0FC10BD13B5044601AA11460620FDF76AFF6846818861811CBD002800D10220704770470000F8B504462346401D92
:40478000543300909A1EA078911E01F0FDFA25464035A88A298A8000FCF7B0FD401E81B2688A884203D96982A07801F0BDFF20460021433001F066FB27480088E88102F01F
:4047C000E3FEE989891C8AB26179FFF7A3FD01F0CDFC02F0D9FE2A8A6179FFF79BFD074601F0B8FC688A002806D01C49088A032212021043088202E0002001F089FF1748AD
:40480000803801886E8A002E0CD0304648431449FCF764FE0004000C01D0401C80B21149488002E00F4800214180288A704381B2A07801F0D9FEFF2228374932B9B213469F
:40484000204602F073FCE98AA07801F04DFEA07801F012FAF8BD000080102E40E0112E4071020000280D00207FB504468034616805460E46183108226846FCF770FE314628
:404880002031082202A8FCF76AFE102168460BF047FB6068102108300BF042FB60682B46083024331022694602F03AFE7FBD10B504460821FFF78FFB10212046FFF78BFB19
:4048C000207905281FD006281DD008281AD12189002003F027FC072020712046FFF762F8014620464030012913D00E21017000210176204600F0A2FF2046FFF76DFE2046F9
:40490000FFF7C4FE10BD20890122002103F0EEFBE1E70521EAE70000FFB581B01F4604460821FFF758FB10212046FFF754FB2079082803D0092804D0042203E00422012592
:4049400001E009220025204600F032FE264600204036307022712046FFF73EFE0398002D02D0012808D00BE001280AD120890022029903F0BBFB04E02189029803F0D2FB32
:40498000012700203076012F04D0204600F056FF05B0F0BD02983073204602F041FB054605480121C28A2046FFF70AFB002DEFD109202071ECE700004414002070B50C4657
:4049C0000546FEF7EFFF012809D108212846FFF702FB0023012221462846FFF79DFF70BD10B5044600F0E4FD2046FFF7F5FD00214034217010BD70B505461A24FEF7D2FF8D
:404A0000012809D108212846FFF7E5FA0023012221462846FFF780FF70BD0000F8B50446002000900E4668460BF0E0FA002801D00D20F8BD8420005908212030009D00F0EE
:404A40001AFA20460421383000F015FA002E02D1204600F0E9FD2946204602F022FA0E480821C28A2046FFF7ABFA204600F057FF25464035002808D0204600F023F800281F
:404A800001D0092028700020F8BD08202870204600F0C0FFF7E7000044140020014610B540310A460978082906D0092907D00A2901D100F091F810BD0B20107010BD00F053
:404AC00001F810BD70B50446007925464035052805D0062803D008280FD00C2070BD03220621204602F070FA0D480821C28A2046FFF766FA1120287010E006202873204649
:404B000002F08EFA0646AA8A0A20424301212046FFF756FA002E01D109202071002070BD4414002038B504460020009068460BF05DFA002801D00D2038BD2046009D00F08A
:404B4000B1F908202071204600F06EFD2946204602F0DAF900213D2001550F2040210855204600F057FF002038BD00B5024600F01FFD10214032117000BD10B50446FEF707
:404B800011FF012809D04020005D112805D100231A4606212046FFF7BFFE10BD10B5FFF786FE10BD38B504460021684600910BF01DFA00280CD12046009902F026FA05486F
:404BC0000821C28A2046FFF7FBF90D204034207038BD00004414002038B504460021684600910BF003FA002801D00D2038BD2046009902F0FFF905480821C28A2046FFF7A1
:404C0000DFF90C2040342070002038BD4414002000787047F8B50025002801D0002400E01A4C002C28D0204600F0CBFC002823D0207903281CD005281CD026464036B18A39
:404C4000A07801F0DBFCB078012815D10021204601F043FE274680373868002802D00BF033FA3D600020B0702079072805D007E0042000E006202071F8BD2046FFF706FD4E
:404C80000221204600F0E0FEF8BD0000AC14002010B54C22115400F04CF810BD10B50446FF21FFF798F909202071A07801F0CCFC10BD000038B5FF216A461180002801D01A
:404CC000002400E0084C002C0DD011460620FDF7B3FC684601882046FFF73DFD03480068C1692046884738BDAC140020580D002010B504468079002809D022214C200155EC
:404D0000FF212046FFF767F9204600F012F810BD10B5037902464032002B03D01173092B02D003E0002100E02221117300F001F810BDFEB504460089002700902781207908
:404D400026464036002817D0012815D002280AD112E002AA01A9204601F090FD002807D101980BF0A7F9204601F0B0FD0028F0D02046FEF75DFCB77625468035286800282A
:404D800002D00BF0A1F92F606868002802D00BF09BF96F60317B002919D0009800F064F8A078002100F082FF2046FFF7A9FAA07801F0B2F8A07800F02FFDFF212046FFF727
:404DC0000AF90B20FFF7C2F800F068FCFEBD1F213173E2E7F8B517460E46054602F0D0FB04003CD020460C3001F03CF82046062200211830FCF7BCFB20460622002112304A
:404E0000FCF7B6FB1648224600683946436A28469847074626702846FEF7C4FD012148406070002D10D02889608028464030C1782171002E0FD169796171018AE180418AE6
:404E40002181808A608106E00648008BC005C00F2071002060803946204603F0E6F8F8BD400D002000102E400A4610B50146002003F0F8F910BD10B50AF02EFE10BD000086
:404E800000B50146FFF716FA002801D0002000E00348002802D002898A4200D0002000BDAC14002038B5044680346068002806D168460BF0ABF8002801D1009860606068B6
:404EC00038BD000010B5014600F086FB0128887802D0FEF771FD10BD8C214843024940186030007F10BD00008C14002070B5054604464035A87F012811D1A1788C20084A26
:404F0000484380186030067F3046FEF719FF002805D10220A877A078314601F0B7F870BD8C14002010B50C4CA07A002813D0FEF7B3FF0A48027F417F408B00F0B7FB012849
:404F400009D10020A07200F019FF05498989090B01D000F03BFA10BD481500208C140020A0102E4070477047490510B5490F0B00FCF7F8FC060704080C0C0F073E21FFF724
:404F800087FE10BD0821FFF7C3FE10BDFFF7D1FE10BDFFF7ADFE10BDF8B507460025002D01D0002600E0204E00F096FE3046403044890021418100F0AFFE304600F001FB48
:404FC00001282BD1A00702D52846FFF723FEE00602D52846FFF76EFEA00601D5FEF75CFF600601D500F014FB200602D5284600F01DF8600702D5284600F02CFA380402D5B0
:405000002846FFF727FB780402D52846FFF714FBE00703D021463046FFF7A6FF6D1C2D062D0EBCD0F8BD0000AC140020F8B5002801D0002400E0284C002C4BD02546403595
:40504000A878012846D1FF278820493700593E46002805D02149897A890601D5878AC68A2046FEF79FFC012834D002F08DFA2A8A6179FFF74FF9009001F06CF80098334617
:40508000283081B23A46204602F050F8E98AA07801F02AFA12480188688A124E002810D048431149FCF71AFA0004000C01D0401C80B27080A07DC107C90F002001F0FAFA5B
:4050C00001E000207080288A698A484381B2A07801F08AFAF8BD0000AC1400204414002060112E40280D0020710200000149096809680847580D002070B50D460026194A1A
:405100000146002801D0002401E014462034002C26D0204600F060FA01280AD18C20484380186030007FFEF70BFE002801D101F0F7FE0D48006881692046884700280CD00A
:4051400020464030817EA94202D3491B817600E086762089294603F026F8204600F05AFC70BD00008C140020580D002070B503460088FFF785FE040013D000F022FA002892
:405180000FD02079092819D02546997840352973204601F045FF0646A878012803D0AA8A02E0022070BDEA880A20424301212046FEF706FF002E01D109202071002070BDBE
:4051C0000EB5002217216B460292198100905A810120029B00990BF017F80EBDF8B518480024807A002822D1164E0025B089000B22E0204600F060FE1249A0394018078838
:405200002A462146384600F051FA012810D00E480122478305770A4944778A72002D01D0002000E02030002801D000F0F3FBF8BDB089000B641CE4B20028DAD1F8BD000050
:4052400048150020A0102E408C14002010B50088FFF716FE002809D0014640310C460978082905D00B2903D00C2010BD022010BDFFF728FC002801D009202070002010BD42
:4052800070B503460088FFF7FBFD040008D0254640352878082805D00B2803D00C2070BD022070BD8420005910220830991CFCF756F92046FFF7D8FA2878082804D0204665
:4052C000FFF78AFC002801D00A202870204600F0A1FB002070BD000010B50C46002121700088FFF7CDFD03000BD000F06AF9002807D00948F121807A0840C00603D4112084
:4053000010BD022010BD022020701A8A1889002102F0C4FF002010BD44140020F8B50F46002100910088FFF7ABFD040012D000F048F900280ED0E079410641D4617E0226CC
:405340004A07002A08DB8907402500291ADA2843E07135E00220F8BD02F012F90021017021894180A1898180217E4170E189C1803E7005460178134802F06AFC284602F070
:4053800031FF1DE0204600F02DF9012806D068460AF02CFE002803D00720F8BD2A20F8BDE07900992843E071204601F063FE607E0421304360760448C28A2046FEF700FEFA
:4053C0000020F8BD1D040000441400203EB500220F236C460292238100910190628169460EC900200AF010FF3EBD0000F8B50F46054600F08FFA040025D003202071254681
:4054000000264035EE76E6702046FFF7B5F901F057F80920FEF79AFDA07800F06BFD0121204600F011FB2E706E70AE703A4600212046FFF7CFFC0649887B401C8873A07801
:40544000FFF754FEF8BD284601F0FEF8F8BD00008C14002010B5002801D0002000E0094800280DD0014640310A464978022901D100215170807DC107C90F002001F01AF9E8
:4054800010BD0000AC14002070B503460D460088FFF7F6FC04000BD000F093F8002807D01248F121807A0840C00603D4112070BD022070BD20464030418A008A491C4143A9
:4054C0000804C10C5888884201D2122070BD20822079072802D12046FFF7D8F8022028702089002102F002FF002070BD44140020016A491C016204D1817E491C4906490E40
:4055000081767047C169491CC16104D1C17E491C4906490EC1767047F0B5074687B003A8009005A800260D460190002F01D0002400E01B4C002C05D06846FCF76BF800284C
:4055400003D00BE0022007B0F0BD68460089C00704D18C2200212046FCF70AF8114829460068826820469047050016D1A77066762746267140373E70204600F019F82046BE
:4055800001F0A0F9084820820848BE77807AF121084000D001202075E682E8B2D3E70000AC140020580D0020B80B000044140020002101628176C161C17620300177417760
:4055C00070470079002805D0012803D0022801D001207047002070474030807F002800D00120704740300078002807D0012805D0052803D00E2801D00120704700207047FE
:4056000010B5807801F0DEF8002800D0012010BD10B500F0B3FB03498989090B01D0FFF7D5FE10BDA0102E4070B5054604464035A87F002825D1FF206075A0788C21154A1A
:40564000484380186030417F8C23491CC9B24177A0785843104B8018DB896030994201D300214177A0788C21484380186030467F0677A1783046FEF763FB002802D0012097
:40568000A87770BD0220A877A078314600F0FEFC70BD00008C140020641500200020401C0006000EFBD0002070470000F0B515468207920F85B0000A02926A469080002D42
:4056C00001D0002400E0524C002C28D0084600F0F3FB07466846808800280BD00298012843D0022841D003280BD03D20005D012870D087E04748381801882046FFF72BF859
:4057000080E00020029002A80AF050FC002807D03D20005D012878D12046FFF7E9FE74E06846029E8388324600213846FCF784FE3848381801882046FFF70DF8284600F0A8
:40574000ADFA01AA21463046FEF7FAFD002806D030460AF09BFC3D204C21085528E0F5773146204601F014FA4FE0002000902089039068460AF00AFC002802D0002005B0FA
:40578000F0BD6846009E8388321D00213846FCF753FE2048381801882046FEF7DCFF284600F07CFA25464035287E00280CD103E02046FFF773FA28E001AA21463046029B04
:4057C000FEF7F6FD002806D030460AF055FC3D202873EDE713E00298FEF7CCFF01460398307003980901000A0843707068468088B070000AF0703046FFF7E2FC05E02046B8
:40580000FFF776FE284600F049FA0120B7E70000AC14002000102E4010B5074A917B002901D0491E91730021FFF776FE002801D0002010BD012010BD8C140020F8B50746A0
:4058400006464037B87F00282DD0B0788C2100904843234945186035287F0099FEF785FA01281ED0287F401CC4B21E48C089A04200D800240020B877FF276F772F77A877CA
:4058800002460146009800F06DFD717DFF2903D0304600F0D8FF777501F042FB0025114F19E00320B877F8BD00200090224669463046FEF713FF0099002904D0FF231A4646
:4058C0003046FEF76AFA641CF889E4B2A04200D800246D1CEDB2F889A842E5D8F8BD00008C1400206415002010B502460021084B03E0002901D0002000E0184604799442F7
:4059000004D0491C0906090EF3D0002010BD0000AC14002000B50120FFF7E6FF00BD10B5044601F02DFE2189018080346168416061682831816002F00FFC10BDF7B50646D1
:40594000087982B00C46092807D0A078F0770846FFF742FE012806D010E030460AF0AAFB022005B0F0BDA1788C20294A484380186030007FFEF7E4F9012810D0A078FEF73D
:40598000EDFD01280BD037780121304601F074FA25462035062F38D00B2F0FD107E06846027C21463046FEF7C9FE0D20D9E72046FDF7F8FF012801D1002028772046FFF73C
:4059C00081FA054604AA21463046FEF726FD01205F2108556946097C002001910090A07833463A46294600F0FBFA69460A7CA0780323294600F03CFEA0782946FDF7F6FDEB
:405A000030460AF057FB0020ABE70120D5E700008C14002010B502464032937F0021002B03D1927E002A00D00121064A927A002A00D000210279092A00D10121807800F078
:405A400059FE10BD4815002070B50C460546FDF7A9FF00280BD1012C06D92879092806D02846FFF7CDFD0446002C02D004E0012402E0A87DC007FAD1A87DC107C90F20462C
:405A800000F018FE70BD0000012807D0082804D104480282034808300180704701488038FAE70000A0102E40014908817047000000102E4010B50446FF20F130012C01D1CD
:405AC000FF20D530002200F047FE044A108A044980B2A0430880108210BD000000102E402C0D0020034B198A034A89B2814311801982704700102E402C0D002010B504461D
:405B0000012802D0082C07D102E0FF20D53001E0FF20F13000F018FE0348018A034A89B221431180018210BD00102E402C0D0020034B198A034A89B2014311801982704717
:405B400000102E402C0D0020F8B505460120A84086B214460F46012231467C2000F0FCFD3A463146782000F0F7FD6078267800020643E078A27800020243607923790002E3
:405B800003430C2045430D2080010549281844182680001D44182280001D40180380F8BD00102E40401880B270470000CB065B0E0343480901021943D00108430121C902ED
:405BC000084301490881704780142E404278037812021343084A1382C37880781B021843908248780B78000203431383C8788978000201439183704700142E40024A1080BA
:405C0000000C90801181704700142E40044A002180180288491C89B21029FAD37047000000102E40024A10820148803081817047A0102E407047000010B5054A10820846B8
:405C400000F0AEFD024A0021A03A8018018010BDA0102E4010B50B46044600F005F819462046FFF7DFFF10BD024A10820148803001817047A0102E4010B504490882FF20A2
:405C8000002220211D3000F067FD10BDA0102E400149088070470000C0102E40000202494D3008807047000000102E4010B5084B074C0202A03B0029208202D075321A807F
:405CC00010BD04490020088088807632F7E70000A0102E40201A2E4000B5034908884880FFF700FF00BD00002C0D0020014950200880704700102E4006490E2200288888FC
:405D000006D01043888003495120C039088070479043F7E7C0102E4000B502484088FFF707FF00BD2C0D002010B5FCF76FFD10BD014952200880704700102E40884201D868
:405D4000081A03E00022D243101A401880B2704700210170704700000748808806492039098B884201D8081A03E00022D243101A401880B27047000020112E400148008AE4
:405D8000C0B27047A0102E4070B5084C049D2082074804890548603006880E8001891180808818806007400F287070BDA0102E40E0112E400148008970470000C0102E4091
:405DC00000280FD00D4A108B0870000A4870908B8870000AC8700948203000880871000A48717047064A10880870000A487090888870000AC8701089F0E7000040102E405D
:405E0000C0112E4000B5024A00F004F800BD0000FF7F000000B51346FFF790FF984201D8022800D2002000BD0148008A70470000001A2E400249088202480089704700006B
:405E4000A0102E40001A2E40014880887047000020102E40024908820148803000887047A0102E40064B1A8999891B8A0270120A42708170090AC1700371190A417170477B
:405E800060102E40012904D00549098BC90B017070470349403109898907C90FF7E7000000102E40024908820248008970470000A0102E40201A2E40014840897047000027
:405EC00064150020024908820248808970470000A0102E40001A2E40044A10820448028980894843101880B270470000A0102E40641500208C21074B414300B5C918FF2237
:405F000060314A770A7700228A77114600F02AFA00BD00008C1400208C225043074A10B58018FF21603041770177002181770448418EFF201D3000F007FC10BD8C14002094
:405F40004414002000B5044A1082034880308088022200F003F800BDA0102E4010B50023884201D8081A03E00024E443201A4018044980B2884201D8824200D90123184679
:405F800010BD0000FF7F0000024880880006C00F70470000C0102E4002488089C007C00F70470000201A2E4070B55478157824022543D4788823260294783443567912792A
:405FC00036023243002900D09823044908820348A038181805808480028170BDA0102E40FFB581B014460D4607460A9E0B9BFFF773FF002E0AD0009333460021049AFCF764
:40600000ABFA05484019C45505B0F0BD0021049AFCF788FAF5E70000300D002070B502460448054D808808242C800B460021FCF779FA70BD64150020A0142E4010B5212478
:4060400002466401044953200880102300212046FCF768FA10BD000000102E40417802780902044B0A431A83C1788078090208439883704760142E40034A1082802001435C
:406080000148803001817047A0102E40054A1082044A6032908B0009000108439115084390837047A0102E4030B500210F4B0A46012809D0032802D005280AD107E0402187
:4060C000198102210A2204E004210C2201E004210D221882054C20342088C0B205460D42FAD022800021198230BD000080142E4010B5044607480482074801808280032167
:4061000089030820FFF7FAFC200202497530A039088010BDA0102E40201A2E40054A1082044A60321183000202494B30A039088070470000A0102E40054A491E1082044AD0
:4061400060321183000202494C30A03908807047A0102E400349884200D908460249088070470000FF0F000060112E400349884200D908460249888070470000FF0F0000F1
:4061800060112E408823002900D09823084908820748A038191808881070000A507088889070000AD07008891071000A50717047A0102E4010B51446024606480B46C0883A
:4061C0000021FCF795F9012C02D103495420088010BD00006415002000102E40064A11880170090A417091888170090AC1700349542008807047000080142E4000102E40E6
:406200000121814010B589B200227C2000F0A4FA10BD0000FEB5FF210120FFF74BFCFF210820FFF747FC3020FFF75CFC3F48802101803F483F4D00784007400F02286FD0DF
:4062400001286BD100202880002211460320FCF7F3F9394E3949B08D8882384F002420373248A0300482308F38822046FFF754FE641C2406240EF3D0B08F38832E481030DE
:4062800000F052F9716930690191009069464879C021084369464871684600F06DF900F055F82548214C40304188A03421838188A1831E49C088C0318880708E388020484B
:4062C000002606823920FFF733FC184F532038801C490720088354203880E020FFF796FCE820FFF793FCF020FFF790FC0020FEF707F813488682282101838015A0810F48A5
:40630000403086815B203880094800784007400F022807D0012801D10B482880FEBDFFE7032090E70848C01CF7E7000000102E4064150020001F2E4044140020C0112E40BD
:40634000001A2E4080142E40E0230000044800218183018302497420603908807047000060102E40074B1882064B6033988B00090001084399158843002A01D11021484090
:4063800098837047A0102E40F3B50D2284B0920100924A780B78120213430393CA788B78120213434A790979FF20120211431A4A8C46918B9E460291118B01911649742211
:4063C00060390A80154900220F7821E00121124B9140009C603BE3181D8889B21C881B88039E6E407546654064462E435C4026430CD1029B194209D00199D140CB07049932
:40640000DB0F8B4202D1104606B0F0BD521CD2B29742DBD8F8E7000060102E408414002030B50949FF208C8B084A00210125137805E02A468A40224204D0491CC9B28B4291
:40644000F7D830BD084630BD60102E408414002010B50446E020FFF7D9FB20782246401CC3B20021E020FCF703F810BD42790021012A02D901214171090342790A430179C5
:40648000042914D049001143827B032A01D8D2001143427B52010A43817909021143012252031143054A118300889083704711460122920211430222E5E7000000102E407E
:4064C00000B50120FFF70EFB01494120088000BD00102E4000B50120FFF72AFB01494020088000BD00102E40024A10820148603081817047A0102E4010B5044C208204486A
:406500008180028183815143018210BDA0102E40A0132E40034B1882024820388180028070470000A0102E404178027809020A4306490A80C2788378120213438B80427905
:40654000007912021043088170470000C0112E404178027809020A4306490A81C2788378120213438B81427900791202104308827047000060102E40417802780902084B61
:406580000A431A83C178827809020A439A8341790079090208430249203108807047000040102E404178027809020A4306498A80C2788378120213430B81427900791202D0
:4065C0001043888170470000001F2E4010B50446E820FFF71BFB20782246401CC3B20021E820FBF745FF10BD024A10820248818370470000A0102E40001A2E40024A108274
:406600000148603081807047A0102E4010B5044688000521FAF772FE04490C8204498880200202497230A039088010BDA0102E40001A2E4003490882000202497330A039DB
:4066400008807047A0102E4003490882000202497030A03908807047A0102E4003490882000202497130A03908807047A0102E40F8B505461C4617460E46084600F090F8F9
:40668000054AB90021431582034AA03A80180180024880194455F8BDA0102E40350D0020034A118B8905890D8002084310837047A0102E4030B50E4C238A01251A46012809
:4066C00004D0022804D000290BD00CE02A430AE0002908D12A4322825008400020821A4601E05A0852009A4200D0228230BD0000001A2E40054A1082044A6032908B40233B
:40670000984389010143918370470000A0102E40044A118A0223002801D0194300E0994311827047001A2E4000B5064A1082054860300181002901D0012000E00020FFF7CF
:40674000E7FF00BDA0102E40024A801802880A430280704700102E4070B5084BC5182C880023080003D104E040085B1C9BB2C607FAD08C439A4022432A8070BD00102E40F4
:40678000024A1018405C8007800F7047350D0020024908820148803080897047A0102E408000FF3041307047044B02461B8AFF208B4202D902484018805C70476415002046
:4067C000300D0020024908820148803000897047A0102E40174902460B680020002B08D10A605207520F012A04D0022A10D0086012207047112292018A80CA8003225202BE
:406800000A810122D2024A8140228A8105220DE0092252028A80CA80012252030A810322D2024A81012252028A810422CA810A8270470000641500200A4600B5014610467F
:40684000FFF7B2FF00BD38B50C46054600216846009109F0CBFB002804D1009928464C7000F0FAFB38BD10B5044680780021FFF73BFE01212046FFF7E7F810BD436E002B14
:406880000CD00B60014660318B781370826E4266CA788A700021816608467047FF20704710B50346446E6033002C04D0846E002C04D0FF2010BD41669A7001E08166DA7088
:4068C000002010BD0021416681667047406E002801D000207047FF20704770B50446C0790D46810610D5DF210840E07100F048FE0570218941804034218A8180618AC1808F
:40690000A18A018101F064FB70BD000010B50446FEF762FE01280AD1A1788C20054A484380186030007FFDF70BFA012801D000F0F7FA10BD8C140020F8B50E460446FDF7DF
:4069400031F801282BD02079042801D0072825D1F079B77900020743A0783946FFF7F2FA25464035012820D03A46711C204600F084FA02212046FDF73AFEA07DC107C90F65
:406980000220FFF797FE688A002807D0E87E002804D1032109020820FFF7B0F8F8BD01222421204600F010FBF8BD282028732046FEF774F9F8BD70B50D460646FDF7ACFDED
:4069C000002852D120213046FDF705FB3446687840346073E87820220002E081A9780843E0816879010228790843218A814203D0F1791143F1712082E8790102A87908438B
:406A0000618A814203D0F1791143F1716082687A0102287A0843A18AE180814203D0F1791143F171A082A08A218A8000FAF766FC401E618A80B2814200D960820121304664
:406A4000FDF7D8FDE87AA97A000201430022304600F02AFB608A002807D0E07E002804D1032109020820FFF749F870BDF8B50C4605460027FCF796FF012847D0284EB07AFD
:406A8000C00709D02846403000900078002806D0102803D01F212CE01A212AE001272846FEF700FA002823D02E4680360822611C7068FAF754FD7068617A20300172A17A9A
:406AC000417270682146183008220B31FAF747FD21462846042213313430FAF740FD39462846FDF79BFF002810D1002F0FD012E007210322284600F067FAF28A082128464D
:406B0000FDF75EFA11212846FDF777FDF8BD06212846FDF775FD009801210176F8BD00004414002010B5FDF7B9FF10BD38B504460020009020790D46042801D007281BD1CA
:406B40002046FCF72FFF012817D0684609F04EFA002811D10C486A78807A00991040F12210402075607E082210436076204600F0B3F92046FDF787FD38BD08222421204699
:406B800000F022FA38BD00004414002070470000F3B581B004460298FEF73AF806462046FEF70FFD002828D0162E04D32046029900F0F7F821E0254640352878002203004D
:406BC000FAF7D0FE0E1414140808141414080808080808140298154B017800201F5C8F4204D0401C0728F9D3002A0AD00F49B00008310A58204602999047029809F046FAA0
:406C0000FEBDA078FFF720FD002301223D212046FDF782FE3D2028732046FFF724FE029809F034FA2046FEF784F8FEBDA429010070B50D460021002801D0002400E00C4C6B
:406C4000002C14D020464030C177807F032802D12046FEF7F3FD2046FFF758FE162D04D20449A800095820468847FEF717FD70BDAC140020042A010010B5014640310C4644
:406C800009780E2903D1FDF74DFF0120207610BD10B54021095C0F2901D1FDF766FF10BD4021095C0F2902D1002120304177704738B5044600220E4800920D46807AF12178
:406CC0000840C0060ED52046FEF78CFC012809D0684609F08BF9002803D12046009900F05DF938BD2946204600F05BF838BD00004414002010B51021FDF76DF910BD10B5F6
:406D00004978FDF75BFE10BD10B5FDF736FF10BD012120304177704710B54021095C0C2901D1FDF73FFF10BD10B54021095C0D2901D1FDF733FF10BD70B5044600790D468A
:406D4000052803D0062801D0082802D12046FDF747FE68784C21085509212046FDF750FC2046FFF780FD2046FCF71CFE0128A07805D0FFF769FC2046FEF74CFE70BDFFF773
:406D80006DFCF8E710B50446FF21FDF724F916214C200155A078FFF757FC2046FEF73AFE10BD70B50C460546FEF716FC002802D02078687570BD21782846FFF744FD70BDC1
:406DC00070B5054648780C46032802D12846FDF712FE6078122803D110212846FDF7FBF803482146006842682846904770BD0000580D0020704738B5044600200D46009089
:406E000004212046FDF7E7F868782076E8780002A081A9780843A08168790002E08129790843E081607E04210843607680070CD4684609F0DBF800281CD12046009900F0D3
:406E400019F9607E022108436076E079410611D5BF210840E07100F093FB00210090017021894180A1898180217E4170E189C18001F0B8F938BD7047704770B50446C07802
:406E800015460A4600280AD00020E070C1B2A078FFF78AF8A0782946FFF740F970BD0120F3E770B50546042008700C468420415908222031601CFAF752FB29462046042208
:406EC00038310930FAF74BFB0D2229462046FEF735FD002070BD000070B5054609200C46087008220021601CFAF742FB287D607004480922C07AA07029462046FEF71EFDCE
:406F0000002070BD441400200B4610B501460B20187001221846FEF711FD002010BD0000FEB50024164F03E0002C01D0002500E03D462846FFF7CAFC00281BD15F20405D0D
:406F4000002817D16A4601A92846FFF797FC002810D1019869460A7806782946FEF7EEFC022E07D1A8780121FFF7C4FB09212846FDF746FB641C2406240ED5D0FEBD000009
:406F8000AC14002010B50B46122119708178D977014601221846FEF7D1FC10BD10B50B46132119708178D97706490989C90603D1C18A40221143C182014601221846FEF7DE
:406FC000BDFC10BD20112E4038B50546002000900C46684609F00AF8002801D0072038BD00980D210170447002222946FEF7A6FC002038BD0B4610B501460520187001221D
:407000001846FEF79BFC002010BD0B4610B501460620187001221846FEF790FC002010BD38B5054600200090684608F0DFFF002801D01F2038BD009C022020704C20405D8F
:407040006070A878E0772846FFF70DFC022229462046FEF773FC38BD10B50B46072119708178D977014602221846FEF767FC002010BD000010B50B460A49044608880C227B
:407080001A704A795A709870000AD870C8881871000A5871062221461846FEF74FFC002010BD000044140020F8B50446403417460E460546E289617B8078FFF72BFA002F31
:4070C0000DD100F061FAE2896979FDF723F9FFF74DF8608A002800D00120FFF719FBE388A08A984200D90346628A218AA878FFF703FAE089E188C0080A30081881B2192027
:40710000C001814200D90146A878FFF777FAA8783146FFF711F8A87DC107C90F0220FFF7C9FAF8BD00B500F017F800BD10B504468818C018FF302D300649FAF7DFF840342A
:40714000401C228A81B28A4200D211465000401AE08210BD7102000040184008704770B505461446100702D5A8B2FDF715FFE00702D0280CFCF788FF70BD70B5044660C8F7
:40718000FCF76AFBFBF742F82089C01F0300FAF7E9FB0C07140C181B1E0C0C210C110D0C294630466289FFF7DAFF70BD284600F0B5FC70BDFDF7B6FE70BD2846FCF7C8FCF6
:4071C00070BDFCF769FE70BDFDF7CCFE70BDFDF7CAFE70BDE8B2FEF701F870BDF3B5002187B005910E46039100910191029192490C8920400490600713D58F484030058A95
:407200000498400708D50595A80803D1FBF764F8012801D101200390294600220420FEF733FC8648210700907CD58348A03001898348CA0704D0428907231B029A4342817C
