:400000000040002011000000893100008931000008B503F0D7F8C046F8B572B6802500243F4EED0034602A1C00213E4804F092FF2A1C00213C4804F08DFF9923EE213B4A7D
:400040001B0413603A4A3B4811603B4A032514603A4A3B4F14603B4A13603B4A136002223A4B19780A433C211A7002788A4328390A4302701622197818200A431A702023F3
:40008000C421334A89021360324A1160324A1360324A334B1A602422324B1D60324B1A6012233B6003F05EFE304A314BFA201A600223304AC00011680B4313602E4A2F4B25
:4000C0001A6008222E4B1C6033689343336003F07BFE2C4803F042FF802280212A4B92001A602A4B2A4A49011A602A4A11602A4A1A608022294B12061A604022284B1C6012
:40010000284B1A60284B01321A60284B1C6011233B60274B1D60274B1D60274B1C60F8BD6CF02E4000300F4000400F40000102400005024001700F400000024008000440C3
:400140003000104010500F4030500F4000700F400001044008010440180104400080C0000803044000050440080504400600008004010B4078002E406A2D00007C002E406D
:4001800064F02E40DC050000000301400000014040FF00800403014041FF008008010B4000010B4008010140040101400C020B403000304030003140000E3F4010B5064CE2
:4001C0002378002B07D1054B002B02D0044800E000BF0123237010BD1811002000000000F874010008B5084B002B03D00748084900E000BF07480368002B00D108BD064BD6
:40020000002BFBD09847F9E700000000F87401001C110020A80B00200000000008B504F001F943070CD404F0FDF88023DB00184205D0181C04F000F90122034B1A7008BD30
:40024000042004F0F9F8EEE734110020F8B51F4C1F491222E01D04F074FE1E4E64217368B7681A0E62741A0CA2741A0AE2742375381C04F0A3FCF3686421C518F560381CA0
:4002800004F022FD2B0E63752B0CA3752B0AE3751923E377104BB1601B7825765BB2002B12D00E4B64219878DB78000218430C4B58430C4B00149C46604400B2000204F0CB
:4002C0000DFD030AE3732074F8BDC046F40B002040750100341100208C22002088220020A4440000B3EDFFFF10B582B0012801D002B010BD204C217C4BB21A1C12322ED0FC
:400300001A1C0C322DD09A1D2FD0DA1C2BD09A1C2DD05A1C2DD00722002904D0033B5A4253410922D21A002301A80270437007F037FC0123637403F0A7FF0020012103F0F0
:40034000BBFF0020012103F0DBFF0C49002004F03FF8012003F0F8FF03F088FFC8E70122E1E70222DFE70422DDE70322DBE70522D9E70622D7E7C04634110020CB0C00002B
:4003800008B503F04FFD214803F0CAFA03F012FF03F07AFF0020012103F08EFF0020012103F0AEFF1A49002004F012F8012003F0CBFF03F05BFF03F0E9FD012003F01AFF5B
:4003C00003F062FF8020C00503F0BEFE03F04EFF03F076FE002003F0F7FC03F055FF012003F0D0FF7321002003F0F2FF012003F0ABFF03F03BFF03F0C9FD03F045FF01202A
:4004000003F0C0FF03F032FF08BDC0461D020000FF3F0000F8B54F464646D94CC0B4A37C092B08D8D74A9B00D3589F4607F058FB022800D14AE123780025002B06D0002304
:400440002370002D02D0002003F062FD0CBC90469946F8BD07F044FB0228ECD10923A37402F0B4FF03F010FF8020400003F08AFF0120012103F020FF0120012103F040FF19
:40048000C149012003F0A4FF8020400003F05CFF03F0ECFE2378CFE72378002BD6D001230025A374CBE72378002BCFD003F064FAE623B64902220B70AB3B4B704020002320
:4004C00003F0ECFA03F0E0FE8020400003F05AFF0120012103F0F0FE0120012103F010FFAB49012003F074FF8020400003F02CFF03F0BCFE0123A37423789DE72378002B77
:40050000A4D003F0D1FBF523A04901220B704020002303F0C3FA03F0B7FE8020400003F031FF0120012103F0C7FE0120012103F0E7FE9749012003F04BFF8020400003F0E4
:4005400003FF03F093FE0223A374237874E72378002B00D17AE7002302228C49402003F01BFB03F091FE8020400003F00BFF0120012103F0A1FE0120012103F0C1FE844950
:40058000012003F025FF8020400003F0DDFE03F06DFE0323A37423784EE72378002B00D154E703F081FBE023784901228B7040200023023103F072FA03F066FE802040007B
:4005C00003F0E0FE0120012103F076FE0120012103F096FE6E49012003F0FAFE8020400003F0B2FE03F042FE0423A374237823E72378002B00D129E700230222654940205E
:4006000003F0CAFA03F040FE8020400003F0BAFE0120012103F050FE0120012103F070FE5B49012003F0D4FE8020400003F08CFE03F01CFE0523A3742378FDE62378002BA8
:4006400000D103E703F030FBA58A002D00D17FE01F23A669F356002B58D14C4A4E4B1178D97692781A770823A3740521E80004F0A5FA4A4B80B25B6818805880022002F094
:400680006DFE051C03F000FE8020400003F07AFE03F0ECFD2378002B00D1D2E6CFE607F01FFA022800D0C6E6A2686368944601336360A38A6344A360FFF7C8FD08233648FB
:4006C0003749A37407F0C2F9051CE3E7A26863689446344901330E7E334D6360A38A721C63441831281CA36004F02BFC3423A269E81FD35C08225B07DB0FD31A08362849E0
:40070000C677A37407F0A2F9051CC3E7274A6368944601336360A3686344A3603423F75C9846FB071CD4BB0715D51F4B1D4999460F7E181C7A1C183104F003FC4B4608370E
:400740001F764346F35C5B0707D50723A3748CE70923A37486E6FFF779FD0823A37484E70D4E1049F01D182204F0EBFB1F23F377BB0702D50623A37477E77B07EDD5E4E78B
:4007800034110020FC740100FF7F0000882200208E0200008A220020F40B0020E00B0020140C0020AC0B0020FB0B0020D4170000F8B54F4646467B4CC0B4237F062B2FD88A
:4007C000794A9B00D3589F462378002B28D00023237003F059FD80200226400003F0D2FD03F044FDA58A2677002D19D01F23A769FB56012B00D18FE0022B00D1AEE0E8006B
:40080000052104F0DBF9694B80B25B6818805880022002F0A3FD002802D0002003F078FB0CBC90469946F8BD07F05AF90228F7D1A2686368944601336360A38A6344A36092
:40084000FFF704FD5A495B4807F000F9E3E72378002BE5D00023237001332377E0E707F03FF9051E022DDBD1A268636894460133504E6360A38A182263444F49F01DA36094
:4008800004F05FFB1F23301C4949F37707F0DEF83423A269D35C1D4221D004232377BAE707F01EF90228BBD1A26863689446424901330E7E414D6360A38A721C6344183196
:4008C000281CA360083604F03CFBE81F3849C67707F0BCF83423A269D35C5B0719D50523237798E707F0FCF8022899D1A2686368944601336360A38A6344A360FFF7A6FC22
:400900002C482B4907F0A2F83423A269D35CDB07C3D5032323777EE7626801326260A268AA18A26034229146BA5C9046134225D116421ED0214B204998460E7E181C721CD6
:40094000183104F0FEFA434608361E764B46FB5C5B0700D453E70523237750E71649174E0C7E301C621C1831083404F0EAFA347645E7FFF76BFC0623237740E70D4F0E4951
:40098000F81D182204F0DDFA1F23FB7743461E4202D00423237732E743465B0700D42EE7D9E7C0463411002024750100E00B0020140C0020F40B0020AC0B0020FB0B0020D4
:4009C00070B53B4C3B4AE36F934240D03A4C3B4A9461E17F002944D06023E35A93825E23E35CE318181C303000781074022936D0A17F334A334D11700321334A5833D17096
:400A00001171A731517154319171211C9E7820310A22A81D6E7104F094FA281C211C06222A31103004F08DFA59230F22E35C281C1340102213432B774623211C6E77E25CE8
:400A40001E30531D47312B7604F07BFA70BD22689A42BBD11D4BA26F9A42B8D8B6E70021C7E7238B184D9382237F281C1374A27F134B09301A701A23EB70E5332B71FD3B6B
:400A8000EB7113332B7210220933211DEB7704F058FA638B6B711B0AAB71A38A1A0A6A76AB76E38A1A0AEA762B77637F6B77CDE780F2FF0FAA550000A87501003411002039
:400AC0008C220020AC0B0020F40B002001000100F0B58FB062B6032003F0B6F9FFF750FC02F016FF012867D0444CFFF769FF0322434B44481A710022434B1A821A70042212
:400B0000424B9A7002F0B4FB414F04F019FF032004F00EFF061C03F0E0FC051C06F0E0FF032E42D002280BD0022003F0F7F803F0EDF803F01DFA03F0DFF8002003F0EEF8E5
:400B4000281C03F0CEFC637C002B13D10023FB56002B0CD0A37C052B06D803F0C3F8FFF759FC03F0B1F8D0E7FFF754FCCDE7FFF71FFECAE70023637403F086FB012003F052
:400B800001FC0120012103F097FB0120012103F0B7FBA3210120490003F01AFC8020400003F0D2FB03F062FBD0E7FD2318400428C6D103F0EBF9C3E7802500F075F968463D
:400BC00000F046FA134C02F0CBFA134E6D0104F0B7FE00F057FAA8420AD01F23E356022BF5D13378002BF2D00123044C237700E0024C02F0A9FB02F0B3FD76E734110020F6
:400C0000400C0020E9020000E00B0020F40B00208C22002080F2FF0F5811002080B5ACB000AF021C3960FB1D1A700023A822BA1813603A4B1B68FB61394B1B68BB61394B86
:400C40001B687B61384B1B683B61384B1B68FB60374B1B68BB60374B374A1A60374B384A1A602023FB18374A1A602023FB187F225A60AF23FB1800221A7015E0AF23FB188A
:400C80001B789A1CAF23FB181B789B003968CB1819682023FB189200D150AF23FB181A78AF23FB1801321A70AF23FB181B781F2BE4D9204B2022BA181A60204B224A1A60E8
:400CC0002023FB18214A1A60FB1D1A782023FB185A60184B2022BA181A60184B1C4A1A60144B1B68A822BA1813600C4BFA691A600B4BBA691A600B4B7A691A600A4B3A6908
:400D00001A600A4BFA681A60094BBA681A60A823FB181B68181CBD462CB080BD00010B4008010B401CFF0B4020FF0B4028FF0B402CFF0B4008001040B6E8000004001040C5
:400D400015000080B6D7000004000080B6EB00001800008030B5041CA1B00D1E00D19CE0152810D068464E49802204F0EAF8142C00D992E04B4BA4001B599F46602369469C
:400D80002A886D46CA520120291CFFF747FFA023021C1B0600209A4201D121B030BD0238FBE75E2369462A786D46CA54EBE75A20291C6844042204F0C4F86D46E3E75923B7
:400DC00069462A786D46CA54DDE746236A464720291CD25C684404F0B4F86D46D3E7462369462A786D46CA54CDE73620291C6844102204F0A6F86D46C5E7352369462A780F
:400E00006D46CA54BFE72A780DAB1A706D46BAE7291C0CA8042204F094F86D46B3E72A20291C6844062204F08CF86D46ABE7291C08A80A2204F085F86D46A4E76A462B78D4
:400E40006D46D3779FE76A462B786D4693779AE76A462B786D46537795E76A462B786D46137790E76A462B886D4653838BE76A462B886D46138386E76A462B886D46D38229
:400E800081E76A462B886D4693827CE7291C01A8102204F056F86D4675E7012040427CE780F2FF0F5475010070B5384C384AE36FA0B093421AD0354C354BE2696846354977
:400EC0009A4244D0802204F03CF819A8FF21102204F040F801206946FFF7A0FEA02300251B06984231D1281C20B070BD22689A42E1D1294BA26F00259A42F4D825498022F5
:400F0000684604F01EF8FF21102219A804F022F8224B01AA43CB43C21B68012013606A46A38A69469382E38AD382238B1383638B5383237F1377637F5377A37F9377FFF731
:400F40006DFEA0231B069842CDD0023DCBE7802203F0F7FF1022FF2119A803F0FBFF211C01AB25C925C31A1C0B6813606A46238A9382638AD382A38A1383E38A5383237EF9
:400F80001377637E5377A37E9377A3E780F2FF0FAA550000A87501000100010084F2FF0F00B5A1B00B498022684603F0CAFF1022FF2119A803F0CEFF01206946FFF72EFEF9
:400FC000A02200231206904202D1181C21B000BD023BFAE7A875010000B5A3B00F49802202A803F0AEFF0E4935200B6B2F2201930E9302AB9C463531604403F0A2FF01200F
:4010000002A9FFF70BFEA02200231206904202D1181C23B000BD023BFAE7C04680F2FF0FA8750100031C303B021CD8B2092807D9113B052B05D9131C613BFF20052B03D94B
:401040007047373AD0B2FBE7573AD0B2F8E7C04610B5041C02F06EFB084802F04BFC002C08D0074B201C002136221C6003F072FF002010BD03204042FBE7C04690770100B6
:4010800054110020F0B54D4644465F465646F0B4D24CB7B0256802F079FB002819D0281C03F082FFC5B2342D0FD94CE123685E1902F008FC013530702068EDB24319013B49
:4010C0001B780A2B0ED0352D0CD002F05FFB0028ECD10024201C37B03CBC90469946A246AB46F0BD0023435502F004FC02F064FB0028FBD1061C013002F00CFF2768381C3C
:4011000003F052FFFF231840831EFB181A780D2A09D0381C0021362203F01CFFB04802F0E9FB0124D6E70138381802780A2AF0D107AD1E70391C023A0670281C03F001FF98
:40114000281C2E7203F0D6FFA64F291C381C052203F0E8FE8046002800D1F8E0381C291C5430042203F0DEFE002800D11FE1381C291C5830052203F0D5FE002800D16BE140
:40118000381C291C6030052203F0CCFE002800D1CBE1381C291C6830052203F0C3FE002800D15AE2381C291C7030052203F0BAFE002800D108E2381C291C7830052203F0F3
:4011C000B1FE002801D100F06AFF874F291C381C072203F0A7FE002801D100F018FE381C291C0830052203F09DFE002801D101F059FB381C291C1030072203F093FE00284A
:4012000001D101F0AFFA381C291C2030072203F089FE002801D100F063FC381C291C2830082203F07FFE8046002801D100F060FE381C291C4030072203F074FE002801D143
:4012400001F032FA381C291C4830042203F06AFE061E01D101F0CEF9381C291C4C30042203F060FE002801D100F045FD381C291C5030042203F056FE002801D000F01EFDCF
:4012800027683B79002B00D043E7584802F032FB574802F02FFB574802F02CFB564802F029FB564802F026FB554802F023FB554802F020FB544D281C02F01CFB534802F05D
:4012C00019FB534802F016FB524802F013FB524802F010FB514802F00DFB514802F00AFB504802F007FB504802F004FB4F4802F001FB4F4802F0FEFA4E4802F0FBFA4E48BA
:4013000002F0F8FA281C02F0F5FA4C4802F0F2FA4B4802F0EFFA4B4802F0ECFA4A4802F0E9FA4A4802F0E6FA002527680024381C0021362203F00EFE022D00D0CAE64448AF
:4013400002F0D8FAC6E6434802F0D4FAC1E6391C0422083106A803F0F4FD0DAE3B1C321C0C3323CB23C2391C1B681C31136016AB181C3822994603F0E4FD23689B465B7979
:40138000002B00D1AEE202AA94460F274246674402973A700125202B00D1E0E158460021362203F0D7FD2C1E012CC5D1B6E625682E79002E00D1F6E2281D03F0F5FD01238C
:4013C0009846252800D1C6E2281C0021362203F0C1FD4346012B00D07BE69FE654110020FC82010028760100A8760100247B0100847B0100C87B01000C7C01004C7C010078
:40140000887C0100C87C010034830100087D0100547D0100A07D0100F07D0100547E0100787E0100C07E01000C7F0100607F0100B07F0100108001005880010078800100BE
:40144000C080010014810100348101005081010018830100687701002568681D03F0A4FD80B200285DD0012398461528ACD16B79202BA9D1291C0027AE1D1A3133781A1C9C
:40148000303AD2B2092A1DD91A1C413A052A00D8A3E31A1C613A052A12D973781A1C303A092A0AD9FF22181C4138052800D89DE3181C6138052800D892E30123984683E745
:4014C000573BDAB27378181C3038C0B20928EAD8120111AB10430236F85401378E42CDD10920191CFFF736FCD44802F003FA16AB99461F1CD24BD34E9846D34D3278381CF0
:40150000291C013603F02EFD02374645F6D1484602F0F0F9CD4802F0EDF900232568984652E7CB4802F0E6F9E1E72568681D03F03BFD80B2002801D100F0B5FC01239846B1
:401540000D2800D040E76B79AE1D202B00D03BE7002EB2D0291C0027123133781A1C303AD2B2092A00D848E21A1C413A052A01D800F0B5FC1A1C613A052A00D83BE27378B6
:401580001A1C303A092A98D9FF22181C4138052801D800F080FD181C613805288DD8573BD8B2FF2A89D0120111AB10430236F85401378E42D1D1191C0A20FFF7CBFBA54851
:4015C00002F098F900F072FC25686E79002E00D1F5E2681D03F0E8FC01239846052800D0F2E6202E00D0EFE6A879FFF71BFD16AE3070FF2800D1E7E6E879FFF713FD7070FB
:40160000FF2800D1E0E6287AFFF70CFDB070FF2800D1D9E6687AFFF705FDF070FF2800D1D2E633780DA91A0173781343DBB21A02B3781801F3780343DBB2134302200B809F
:40164000FFF788FB844802F055F9844B11A8DA8A834903F087FC11A85AE725686E79002E00D1B3E2681D03F09FFC01239846052800D0A9E6202E00D0A6E6AB791A1C303AA6
:40168000D2B2092A0AD91A1C413A052A00D89AE2203A052A00D997E6573BDAB216AB1A709946EB791A1C303AD2B2092A0DD91A1C413A052A00D88DE2012290461A1C613AA3
:4016C000052A00D980E6573BDAB24B465A702B7A1A1C303AD2B2092A0DD91A1C413A052A00D886E2012290461A1C613A052A00D96AE6573BDAB24B469A706A7A131C303BA8
:40170000D8B209280CD9113B052B00D874E201239846131C613B052B00D955E6573AD0B24B46D8701B780DA91A014B465B781343DBB21A024B469B781B010343DBB21343B2
:4017400001200B80FFF706FB464802F0D3F8434B11A89A8A424903F005FC11A8D8E65B46981D9B79302B00D14FE1021C0021002B0FD02F2B00D1B3E01D1C413D192D01D877
:401780002033DBB2137001321378002B01D00229EFDD06A9042203F0C5FB0125002800D0FCE50A230D9A5B44101C92461F1C03F0FBFB0004020C5146381C904603F0B2FB80
:4017C000002800D1F9E17268101C924603F0ECFB0004020C5146381C904603F0A3FB002800D1E8E1B268101C924603F0DDFB0004020C5146381C904603F094FB002800D101
:40180000D7E1F268101C924603F0CEFB0004020C5146381C904603F085FB0323002800D0BCE50298B3460278511C017011A98B543B1C43448A461D1C1DE0C04620780100CA
:40184000AAF2FF0FA0F2FF0FE47701003483010008780100547801009078010080F2FF0F7C78010038830100029A731C137052462B78013593552B78002B00D196E1029AC9
:401880001678112E00D956E11A1C213A5D2A00D951E12E2BE8D10023984605E001239C46E04443460E2BDFD043464A469B00D358181C1F1C03F078FB0004030C391C281C35
:4018C0001A1C039303F02EFB0028E7D1029A731C1370534642469A55039B9C466544CAE7013150E7C64802F005F8C64802F002F84723C54D4627EB5C9B00F05801F0FAFF2B
:401900004623EB5C0126012B09DC1DE04B468000185801F0EFFFEB5D01369E4214DABB4BF31818780D28F1D901F038FFF3E7B84801F0E0FF6023B44A11A8D25AB54903F04C
:4019400011FB11A801F0D6FFB34801F0D3FF236800259B4622E5202E00D035E5691D0026002317E00D2818D0122816D0172814D00F78581CBC46624616AFFA54434680B2B5
:40198000242B00D156E14246013293B29846031C01360131B0B2082EE4D108782D2800D08BE5181CEFE79D4801F0A4FF16AB994600239B4D984602339B4602339A462B1C8A
:4019C00000274546002698465A463B1C93435246043B93439BB2002B00D179E28A4B7019FB1848441A794146013703F0BBFA0235102FE9D18BE5573BDAB27378181C3038D7
:401A0000C0B2092800D9C0E5CDE55B46DB79303BDBB2032B00D9C1E4029A157011AA13705B465D461B7A08359246002B4CD002A93D228C4601206244191C3039C9B20929B8
:401A400019D9191C4139052935D9191C613905290FD96B789846303B092B08D9FF214346413B052B2AD94346613B052B26D9012594E4573BD9B26B789846303BDBB2092B0F
:401A8000EDD821277F42BC4609010B4399B28C4467465D2F01D90D29E9D801300299C0B20870137002352B78002B0DD001321228C2D1012572E4373BD9B2DCE70A33DBB2B8
:401AC000FF29DED1012569E400254F4B984635234246D35C002B32D0236802259B465DE411AB9A46187058709870D8701871587123689B46DB79002B00D1B9E25D46002641
:401B000008352027202BB2D12A78131CBB4300D192E200230BE0303A092A0CD801352A780133111CDBB2B94301D100F039FF2D2AF1D1002BF2D0236801259B462EE40299AF
:401B40000F20FFF707F951461020FFF703F9462743466822DB5D33490AA88B52543A02812A4A83800A9200210022002310F01EFD2D4801F0BFFE002D00D0B6E64346DB5DA2
:401B8000002B00D1E0E600264627254D1F4B291CF3181A78504603F0E5F9504601F0AAFE4346DB5D01369E42F0DBCDE65E4601258BE7022335E6012333E6002331E61B48D0
:401BC00001F098FE41E5373BDAB267E5184801F091FEBCE5373BDAB277E5373BDAB271E4573BD8B2FF2A00D072E466E4373BD8B2F8E7373BDAB27EE5373AD0B290E5C04661
:401C0000A0770100DC77010080F2FF0FC7F2FF0F047901006079010034830100EC770100E4770100500C0020BC7701008478010070780100B94600274E4633781A1C303A86
:401C4000D2B2092A2DD91A1C413A052A33D91A1C613A052A23D973781A1C303A092A00D82BE4FF22191C4139052921D9191C6139052900D921E4573BD8B2FF2A00D11CE431
:401C8000130111A903437B5401370236102FD4D10020FFF75FF8D94801F02CFE88E6573BDAB27378181C3038C0B20928DAD8E7E7373BD8B2E1E7373BDAB2F2E7381C291CDA
:401CC0005430032203F02EF9002801D100F0FBFC381C291C5830042203F024F900285DD127683B79002B01D0FFF713FA80246401251CFFF71CFB0DAE256830802F79002F2B
:401D000001D100F0FBFC281D03F04EF901239846052801D0FFF758FB202F01D0FFF754FB6879FFF77FF916AF3870FF2801D1FFF74BFBA879FFF776F97870FF2801D1FFF76F
:401D400043FBE879FFF76EF9B870FF2801D1FFF73BFB287AFFF766F9F870FF2801D1FFF733FB3B781A017B781343DBB21A02BB781901C3B20B43DBB213430420311C3380C7
:401D8000FEF7E8FF9E4801F0B5FD9E4B11A85A8B9D4903F0E7F811A8FFF7BAFB381C291C5C30062203F0BEF8002800D1CDE3381C291C6C30042203F0B5F8002800D19EE307
:401DC000924F291C381C0722103003F0ABF8002800D1F4E1381C291C2430072203F0A2F8002800D0BEE12768FB79002B01D0FFF790F9844A3533D35C002B00D197E184483F
:401E000001F078FD002527680024FFF790FA23680D909B46DB79002B00D188E50125202B01D0FFF7BBFA5B4659461B7A0831002B01D1FFF7B3FAA020303BDAB28001092A18
:401E400006D9FFF7ABFA303BDAB2092A00D90EE6864204D8B200961976009E190D9601310B78002BEFD1731E622B3BD864230D933523644A0225D35C002B01D0FFF78EFA4E
:401E80000DA91420FEF766FF1C2316A80381614B0021169300220023858010F087FB5E4801F028FD46E55D4801F024FD16AB99461F1C5B4B5B4E98465B4D3278381C291C8A
:401EC000013603F04FF802374645F6D1FFF71FFB4B462D229B1901365A55B6B27EE5373BDAB28AE5A0239B019E42C1D90D93BFE7391C16AB3031994625C925C30A681A60ED
:401F000023689B461B7A002B73D00125202B01D0FFF744FA173B9C46E344584603F0EAF843460DAE33704B461B68181C9A4603F03BF8FF231F1C0740514658463A1C9846AC
:401F400002F0F0FF00282FD04B4635705D684746281C03F029F80740291C58463A1C02F0E1FF002820D0022333704B469D684746281C03F019F80740291C58463A1C02F06A
:401F8000D1FF002810D0032333704B46DD68FF27281C03F009F80740291C58463A1C02F0C1FF002800D0C6E55B46DB5D002B00D0C1E53523134AD35C002B00D08CE5311C60
:401FC0001320FEF7C7FE1A2311A80381174B00211193012300228380002310F0E7FA144801F088FC5E23074AD35C4A469B00D058A8E4104801F07EFCF4E7C046F877010041
:40200000107B010080F2FF0F7C7801002877010078820100E0F2FF0F307901003C780100B0F2FF0FAAF2FF0FE4770100DEF2FF0F987A0100787A01000023E81802F040FFD7
:40204000031C6433782B00D975E5721C0DA9D3B2705498462B78002B01D100F0B1FC032E00D168E50135161C202B00D14CE562E5D54801F03FFCD54DD54ED64F0022311CBF
:40208000AA56504602F06EFF0135504601F032FCBD42F3D158E4373BD8B2FFF782FA16AB994600234A4625681370681D53709370D37013715371119302F076FF83B2002B2F
:4020C0003DD00122043B9046022B01D9FFF77CF96B79202B01D0FFF777F903041B0C013B002B17DD4946AA790A70303A092A01D9FFF76AF90022484607E0A918897981540F
:402100003039092901D9FFF7D8F9013292B29A42F3DB8146484602F0D3FEAF4B11906438984217D9012325689846FFF74DF9AB4801F0E0FB002527680024FFF7F8F8A848F1
:4021400001F0D8FBA74B48461A8BA74902F00AFFFFF7DDF911A90320FEF7FCFDA34801F0C9FBEFE7381C291C2C30062202F0DAFE002800D19BE0381C291C3430082202F00A
:40218000D1FE002861D0381C291C3C30042202F0C9FE2768002801D0FEF7BBFF3B79002B01D0FEF7B6FFFEF7FBFE00F013FD904801F0A0FB002527680024FFF7B8F8391C5D
:4021C0000DAE18310422301C02F0BBFE391C11AB1C31181C04229A4602F0B3FE391C16AB181C20310422994602F0ABFE2568EB79002B01D000F027FC7E4801F07BFB3423C4
:40220000784AD35CDB0701D400F018FC7A4801F071FB3423734AD35C9B0701D400F009FC764801F067FB34236E4AD35C5B0701D400F0FAFB724801F05DFB724801F05AFBB6
:40224000002398462568FFF7BFF823680AAF3870181C08309B4602F0A7FE0125252801D0FFF79CF85B4658461B7A0930202B01D0FFF794F8012200230021DDB2082B00D1E0
:4022800036E10D2D00D12CE1122D00D129E1172D00D126E14E1CF5B2C65CA84616AD6E54242A36D0414601320133D2B2E5E7012623680AAF981D3E709B4602F075FE012547
:4022C000252801D0FFF76AF85B46D81D9B79202B01D0FFF763F8012200230021DDB2082B00D1F7E00D2D00D1EDE0122D00D1EAE0172D00D1E7E04E1CF5B2C65CA84616AD0E
:402300006E54242A00D185E0414601320133D2B2E4E700262B781A1C303AD2B2092A00D8C6E01A1C413A052A00D8C9E01A1C613A052A00D8BAE06B781A1C303A092A01D81A
:40234000FFF795FBFF22191C4139052900D8AAE0191C6139052901D9FFF789FB573BD8B2FF2A01D1FFF783FB130111A90343735401360235102ECDD135231A4AD35C002B60
:4023800000D188E02048102202F0CCFD0225002801D0FFF703F8391C0D30FEF7DBFC0E230DA80381194B00210D93012300228380002310F0FBF8164801F09CFA236800259D
:4023C0009B46FEF7EBFFC0461C7A0100DAF2FF0F187A0100DEF2FF0F9C27000090820100A078010080F2FF0FFC780100CC780100E08201000C82010038820100508201008C
:402400006882010034830100B6F2FF0FB5F2FF0FC4820100002398463B1C474698462878FEF700FE81466878FEF7FCFD4B46FF2B01D1FFF71CFBFF2801D1FFF718FB1B01A4
:4024400011AE1843B85501370235102FE7D13523B34A0225D35C002B01D0FEF79FFF41460D20FEF777FC311C0E20FEF773FC0E230DA80381AB4B00210D9301230022838030
:40248000002310F093F8A84801F034FA236800259B46FEF783FFA54801F02CFA236800259B46FEF77BFF373BD8B259E7573BDAB26B78181C3038C0B2092800D943E753E79A
:4024C000373BDAB2F4E7C55C2D2D00D11DE70125FEF764FF057A2D2D00D116E70125FEF75DFFC55C2D2D00D1DDE60125FEF756FF057A2D2D00D1D6E60125FEF74FFF391C74
:402500000B22703111A802F01CFD391C0B227C3116A802F016FD86490DA80831082202F010FD25682B79002B00D0B3E2814801F0E1F97B4BDB7F002B00D1A6E2012B00D13B
:40254000BDE27D4801F0D6F977E62568A81D02F02BFD391C11AB86B264310222181C9A4602F0EFFC391C16A86831032202F0E9FC002E38D00122F31E9046012B01D9FEF798
:4025800023FFAB79202B01D0FEF71EFF0735281C02F0B0FD281C16A9032202F0C3FC002802D1042E00D1F6E2281C5146022202F0B9FC002800D0B5E5032E00D0B2E50123E5
:4025C0000DAE33700720311CFEF7C4FB5B4801F091F9534B9B7F5BB2002B08D0584801F089F9FEF797FF574801F084F9F1E75648FEF78EFF256811901690281D02F0D4FCF1
:4026000081B200294AD0012901D1FEF756FF01222B799046202B01D0FEF7D6FE03041B0C013B0022002B16DDA8184079071C303F092F07D9002A01D0FEF73FFF2D2801D03B
:40264000FEF73BFF013211AF92B2B855161E9E42EADBBA4601E011AB9A46022905D153461B782D2B01D1FEF728FF504602F028FC16908030FF2800D954E5062016A9FEF709
:4026800069FB324801F036F91D22254B9A5650462F4902F067FC5046FEF73AFF2D4801F029F911AB9A46EFE72768FB79002B01D0FEF72FFD1A4A3533D35C002B23D00224FD
:4026C0000225FEF734FE802216A8002102F042FC012225689046EB78002B01D0FEF774FE00931D49023316A802F03CFC16A801F001F9002325689846FEF766FE174801F099
:40270000F9F8FFF742FBFEF767FC00F063FA144801F0F0F8002527680024FEF708FEC04680F2FF0FB5F2FF0FA88201009082010028770100D081010004820100B88101009C
:402740006C820100A481010074820100E87A010098790100D47A01006C810100007B0100BC7A0100391C11AB187058709870D870187158719A4616AB181C183108229946BE
:4027800002F0DFFB23689B46DB79002B00D103E15B46DD1DD44B00269846D44F4046291C042202F0BFFB002800D1F3E0381C291C042202F0B7FB002800D1E8E0CC48291CE6
:4027C000032202F0AFFB002800D1DDE0C948291C032202F0A7FB002800D1D2E0C648291C032202F09FFB002800D1C7E0C348291C032202F097FB002800D1BAE0C048291C2B
:40280000022202F08FFB002800D1AFE0BD48291C022202F087FB002801D0FFF728F9022307204A46125C0DA972540136ED18042EB4D12B780125002B01D0FEF7AFFD00233C
:402840000122CB568A56934201DBFEF7A7FD0223CB569A4201DBFEF7A1FD03228A569A4201DCFEF79BFD3523A74A0135D35C002B01D0FEF793FD0B20FEF76CFAA34801F07D
:4028800039F8A34DA34EA44F0022311CAA56504602F068FB0135504601F02CF8BD42F3D1FFF752F8256811901690681D02F07CFB82B2002A54D001216B798846202B01D0A1
:4028C000FEF782FDAB792D2B27D0022A01D0FEF77BFD11AA1370303B9246092B01D9FEF773FD504602F0ECFA031C169012330AD0031C0C3307D0831D05D0C31C032B02D9AF
:40290000032800D00EE4052016A9FEF723FA834800F0F0FF7C4B1C22B8E6033A012A01D9FEF752FD11AA137003041B0C013B9246012BD6DD5146EA794A70303A092A01D957
:40294000FEF742FD01225046013292B29A4213DAA9188979815430390929F5D9FEF7ADFD6F4800F0C7FF11AB9A46D3E70223062057E70323052054E78246B2E7032304200D
:402980004FE7032303204CE70323022049E70423012046E7042344E7624800F0ABFF70E7042B01D9FFF7C7F8012B06D16B1E1B782D2B01D1FFF7BFF801235B42FFF73DFBE8
:4029C0004346042B01D0FFF7B6F800230122CB568A56934201DBFFF7AEF80223CB569A4201DBFFF7A8F803228A569A4201DCFFF7A2F83523444AD35C002B01D0FFF76CF8C9
:402A00001220FEF7A7F9182316A80381464B0021169343460022838000230FF0C7FD434800F068FFFFF727FB414800F063FFFFF704FC404800F05EFFFFF7F5FB3E4800F067
:402A400059FFFFF7E6FB0735281C02F053FBFC230AAF3A78B0461340042293433B7002232E1C9B463378002B6ED001233D782B422AD1301C4146042202F054FA002823D1F3
:402A800001231D433D700436ECE72C4800F032FFFFF7D3FB0435281C02F02CFB281C11A90B2202F03FFA002878D10AAF3870391C0820FEF74FF9224800F01CFF39E521480B
:402AC00000F018FFFFF7B9FB02232B4250D1301C5146042202F026FA002849D15A463B7813433B70CFE7C046C4790100CC790100D4790100D8790100DC790100E079010031
:402B0000E4790100E879010080F2FF0FEC790100B0F2FF0F187A0100B4F2FF0F7C790100647901009C790100DAF2FF0F487A0100708201005C82010044820100EC8101006A
:402B4000DC810100F881010007223B781340042B1DD0063A9046072B01D1FFF773FB391C0C20FEF7F7F81A4800F0C4FEFFF747FB04232B420BD1301C4946042202F0D2F9D5
:402B8000002804D104223B7813433B707BE701239846FFF757FB0DAE307013E5281C16A90B2202F0BFF9002803D101230AAF3B707DE7281C0DA9082202F0B4F901239846B8
:402BC000002801D0FFF73EFB0AAF01333B706EE7208201000E2330B5012585B001AC2381244B201C0193002100220023A5800FF0DDFC4623204A2149D35C68228B52543A58
:402C000022811F4AA3800192201C0021002200230FF0CCFC162323811A4B201C0193002100220023A5800FF0C1FC18232381164B201C019304230021A380002200230FF051
:402C4000B5FC1A232381114B201C0193002100220023A5800FF0AAFC1C2323810C4B201C019302230021A380002200230FF09EFC05B030BDB5F2FF0F80F2FF0F500C0020C2
:402C8000C7F2FF0FD9F2FF0FDAF2FF0FDEF2FF0FE0F2FF0F70B50C1C98B04C2805D027280ED0422828D018B070BD8A89131C103B9BB20E2B00D921E1CE499B00CB589F46D2
:402CC0001F22CD4B9A56022AEDD133329B5C002BE9D0002314A91A380B70FEF73BF80E2315A80381C54B0021159301230022838000230FF05BFCD6E70122C14B1A70D2E750
:402D00002389012B00D022E13523BB4AD35C002B00D0E8E163681B78002B00D0C2E120680EF030FEBFE72389102B00D047E13522B1498A5C002A00D070E1012514AE616830
:402D40000E203570FEF706F80D20311CFEF702F80E2315A80381A94B858015930021002200230FF023FCDAE72389102B00D034E13523A14AD35C002BD1D0A24861681022DD
:402D800002F0D0F8002800D163E1228803AB1A80122315A98B700B8003980A3BCB700EF06FFD80E721894B1E112B00D943E13523914AD35C002B00D066E160680378032B64
:402DC00000D9A8E001290AD00123C25C0D2A03D9213A5D2A00D99EE001338B42F5DB211C0F200831FDF7B6FF61681020FDF7B2FF68232189844A201DD152AFE72389012B52
:402E000000D0B2E035237C4AD35C002B00D078E163681B78002B00D181E7228808AB1A80122315A98B7004330B800898133BCB700EF026FD37E72389042B00D0A3E0352338
:402E40006D4AD35C002B00D069E100236168CB56142B00DD73E1643300DA70E10123CB56142B00DD6BE1643300DA68E10223CB56142B00DD63E1643300DA60E10323CB56E2
:402E8000142B00DD5BE1643300DA58E11220FDF761FF201D62E72389012B4AD13523564AD35C002B00D010E161680B78032B00D9DCE01320FDF74EFF201D4FE72389022B2F
:402EC0006FD135234C4AD35C002B00D0EFE06268537812781B0213435A1E622A00D995E0642314AD2B801420291CFDF733FF1C2315A803811A3B159583802FE76946238843
:402F00000B80122315A98B7000980F3B0A80CB700EF0B6FCC7E6228807AB1A80122315A98B7002330B800798113BCB700EF0A8FCB9E6228810AB1A80122315A98B700833E1
:402F40000B8010980D3BCB700EF09AFCABE6228814AB1A80122315A98B700C330B801498113BCB700EF08CFC9DE622880AAB1A80122315A98B7004330B800A98093BCB70B5
:402F80000EF07EFC8FE622880CAB1A80122315A98B7006330B800C980B3BCB700EF070FC81E6228812AB1A80122315A98B700A330B8012980F3BCB700EF062FC73E622883C
:402FC00002AB1A80122315A98B70023B0B800298033BCB700EF054FC65E6228804AB1A80122315A98B700B800498053BCB700EF047FC58E6F483010080F2FF0FB5F2FF0F79
:4030000058110020B6F2FF0F500C0020A02214AD9201934200D990E02B8064E7218801AA118015A912220B80082301988A70CB700EF026FC37E6228806AB1A80122315A92B
:403040008B7002330B800698073BCB700EF018FC29E614A908700D30FDF77CFE0E2315A803813E4B15930123838077E622880EAB1A80122315A98B7008330B800E98173BA9
:40308000CB700EF0FDFB0EE6228805AB1A80122315A98B7002330B8005980C3BCB700EF0EFFB00E6FDF798FFFFF794FD37E6228811AB1A80122315A98B700A330B801198CE
:4030C000143BCB700EF0DCFBEDE522880FAB1A80122315A98B7008330B800F98123BCB700EF0CEFBDFE5228813AB1A80122315A98B700C330B801398163BCB700EF0C0FB89
:40310000D1E5228809AB1A80122315A98B7004330B8009980E3BCB700EF0B2FBC3E522880BAB1A80122315A98B7006330B800B98103BCB700EF0A4FBB5E52A80D3E62288A0
:403140000DAB1A80122315A98B7006330B800D98153BCB700EF094FBA5E5C046B5F2FF0F08B5074800F084F802F0EAFBFFF732FD044A00205379043B537100F0EFF808BDFC
:40318000952C0000F40B002008B501F09FFE03680C2B00D0FEE7FEE708B5031C0749084A0868C3189A1A802A01DC0B6008BD01F08DFE0C23036001204042F7E7DC0B0020DE
:4031C000D8220020F8B5104E002E18D000200F4DA9682C686A68002905D00023E758043380C29942FAD1E9680023002903D0D05004339942FBD1013E1035002EE8D101F058
:403200006BFEFDF765FCFEE701000000D08801000121124A38B51368114C8B431360114800220023104D04E00133A1500432302B08D0011C032BF7D851590133A150043281
:40324000302BF6D1FCF7E8FE0022084B1A600123024A11680B43136038BDC04600001040000000208931000000000000C000002070B590B0051C26490BA8142201F061FE87
:40328000244E3478002C31D0002D3FD00021224B08A81D60018106AB1B31198059801739197108930023123105AA69444260137002F03CFC002801D010B070BD0523AE2277
:4032C0000093164B16480193164B1749029312010BAB02F081FB0028EED10122134B1E211A70134811320FF049F9E5E7114B1C70114B1C70114B1C7000F01AFA104B1C70DC
:40330000104B1C7001233370002DBFD10120D3E7308401005911002094220020809101005134000079020000C80000209E22002044840100A7220020A0220020A6220020DC
:40334000902200209822002008B502F00FFB0022014B1A7008BDC0469E220020031C10B50120022B05D8154A1278042A02D00420FF3010BD124C21780A42F8D11148002B9D
:4033800010D15021383202824268118051800E4A13700DF007F90028EBD10423227813432370E6E7012BF2D19622C82102824268C90011808021C9015180E8E79E2200208B
:4033C000A7220020E00B0020A622002008B50DF0A1F90823024A11780B43137008BDC046A72200207047C046437800781B0218437047C04638B5838900250B2B01D0281C8A
:4034000038BD041C00210430221C35330FF0CEF8051E05D001210C4A13788B431370EEE76068FFF7E1FF830706D58220074B40001B68211C9847EDE70620044BFF301B68C5
:40344000211C9847E6E7C046A722002094220020F0B54746012280B4A34D82B02B78041C1343DBB20E1C2B70272800D10BE112D9422800D171E04FD94C282CD0FA2800D17A
:4034800005E1432837D14988162900D908E130880EF000FA2FE0062800D1E2E055D9242826D026285ED0212825D12B789B0622D48E490B78102B00D10DE18D4B18780DF043
:4034C0002FF801A90880002800D0FFE001232A7813432B700FE0081CFFF78CFF2B78DB0709D4002800D0DDE030680EF04BFA02E04A78804B1A7011222B781A4208D02B78B9
:40350000103A93432B707C4B201C1B68311C984702B004BC9046F0BD282800D1BCE04128E9D1734F0222381C01F00BFD00223978724B3D311A70FF31714B490059180131B6
:403540000232704801F0FDFCD5E701281CD00528D1D10A78694B1A70CDE70022644B5A701A70C8E7684B1A78022AC4D02978C907C1D504212878014200D19DE003221A707C
:403580002B788B432B70B6E7052301AF98463B700023381C7B7004F003FB4346381C3B707C7004F0FDFA594B186898468379002B1ED10378002B0ED14378002B0BD18378F4
:4035C000002B08D1C378002B05D10379002B02D14379002B0CD002F0B7F9434600211868FFF700FF434601211868FFF7FBFE2AE0474B1F2218783F239C461840454B800159
:403600001978454B1140021C09030A4361461B780B401343414A403112780A40520413433F4A90464146137040461A0A1B0C4A708B7002F089F940460021FFF7D3FE4046F3
:403640000121FFF7CFFE00200CF040FE3F233B700023381C7B700CF057FE04222A4B1A7049E70B78002B00D045E74B78002B05D12C4AD38093802C4B4A60136001222B7852
:4036800093432B7037E702221F4B1A7033E7274B19780A431A702EE704221B4B1A702AE71721F4E6122301A98B70B389C87030680B800EF0E5F81EE7297809070ED5042216
:4036C0001A702B78043293432B7014E70A4B36201B689847FAE60B3BCB70EEE6032A00D009E701321A7006E7A72200206C0D0020A42200209822002094220020A022002028
:40370000809101009C2200209E220020340C00207DF1FF0F7BF1FF0F7CF1FF0F78F1FF0F380C00205C110020A80B0020902200207047C04610B5084C2378002B03D100F07B
:4037400043F8012323708021044A090613680B43136000F08BF810BD641100200000244008B500F099F8044A13685B005B0813600022024B1A6008BD00002440880F24409F
:40378000014B18687047C046400324401F20024B1B6818407047C046080324401F2204490B681340082BFBD0024B18607047C04608022440400224401F20024B1B681840F7
:4037C0007047C04608022440154A164B10B51A60002301210724144A14481360144A1160144A026014480460144803601448016014490A600421144A1360144A1160144A4D
:403800001360144A1360144A1360144A1360144A1360144A13601268134B1A8010BDC0460B000002000024404000244000032440480024400700008004032440100324402A
:4038400044002440000224400402244050002440880E2440C80E2440480F2440080F2440C80F2440880F244066110020064A074B11680B40902109040B431360044B1A880F
:40388000044B1A607047C04600010240FFFF0FFF66110020880F2440064A074B11680B401360064B1A68E423DB001340044A13807047C04600010240FFFF0FFF880F2440D8
:4038C0006611002008B5FFF761FF00280AD1074B1868D823064A9B00116813600B401B02184308BDFFF74CFFF3E7C04640032440C00F244010B5041C00780134002806D064
:403900000134FFF74BFF631E18780028F8D110BD024B18688006C00F7047C0460403044010B58024094B64001C60094B186600F0D4FDC02207490B689343403A13430B6033
:4039400000F0CFFD044B1C6010BDC04680E100E00000002008E400E000E100E08021054A08B5136809060B4313600A2000F0B2FA08BDC0460000254010B5094C2378002B31
:4039800003D100F027F8012323708021054A090613680A200B43136000F09CFA10BDC046681100200000254008B50A2000F09CFA00F06EF8054A0A2013685B005B081360C9
:4039C0000022034B1A6000F099FA08BD00002540880F254010B50024194B1A4A1C601A4B0A201A60194B1A4A13601A4A14601A4A14601A4A13601A4B1C6000F075FA0A20D2
:403A0000032100F047FA17490A2000F037FA1422154BFF321C60154B1C60154B1C60154B1A60154B043A1C60144BFF3A1C60144B1A70144B1C80144B1C60144B1C6010BD1C
:403A400000002540C708008060002540070100800003254004032540100325400002254004022540E9440000C80E2540880E2540480F2540080F2540C80F2540880F254054
:403A8000A8220020B8220020B4220020BC2200201022014B1A707047A8220020F0B54F464646C0B4914683B0061C0F1E984610D02B4D2B78102B49D02B780424602B0AD095
:403AC0000A2000F007FA201C03B00CBC90469946F0BD0424F4E70821224B1A888A431A8028222A700022204976000A601F490A6049461F4A11601F4A694617604246CA7114
:403B0000C9791D4A1170FF2219881640FD3A914319801A491A4B196040231A490B601A490B604346DB070BD5184B1A680923920600D4083B164A00241360164B1E60BFE7D8
:403B4000144B00241E60124B1A60B9E70A2000F0CBF90E4B08241B68DB07B1D4014BBFE7A8220020B8220020C4220020BC220020CC220020B0220020C0220020170300008A
:403B8000000F2540800F2540880F2540640025406800254040022540F0B54F464646C0B4051C83B00F1E9146984610D0314E3378102B54D033780424602B0AD00A2000F039
:403BC00089F9201C03B00CBC90469946F0BD0424F4E70821284B1A888A431A80292200213270264A684611604A4625496D000A60244A17604246C271C27923480270FF2237
:403C0000012015401A88054382431A801F4B204A1A600B68072B18D804221E4B1A604346DB070BD51C4B1A680923920600D4083B1A4A002413601A4B1D60BFE70222184BC0
:403C400000241D60154B1A60B8E78021154A490013680B43136008220E4B1A60DFE70A2000F042F90C4B08241B68DB07A6D4024BB4E7C046A8220020B8220020B422002063
:403C8000C8220020AC220020C0220020000F254017030000C80F25406400254068002540400225406000254010B50A2000F01CF90022044B0A201C88A4B21A8000F00AF928
:403CC000201C10BDB822002008B5044B044A1B68DB0F137001D0FFF767FE08BD000025407011002008B5034B1B78002B01D0FFF735FE08BD701100208021034A09061368DF
:403D00000B4313607047C04608010B40024A13685B005B081360704708010B4010B5041C00F0DBFB072304490A689A43234013430B6000F0D6FB10BD00010B4010B5041C5A
:403D400000F0CBFB0722054914400B68044AE404134023430B6000F0C4FB10BD00010B40FFFFC7FF10B5041C86B000F0B6FB0E4B0E491A6802AB02920D4A126803920D4A7D
:403D80001419033C227804920B4A126805920B4A00926A4601930A4B1A600A4A11601B6800F09FFB06B010BD08010B401700008000010B404487010030001040B6EA00008F
:403DC0000800104004001040F8B501230F4A041C11680B43802113600D4A0E4B09021A600D4A13680B43136000280DD001250B4F0B4E387900F068FB33681D4204D1013C3C
:403E0000002CF6D1102000E00020F8BD60F02E400220000078002E4010002E40740D00200C002E400121054A13688B431360044A044B11680B4013607047C04660F02E40CF
:403E400010002E40FF7FFFFF07220A4B10B51B681340022B01D101BE10BD041C00F03DFB0321054A0C4013688B431C43146000F038FBF1E700010B4064F02E401F2800D958
:403E800001BE034B8000C318186819607047C0464000002038B5041C0D1E032D00D901BE1F2C00D901BE00F018FB094AA308944603221440E4000634A2409B00634419688A
:403EC000A54091430A1C2A431A6000F00AFB38BD00E400E01F2318401E3B8340181C014B1860704700E100E01F2318401E3B8340181C014B1860704780E100E01F231840E8
:403F00001E3B8340181C014B1860704780E200E001BE7047F8B58025071C2D02A84214D9041C0B4EB06800F0CFFA0A4B9C466444AC42F7D8084BFB18DB0BDB036744FF1AAF
:403F4000F068784300F0C0FAF8BD014EF8E7C046740D00200080FFFFFF7FFFFF08B5034B1B79584300F0B0FA08BDC046740D002008B500F0B2FA0421034A13688B43136039
:403F800030BF00F0AEFA08BD10ED00E030B583B000F0A3FA0E4A0F4D1368041C5B005B0813600D4B0D4A1B8802209BB2136004230B4A11680B4313602B680193FFF7BEFEF0
:403FC00030BF019B201C2B6000F08BFA03B030BD00000B4000010B4052F1FF0F0C000B4010ED00E0F8B5314B01211A68920722D500232F4D2B602F4B1C6800232404240C3E
:404000002C4E2D4F07E0002B11D0022B0AD13B689C4206D12B68012BF5D133681B0C9C42F8D0F8BD0020FFF773FF0023F0E733681B041B0CECE71A68520A114206D01C4DEF
:4040400029601C4B1C680123240CD9E71A68184D520C0A4005D002232B60174B1C680223CEE70324154869602A6002682240AA601B685B08194202D10368A343036001234B
:404080000A4A11680B430221136013681942FCD02B68012BD5D0002BADD0022BDDD00020FFF736FF00242B68AAE7C04610020B407411002000020B4004020B400C020B4035
:4040C0001C4B70B51A68C0231B021A4203D11A4C2368002B00DB70BD184D2B689B0F04D023685B005B082360F5E700F0F6F9061CFFF778FF23685B005B082360104B5A68E9
:40410000002A03D1301C00F0ECF9E4E701200D4A11688143116012689C685208104205D103222968914322400A432A6000225A60E8E7C04600010B4004010B400C020B4006
:404140007411002010020B4070B5174D2B689B0F9B07984213D0041C00F0BFF9061CFFF741FF2B68A00F9C008007A40820430F4B28605A68002A03D1301C00F0B2F970BDCE
:4041800001200B4A11688143116012689C685208104205D103222968914322400A432A6000225A60E8E7C0460C020B407411002010020B400121022010B530240B4B1A68D7
:4041C0008A431A601A6882431A60094A1068A043203C204310601068093CA0430143116080211A6809060A431A6010BD00F02E4000FF2E4001221B4B70B5196811400C1C4C
:4042000000281AD0012804D00020FFF781FE201C70BD022107261A688A431A60124A1568B5432943302511601168A943103D294311601A6810431860E9E702201968914332
:404240001960196881431960074B2E30196881432038014319601968093881430A431A60D5E7C04600F02E4000FF2E4008B500F034F9C021034A090213680B43136000F0E4
:4042800030F908BD00010B4010B5802400F025F90749084B0A68E4011A4022430A600A6813408022120213430B6000F01AF910BD00010B40FF3FFFFF38B5041C0D1C022836
:4042C00012D80D4BE0001B68421CD340DB070AD403210C1C0D4085408440281C074A1368A3431843106038BD0020FFF711FE0020FFF70EFEE5E7C04610020B400C020B4041
:4043000038B5041C0D1C012807D90020FFF700FE022C02D00020FFF7FBFD094BE4001B68621CD34001221A4208D10234A540A2402C1C04490B6893431C430C6038BDC046D7
:4043400010020B400C020B400D4A136803431360C30703D5022113681942FCD0C30505D58022074992000B681342FCD0C30305D58022034992020B681342FCD07047C04668
:4043800010020B40104B1A68C0231B021A4219D10E4A136883431360C30703D5022113681942FCD1C30505D58022084992000B681342FCD1C30305D58022044992020B68B7
:4043C0001342FCD17047C04600010B4010020B4038B5051C0C1C012802D90020FFF798FD0D4BC9201B689B0F00D06C38FFF7B6FD201C0A4A2D01AA40A84009490B6893439A
:4044000003430B60044B43201B689B0F00D02438FFF7A4FD38BDC0460C020B40FFFF000008020B40024B1868024B18407047C04610020B4004040400F8B5C026071C00F044
:404440004CF81B4C36022368051C334225D000F044F880212268174BC9011A400A43226022681340802212021343236000F039F81148124A0740381C1168114B0B4018433F
:404480001060136800F029F823681E43266000F028F8281C00F025F8F8BD0748074A0740381C1168064B0B40184310601368F0E700010B40FF3FFFFF0404040010020B401A
:4044C000FBFBFBFF000000000230800803D00138FDD1C046C046C0467047EFF3108072B6704780F310887047F0B55F4656464D464446F0B4CD4B83B01B68002B00D098470D
:40450000CB4B1B68DB0702D50022CA4B1A60CA4B00211A7892061ED5C8480268D20500D47DE0C024C64AA4001188214311800168C90704D5902011888000014311800120AC
:40454000197801400130411A1088014389B21180002201211A701A78920618D51022B748046822422CD00120B649B54C0A60197801400130411A2088014389B221801A7018
:4045800003B03CBC90469946A246AB46F0BD10201A781042F4D1AC490A68520052080A601870AA4BAA4A186802401A601868A94A02401A6080220B68120613430B60DFE72F
:4045C0001C78240741D504680220204231D09D4A9B49106088200A88800002430A801A78520700D51CE199499B4A086802400A6000229A490A609A490A609A4A12789207CE
:4046000000D4C1E001210A201A780A40811A8C4802880A4392B2028060221A70B0E70268D20798D59020864A800011880143118085E71878C00700D5F4E0242018708A4806
:404640000068002801D0864802601A78520700D496E001201A78104200D19EE0834A1068000772D5824A1068824A1468824A1568451B1F202040281A082808D8002800D06F
:4046800045E17248744904682140016001217B4C7B4E25681068AC4635686044EDB2057025681068AC4601301060106835686044EDB2057010680130106006202568166882
:4046C000AC466F4D66442F68FFB23770166801361660012851D027681668BC462F686644FFB23770166801361660022845D027681668BC462F686644FFB23770166801368F
:404700001660032839D027681668BC462F686644FFB2377016680136166004282DD027681668BC462F686644FFB23770166801361660052821D01068246820182C68E4B27C
:40474000047010680130106017E004201268104213D0494A494D14682D682C19484D2D68EDB225701468013414601468404A1268944200D3C9E0434A10604348434A106089
:40478000002900D02FE7FBE6414B1A681823920600D4083B3B4A1360F2E6284A14680222224200D082E03B4A1068C00600D4A3E01F20394D2A680240082A00D198E0374AEA
:4047C000294C10682668864200D891E03448354F00680195844634481F268246402080461F48814611E0106860440078C0B23860106801301060019800683040082877D0F8
:40480000106883462068834572D2206815680138A842E8D150464546056048460560E2E7012116E725221A700FE7C0466C1100208C0E2540880E2540A82200200C0F254093
:40484000B8220020000F25400000254060002540FF5FFFFFFFFCFFFFFFFEFFFFC80F2540880F2540C0220020CC220020CC0F2540C822002008032540B4220020AC2200206A
:404880004003254068002540ED0F0000C00F2540640025408C0F254008022540C4220020B022002040022540800F25401F262749274D0A6027490A680C68296832408A1AF8
:4048C000E10B0840101A286084202968224A8000116022490A88024380200A80204A400211680143116010681E49014011607AE610201D4A106043E71268520600D43FE70C
:40490000134A1168144A11606DE6012135E7174C174F26681568B4463E686544F6B22E70156801351560012800D126E726681568B4463E686544F6B22E7015680238013528
:404940001560002800D0B9E617E7C046000F2540C422002008022540BC220020B822002004022540FFFFFEFF800F2540AC220020400325400160704701607047314B324A2E
:404980001978324B09021B781943314B1B7812781B0213432F4A93424ED0D4221201934246D02D4A13602D4B2D4A19602D4B1B7812781B0213432C4A134200D12B4B2C4AA1
:4049C00013602C4B2C4A1B7812781B0213432B4A93420DD02A4A93420AD0052B08D0294A1360294B1A68294B1B68AA2B09D07047274B244A1360244B1A68244B1B68AA2B32
:404A0000F5D11F2AF3D91B4B1B780E2BEFD1214B214A1B7812781B021343204A1360204B204A1B7812781B0213431F4A1360DEE70429B6D11D4BB4E70729B2D11B4B033953
:404A4000AFE7C046D9F0FF0FDEF0FF0FD8F0FF0FDFF0FF0F580B00006C002E4074002E40DAF0FF0FDBF0FF0FFFDFFFFF0220000078002E40DDF0FF0FDCF0FF0F0F0F0000AD
:404A80000505000080002E40EC0F00F0E00F00F0050F00006DF2FF0F6CF2FF0F84002E406FF2FF0F6EF2FF0F94002E40580D000008B5FFF753FA08BD08B5FFF72BFA08BDAF
:404AC00008B500F067F808BD08B500F06BF808BD08B500F067F8034800F046F8002000F049F808BDB54B000008B5024800F020F808BDC046B54B00000220FF307047C0468D
:404B00002B2070472B2070472B2070472B2070472B2070472B2070472B2070472B2070472B2070472B2070472B2070477047C04610B58024084B64011C60084B1867FFF73D
:404B4000CCFCC021064A13688B431360FFF7C9FC044B1C6010BDC04680E100E0000000200CE400E000E100E0014B18677047C0460000002010B5041CFFF7AFFCC021044AD8
:404B8000A40113688B4323431360FFF7AAFC10BD0CE400E08022024B52011A607047C04600E100E08022024B52011A607047C04680E100E008B512F08BFC08BD0022430889
:404BC0008B4274D303098B425FD3030A8B4244D3030B8B4228D3030C8B420DD3FF22090212BA030C8B4202D31212090265D0030B8B4219D300E0090AC30B8B4201D3CB030F
:404C0000C01A5241830B8B4201D38B03C01A5241430B8B4201D34B03C01A5241030B8B4201D30B03C01A5241C30A8B4201D3CB02C01A5241830A8B4201D38B02C01A524139
:404C4000430A8B4201D34B02C01A5241030A8B4201D30B02C01A5241CDD2C3098B4201D3CB01C01A524183098B4201D38B01C01A524143098B4201D34B01C01A5241030947
:404C80008B4201D30B01C01A5241C3088B4201D3CB00C01A524183088B4201D38B00C01A524143088B4201D34B00C01A5241411A00D20146524110467047FFE701B500209E
:404CC00000F0FCF802BDC0460029F7D003B5FFF775FF0EBC4243891A1847C04603460B437FD4002243088B4274D303098B425FD3030A8B4244D3030B8B4228D3030C8B4289
:404D00000DD3FF22090212BA030C8B4202D31212090265D0030B8B4219D300E0090AC30B8B4201D3CB03C01A5241830B8B4201D38B03C01A5241430B8B4201D34B03C01AE1
:404D40005241030B8B4201D30B03C01A5241C30A8B4201D3CB02C01A5241830A8B4201D38B02C01A5241430A8B4201D34B02C01A5241030A8B4201D30B02C01A5241CDD237
:404D8000C3098B4201D3CB01C01A524183098B4201D38B01C01A524143098B4201D34B01C01A524103098B4201D30B01C01A5241C3088B4201D3CB00C01A524183088B425F
:404DC00001D38B00C01A524143088B4201D34B00C01A5241411A00D201465241104670475DE0CA0F00D04942031000D34042534000229C4603098B422DD3030A8B4212D327
:404E0000FC22890112BA030A8B420CD3890192118B4208D3890192118B4204D389013AD0921100E08909C3098B4201D3CB01C01A524183098B4201D38B01C01A52414309DE
:404E40008B4201D34B01C01A524103098B4201D30B01C01A5241C3088B4201D3CB00C01A524183088B4201D38B00C01A5241D9D243088B4201D34B00C01A5241411A00D26E
:404E80000146634652415B10104601D34042002B00D54942704763465B1000D3404201B5002000F00BF802BD0029F8D003B5FFF715FF0EBC4243891A1847C0467047C0465E
:404EC00008B500210A2200F007F908BD014B18687047C0460C1100200E4B70B500251E1C0D4CE41AA410A54204D0AB00F35898470135F8E713F0DAFC084B00251E1C084CC1
:404F0000E41AA410A54204D0AB00F35898470135F8E770BDB8880100B8880100B8880100C088010030B50024944208D0035D651C0C5DA34201D0181B02E02C1CF4E70020D2
:404F400030BD002310B5934203D0CC5CC4540133F9E710BD031C8218934202D019700133FAE770470EB410B59DB002A9029008610B48822488604861012040421FABC88124
:404F8000084804CBA400006801938C8100F026F90023029A13701DB010BC08BC03B01847FFFFFF7F0C1100200023C25C0133002AFBD1581E70470000F0B51E1C444B87B06F
:404FC0001B68059002930B1C039101921C78029A5D1C121950780822104001D02B1CF5E72D2C04D19D1C5C780123009304E000902B2C01D15C789D1C002E02D0102E0AD1F7
:4050000060E0302C5CD120222B789343582B52D110266C780235009F311C7B1E9F412D4BFF18381CFFF750FE381C0491311CFFF7C5FD0022071C131C02990919497848073A
:4050400001D5303C07E00320084017D03721012800D02031641AB44210DA511C0BD0BB4207D802D1049A944203DC73430122E31801E0012252422C780135DDE7181C511CC0
:405080000BD10098059A431E9841124BC01822231360019B002B0AD117E00099002900D05842019B002B10D0039B002A00D06B1E019A136009E03024002EACD10826AAE774
:4050C0000A26A8E7302CA6D19DE707B0F0BDC04610110020FFFFFF7F38B5051C0C1C131C034A291C1068221CFFF766FF38BDC0460C110020021C10B51378002B0BD0064970
:405100000968C9184C7803212140022900D1203B13700132F0E710BD10110020F0B58E6885B0071C0C1C03920193B34245D390238A89DB001A423DD00325096923680198C9
:405140005B1A029363695D43EB0F5D19029B6D1001331B189D4200D21D1C381C53050FD5291C00F01DFB061E13D0029A2169FFF7E8FEA289184B134080221343A38111E00A
:405180002A1C00F065FB061E0CD1381C216900F0C1FA0C23402201203B60A38940421343A38117E0029B2661F61826606561019EED1AA560019BB34200D2019E321C206862
:4051C000039900F092FA0020A3689B1BA36023689E19266005B0F0BD7FFBFFFFF0B59FB0029005938B890E1C171C1B0610D50B69002B0DD1402100F0D3FA30603061002898
:4052000004D10C23029A01381360D0E040237361002306AD6B6120336B761033AB763C1C2378002B03D1E31B049312D003E0252BF9D00134F4E7049B0298311C3A1CFFF7BA
:405240006DFF431C00D1ACE06A69049B944663446B612378002B00D1A3E00122002352426A6002A95432521801342B60EB60AB601370AB654F4F2178381C052200F02AFA7F
:40528000002808D0C01B01278740381C2B68013418432860EEE72B68DA0604D55322202102A8121811701A0704D553222B2102A81218117022782A2A01D0099B0EE0059AF9
:4052C000111D12680591002A01DB099204E05242EA60022213432B60013409E02278303A092A04D80A214B4301349B18F6E7099323782E2B18D163782A2B09D1059B023400
:405300001A1D1B680592002B0DDA01235B420AE0002301342278303A092A04D80A214B4301349B18F6E70793234F2178381C032200F0D0F9002807D0C01B40278740381C43
:405340002B6801341843286021781C480622671C297600F0BFF9002812D0194B002B06D10722059B073393430833059314E005AB00930298291C321C124B00E000BF07E030
:4053800005AB00930298291C321C0E4B00F08AF80390039B013304D06B69039A9B186B613DE7B3890B985B0601D5012040421FB0F0BDC046778801007D880100818801001A
:4053C000000000001D510000F7B5171C01930A698B6800900C1C934200DA131C221C3B6043321278002A01D001333B6023689B0602D53B6802333B60062523681D401ED0B7
:40540000231C43331B785A1E9341226892061CD53020E1184031C870211C5A1C45310978A21840320233D1700FE0221C0123009801991932089EB047431C0ED00135E3685E
:405440003A689B1A9D42F0DBDAE7221C009801994332089DA847431C02D10120404220E006232068E1683A6803400025042B03D18D1AEB43DB171D40A3682269934201DDA8
:405480009B1AED180027AF420ADA221C0123009801991A32089EB047431CDED00137F2E70020FEBDF0B58BB006920A1C43320793059004920A7E0C1C109B6E2A00D1A8E09C
:4054C00011D8632A22D009D8002A00D1B2E0582A00D0C2E045310A707C4A4FE0642A1DD0692A1BD0B9E0732A00D1A7E009D86F2A29D0702A00D0B0E0202209680A43226087
:4055000037E0752A1FD0782A33D0A6E00E1C1A684236111D196013683370A1E021681A68080606D4490604D5111D19600023D55E02E0111D19601568002D3BDA2D23049AE3
:405540006D42137036E021681A68080606D4490604D51568111D1960ADB202E0111D196015685A4B227E03930A276F2A1DD108271BE0221C782145321170554A19680392FE
:40558000081D226818600D68100602D4500600D5ADB2D30702D520231A4322601027002D03D1202322689A432260231C002243331A7002E00A27454B03936368A360002B0F
:4055C00003DB0422216891432160002D02D1049E002B0ED0049E281C391CFFF775FB039B013E5B5C281C3370391CFFF7E7FA051EF1D1082F09D12368DB0706D56368226942
:40560000934202DC3023013E3370049B9B1B23612BE009681A68080607D4490605D5111D19601368A28A1A8004E0111D1960136862691A600023049E236116E01A68111D77
:40564000196016680021301C626800F043F8002801D0801B6060636803E0261C42363270012323610023049A1370079B05980093211C069B09AAFFF7A7FE431C02D1012036
:40568000404221E0236905980699321C079DA847431CF4D023689B0705D4099BE068984212DA181C10E00025E368099A9B1A9D42F3DA221C0123059806991932079EB047C6
:4056C000431CDCD00135EFE70BB0F0BD8888010099880100C9B28218904204D003788B4202D00130F8E70020704710B5814208D28B18984205D29B1A013A09D3995C8154F0
:40570000FAE70023934203D0CC5CC4540133F9E710BD000030B500293ED004390B68002B00DAC9181D4A1368141C002B02D14B60116031E099420DD208680A189A4203D1B1
:405740001368C3180B6053684B60216024E08A4203D8131C5A68002AF9D11D685C198C420BD10968691858181960904214D110685268091819605A600EE08C4202D90C236F
:40578000036009E008680C18944203D114685268001908604A60596030BDC04684220020032370B5CC1C9C430834051C0C2C01D20C2405E0002C03DA0C2300202B6042E0F8
:4057C0008C42F9D3204A1368101C191C002913D00A68121B0DD40B2A02D90A608B181FE08B4202D15A6802601BE04A685A600B1C17E00B1C4968E9E7144E3368002B03D134
:40580000281C00F04BF83060281C211C00F046F8031C421CD0D00322C61C964386420AD11C60181C07210B301A1D8843821A0AD05142995007E0311A281C00F02FF8431C1F
:40584000BAD0331CECE770BD8422002080220020F8B5061C0C1C151C002904D1111CFFF79FFF041C18E0002A03D1FFF753FF2C1C12E000F025F8A8420ED2301C291CFFF7EA
:405880008FFF071E07D0211C2A1CFFF75AFB301C211CFFF73FFF3C1C201CF8BD38B50023064C051C081C2360FDF776FC431C03D12368002B00D02B6038BDC046D0220020A9
:4058C0000B1F1A68101F002A04DA891804390B68D018043870470000134A1088810703D08107890F401A001D11791030484381B25088820703D08207920F801A001D800095
:4059000040180A494030098980B2CA0701D0503080B2890706D504495422091F09785143081880B2704700008E0D0020A811002010B501F0D5FF10BD10B501F0E7FF10BD6C
:4059400010B500F06FFA10BD10B50749044609780220002907D1204602F046F8002802D120460AF0C3FD10BD2C0F002010B507F02DFE01F0CBFF02F021F8084C207800289F
:4059800001D000F059FA00F06DFAFF2001F0DAF9FF2001F0E7F90020207010BD880D002070B504460120002C12D02368002B0FD0616800290CD0074D06222889208118464A
:4059C0002968FFF7BEFA6968606809780170002070BD0000A8110020FFB585B0002768460E9D07734F481C460078002802D0082009B0F0BD10990F9801900095029105A825
:405A000007C800F001F90028F2D16946264603AB84460873002C19D0002115E08A00B75A082F09D990198078002805D0083FB7521878401C187005E0002914D00027B75251
:405A400090198770491CC9B2A942E7D360460028CED10F98002809D0109901F0EFFA002804D00120C4E701208446EFE701F04EFF2D480021416081600599016021888180E1
:405A8000022D07D3A1798171A17AC171A1890181218A418100211EE0481C19E082008B00A75AE65ABE46BE4211D26F463E80B4461E190296B678BE7001967646E652171967
:405AC000029EBB78B3706646A652019EBE70401CA842E3D3491CA942DED3134822460C3000906846037B0799069800F015F90028B8D168460B4C007B60700B480C3001F0CA
:405B000035FF0028AED1084907480C3107F040FD0028A7D107F062FD0028A3D10121217066E70000880D00209C110020F8B5054633480E460078002802D002242046F8BDEB
:405B4000002E5BD000242F49002D16D02A89D0070DD02868002808D003881B3BE12B04D24088FB2801D81B2801D2012409E0900707D56868002804D1F7E70020088108604C
:405B80004860002CDAD11F482F8907811C481B21801D018041800421017119490020891C0870F80705D016480622801D2968FFF7C8F91449B80703D56A6811481278827030
:405BC0000F480D46801D0860001F486001F032FF0B48801D01F020FF28890DF0FFFD28890DF078FF03461033FFF776FE1F21C018890140180249308088809FE701249DE71C
:405C0000880D0020A8110020FFB58446384F1C460020BB883F78054602460646002F11D100290ED0029999420BD36146002908D0002C06D00A99002906D02E4B0B999942C6
:405C400002D2012004B0F0BD002144E0AB001F19BF78002F3BD0E35A002B38D07B43591889B22B0000F04AF8050410161C253100A7782388BC46FF27233BEB37BB4222D2FA
:405C80006346032B1FD322E0A388002B1FD0302B19D31CE02389002B19D0282B13D316E0A289002A13D01346134F233BBB420AD20DE0268A002A0AD033460F4F233BBB42A5
:405CC00001D2964203D901200EE0002001E000280AD16D1CEDB2099B9D42B7D31C2463435B1802998B42ACD89642AAD8AAE70000880D002079020000BAFF000030B474461E
:405D0000641E2578641CAB4200D21D46635D5B00E31830BC18470000FFB583B0002469460C801F4606468C80002806D00598002803D004983043800701D0012466E0002FA7
:405D4000FBD03449049809888842F6D3FEF7CCFEFEF7BAFE00F06AFC002855D100F0D4FD002851D12C49084601F09CF905042D0C4AD12A480499066081800021C1800781FA
:405D80000C98007AC00704D0684601F0D8FD040007D10C98007A800703D501A801F0D8FD0446BF1DFEB2002C20D13146059800F085F804001AD10DF09BFE040016D16A465A
:405DC0001088928808368518144AF1B29088D288AEB29319984207D3401B801A80B201F053FC050007D000E0FF25012400F0B6FA002D04D008E0F8B200F044F9F6E700F04A
:405E0000D9FA07490120087000F022FC204607B0F0BD00008C0D0020A95F0000B4110020940D002010B503480078012801D101F0CDFA10BD940D002010B500F003FE0028C0
:405E400003D100F009FC002801D0FF2010BD0448007A801DC0B200F02DF9002010BD0000B411002010B500F009FE01F04DF90449002008608880C88008810249087010BD86
:405E8000B4110020940D002070B5084B0446DA889E8800205518B54206D81D68AA182260DA885118D98070BD032070BDB41100200148008970470000B4110020F0B587B0F7
:405EC00007460D4600208900009006916846FFF7DBFF844600285DD1304800990160002117E02E4B88001A680629115406D22C4C0419667882185670628805E0C419203C40
:405F0000A67A8218567022891B68C018491C4280C9B2A942E5D300242DE0601CC2B2059025E01E4FA30039689600581840887118039604904E88B04217D938466F46FE803D
:405F4000B6464F786E4677710297049F4F800168039F5E18767879184E700168764659184E800068029F18184770521CD2B2AA42D7D30598C4B2AC42CFD36046002809D1D2
:405F800068460699FFF780FF8446002802D1054900980860604607B0F0BD0000980D0020E08801009C0D00207047000010B5002809D005494A68002A05D0011F087880006F
:405FC000105801F00FFB10BD980D002010B50446FFF76EFFC0B2801DA0420CD307484068002808D0A100405801F06EFA002801D00470001D10BD002010BD0000980D0020D8
:40600000F8B516460D460446FFF752FFC0B2801DA04203D20020C0430090F8BDB2B2E9B2684601F077FA0099481C03D0024AA000526811500098F8BD980D0020F8B5074653
:40604000FFF736FF801DC6B20A49002005460C680DE06178002907D06188B94202D32078FFF7B4FF002804D1241D6D1CEDB2B542EFD3F8BD980D002010B5002801D0FFF7A1
:4060800095FF10BD70B506460948002504680BE06178002905D062882078121D0023FFF7AFFF241D6D1CEDB2B542F1D370BD0000980D0020F8B5084F064600243D6808E0DB
:4060C000287879688000085801F038FB2D1D641CE4B2B442F4D3F8BD980D0020FFB581B00A9F16000C4620D000F0F2F8054604281BD0002F0CD03846FFF7A0FF20492A01B0
:4061000051184860002810D03A460499FEF719FF1B4928010E504618778101980570200406D47D20C000444304E0FF2005B0F0BD6404640C00F0BAF80746042807D000F0CC
:406140006BFAA0420BD800F067FA201A03E0204600F0C8FA0020F06035720020E6E700F05BFA009000F0D4FA00980121001B009000F008F902493A0151180098C860E6E706
:40618000C0110020F8B5060116483418217A042903D0E068002802D017E00020F8BD00F03BFA054600F0B4FA00F0A0F804280CD001010C480F18F8680021451900F0E2F823
:4061C0000020F860284600F08DFA6068054D002801D0FFF751FF042020720020A8516081E060DAE7C0110020FEB500266A46304601232549050169180D7A042D02D0C96874
:4062000000291BD000211154401CC0B20428F0D300246846005D002830D01B48210108184189476805680291002101604160042241810272C160002E02D015E01354E3E7CC
:4062400000F054F804280ED001010F4808180190C6680021304600F095F801980021C160304600F03FFA0126002D07D038460299A847002F02D03846FFF7FEFE641CE4B258
:40628000042CC6D3FEBD0000C01100200EB5002005216A460090118150810348694600680EF0B7FA0EBD0000A00D0020074A0020010189180B7A042B02D0C968002903D04D
:4062C000401CC0B20428F3D370470000C01100200549002002015218127A042A03D0401CC0B20428F6D37047C011002030B50A4B04200A4C00210A011219157A042D06D0C2
:40630000D268002A03D09A4201D808461346491CC9B20429EFD330BDFFFF0000C011002070470000F8B500250B4F2E462801C419217A04290AD0042121723E5060680028EA
:4063400002D0FFF799FE66606681E6606D1CEDB2042DEBD3F8BD0000C011002030B50020074C05460423020111190B72A5504D60401C4D81C0B2CD600428F4D330BD00004F
:40638000C011002030B5094C00231A011219157A042D04D0D568002906D02D18D5605B1CDBB2042BF1D330BD2D1AF7E7C0110020002070471CB5002469460C701420019049
:4063C0002346054A05480EF029FA04480068401C00D1FF2420461CBD31640000A00D00203EB5124A0146FF2000230124126800290DD0012914D0042908D1042069460093DB
:4064000008814B8110460EF004FA80B23EBD6846009304814381694610460EF0F5F9F4E768460093048143816946EBE7A00D002070B545890468416800890300FFF75EFC76
:4064400008280509091E22282628002005F062FF1EE0022908D0C8B22A4621460CF006FB2046FFF709FE13E002202A4621460CF0FDFA2946204600F00DF809E000200DF048
:40648000BFFE05E02046FFF7AFFE01E0FEF74EFB002070BD014B0022DB681847A40D002070B5448905680089022803D0032809D0FF2070BD2246094C0023A4682946012033
:4064C000A04708E0FFF738FA241DA2B200232946022006F010FF002070BD0000A40D002070477047024800214160018041807047A40D002070B50C46002186B01646039137
:40650000012802D0022859D116E003A9012006F047FF01281BD1039D324621462846FEF710FD0095287801900220694608814E816846FFF7B5FF41E0214D002B686809D05F
:40654000049004A9022006F02BFF01281DD0022006B070BD002812D0298840182146FEF7F0FC28880024801980B228806988091D884206D12C801348FFF792FF03E003208F
:40658000E6E788421AD96C6018E004986860E278A378110219430B4A698000231060E3565360032313815181A1788170E178C1706178417021780170042028800020C7E73A
:4065C000A40D0020001200203EB515460C46022803D004280CD000203EBD0091019002206946088107484A8100680EF012F907E00CF03CFA044B0022DB6829462046984750
:4066000001203EBDA00D0020A40D0020014AD16090607047A40D0020034801688068081A0A214843000970470C12002010B5FEF74FFA482204490548FEF783FC0349012052
:40664000C870002010BD0000FC8801001016002010B5FEF735FA10BD0020704770B5134C2368002B08D0207B1149C20705D04008400020738868A08070BD88680B4AA18832
:4066800080B29268814203D90A4D691A091802E0814202D2411A5118A160A080A0689842EAD30EF0D3F800F013F870BD0C120020C0102E40FFFF000010B508461946FFF744
:4066C000A5FF10BD704710B5FFF77EFF10BD000003480021016041608160C160704700000C120020024610B5FF20002A0CD0FFF7EFFF064C0321207B0843207310010A21C7
:40670000FEF7E2FA2060002010BD00000C12002000B504480A21806848430209FFF7D8FF104600BD0C1200200248007B8007C00F704700000C12002010B54B490868002814
:4067400002DA4A4B01221A70022290430860484800694549C00B4031096A0246C907C90F0A4259D0012000F0EDFA3F480E216C30FEF702F93E4820218430FEF7FDF83C48DE
:4067800014219C30FEF7F8F83948FF21C131A430FEF7F2F83648FF212F31B030FEF7ECF833483449BC30FEF7E7F831483249AC30FEF7E2F830492E48491CB430FEF7DCF89E
:4067C0002B482E49B830FEF7D7F829482C49CC30FEF7D2F826482B490830FEF7CDF824482949A830FEF7C8F8214828498830FEF7C3F81F4826498C30FEF7BEF81C48192106
:40680000C9029030FEF7B8F8FEF7B8F8FEF774F9C0B2022812D01FE000290BD0002101420AD0114801216030FEF7A6F80120FEF743F997E70121F2E7FF2010BD1549164851
:40684000FEF79AF814481549001DFEF795F8124800210830FEF790F854200449C043891C0870002010BD000000F02E40B40D002000002E40320300002F3F000031020000B7
:4068800010520000EC160000FA12000031D000003AE300009956000080012E40F80F000070B50646581C80B245086D00002408E0304600F0C1F81055000A1119A41C487058
:4068C000A4B2AC42F4D3D80705D0D0182038D15CC47FD454C17770BD30B50A4C002100195B1E07E0541864782502545C2C430480891C89B29942F5DB994201D1515C01804F
:4069000030BD000000102E4010B5FF2000F01AFA0F49FF2048700E481021801D41800121417001700A490020C91C4870FFF704FF04000AD100F02EF907210648FEF71AF830
:40694000044807211830FEF715F8204610BD0000B40D0020CC112E4070B5002405465B1E0AE0284600F068F8010A161971702D1D1055A41CADB2A4B29C42F2DB9C4203D1A9
:40698000284600F059F8105570BD000070B500210A4D5B1E0AE0541864782602545C344346193480001D891C80B289B29942F2DB994202D1515C4019018070BD00102E4035
:4069C000F0B50599091FCFB200217E1E0BE0541864782502545C2C43164D45192C80001D891C80B289B2B142F1DBFC0712D01C78515C24020F4A0C4381180C809C785D7818
:406A0000001D210280B2294384182180001D80B2D9780CE059781A7809021143054A84182180001DD9789B78090280B2194380180180F0BD00102E40014940180088704722
:406A400000102E4010B50B490020487000F0A2F8002000F09DF9002000F08AF907210648FDF788FF044807211830FDF783FF002010BD0000B70D0020CC112E4010B50C488C
:406A8000007801280FD100F091FF00F0DDF8002804D10848016A490849000162054802213030FDF769FF02490020C91E087010BDB70D002040F02E4010B50B46062812D0F0
:406AC00006DC01280CD0032801D1FFF7BBFF10BD0A28FCD00B28FAD105480078107010BDFFF712FF10BD1146184600F06DF910BDBA0D0020F8B5244DAC6A0127A007234E20
:406B0000002816DA307806280ED1286A384328621F480069F903084381B21D481030FDF72BFF042000F00EF9174802212830FDF721FFE00718D000F0DBFF01280FD1002019
:406B400001F028F8062000F0FDF81049FF20C91E48707078002802D1686B384368630A4801212830FDF706FFE0050BD53078042802D1052000F0E6F80348FF2101312830CD
:406B8000FDF7F8FEF8BD000040F02E40B70D002000002E4010B503212348FDF7EDFE0120FDF786FF20483038406A204C80076178800F890001431C480C38FDF7DDFE607888
:406BC000002808D0401E022181401820FEF76CF9C000083800E0B82081B21548FDF7CCFE1348032109021438FDF7C6FE10481149B830FDF7C1FE612189010F48FDF7BCFECF
:406C00000D480321001FFDF7B7FE0C490C48FDF7B3FE0B480B496038FDF7AEFE084801218838FDF7A9FE10BD70F02E40BA0D0020D8102E4090890000041E2E40FF0F00008A
:406C400058122E4020900000044800684007400F022801D0002070470120704700010B4000B5FFF7F1FF002805D009480168C908C900016000BD0748016A4908490001628B
:406C8000054801690122D2039143016100BD000000010B4040F02E4000002E400849087806280BD148780749002803D1486B400840004863C86A01221043C8627047000084
:406CC000B70D002040F02E400148007870470000B70D002002484078022800D001207047B40D002000B50300FFF708F8080D050D0B070507090D012000BD032000BD042016
:406D000000BD022000BDFF2000BD0000074A9168D26889B2064B92B2994204D105498A4201D1012100E000210170704780002E4033D000003FE300000149487070470000D4
:406D4000B70D002010B50446FDF7BEFE072C01D9FF2C01D102480470FDF7B2FE10BD0000B70D00200149487070470000B40D002010B5064A012805D01921C9021046FDF757
:406D8000FBFD10BD1D21C902F8E7000090002E4010B50A4A141D012808D009491046FDF7EBFD08492046FDF7E7FD10BD04491046891CFDF7E1FD0349491DF3E788002E4061
:406DC00031D000003AE3000070B50C460546FDF793FEC0B202280E49287804D0FF2810D04C280CD810E0FF2809D10A4AD0680004800F032801D0087807E09069000A553865
:406E000003E00878207070BD4F382070087070BDB60D002000002E40F0B50122002834D0002932D00424420600D00524792342065B06D21800D0641C034600221EE00C2584
:406E400016466E43124D00277519AF72104F002ABB51696007D0661EB24209D10D4E86197606760E05E05E06760E8027BE1B00E080269B198919521C2E81D2B2A242DED3F0
:406E800003480549006B002288611046F0BD00009814002079020000C00D002018B50020694608700A48006900280ED0132149014018047E684604704F21C900054800F0C7
:406EC00059F8A04201D0012018BD002018BD0000C00D00201C120020074900200C2242435218927A012A05D0401CC0B20628F5D3002070470120704798140020F8B50E00D5
:406F00000446154609D0194F19497868A04202D94018A04201D38D4201D90120F8BD31462046FDF7FFFF00281ED02A4631462046FEF707F8E8B200210C224A43D2191389BC
:406F40005568EE18A6420BD90126641B1B1B9672834209DA1469C01A044AC0B220329676491CC9B20629E7D30020F8BD9814002079020000034610B50020024604E09C5C4A
:406F80002018521CC0B292B28A42F8D310BD000070B500F063F8084C064A216907480D46FDF7CFFF05492846FFF736FFFFF776FF207070BD79020000C00D00201C1200204A
:406FC00010B500F04BF810BD002070470020054A002902D0012902D002E0906000E0D06000207047C00D002070B5084C154608460549E26889182A46FDF7A3FFE0684019E7
:40700000E06028B270BD00001C120020C00D00203EB50A226946FFF7E7FF044606480A2200686946FDF77EFF002802D00020C0433EBD20463EBD0000C40D0020002802D074
:40704000044A914201D2FF20704703494A6108610020704779020000C00D0020024800218160C16070470000C00D002070B5074C15460548A26880182A46FFF73FFFA06828
:407080004019A06028B270BD1C120020C00D002010B503490A220968FFF7E8FF10BD0000C40D002010B50F4A002313600E4A13600E4B18600E4801600E49012008600E49AE
:4070C0000860000290600E490C4808600D4914300860FF381538506000F0BEF800F0CCF9002010BDF40D0020DC0D0020080E00200C0E0020F80D0020E80D0020E0150020BC
:40710000EC0D0020000E002000207047014610B50020002910D0094B1A689C685118A14209D25868196080188A0704D08A07920F891A091D196010BD002010BDDC0D00208E
:40714000F8B50024164E671E321F3D463168136806E01422624310328A58521C1BD0641C9C42F6D36A1C14D02C461422544322460C3288500C214843FFF7C8FF31680028AB
:4071800008510AD031680020103408517068401C70602846F8BD2546E4E73846F8BD0000EC0D0020F3B50026F64381B000281BDB1E490968884217D80299002914D01B4FA4
:4071C000142204463F1D54432546396810354859401C09D0FDF778FC38682F1F4159C359994203DBFDF76CFC3046FEBD214608310091465801590C20704308180C220299B2
:40720000FDF79FFE0948761C001D0068C159B14200D100260549009A091D865008684159491C4151FDF74CFC0020FEBDE80D0020002803DB07490968884202D90020C043B1
